###############################################################################
#
# IAR C/C++ Compiler V10.20.1.5333 for 8051               04/Jun/2018  16:34:32
# Copyright 2004-2018 IAR Systems AB.
# PC-locked license - IAR Embedded Workbench for 8051
#
#    Core               =  plain
#    Code model         =  banked
#    Data model         =  large
#    Calling convention =  xdata reentrant
#    Constant location  =  data_rom
#    Dptr setup         =  1,16
#                          
#    Source file        =  
#        C:\Texas Instruments\Z-Stack 3.0.1\Components\stack\bdb\bdb.c
#    Command line       =  
#        -f C:\Users\yao\AppData\Local\Temp\EWE43F.tmp ("C:\Texas
#        Instruments\Z-Stack 3.0.1\Components\stack\bdb\bdb.c" -D BDB_REPORTING
#        -D SECURE=1 -D TC_LINKKEY_JOIN -D NV_INIT -D NV_RESTORE -D
#        NWK_AUTO_POLL -D xZTOOL_P1 -D xMT_TASK -D xMT_APP_FUNC -D xMT_SYS_FUNC
#        -D xMT_ZDO_FUNC -D xMT_ZDO_MGMT -D xMT_APP_CNF_FUNC -D
#        LCD_SUPPORTED=DEBUG -D MULTICAST_ENABLED=FALSE -D ZCL_READ -D
#        ZCL_DISCOVER -D ZCL_WRITE -D ZCL_BASIC -D ZCL_IDENTIFY -D ZCL_ON_OFF
#        -D ZCL_GROUPS -D ZCL_LEVEL_CTRL -D ZCL_SCENES -lC "C:\Texas
#        Instruments\Z-Stack
#        3.0.1\Projects\zstack\HomeAutomation\SampleLight\CC2530DB\EndDeviceEB\List"
#        -lA "C:\Texas Instruments\Z-Stack
#        3.0.1\Projects\zstack\HomeAutomation\SampleLight\CC2530DB\EndDeviceEB\List"
#        --diag_suppress Pe001,Pa010 -o "C:\Texas Instruments\Z-Stack
#        3.0.1\Projects\zstack\HomeAutomation\SampleLight\CC2530DB\EndDeviceEB\Obj"
#        -e --debug --core=plain --dptr=16,1 --data_model=large
#        --code_model=banked --calling_convention=xdata_reentrant
#        --place_constants=data_rom --nr_virtual_regs 16 -f "C:\Texas
#        Instruments\Z-Stack
#        3.0.1\Projects\zstack\HomeAutomation\SampleLight\CC2530DB\..\..\..\Tools\CC2530DB\f8wEndev.cfg"
#        (-DCPU32MHZ -DROOT=__near_func -DMAC_CFG_TX_DATA_MAX=3
#        -DMAC_CFG_TX_MAX=6 -DMAC_CFG_RX_MAX=3) -f "C:\Texas
#        Instruments\Z-Stack
#        3.0.1\Projects\zstack\HomeAutomation\SampleLight\CC2530DB\..\..\..\Tools\CC2530DB\f8wConfig.cfg"
#        (-DZIGBEEPRO -DSECURE=1 -DZG_SECURE_DYNAMIC=0 -DREFLECTOR
#        -DDEFAULT_CHANLIST=0x00000800 -DZDAPP_CONFIG_PAN_ID=0x1234
#        -DNWK_START_DELAY=100 -DEXTENDED_JOINING_RANDOM_MASK=0x007F
#        -DBEACON_REQUEST_DELAY=100 -DBEACON_REQ_DELAY_MASK=0x00FF
#        -DLINK_STATUS_JITTER_MASK=0x007F -DROUTE_EXPIRY_TIME=30
#        -DAPSC_ACK_WAIT_DURATION_POLLED=3000 -DNWK_INDIRECT_MSG_TIMEOUT=7
#        -DMAX_RREQ_ENTRIES=8 -DAPSC_MAX_FRAME_RETRIES=3
#        -DNWK_MAX_DATA_RETRIES=2 -DMAX_POLL_FAILURE_RETRIES=2 -DMAX_BCAST=9
#        -DAPS_MAX_GROUPS=16 -DMAX_RTG_ENTRIES=40 -DNWK_MAX_BINDING_ENTRIES=4
#        -DMAX_BINDING_CLUSTER_IDS=4 -DDEFAULT_KEY={0} -DMAC_MAX_FRAME_SIZE=116
#        -DZDNWKMGR_MIN_TRANSMISSIONS=20 "-DCONST=const __code"
#        -DGENERIC=__generic -DRFD_RCVC_ALWAYS_ON=TRUE -DPOLL_RATE=1000
#        -DQUEUED_POLL_RATE=100 -DRESPONSE_POLL_RATE=100 -DREJOIN_POLL_RATE=440
#        -DREJOIN_BACKOFF=900000 -DREJOIN_SCAN=900000 -DENABLE_LED4_DISABLE_S1)
#        -f "C:\Texas Instruments\Z-Stack
#        3.0.1\Projects\zstack\HomeAutomation\SampleLight\CC2530DB\..\..\..\Tools\CC2530DB\f8wZCL.cfg"
#        -I "C:\Texas Instruments\Z-Stack
#        3.0.1\Projects\zstack\HomeAutomation\SampleLight\CC2530DB\" -I
#        "C:\Texas Instruments\Z-Stack
#        3.0.1\Projects\zstack\HomeAutomation\SampleLight\CC2530DB\..\Source\"
#        -I "C:\Texas Instruments\Z-Stack
#        3.0.1\Projects\zstack\HomeAutomation\SampleLight\CC2530DB\..\..\Source\"
#        -I "C:\Texas Instruments\Z-Stack
#        3.0.1\Projects\zstack\HomeAutomation\SampleLight\CC2530DB\..\..\..\ZMain\TI2530DB\"
#        -I "C:\Texas Instruments\Z-Stack
#        3.0.1\Projects\zstack\HomeAutomation\SampleLight\CC2530DB\..\..\..\..\..\Components\hal\include\"
#        -I "C:\Texas Instruments\Z-Stack
#        3.0.1\Projects\zstack\HomeAutomation\SampleLight\CC2530DB\..\..\..\..\..\Components\hal\target\CC2530EB\"
#        -I "C:\Texas Instruments\Z-Stack
#        3.0.1\Projects\zstack\HomeAutomation\SampleLight\CC2530DB\..\..\..\..\..\Components\mac\include\"
#        -I "C:\Texas Instruments\Z-Stack
#        3.0.1\Projects\zstack\HomeAutomation\SampleLight\CC2530DB\..\..\..\..\..\Components\mac\high_level\"
#        -I "C:\Texas Instruments\Z-Stack
#        3.0.1\Projects\zstack\HomeAutomation\SampleLight\CC2530DB\..\..\..\..\..\Components\mac\low_level\srf04\"
#        -I "C:\Texas Instruments\Z-Stack
#        3.0.1\Projects\zstack\HomeAutomation\SampleLight\CC2530DB\..\..\..\..\..\Components\mac\low_level\srf04\single_chip\"
#        -I "C:\Texas Instruments\Z-Stack
#        3.0.1\Projects\zstack\HomeAutomation\SampleLight\CC2530DB\..\..\..\..\..\Components\mt\"
#        -I "C:\Texas Instruments\Z-Stack
#        3.0.1\Projects\zstack\HomeAutomation\SampleLight\CC2530DB\..\..\..\..\..\Components\osal\include\"
#        -I "C:\Texas Instruments\Z-Stack
#        3.0.1\Projects\zstack\HomeAutomation\SampleLight\CC2530DB\..\..\..\..\..\Components\services\saddr\"
#        -I "C:\Texas Instruments\Z-Stack
#        3.0.1\Projects\zstack\HomeAutomation\SampleLight\CC2530DB\..\..\..\..\..\Components\services\sdata\"
#        -I "C:\Texas Instruments\Z-Stack
#        3.0.1\Projects\zstack\HomeAutomation\SampleLight\CC2530DB\..\..\..\..\..\Components\stack\af\"
#        -I "C:\Texas Instruments\Z-Stack
#        3.0.1\Projects\zstack\HomeAutomation\SampleLight\CC2530DB\..\..\..\..\..\Components\stack\bdb\"
#        -I "C:\Texas Instruments\Z-Stack
#        3.0.1\Projects\zstack\HomeAutomation\SampleLight\CC2530DB\..\..\..\..\..\Components\stack\gp\"
#        -I "C:\Texas Instruments\Z-Stack
#        3.0.1\Projects\zstack\HomeAutomation\SampleLight\CC2530DB\..\..\..\..\..\Components\stack\nwk\"
#        -I "C:\Texas Instruments\Z-Stack
#        3.0.1\Projects\zstack\HomeAutomation\SampleLight\CC2530DB\..\..\..\..\..\Components\stack\sapi\"
#        -I "C:\Texas Instruments\Z-Stack
#        3.0.1\Projects\zstack\HomeAutomation\SampleLight\CC2530DB\..\..\..\..\..\Components\stack\sec\"
#        -I "C:\Texas Instruments\Z-Stack
#        3.0.1\Projects\zstack\HomeAutomation\SampleLight\CC2530DB\..\..\..\..\..\Components\stack\sys\"
#        -I "C:\Texas Instruments\Z-Stack
#        3.0.1\Projects\zstack\HomeAutomation\SampleLight\CC2530DB\..\..\..\..\..\Components\stack\zcl\"
#        -I "C:\Texas Instruments\Z-Stack
#        3.0.1\Projects\zstack\HomeAutomation\SampleLight\CC2530DB\..\..\..\..\..\Components\stack\zdo\"
#        -I "C:\Texas Instruments\Z-Stack
#        3.0.1\Projects\zstack\HomeAutomation\SampleLight\CC2530DB\..\..\..\..\..\Components\zmac\"
#        -I "C:\Texas Instruments\Z-Stack
#        3.0.1\Projects\zstack\HomeAutomation\SampleLight\CC2530DB\..\..\..\..\..\Components\zmac\f8w\"
#        -Ohz --require_prototypes)
#    Locale             =  Chinese (Simplified)_CHN.936
#    List file          =  
#        C:\Texas Instruments\Z-Stack
#        3.0.1\Projects\zstack\HomeAutomation\SampleLight\CC2530DB\EndDeviceEB\List\bdb.lst
#    Object file        =  
#        C:\Texas Instruments\Z-Stack
#        3.0.1\Projects\zstack\HomeAutomation\SampleLight\CC2530DB\EndDeviceEB\Obj\bdb.r51
#
###############################################################################

C:\Texas Instruments\Z-Stack 3.0.1\Components\stack\bdb\bdb.c
      1          /**************************************************************************************************
      2            Filename:       bdb.c
      3            Revised:        $Date: 2016-02-25 11:51:49 -0700 (Thu, 25 Feb 2016) $
      4            Revision:       $Revision: - $
      5          
      6            Description:    This file contains the Base Device Behavior functions and attributes.
      7          
      8          
      9            Copyright 2006-2015 Texas Instruments Incorporated. All rights reserved.
     10          
     11            IMPORTANT: Your use of this Software is limited to those specific rights
     12            granted under the terms of a software license agreement between the user
     13            who downloaded the software, his/her employer (which must be your employer)
     14            and Texas Instruments Incorporated (the "License").  You may not use this
     15            Software unless you agree to abide by the terms of the License. The License
     16            limits your use, and you acknowledge, that the Software may not be modified,
     17            copied or distributed unless embedded on a Texas Instruments microcontroller
     18            or used solely and exclusively in conjunction with a Texas Instruments radio
     19            frequency transceiver, which is integrated into your product.  Other than for
     20            the foregoing purpose, you may not use, reproduce, copy, prepare derivative
     21            works of, modify, distribute, perform, display or sell this Software and/or
     22            its documentation for any purpose.
     23          
     24            YOU FURTHER ACKNOWLEDGE AND AGREE THAT THE SOFTWARE AND DOCUMENTATION ARE
     25            PROVIDED "AS IS" WITHOUT WARRANTY OF ANY KIND, EITHER EXPRESS OR IMPLIED,
     26            INCLUDING WITHOUT LIMITATION, ANY WARRANTY OF MERCHANTABILITY, TITLE,
     27            NON-INFRINGEMENT AND FITNESS FOR A PARTICULAR PURPOSE. IN NO EVENT SHALL
     28            TEXAS INSTRUMENTS OR ITS LICENSORS BE LIABLE OR OBLIGATED UNDER CONTRACT,
     29            NEGLIGENCE, STRICT LIABILITY, CONTRIBUTION, BREACH OF WARRANTY, OR OTHER
     30            LEGAL EQUITABLE THEORY ANY DIRECT OR INDIRECT DAMAGES OR EXPENSES
     31            INCLUDING BUT NOT LIMITED TO ANY INCIDENTAL, SPECIAL, INDIRECT, PUNITIVE
     32            OR CONSEQUENTIAL DAMAGES, LOST PROFITS OR LOST DATA, COST OF PROCUREMENT
     33            OF SUBSTITUTE GOODS, TECHNOLOGY, SERVICES, OR ANY CLAIMS BY THIRD PARTIES
     34            (INCLUDING BUT NOT LIMITED TO ANY DEFENSE THEREOF), OR OTHER SIMILAR COSTS.
     35          
     36            Should you have any questions regarding your right to use this Software,
     37            contact Texas Instruments Incorporated at www.TI.com.
     38          **************************************************************************************************/
     39          
     40          /*********************************************************************
     41           * INCLUDES
     42           */
     43          
     44          #include "bdb.h"
     45          #include "ZDApp.h"
     46          #include "OSAL.h"
     47          #include "ZDConfig.h"
     48          #include "hal_led.h"
     49          #include "ZDObject.h"
     50          #include "OSAL_Nv.h"
     51          #include "AddrMgr.h"
     52          #include "ZDSecMgr.h"
     53          #include "nwk.h"
     54          #include "nwk_util.h"
     55          #include "ssp_hash.h"
     56          #ifdef BDB_REPORTING
     57          #include "bdb_Reporting.h"
     58          #endif 
     59          
     60          #if !defined (DISABLE_GREENPOWER_BASIC_PROXY) && (ZG_BUILD_RTR_TYPE)
     61          #include "gp_interface.h"
     62          #include "gp_common.h"
     63          #include "dgp_stub.h"
     64          #endif
     65          
     66          #include "bdb_interface.h"
     67          
     68          #if defined ( INTER_PAN ) 
     69          #if defined ( BDB_TL_INITIATOR )  
     70          #include "bdb_touchlink_initiator.h"
     71          #endif
     72          #if defined ( BDB_TL_TARGET )  
     73          #include "bdb_touchlink_target.h"
     74          #endif
     75          #endif
     76             
     77          #if defined ( INTER_PAN ) && ( defined ( BDB_TL_INITIATOR ) || defined ( BDB_TL_TARGET ) )
     78            #include "bdb_touchlink.h"
     79          #endif
     80           
     81          #ifdef MT_APP_CNF_FUNC
     82          #include "MT_APP_CONFIG.h"
     83          #endif
     84             
     85           /*********************************************************************
     86           * MACROS
     87           */
     88          //This is actually the channels used
     89          #define vScanChannels  zgDefaultChannelList
     90             
     91           /*********************************************************************
     92           * CONSTANTS
     93           */
     94          
     95          #define NUMBER_OF_CHANNELS     16
     96          
     97          #define CHANNEL_11_MASK_POS    11
     98          #define CHANNEL_26_MASK_POS    26
     99             

   \                                 In  segment XDATA_Z, align 1, keep-with-next
    100          uint8 bdb_FB_InitiatorCurrentCyclesNumber = 0; //last cycle is #1 (i.e. cycles-left = (bdb_FB_InitiatorCurrentCyclesNumber - 1))
   \                     bdb_FB_InitiatorCurrentCyclesNumber:
   \   000000                DS 1
   \   000001                REQUIRE __INIT_XDATA_Z
    101          
    102          /*********************************************************************
    103           * TYPEDEFS
    104           */
    105           
    106           
    107           /*********************************************************************
    108           * GLOBAL VARIABLES
    109           */
    110          

   \                                 In  segment XDATA_Z, align 1, keep-with-next
    111          byte bdb_TaskID;
   \                     bdb_TaskID:
   \   000000                DS 1
   \   000001                REQUIRE __INIT_XDATA_Z

   \                                 In  segment XDATA_I, align 1, keep-with-next
    112          bdbAttributes_t bdbAttributes = BDB_ATTRIBUTES_DEFAULT_CONFIG;
   \                     bdbAttributes:
   \   000000                DS 19
   \   000013                REQUIRE `?<Initializer for bdbAttributes>`
   \   000013                REQUIRE __INIT_XDATA_I

   \                                 In  segment XDATA_Z, align 1, keep-with-next
    113          epList_t *bdb_HeadEpDescriptorList = NULL;
   \                     bdb_HeadEpDescriptorList:
   \   000000                DS 2
   \   000002                REQUIRE __INIT_XDATA_Z

   \                                 In  segment XDATA_Z, align 1, keep-with-next
    114          epList_t *bdb_CurrEpDescriptorList = NULL;
   \                     bdb_CurrEpDescriptorList:
   \   000000                DS 2
   \   000002                REQUIRE __INIT_XDATA_Z
    115          

   \                                 In  segment XDATA_Z, align 1, keep-with-next
    116          bdbFindingBindingRespondent_t *pRespondentHead = NULL;
   \                     pRespondentHead:
   \   000000                DS 2
   \   000002                REQUIRE __INIT_XDATA_Z

   \                                 In  segment XDATA_Z, align 1, keep-with-next
    117          bdbFindingBindingRespondent_t *pRespondentCurr = NULL;
   \                     pRespondentCurr:
   \   000000                DS 2
   \   000002                REQUIRE __INIT_XDATA_Z

   \                                 In  segment XDATA_Z, align 1, keep-with-next
    118          bdbFindingBindingRespondent_t *pRespondentNext = NULL;
   \                     pRespondentNext:
   \   000000                DS 2
   \   000002                REQUIRE __INIT_XDATA_Z
    119          

   \                                 In  segment XDATA_Z, align 1, keep-with-next
    120          bdbCommissioningProcedureState_t bdbCommissioningProcedureState; 
   \                     bdbCommissioningProcedureState:
   \   000000                DS 4
   \   000004                REQUIRE __INIT_XDATA_Z

   \                                 In  segment XDATA_Z, align 1, keep-with-next
    121          bool bdb_initialization = FALSE;  //Variable to tell if the initialization process has been started
   \                     bdb_initialization:
   \   000000                DS 1
   \   000001                REQUIRE __INIT_XDATA_Z
    122          
    123          //Nwk formation and nwk steering for nodes not in nwk

   \                                 In  segment XDATA_I, align 1, keep-with-next
    124          bool vDoPrimaryScan = TRUE;
   \                     vDoPrimaryScan:
   \   000000                DS 1
   \   000001                REQUIRE `?<Initializer for vDoPrimaryScan>`
   \   000001                REQUIRE __INIT_XDATA_I
    125          

   \                                 In  segment XDATA_I, align 1, keep-with-next
    126          uint8 zgBdbInstallCodeCRC[INSTALL_CODE_LEN + INSTALL_CODE_CRC_LEN] = {0x83,0xFE,0xD3,0x40,0x7A,0x93,0x97,0x23,0xA5,0xC6,0x39,0xB2,0x69,0x16,0xD5,0x05,0xC3,0xB5};
   \                     zgBdbInstallCodeCRC:
   \   000000                DS 18
   \   000012                REQUIRE `?<Initializer for zgBdbInstallCodeCRC>`
   \   000012                REQUIRE __INIT_XDATA_I
    127          
    128          //Pointer of the nwk being tried in association process
    129          #if (ZG_BUILD_JOINING_TYPE)

   \                                 In  segment XDATA_Z, align 1, keep-with-next
    130          static networkDesc_t *pBDBListNwk = NULL;
   \                     pBDBListNwk:
   \   000000                DS 2
   \   000002                REQUIRE __INIT_XDATA_Z
    131          #endif
    132          

   \                                 In  segment XDATA_Z, align 1, keep-with-next
    133          uint8 bdb_ZclTransactionSequenceNumber=0x00;
   \                     bdb_ZclTransactionSequenceNumber:
   \   000000                DS 1
   \   000001                REQUIRE __INIT_XDATA_Z
    134          

   \                                 In  segment XDATA_Z, align 1, keep-with-next
    135          bool touchLinkTargetEnabled = FALSE;
   \                     touchLinkTargetEnabled:
   \   000000                DS 1
   \   000001                REQUIRE __INIT_XDATA_Z
    136          
    137           /*********************************************************************
    138           * EXTERNAL VARIABLES
    139           */
    140          
    141          extern devStartModes_t devStartMode;
    142          extern bool  requestNewTrustCenterLinkKey;
    143          extern uint32 requestLinkKeyTimeout;
    144          extern uint32 ZDApp_SavedPollRate;
    145          
    146          #if (BDB_FINDING_BINDING_CAPABILITY_ENABLED==1)
    147          extern bdbGCB_IdentifyTimeChange_t pfnIdentifyTimeChangeCB;
    148          extern uint8 bdbIndentifyActiveEndpoint;
    149          #endif
    150          
    151          extern bdbFindingBindingRespondent_t *pRespondentNext;
    152          
    153          #ifndef DISABLE_GREENPOWER_BASIC_PROXY
    154          extern ZDO_DeviceAnnce_t aliasConflictAnnce;
    155          #endif
    156          
    157          /*********************************************************************
    158           * EXTERNAL FUNCTIONS
    159           */
    160          
    161          extern void ZDApp_ResetTimerStart( uint16 delay );
    162          extern void ZDApp_NodeProfileSync( uint8 stackProfile );
    163          extern uint8 ZDApp_RestoreNwkKey( uint8 incrFrmCnt );
    164          extern uint8 ZDApp_ReadNetworkRestoreState( void );
    165          
    166          extern bdbFindingBindingRespondent_t* bdb_getRespondentRetry(bdbFindingBindingRespondent_t* pRespondentHead);
    167          extern void bdb_ProcessSimpleDesc( zdoIncomingMsg_t *msgPtr );
    168          extern void bdb_ProcessIEEEAddrRsp(zdoIncomingMsg_t *pMsg);
    169          
    170          /*********************************************************************
    171           * LOCAL VARIABLES
    172           */
    173          #if (ZG_BUILD_JOINING_TYPE)

   \                                 In  segment XDATA_Z, align 1, keep-with-next
    174            static uint8 bdb_nwkAssocRetriesCount = 0;
   \                     bdb_nwkAssocRetriesCount:
   \   000000                DS 1
   \   000001                REQUIRE __INIT_XDATA_Z
    175          #endif
    176          #if (ZG_BUILD_COORDINATOR_TYPE)
    177            static bdb_joiningDeviceList_t *bdb_joiningDeviceList = NULL;
    178          #endif
    179            
    180          #if (BDB_FINDING_BINDING_CAPABILITY_ENABLED==1) 
    181          //Latch to save the status success of any attempt in the periodic F&B process  

   \                                 In  segment XDATA_Z, align 1, keep-with-next
    182          static uint8 bdb_FBStateSuccessLatch = FALSE;
   \                     bdb_FBStateSuccessLatch:
   \   000000                DS 1
   \   000001                REQUIRE __INIT_XDATA_Z
    183          #endif
    184           /*********************************************************************
    185           * LOCAL FUNCTIONS
    186           */
    187          static void bdb_ProcessOSALMsg(bdbInMsg_t *msgPtr);
    188          void bdb_NotifyCommissioningModeStart(uint8 commissioningMode);
    189          static void bdb_processZDOMgs(zdoIncomingMsg_t *pMsg);
    190          
    191          #if (ZG_BUILD_JOINING_TYPE)
    192          static void bdb_requestTCStackVersion(void);
    193          static void bdb_requestTCLinkKey(void);
    194          static void bdb_requestVerifyTCLinkKey(void);
    195          static void bdb_tryNwkAssoc(void);
    196          #endif
    197          
    198          
    199          static void bdb_processTimeout(void);
    200          static void bdb_startResumeCommissioningProcess(void);
    201          static void bdb_nwkSteeringDeviceOnNwk(void);
    202          static void bdb_nwkJoiningFormation(bool isJoining);
    203          
    204          #if !defined (DISABLE_GREENPOWER_BASIC_PROXY) && (ZG_BUILD_RTR_TYPE)
    205          static uint8 gp_ChangeChannelReq(void);
    206          static void gp_CBInit(void);
    207          #endif
    208          
    209          
    210          #if (ZG_BUILD_COORDINATOR_TYPE)
    211          static void bdb_TCProcessJoiningList(void);
    212          static ZStatus_t bdb_TCJoiningDeviceFree(bdb_joiningDeviceList_t* JoiningDeviceToRemove);
    213          #endif
    214          #if (ZG_BUILD_COORDINATOR_TYPE)
    215          static bdbGCB_TCLinkKeyExchangeProcess_t  pfnTCLinkKeyExchangeProcessCB = NULL;
    216          #endif

   \                                 In  segment XDATA_Z, align 1, keep-with-next
    217          static bdbGCB_CommissioningStatus_t       pfnCommissioningStatusCB = NULL; 
   \                     pfnCommissioningStatusCB:
   \   000000                DS 2
   \   000002                REQUIRE __INIT_XDATA_Z
    218          #if (ZG_BUILD_JOINING_TYPE)

   \                                 In  segment XDATA_Z, align 1, keep-with-next
    219          static bdbGCB_CBKETCLinkKeyExchange_t     pfnCBKETCLinkKeyExchange = NULL;
   \                     pfnCBKETCLinkKeyExchange:
   \   000000                DS 2
   \   000002                REQUIRE __INIT_XDATA_Z

   \                                 In  segment XDATA_Z, align 1, keep-with-next
    220          static bdbGCB_FilterNwkDesc_t             pfnFilterNwkDesc = NULL;   
   \                     pfnFilterNwkDesc:
   \   000000                DS 2
   \   000002                REQUIRE __INIT_XDATA_Z
    221          #endif
    222          
    223          
    224          
    225          void bdb_calculateCCITT_CRC (uint8 *Mb, uint32 msglen, uint16 *crc);
    226          void bdb_crcInit(uint16 *crc, uint16 *crcinit_direct, uint16 *crcinit_nondirect);
    227          uint16 bdb_crcReflect (uint16 crc, uint16 bitnum);
    228          uint16 bdb_crcBitByBitFast(uint8 * p, uint32 len, uint16 crcinit_direct, uint16 crcinit_nondirect);
    229          void bdb_ProcessNodeDescRsp(zdoIncomingMsg_t *pMsg);
    230          
    231          /*********************************************************************
    232           * PUBLIC FUNCTIONS
    233           *********************************************************************/
    234          void bdb_filterNwkDisc(void);
    235          ZStatus_t bdb_joinProcess(networkDesc_t *pChosenNwk);
    236          
    237          ZStatus_t bdb_TCAddJoiningDevice(uint16 parentAddr, uint8* JoiningExtAddr);
    238          void bdb_TCjoiningDeviceComplete(uint8* JoiningExtAddr);
    239          
    240           /*********************************************************************
    241           * @fn          bdb_Init
    242           *
    243           * @brief       Initialization function for the Base Device Behavior.
    244           *
    245           * @param       task_id - bdb_TaskID Task ID
    246           *
    247           * @return      none
    248           */

   \                                 In  segment BANKED_CODE, align 1, keep-with-next
    249          void bdb_Init( byte task_id )
   \                     bdb_Init:
    250          {
   \   000000   74F7         MOV       A,#-0x9
   \   000002   12....       LCALL     ?BANKED_ENTER_XDATA
   \   000005                ; Saved register size: 9
   \   000005                ; Auto size: 0
   \   000005   E9           MOV       A,R1
   \   000006   FE           MOV       R6,A
    251            bdb_TaskID = task_id;
   \   000007   90....       MOV       DPTR,#bdb_TaskID
   \   00000A   F0           MOVX      @DPTR,A
    252              
    253          #if (ZG_BUILD_COORDINATOR_TYPE)
    254            if(ZG_DEVICE_COORDINATOR_TYPE)
    255            {
    256              if(bdbAttributes.bdbJoinUsesInstallCodeKey)
    257              {
    258                zgAllowInstallCodes = ZG_IC_MUST_USED;
    259              }
    260            }
    261          #endif
    262            
    263          #if defined ( INTER_PAN ) && defined ( BDB_TL_INITIATOR )  
    264            touchLinkInitiator_InitDevice( );
    265          #endif
    266          
    267          #if (BDB_REPORTING)
    268            bdb_RepInit();
   \   00000B                ; Setup parameters for call to function bdb_RepInit
   \   00000B   12....       LCALL     `??bdb_RepInit::?relay`; Banked call to: bdb_RepInit
    269          #endif  
    270            
    271            //Register ZDO callbacks
    272            ZDO_RegisterForZDOMsg ( task_id, Node_Desc_rsp );
   \   00000E                ; Setup parameters for call to function ZDO_RegisterForZDOMsg
   \   00000E   7A02         MOV       R2,#0x2
   \   000010   7B80         MOV       R3,#-0x80
   \   000012   EE           MOV       A,R6
   \   000013   F9           MOV       R1,A
   \   000014   12....       LCALL     `??ZDO_RegisterForZDOMsg::?relay`; Banked call to: ZDO_RegisterForZDOMsg
    273          #if (BDB_FINDING_BINDING_CAPABILITY_ENABLED==1)  
    274            ZDO_RegisterForZDOMsg ( task_id, IEEE_addr_rsp );
   \   000017                ; Setup parameters for call to function ZDO_RegisterForZDOMsg
   \   000017   7A01         MOV       R2,#0x1
   \   000019   7B80         MOV       R3,#-0x80
   \   00001B   EE           MOV       A,R6
   \   00001C   F9           MOV       R1,A
   \   00001D   12....       LCALL     `??ZDO_RegisterForZDOMsg::?relay`; Banked call to: ZDO_RegisterForZDOMsg
    275            ZDO_RegisterForZDOMsg ( task_id, Simple_Desc_rsp );
   \   000020                ; Setup parameters for call to function ZDO_RegisterForZDOMsg
   \   000020   7A04         MOV       R2,#0x4
   \   000022   7B80         MOV       R3,#-0x80
   \   000024   EE           MOV       A,R6
   \   000025   F9           MOV       R1,A
   \   000026   12....       LCALL     `??ZDO_RegisterForZDOMsg::?relay`; Banked call to: ZDO_RegisterForZDOMsg
    276          #endif
    277            
    278          #if !defined (DISABLE_GREENPOWER_BASIC_PROXY) && (ZG_BUILD_RTR_TYPE)
    279            gp_RegisterGPChangeChannelReqForBDBCB(gp_ChangeChannelReq);
    280            gp_CBInit();
    281          #endif
    282          }
   \   000029   02....       LJMP      ?Subroutine0 & 0xFFFF

   \                                 In  segment BANKED_CODE, align 1, keep-with-next
   \                     ?Subroutine0:
   \   000000   7F01         MOV       R7,#0x1
   \   000002   02....       LJMP      ?BANKED_LEAVE_XDATA
    283          
    284          /*********************************************************************
    285           * @fn      bdb_RegisterSimpleDescriptor
    286           *
    287           * @brief   Register the Simple descriptor. This function also registers 
    288           *          the profile's cluster conversion table.
    289           *
    290           * @param   simpleDesc - a pointer to a valid SimpleDescriptionFormat_t, must not be NULL.
    291           *
    292           * @return  none
    293           */

   \                                 In  segment BANKED_CODE, align 1, keep-with-next
    294          void bdb_RegisterSimpleDescriptor( SimpleDescriptionFormat_t *simpleDesc )
   \                     bdb_RegisterSimpleDescriptor:
    295          {
   \   000000                REQUIRE ?V0
   \   000000                REQUIRE ?V1
   \   000000   74F6         MOV       A,#-0xa
   \   000002   12....       LCALL     ?BANKED_ENTER_XDATA
   \   000005                ; Saved register size: 10
   \   000005                ; Auto size: 0
   \   000005   EA           MOV       A,R2
   \   000006   FE           MOV       R6,A
   \   000007   EB           MOV       A,R3
   \   000008   FF           MOV       R7,A
    296            endPointDesc_t *epDesc;
    297          
    298            // Register the application's endpoint descriptor
    299            //  - This memory is allocated and never freed.
    300            epDesc = osal_mem_alloc( sizeof ( endPointDesc_t ) );
   \   000009                ; Setup parameters for call to function osal_mem_alloc
   \   000009   7A07         MOV       R2,#0x7
   \   00000B   7B00         MOV       R3,#0x0
   \   00000D   12....       LCALL     `??osal_mem_alloc::?relay`; Banked call to: osal_mem_alloc
    301            if ( epDesc )
   \   000010   EA           MOV       A,R2
   \   000011   4B           ORL       A,R3
   \   000012   6023         JZ        ??bdb_RegisterSimpleDescriptor_0
    302            {
    303              // Fill out the endpoint description.
    304              epDesc->endPoint = simpleDesc->EndPoint;
   \   000014   8E82         MOV       DPL,R6
   \   000016   8F83         MOV       DPH,R7
   \   000018   E0           MOVX      A,@DPTR
   \   000019   8A82         MOV       DPL,R2
   \   00001B   8B83         MOV       DPH,R3
   \   00001D   F0           MOVX      @DPTR,A
    305              epDesc->task_id = &zcl_TaskID;   // all messages get sent to ZCL first
   \   00001E   A3           INC       DPTR
   \   00001F   A3           INC       DPTR
   \   000020   74..         MOV       A,#zcl_TaskID & 0xff
   \   000022   F0           MOVX      @DPTR,A
   \   000023   A3           INC       DPTR
   \   000024   74..         MOV       A,#(zcl_TaskID >> 8) & 0xff
   \   000026   12....       LCALL     ?Subroutine8 & 0xFFFF
    306              epDesc->simpleDesc = simpleDesc;
   \                     ??CrossCallReturnLabel_7:
   \   000029   EE           MOV       A,R6
   \   00002A   F0           MOVX      @DPTR,A
   \   00002B   A3           INC       DPTR
   \   00002C   EF           MOV       A,R7
   \   00002D   12....       LCALL     ?Subroutine8 & 0xFFFF
    307              epDesc->latencyReq = noLatencyReqs;
   \                     ??CrossCallReturnLabel_8:
   \   000030   A3           INC       DPTR
   \   000031   A3           INC       DPTR
   \   000032   E4           CLR       A
   \   000033   F0           MOVX      @DPTR,A
    308          
    309              // Register the endpoint description with the AF
    310              afRegister( epDesc );
   \   000034                ; Setup parameters for call to function afRegister
   \   000034   12....       LCALL     `??afRegister::?relay`; Banked call to: afRegister
    311            }
    312          }
   \                     ??bdb_RegisterSimpleDescriptor_0:
   \   000037   02....       LJMP      ??Subroutine61_0 & 0xFFFF

   \                                 In  segment BANKED_CODE, align 1, keep-with-next
   \                     ?Subroutine8:
   \   000000   F0           MOVX      @DPTR,A
   \   000001   8A82         MOV       DPL,R2
   \   000003   8B83         MOV       DPH,R3
   \   000005   A3           INC       DPTR
   \   000006   A3           INC       DPTR
   \   000007   A3           INC       DPTR
   \   000008   A3           INC       DPTR
   \   000009   22           RET

   \                                 In  segment BANKED_CODE, align 1, keep-with-next
   \                     ??Subroutine61_0:
   \   000000   7F02         MOV       R7,#0x2
   \   000002   02....       LJMP      ?BANKED_LEAVE_XDATA
    313          
    314          #if (BDB_FINDING_BINDING_CAPABILITY_ENABLED==1)  
    315          /*********************************************************************
    316           * @fn      bdb_ZclIdentifyCmdInd
    317           *
    318           * @brief   Callback from the ZCL General Cluster Library when
    319           *          it received an Identity Command for this application.
    320           *
    321           * @param   identifyTime - the number of seconds to identify yourself
    322           * @param   endpoint - destination endpoint
    323           *
    324           * @return  none
    325           */

   \                                 In  segment BANKED_CODE, align 1, keep-with-next
    326          void bdb_ZclIdentifyCmdInd( uint16 identifyTime, uint8 endpoint )
   \                     bdb_ZclIdentifyCmdInd:
    327          {
   \   000000                REQUIRE ?V0
   \   000000                REQUIRE ?V2
   \   000000                REQUIRE ?V3
   \   000000   74F4         MOV       A,#-0xc
   \   000002   12....       LCALL     ?BANKED_ENTER_XDATA
   \   000005                ; Saved register size: 12
   \   000005                ; Auto size: 8
   \   000005   74F8         MOV       A,#-0x8
   \   000007   12....       LCALL     ?ALLOC_XSTACK8
   \   00000A   EA           MOV       A,R2
   \   00000B   FE           MOV       R6,A
   \   00000C   EB           MOV       A,R3
   \   00000D   FF           MOV       R7,A
   \   00000E   89..         MOV       ?V0,R1
    328            zclAttrRec_t identifyAttrRec;
    329            
    330            if ( zclFindAttrRec( endpoint, ZCL_CLUSTER_ID_GEN_IDENTIFY,
    331                                ATTRID_IDENTIFY_TIME, &identifyAttrRec ) )
   \   000010                ; Setup parameters for call to function zclFindAttrRec
   \   000010   A8..         MOV       R0,?XSP + 0
   \   000012   A9..         MOV       R1,?XSP + 1
   \   000014   88..         MOV       ?V2,R0
   \   000016   89..         MOV       ?V3,R1
   \   000018   78..         MOV       R0,#?V2
   \   00001A   12....       LCALL     ?PUSH_XSTACK_I_TWO
   \   00001D   7C00         MOV       R4,#0x0
   \   00001F   7D00         MOV       R5,#0x0
   \   000021   7A03         MOV       R2,#0x3
   \   000023   7B00         MOV       R3,#0x0
   \   000025   A9..         MOV       R1,?V0
   \   000027   12....       LCALL     `??zclFindAttrRec::?relay`; Banked call to: zclFindAttrRec
   \   00002A   7402         MOV       A,#0x2
   \   00002C   12....       LCALL     ?DEALLOC_XSTACK8
   \   00002F   E9           MOV       A,R1
   \   000030   604A         JZ        ??bdb_ZclIdentifyCmdInd_0
    332            {
    333              //If we are processing an actual change
    334              if(*(uint16*)identifyAttrRec.attr.dataPtr != identifyTime)
   \   000032   7406         MOV       A,#0x6
   \   000034   12....       LCALL     ?XSTACK_DISP0_8
   \   000037   12....       LCALL     ?Subroutine26 & 0xFFFF
   \                     ??CrossCallReturnLabel_26:
   \   00003A   E0           MOVX      A,@DPTR
   \   00003B   6E           XRL       A,R6
   \   00003C   7003         JNZ       ??bdb_ZclIdentifyCmdInd_1
   \   00003E   A3           INC       DPTR
   \   00003F   E0           MOVX      A,@DPTR
   \   000040   6F           XRL       A,R7
   \                     ??bdb_ZclIdentifyCmdInd_1:
   \   000041   6039         JZ        ??bdb_ZclIdentifyCmdInd_0
    335              {
    336                if ( identifyTime > 0 )
   \   000043   EE           MOV       A,R6
   \   000044   4F           ORL       A,R7
   \   000045   8882         MOV       DPL,R0
   \   000047   8983         MOV       DPH,R1
   \   000049   6017         JZ        ??bdb_ZclIdentifyCmdInd_2
    337                {
    338                  *((uint16*)identifyAttrRec.attr.dataPtr) = identifyTime;
   \   00004B   EE           MOV       A,R6
   \   00004C   F0           MOVX      @DPTR,A
   \   00004D   A3           INC       DPTR
   \   00004E   EF           MOV       A,R7
   \   00004F   F0           MOVX      @DPTR,A
    339                  osal_start_timerEx( bdb_TaskID, BDB_IDENTIFY_TIMEOUT, 1000 );
   \   000050                ; Setup parameters for call to function osal_start_timerEx
   \   000050   90....       MOV       DPTR,#__Constant_3e8
   \   000053   12....       LCALL     ?PUSH_XSTACK8_X_FOUR
   \   000056   7A00         MOV       R2,#0x0
   \   000058   7B20         MOV       R3,#0x20
   \   00005A   12....       LCALL     ??Subroutine56_0 & 0xFFFF
    340                }
   \                     ??CrossCallReturnLabel_132:
   \   00005D   12....       LCALL     ?DEALLOC_XSTACK8
   \   000060   800A         SJMP      ??CrossCallReturnLabel_72
    341                else if ( identifyTime <= 0 )
    342                {
    343                  *((uint16*)identifyAttrRec.attr.dataPtr) = 0;
   \                     ??bdb_ZclIdentifyCmdInd_2:
   \   000062   E4           CLR       A
   \   000063   F0           MOVX      @DPTR,A
   \   000064   A3           INC       DPTR
   \   000065   F0           MOVX      @DPTR,A
    344                  osal_stop_timerEx( bdb_TaskID, BDB_IDENTIFY_TIMEOUT );
   \   000066                ; Setup parameters for call to function osal_stop_timerEx
   \   000066   FA           MOV       R2,A
   \   000067   7B20         MOV       R3,#0x20
   \   000069   12....       LCALL     ??Subroutine47_0 & 0xFFFF
    345                }
    346                
    347                if(pfnIdentifyTimeChangeCB != NULL)
   \                     ??CrossCallReturnLabel_72:
   \   00006C   90....       MOV       DPTR,#pfnIdentifyTimeChangeCB
   \   00006F   12....       LCALL     ??Subroutine52_0 & 0xFFFF
   \                     ??CrossCallReturnLabel_94:
   \   000072   6008         JZ        ??bdb_ZclIdentifyCmdInd_0
    348                {
    349                  pfnIdentifyTimeChangeCB(endpoint);
   \   000074                ; Setup parameters for indirect call
   \   000074   A9..         MOV       R1,?V0
   \   000076   12....       LCALL     ??Subroutine51_0 & 0xFFFF
    350                }
    351              }
    352            }
   \                     ??CrossCallReturnLabel_83:
   \   000079   12....       LCALL     ?CALL_IND
    353          }
   \                     ??bdb_ZclIdentifyCmdInd_0:
   \   00007C   7408         MOV       A,#0x8
   \   00007E   02....       LJMP      ??Subroutine49_0 & 0xFFFF

   \                                 In  segment BANKED_CODE, align 1, keep-with-next
   \                     ??Subroutine47_0:
   \   000000   90....       MOV       DPTR,#bdb_TaskID
   \   000003   E0           MOVX      A,@DPTR
   \   000004   F9           MOV       R1,A
   \   000005   12....       LCALL     `??osal_stop_timerEx::?relay`; Banked call to: osal_stop_timerEx
   \   000008   22           RET

   \                                 In  segment BANKED_CODE, align 1, keep-with-next
   \                     ??Subroutine49_0:
   \   000000   12....       LCALL     ?DEALLOC_XSTACK8
   \   000003                REQUIRE ??Subroutine50_0
   \   000003                ; // Fall through to label ??Subroutine50_0

   \                                 In  segment BANKED_CODE, align 1, keep-with-next
   \                     ??Subroutine50_0:
   \   000000   7F04         MOV       R7,#0x4
   \   000002   02....       LJMP      ?BANKED_LEAVE_XDATA

   \                                 In  segment BANKED_CODE, align 1, keep-with-next
   \                     ?Subroutine26:
   \   000000   12....       LCALL     ?Subroutine39 & 0xFFFF
   \                     ??CrossCallReturnLabel_111:
   \   000003   F9           MOV       R1,A
   \   000004   8882         MOV       DPL,R0
   \   000006   F583         MOV       DPH,A
   \   000008   22           RET

   \                                 In  segment BANKED_CODE, align 1, keep-with-next
   \                     ??Subroutine51_0:
   \   000000   E0           MOVX      A,@DPTR
   \   000001   F583         MOV       DPH,A
   \   000003   8882         MOV       DPL,R0
   \   000005   22           RET

   \                                 In  segment BANKED_CODE, align 1, keep-with-next
   \                     ??Subroutine52_0:
   \   000000   12....       LCALL     ?Subroutine39 & 0xFFFF
   \                     ??CrossCallReturnLabel_113:
   \   000003   F9           MOV       R1,A
   \   000004   E8           MOV       A,R0
   \   000005   49           ORL       A,R1
   \   000006   22           RET

   \                                 In  segment BANKED_CODE, align 1, keep-with-next
   \                     ?Subroutine39:
   \   000000   E0           MOVX      A,@DPTR
   \   000001   F8           MOV       R0,A
   \   000002   A3           INC       DPTR
   \   000003   E0           MOVX      A,@DPTR
   \   000004   22           RET

   \                                 In  segment BANKED_CODE, align 1, keep-with-next
   \                     ??Subroutine56_0:
   \   000000   90....       MOV       DPTR,#bdb_TaskID
   \   000003   E0           MOVX      A,@DPTR
   \   000004   F9           MOV       R1,A
   \   000005   12....       LCALL     `??osal_start_timerEx::?relay`; Banked call to: osal_start_timerEx
   \   000008   7404         MOV       A,#0x4
   \   00000A   22           RET
    354          #endif
    355          
    356          
    357          #if (ZG_BUILD_JOINING_TYPE) 
    358           /*********************************************************************
    359           * @fn          bdb_setActiveCentralizedLinkKey
    360           *
    361           * @brief       Set the active centralized key to be used, Global or IC derived.
    362           *
    363           * @param       useGlobal - If TRUE, then use default TC link key, if FALSE use 
    364           *                          pBuf as source for IC key derived input
    365           * @param       pBuf - The expected format and length of the IC is defined by 
    366           *                     BDB_INSTALL_CODE_USE
    367           *
    368           * @return      ZStatus_t - ZFailure when no valid BDB_INSTALL_CODE_USE is used
    369           *                          ZInvalidParameter when IC buffer is null
    370           */

   \                                 In  segment BANKED_CODE, align 1, keep-with-next
    371          ZStatus_t bdb_setActiveCentralizedLinkKey(bool useGlobal, uint8* pBuf)
   \                     bdb_setActiveCentralizedLinkKey:
    372          {
   \   000000                REQUIRE ?V0
   \   000000                REQUIRE ?V1
   \   000000   74F6         MOV       A,#-0xa
   \   000002   12....       LCALL     ?BANKED_ENTER_XDATA
   \   000005                ; Saved register size: 10
   \   000005                ; Auto size: 8
   \   000005   74F8         MOV       A,#-0x8
   \   000007   12....       LCALL     ?ALLOC_XSTACK8
   \   00000A   EA           MOV       A,R2
   \   00000B   FE           MOV       R6,A
   \   00000C   EB           MOV       A,R3
   \   00000D   FF           MOV       R7,A
    373            ZStatus_t Status = ZSuccess;
   \   00000E   75..00       MOV       ?V0,#0x0
    374            uint8 extAddr[Z_EXTADDR_LEN];
    375            
    376            if(useGlobal)
   \   000011   E9           MOV       A,R1
   \   000012   6005         JZ        ??bdb_setActiveCentralizedLinkKey_0
    377            {
    378              //Set the default key to be used in centralized networks as defaultTCLinkKey
    379              APSME_SetDefaultKey();
   \   000014                ; Setup parameters for call to function APSME_SetDefaultKey
   \   000014   12....       LCALL     `??APSME_SetDefaultKey::?relay`; Banked call to: APSME_SetDefaultKey
   \   000017   8024         SJMP      ??bdb_setActiveCentralizedLinkKey_1
    380            } 
    381            else
    382            {
    383              if(pBuf != NULL)
   \                     ??bdb_setActiveCentralizedLinkKey_0:
   \   000019   EA           MOV       A,R2
   \   00001A   4F           ORL       A,R7
   \   00001B   601D         JZ        ??bdb_setActiveCentralizedLinkKey_2
    384              {
    385            #if (BDB_INSTALL_CODE_USE==BDB_INSTALL_CODE_USE_IC_CRC)
    386                
    387                osal_memset(extAddr,0x00,Z_EXTADDR_LEN);
   \   00001D                ; Setup parameters for call to function osal_memset
   \   00001D   7C08         MOV       R4,#0x8
   \   00001F   7D00         MOV       R5,#0x0
   \   000021   7900         MOV       R1,#0x0
   \   000023   AA..         MOV       R2,?XSP + 0
   \   000025   AB..         MOV       R3,?XSP + 1
   \   000027   12....       LCALL     `??osal_memset::?relay`; Banked call to: osal_memset
    388                
    389                //Set the install code as default key
    390                Status = bdb_addInstallCode(pBuf,extAddr);
   \   00002A                ; Setup parameters for call to function bdb_addInstallCode
   \   00002A   AC..         MOV       R4,?XSP + 0
   \   00002C   AD..         MOV       R5,?XSP + 1
   \   00002E   EE           MOV       A,R6
   \   00002F   FA           MOV       R2,A
   \   000030   EF           MOV       A,R7
   \   000031   FB           MOV       R3,A
   \   000032   12....       LCALL     `??bdb_addInstallCode::?relay`; Banked call to: bdb_addInstallCode
   \   000035   E9           MOV       A,R1
   \   000036   F5..         MOV       ?V0,A
   \   000038   8003         SJMP      ??bdb_setActiveCentralizedLinkKey_1
    391              
    392            #elif (BDB_INSTALL_CODE_USE==BDB_INSTALL_CODE_USE_KEY)
    393          
    394                //Set the key as global default
    395                APSME_AddTCLinkKey(pBuf,extAddr);
    396            #else
    397              
    398                //BDB_INSTALL_CODE_USE not supported
    399                Status = ZFailure;
    400            #endif
    401              }
    402              else
    403              {
    404                Status = ZInvalidParameter;
   \                     ??bdb_setActiveCentralizedLinkKey_2:
   \   00003A   75..02       MOV       ?V0,#0x2
    405              }
    406            }
    407            return Status;
   \                     ??bdb_setActiveCentralizedLinkKey_1:
   \   00003D   A9..         MOV       R1,?V0
   \   00003F   7408         MOV       A,#0x8
   \   000041   02....       LJMP      ??Subroutine60_0 & 0xFFFF
    408          }

   \                                 In  segment BANKED_CODE, align 1, keep-with-next
   \                     ??Subroutine60_0:
   \   000000   12....       LCALL     ?DEALLOC_XSTACK8
   \   000003                REQUIRE ??Subroutine61_0
   \   000003                ; // Fall through to label ??Subroutine61_0
    409          #endif
    410          
    411          
    412              
    413            
    414          /******************************************************************************
    415           * @fn          bdb_addInstallCode
    416           *
    417           * @brief       Interface to add an install codes and adds a APS TC Link key.
    418           *
    419           * @param       pInstallCode - [in] Install Code with CRC (buffer size of 18 bytes).
    420           *              pExt - [in] Extended address of the node.
    421           *
    422           * @return      ZStatus_t
    423           */

   \                                 In  segment BANKED_CODE, align 1, keep-with-next
    424          ZStatus_t bdb_addInstallCode(uint8* pInstallCode, uint8* pExt)
   \                     bdb_addInstallCode:
    425          {
   \   000000                REQUIRE ?V0
   \   000000                REQUIRE ?V1
   \   000000                REQUIRE ?V2
   \   000000                REQUIRE ?V3
   \   000000                REQUIRE ?V4
   \   000000                REQUIRE ?V5
   \   000000   74F2         MOV       A,#-0xe
   \   000002   12....       LCALL     ?BANKED_ENTER_XDATA
   \   000005                ; Saved register size: 14
   \   000005                ; Auto size: 16
   \   000005   74F0         MOV       A,#-0x10
   \   000007   12....       LCALL     ?ALLOC_XSTACK8
   \   00000A   EA           MOV       A,R2
   \   00000B   FE           MOV       R6,A
   \   00000C   EB           MOV       A,R3
   \   00000D   FF           MOV       R7,A
   \   00000E   8C..         MOV       ?V0,R4
   \   000010   8D..         MOV       ?V1,R5
    426            uint8  hashOutput[16];
    427            uint16 CRC;
    428            
    429          #if (ZG_BUILD_COORDINATOR_TYPE)
    430            if(ZG_DEVICE_COORDINATOR_TYPE)
    431            {
    432              if(zgAllowInstallCodes == ZG_IC_NOT_SUPPORTED)
    433              {
    434                return ZFailure;
    435              }
    436            }
    437          #endif
    438                 
    439            if((pInstallCode == NULL) || (pExt == NULL))
   \   000012   EA           MOV       A,R2
   \   000013   4F           ORL       A,R7
   \   000014   601F         JZ        ??bdb_addInstallCode_0
   \   000016   EC           MOV       A,R4
   \   000017   4D           ORL       A,R5
   \   000018   601B         JZ        ??bdb_addInstallCode_0
    440            {
    441              return ZInvalidParameter;
    442            }
    443            
    444            CRC = bdb_GenerateInstallCodeCRC(pInstallCode);
   \   00001A                ; Setup parameters for call to function bdb_GenerateInstallCodeCRC
   \   00001A   12....       LCALL     `??bdb_GenerateInstallCodeCRC::?relay`; Banked call to: bdb_GenerateInstallCodeCRC
   \   00001D   8A..         MOV       ?V2,R2
   \   00001F   8B..         MOV       ?V3,R3
    445            //Validate CRC
    446            if(CRC != osal_build_uint16(&pInstallCode[INSTALL_CODE_LEN]))
   \   000021                ; Setup parameters for call to function osal_build_uint16
   \   000021   EE           MOV       A,R6
   \   000022   2410         ADD       A,#0x10
   \   000024   FA           MOV       R2,A
   \   000025   E4           CLR       A
   \   000026   3F           ADDC      A,R7
   \   000027   FB           MOV       R3,A
   \   000028   12....       LCALL     `??osal_build_uint16::?relay`; Banked call to: osal_build_uint16
   \   00002B   EA           MOV       A,R2
   \   00002C   65..         XRL       A,?V2
   \   00002E   7003         JNZ       ??bdb_addInstallCode_1
   \   000030   EB           MOV       A,R3
   \   000031   65..         XRL       A,?V3
   \                     ??bdb_addInstallCode_1:
   \   000033   6004         JZ        ??bdb_addInstallCode_2
    447            {
    448              return ZInvalidParameter;
   \                     ??bdb_addInstallCode_0:
   \   000035   7902         MOV       R1,#0x2
   \   000037   8035         SJMP      ??bdb_addInstallCode_3
    449            }
    450          
    451            sspMMOHash (NULL, 0, pInstallCode,(INSTALL_CODE_LEN + INSTALL_CODE_CRC_LEN) * BITS_PER_BYTE, hashOutput);
   \                     ??bdb_addInstallCode_2:
   \   000039                ; Setup parameters for call to function sspMMOHash
   \   000039   A8..         MOV       R0,?XSP + 0
   \   00003B   A9..         MOV       R1,?XSP + 1
   \   00003D   88..         MOV       ?V2,R0
   \   00003F   89..         MOV       ?V3,R1
   \   000041   78..         MOV       R0,#?V2
   \   000043   12....       LCALL     ?PUSH_XSTACK_I_TWO
   \   000046   75..90       MOV       ?V2,#-0x70
   \   000049   75..00       MOV       ?V3,#0x0
   \   00004C   78..         MOV       R0,#?V2
   \   00004E   12....       LCALL     ?PUSH_XSTACK_I_TWO
   \   000051   EE           MOV       A,R6
   \   000052   FC           MOV       R4,A
   \   000053   EF           MOV       A,R7
   \   000054   FD           MOV       R5,A
   \   000055   7900         MOV       R1,#0x0
   \   000057   7A00         MOV       R2,#0x0
   \   000059   7B00         MOV       R3,#0x0
   \   00005B   12....       LCALL     `??sspMMOHash::?relay`; Banked call to: sspMMOHash
   \   00005E   7404         MOV       A,#0x4
   \   000060   12....       LCALL     ?DEALLOC_XSTACK8
    452          
    453            return APSME_AddTCLinkKey(hashOutput,pExt);
   \   000063                ; Setup parameters for call to function APSME_AddTCLinkKey
   \   000063   AC..         MOV       R4,?V0
   \   000065   AD..         MOV       R5,?V1
   \   000067   AA..         MOV       R2,?XSP + 0
   \   000069   AB..         MOV       R3,?XSP + 1
   \   00006B   12....       LCALL     `??APSME_AddTCLinkKey::?relay`; Banked call to: APSME_AddTCLinkKey
   \                     ??bdb_addInstallCode_3:
   \   00006E   7410         MOV       A,#0x10
   \   000070   12....       LCALL     ?DEALLOC_XSTACK8
   \   000073   7F06         MOV       R7,#0x6
   \   000075   02....       LJMP      ?BANKED_LEAVE_XDATA
    454          }    
    455              
    456          
    457          #if (ZG_BUILD_COORDINATOR_TYPE)
    458           /*********************************************************************
    459           * @fn      bdb_RegisterTCLinkKeyExchangeProcessCB
    460           *
    461           * @brief   Register a callback to receive notifications on the joining devices 
    462           *          and its status on TC link key exchange
    463           *
    464           * @param   bdbGCB_TCLinkKeyExchangeProcess - application callback 
    465           *          (extended address of device, status: 0 = Joining, 1 = TC link key exchange success, 2 = TC link key exchange failed)
    466           *
    467           * @return  none
    468           */
    469          void bdb_RegisterTCLinkKeyExchangeProcessCB(bdbGCB_TCLinkKeyExchangeProcess_t bdbGCB_TCLinkKeyExchangeProcess)
    470          {
    471            if(bdbGCB_TCLinkKeyExchangeProcess != NULL)
    472            {
    473              pfnTCLinkKeyExchangeProcessCB = bdbGCB_TCLinkKeyExchangeProcess;
    474            }
    475          }
    476          
    477          
    478          
    479           /*********************************************************************
    480           * @fn          bdb_setTCRequireKeyExchange
    481           *
    482           * @brief       Set the bdb_setTCRequireKeyExchange attribute
    483           *
    484           * @param       isKeyExchangeRequired - True if TC will remove devices that do 
    485           *              not perform key exchange after bdbTrustCenterNodeJoinTimeout, 
    486           *              False to not remove devices.
    487           *
    488           * @return      none
    489           */
    490          void bdb_setTCRequireKeyExchange(bool isKeyExchangeRequired)
    491          {
    492            bdbAttributes.bdbTrustCenterRequireKeyExchange = isKeyExchangeRequired;
    493          }
    494          
    495          
    496          
    497           /*********************************************************************
    498           * @fn          bdb_TCAddJoiningDevice
    499           *
    500           * @brief       Add a joining device to the list of devices that must request a 
    501           *              key before bdbTrustCenterNodeJoinTimeout.
    502           *
    503           * @param       parentAddr - Address of the parent device
    504           * @param       JoiningExtAddr - IEEE address of the joining device
    505           *
    506           * @return      ZStatus_t - ZFailure No memory to allocate the device in the list
    507           *                          ZInvalidParameter
    508           */
    509          ZStatus_t bdb_TCAddJoiningDevice(uint16 parentAddr, uint8* JoiningExtAddr)
    510          {
    511            bdb_joiningDeviceList_t* tempJoiningDescNode;
    512            
    513            if((parentAddr == INVALID_NODE_ADDR) || (JoiningExtAddr == NULL))
    514            {
    515              return ZInvalidParameter;
    516            }
    517            
    518            //If the list was empty and element was allocated, then start the timer
    519            if(bdb_joiningDeviceList == NULL)
    520            {
    521              bdb_joiningDeviceList = osal_mem_alloc(sizeof(bdb_joiningDeviceList_t));
    522              if(bdb_joiningDeviceList == NULL)
    523              {
    524                return ZFailure;
    525              }
    526             
    527              osal_start_reload_timer(bdb_TaskID,BDB_TC_JOIN_TIMEOUT,1000);
    528              tempJoiningDescNode = bdb_joiningDeviceList;
    529            }
    530            //if the list was not empty then add the entry at the end of the list
    531            else
    532            {
    533              tempJoiningDescNode = bdb_joiningDeviceList;
    534              
    535              //Validate that this is not already in the list... somehow
    536              if(osal_memcmp(JoiningExtAddr,tempJoiningDescNode->bdbJoiningNodeEui64,Z_EXTADDR_LEN))
    537              {
    538                //The device added is already in the list, refresh its time and do nothing else
    539                tempJoiningDescNode->NodeJoinTimeout = bdbAttributes.bdbTrustCenterNodeJoinTimeout;
    540                return ZSuccess;
    541              }
    542              
    543              while(tempJoiningDescNode->nextDev != NULL)
    544              {
    545                tempJoiningDescNode = tempJoiningDescNode->nextDev;
    546                
    547                //Validate that this is not already in the list... somehow
    548                if(osal_memcmp(JoiningExtAddr,tempJoiningDescNode->bdbJoiningNodeEui64,Z_EXTADDR_LEN))
    549                {
    550                  //The device added is already in the list, refresh its time and do nothing else
    551                  tempJoiningDescNode->NodeJoinTimeout = bdbAttributes.bdbTrustCenterNodeJoinTimeout;
    552                  return ZSuccess;
    553                }
    554              }
    555              
    556              tempJoiningDescNode->nextDev = osal_mem_alloc(sizeof(bdb_joiningDeviceList_t));
    557              if(tempJoiningDescNode->nextDev == NULL)
    558              {
    559                return ZFailure;
    560              }
    561              
    562              tempJoiningDescNode = tempJoiningDescNode->nextDev;
    563            }
    564            
    565            if(pfnTCLinkKeyExchangeProcessCB)
    566            {
    567              bdb_TCLinkKeyExchProcess_t bdb_TCLinkKeyExchProcess;
    568              osal_memcpy(bdb_TCLinkKeyExchProcess.extAddr,tempJoiningDescNode->bdbJoiningNodeEui64, Z_EXTADDR_LEN);
    569              bdb_TCLinkKeyExchProcess.status = BDB_TC_LK_EXCH_PROCESS_JOINING;
    570              
    571              bdb_SendMsg(bdb_TaskID, BDB_TC_LINK_KEY_EXCHANGE_PROCESS, BDB_MSG_EVENT_SUCCESS,sizeof(bdb_TCLinkKeyExchProcess_t),(uint8*)&bdb_TCLinkKeyExchProcess);
    572            }
    573            
    574            tempJoiningDescNode->nextDev = NULL;
    575            tempJoiningDescNode->NodeJoinTimeout = bdbAttributes.bdbTrustCenterNodeJoinTimeout;
    576            tempJoiningDescNode->parentAddr = parentAddr;
    577            osal_memcpy(tempJoiningDescNode->bdbJoiningNodeEui64, JoiningExtAddr, Z_EXTADDR_LEN);
    578            
    579            return ZSuccess;
    580          }
    581          
    582          /****************************************************************************
    583           * @fn          bdb_TCProcessJoiningList
    584           *
    585           * @brief       Process the timer to handle the joining devices if the TC link 
    586           *              key is mandatory for all devices
    587           *
    588           * @param       none
    589           *
    590           * @return      none
    591           */
    592          void bdb_TCProcessJoiningList(void)
    593          {
    594            bdb_joiningDeviceList_t* tempJoiningDescNode;
    595            
    596            if(bdb_joiningDeviceList)
    597            {
    598              tempJoiningDescNode = bdb_joiningDeviceList;
    599            
    600              while(tempJoiningDescNode)
    601              {
    602                if(tempJoiningDescNode->NodeJoinTimeout)
    603                {
    604                  tempJoiningDescNode->NodeJoinTimeout--;
    605                }
    606                
    607                if(tempJoiningDescNode->NodeJoinTimeout == 0)
    608                {
    609                  //Check if the key exchange is required 
    610                  if(bdb_doTrustCenterRequireKeyExchange())
    611                  {
    612                      AddrMgrEntry_t entry;
    613                      
    614                      entry.user = ADDRMGR_USER_DEFAULT;
    615                      osal_memcpy(entry.extAddr,tempJoiningDescNode->bdbJoiningNodeEui64, Z_EXTADDR_LEN);
    616                      
    617                      if(AddrMgrEntryLookupExt(&entry))
    618                      {
    619                        ZDSecMgrAPSRemove(entry.nwkAddr,entry.extAddr,tempJoiningDescNode->parentAddr);
    620                      }
    621                  }
    622                  
    623                  //Expired device either is legacy device not using the TCLK entry or got 
    624                  //removed from the network because of timeout, eitherway it is not using
    625                  //TCLK entry neither the Security user in the address manager, so free the entry
    626                  //in both tables.
    627                  
    628                  uint16 keyNvIndex;
    629                  uint16 index;        
    630                  APSME_TCLKDevEntry_t TCLKDevEntry;
    631                  uint8 found;
    632                  
    633                  //Remove the entry in address manager
    634                  ZDSecMgrAddrClear(tempJoiningDescNode->bdbJoiningNodeEui64);
    635                  
    636                  //search for the entry in the TCLK table
    637                  keyNvIndex = APSME_SearchTCLinkKeyEntry(tempJoiningDescNode->bdbJoiningNodeEui64,&found, NULL);
    638                  
    639                  //If found, erase it.
    640                  if(found == TRUE)
    641                  {
    642                    osal_memset(&TCLKDevEntry,0,sizeof(APSME_TCLKDevEntry_t));
    643                    TCLKDevEntry.keyAttributes = ZG_DEFAULT_KEY;
    644                    
    645                    //Increase the shift by one. Validate the maximum shift of the seed which is 15
    646                    index = keyNvIndex - ZCD_NV_TCLK_TABLE_START;
    647                    
    648                    TCLinkKeyFrmCntr[index].rxFrmCntr = 0;
    649                    TCLinkKeyFrmCntr[index].txFrmCntr = 0;
    650                    
    651                    //Update the entry
    652                    osal_nv_write(keyNvIndex,0,sizeof(APSME_TCLKDevEntry_t), &TCLKDevEntry );
    653                  }
    654                  
    655                  if(pfnTCLinkKeyExchangeProcessCB)
    656                  {
    657                    bdb_TCLinkKeyExchProcess_t bdb_TCLinkKeyExchProcess;
    658                    osal_memcpy(bdb_TCLinkKeyExchProcess.extAddr,tempJoiningDescNode->bdbJoiningNodeEui64, Z_EXTADDR_LEN);
    659                    bdb_TCLinkKeyExchProcess.status = BDB_TC_LK_EXCH_PROCESS_EXCH_FAIL;
    660                    
    661                    bdb_SendMsg(bdb_TaskID, BDB_TC_LINK_KEY_EXCHANGE_PROCESS, BDB_MSG_EVENT_SUCCESS,sizeof(bdb_TCLinkKeyExchProcess_t),(uint8*)&bdb_TCLinkKeyExchProcess);
    662                  }
    663                 
    664                  //Free the device from the list
    665                  bdb_TCJoiningDeviceFree(tempJoiningDescNode);
    666                }
    667                tempJoiningDescNode = tempJoiningDescNode->nextDev;
    668              }
    669            }
    670          
    671            //we are done with the list
    672            if(bdb_joiningDeviceList == NULL)
    673            {
    674              osal_stop_timerEx(bdb_TaskID,BDB_TC_JOIN_TIMEOUT);
    675            }
    676          }
    677          
    678          
    679          
    680          /****************************************************************************
    681           * @fn          bdb_TCjoiningDeviceComplete
    682           *
    683           * @brief       This function frees a joining device from the list that has 
    684           *              finished TC link key exchange process
    685           *
    686           * @param       JoiningExtAddr - Extended address of the device
    687           *
    688           * @return      none
    689           */
    690          void bdb_TCjoiningDeviceComplete(uint8* JoiningExtAddr)
    691          {
    692            bdb_joiningDeviceList_t* tempJoiningDescNode;
    693            
    694            if((bdb_joiningDeviceList != NULL) && (JoiningExtAddr != NULL))
    695            {
    696              tempJoiningDescNode = bdb_joiningDeviceList;
    697              
    698              while(tempJoiningDescNode != NULL)
    699              {
    700                if(osal_memcmp(tempJoiningDescNode->bdbJoiningNodeEui64,JoiningExtAddr,Z_EXTADDR_LEN))
    701                {
    702                  if(pfnTCLinkKeyExchangeProcessCB)
    703                  {
    704                    bdb_TCLinkKeyExchProcess_t bdb_TCLinkKeyExchProcess;
    705                    osal_memcpy(bdb_TCLinkKeyExchProcess.extAddr,tempJoiningDescNode->bdbJoiningNodeEui64, Z_EXTADDR_LEN);
    706                    bdb_TCLinkKeyExchProcess.status = BDB_TC_LK_EXCH_PROCESS_EXCH_SUCCESS;
    707                    
    708                    bdb_SendMsg(bdb_TaskID, BDB_TC_LINK_KEY_EXCHANGE_PROCESS, BDB_MSG_EVENT_SUCCESS,sizeof(bdb_TCLinkKeyExchProcess_t),(uint8*)&bdb_TCLinkKeyExchProcess);
    709                  }        
    710                  
    711                  bdb_TCJoiningDeviceFree(tempJoiningDescNode);
    712                  break;
    713                }
    714                tempJoiningDescNode = tempJoiningDescNode->nextDev;
    715              }
    716             
    717              if(bdb_joiningDeviceList == NULL)
    718              {
    719                osal_stop_timerEx(bdb_TaskID,BDB_TC_JOIN_TIMEOUT);
    720              }
    721            }
    722          }
    723          
    724          
    725          
    726          /****************************************************************************
    727           * @fn          bdb_TCJoiningDeviceFree
    728           *
    729           * @brief       This function frees a joining device from the list.
    730           *
    731           * @param       ZSuccess - If the device was found and erased
    732           * @param       ZInvalidParameter - Not found
    733           *
    734           * @return      none
    735           */
    736          ZStatus_t bdb_TCJoiningDeviceFree(bdb_joiningDeviceList_t* JoiningDeviceToRemove)
    737          {
    738            bdb_joiningDeviceList_t* descCurrent;
    739            bdb_joiningDeviceList_t* descPrev;
    740            
    741            //validate empty list?
    742            
    743            //Is it the first?
    744            if(osal_memcmp(bdb_joiningDeviceList->bdbJoiningNodeEui64, JoiningDeviceToRemove->bdbJoiningNodeEui64, Z_EXTADDR_LEN))
    745            {
    746              descCurrent = bdb_joiningDeviceList;
    747              bdb_joiningDeviceList = bdb_joiningDeviceList->nextDev;
    748              osal_mem_free( descCurrent );
    749              return ZSuccess;
    750            }
    751            
    752            descPrev = NULL;
    753            descCurrent = bdb_joiningDeviceList;
    754            
    755            while(descCurrent != NULL)
    756            {
    757              if(osal_memcmp(descCurrent->nextDev->bdbJoiningNodeEui64, JoiningDeviceToRemove->bdbJoiningNodeEui64, Z_EXTADDR_LEN))
    758              {
    759                descPrev = descCurrent;
    760                break;
    761              }
    762              descCurrent = descCurrent->nextDev;
    763            }
    764            if(descPrev == NULL)
    765            {
    766              //Not found
    767              return ZInvalidParameter;
    768            }
    769            
    770            descPrev->nextDev = descPrev->nextDev->nextDev;
    771              
    772            osal_mem_free( JoiningDeviceToRemove );
    773            return ZSuccess;
    774          
    775          }
    776          
    777           /*********************************************************************
    778           * @fn          bdb_setJoinUsesInstallCodeKey
    779           *
    780           * @brief       Set BDB attribute bdbJoinUsesInstallCodeKey.
    781           *
    782           * @param       set - If TRUE only devices with IC register in TC can join the 
    783           *              nwk, otherwise devices may or not have a IC register
    784           *
    785           * @return      none
    786           */
    787          void bdb_setJoinUsesInstallCodeKey(bool set)
    788          {
    789            bdbAttributes.bdbJoinUsesInstallCodeKey = set;
    790            if(set)
    791            {
    792              zgAllowInstallCodes = ZG_IC_MUST_USED;
    793            }
    794            else
    795            {
    796              zgAllowInstallCodes = ZG_IC_SUPPORTED_NOT_REQUIRED;
    797            }
    798          }
    799          #endif
    800          
    801           /*********************************************************************
    802           * @fn          bdb_StartCommissioning
    803           *
    804           * @brief       Start the commissioning process setting the commissioning mode given.
    805           *
    806           * @param       mode - refer to bdbCommissioningMode
    807           *
    808           * @return      none
    809           */

   \                                 In  segment BANKED_CODE, align 1, keep-with-next
    810          void bdb_StartCommissioning(uint8 mode)
   \                     bdb_StartCommissioning:
    811          {
   \   000000                REQUIRE ?V0
   \   000000                REQUIRE ?V2
   \   000000                REQUIRE ?V3
   \   000000   74F4         MOV       A,#-0xc
   \   000002   12....       LCALL     ?BANKED_ENTER_XDATA
   \   000005                ; Saved register size: 12
   \   000005                ; Auto size: 20
   \   000005   74EC         MOV       A,#-0x14
   \   000007   12....       LCALL     ?ALLOC_XSTACK8
   \   00000A   89..         MOV       ?V0,R1
    812            //Application cannot request to set the device in initialization mode or parent lost
    813            mode &= ~(BDB_COMMISSIONING_MODE_INITIALIZATION | BDB_COMMISSIONING_MODE_PARENT_LOST);
    814              
    815          #ifdef BDB_TL_INITIATOR
    816            if ( touchlinkFNReset == TRUE )
    817            {
    818              return;
    819            }
    820          #else
    821            //Commissioning mode used only for initiator
    822            mode &= ~BDB_COMMISSIONING_MODE_INITIATOR_TL;
   \   00000C   53..CE       ANL       ?V0,#0xce
    823          #endif
    824            
    825          #if (BDB_FINDING_BINDING_CAPABILITY_ENABLED==0)    
    826            //Commissioning mode used only for devices with F&B
    827            mode &= ~BDB_COMMISSIONING_MODE_FINDING_BINDING;
    828          #endif
    829           
    830            //If we have running process or the machine state is triggered, then just append and it will be excecuted
    831            if((bdbAttributes.bdbCommissioningMode) || (osal_get_timeoutEx(bdb_TaskID,BDB_CHANGE_COMMISSIONING_STATE)))
   \   00000F   90....       MOV       DPTR,#bdbAttributes + 11
   \   000012   E0           MOVX      A,@DPTR
   \   000013   7009         JNZ       ??bdb_StartCommissioning_0
   \   000015                ; Setup parameters for call to function osal_get_timeoutEx
   \   000015   7A04         MOV       R2,#0x4
   \   000017   7B00         MOV       R3,#0x0
   \   000019   12....       LCALL     ??Subroutine45_0 & 0xFFFF
   \                     ??CrossCallReturnLabel_65:
   \   00001C   602B         JZ        ??bdb_StartCommissioning_1
    832            {
    833          #if ZG_BUILD_ENDDEVICE_TYPE
    834              if(ZG_DEVICE_ENDDEVICE_TYPE)
    835              {
    836                //Devices with parent lost are not allowed to perform actions
    837                if(bdbAttributes.bdbCommissioningMode & BDB_COMMISSIONING_MODE_PARENT_LOST)
   \                     ??bdb_StartCommissioning_0:
   \   00001E   90....       MOV       DPTR,#bdbAttributes + 11
   \   000021   E0           MOVX      A,@DPTR
   \   000022   A2E5         MOV       C,0xE0 /* A   */.5
   \   000024   5003         JNC       $+5
   \   000026   02....       LJMP      ??bdb_StartCommissioning_2 & 0xFFFF
    838                {
    839                  return;
    840                }
    841              }
    842          #endif
    843              
    844              //If we are on the network and got requested to do nwk steering, we do not need to wait other process, 
    845              // just send permit joining and report the application
    846              if((bdbAttributes.bdbNodeIsOnANetwork) && (mode & BDB_COMMISSIONING_MODE_NWK_STEERING))
   \   000029   90....       MOV       DPTR,#bdbAttributes + 14
   \   00002C   E0           MOVX      A,@DPTR
   \   00002D   600C         JZ        ??bdb_StartCommissioning_3
   \   00002F   E5..         MOV       A,?V0
   \   000031   A2E1         MOV       C,0xE0 /* A   */.1
   \   000033   5006         JNC       ??bdb_StartCommissioning_3
    847              {
    848                bdb_nwkSteeringDeviceOnNwk();
   \   000035                ; Setup parameters for call to function bdb_nwkSteeringDeviceOnNwk
   \   000035   12....       LCALL     ?Subroutine30 & 0xFFFF
    849                bdb_reportCommissioningState(BDB_COMMISSIONING_STATE_STEERING_ON_NWK, TRUE);
    850                
    851                //Clean nwk steering
    852                mode ^= BDB_COMMISSIONING_MODE_NWK_STEERING; 
   \                     ??CrossCallReturnLabel_38:
   \   000038   63..02       XRL       ?V0,#0x2
    853              }
    854              
    855              //add the remaining valid commissioning modes requested, those will be process when bdb finish its current process
    856              bdbAttributes.bdbCommissioningMode |= mode & BDB_COMMISSIONING_MODES;
   \                     ??bdb_StartCommissioning_3:
   \   00003B   743F         MOV       A,#0x3f
   \   00003D   55..         ANL       A,?V0
   \   00003F   F8           MOV       R0,A
   \   000040   90....       MOV       DPTR,#bdbAttributes + 11
   \   000043   E0           MOVX      A,@DPTR
   \   000044   48           ORL       A,R0
   \   000045   F0           MOVX      @DPTR,A
    857              return;      
   \   000046   02....       LJMP      ??bdb_StartCommissioning_2 & 0xFFFF
    858            }
    859          
    860            //Save the commissioning modes valid requested
    861            bdbAttributes.bdbCommissioningMode |= mode & BDB_COMMISSIONING_MODES;
   \                     ??bdb_StartCommissioning_1:
   \   000049   743F         MOV       A,#0x3f
   \   00004B   55..         ANL       A,?V0
   \   00004D   FE           MOV       R6,A
   \   00004E   90....       MOV       DPTR,#bdbAttributes + 11
   \   000051   E0           MOVX      A,@DPTR
   \   000052   4E           ORL       A,R6
   \   000053   F0           MOVX      @DPTR,A
    862            
    863            
    864            //Start processing the initialization, once per power cycle.
    865            if(!bdb_initialization)
   \   000054   90....       MOV       DPTR,#bdb_initialization
   \   000057   E0           MOVX      A,@DPTR
   \   000058   6003         JZ        $+5
   \   00005A   02....       LJMP      ??bdb_StartCommissioning_4 & 0xFFFF
    866            {
    867              bdb_initialization = TRUE;
   \   00005D   7401         MOV       A,#0x1
   \   00005F   F0           MOVX      @DPTR,A
    868              
    869          #ifdef BDB_REPORTING
    870              //Delete NV data if startup was with factory reset
    871              if(ZDO_INITDEV_NEW_NETWORK_STATE == ZDApp_ReadNetworkRestoreState())
   \   000060                ; Setup parameters for call to function ZDApp_ReadNetworkRestoreState
   \   000060   12....       LCALL     `??ZDApp_ReadNetworkRestoreState::?relay`; Banked call to: ZDApp_ReadNetworkRestoreState
   \   000063   E9           MOV       A,R1
   \   000064   6401         XRL       A,#0x1
   \   000066   701A         JNZ       ??bdb_StartCommissioning_5
    872              {
    873                //Factory reset bdb reporting NV data
    874                uint16 attrRepNvLen = osal_nv_item_len( ZCD_NV_BDBREPORTINGCONFIG );
   \   000068                ; Setup parameters for call to function osal_nv_item_len
   \   000068   7A56         MOV       R2,#0x56
   \   00006A   7B00         MOV       R3,#0x0
   \   00006C   12....       LCALL     `??osal_nv_item_len::?relay`; Banked call to: osal_nv_item_len
   \   00006F   8A..         MOV       ?V2,R2
   \   000071   8B..         MOV       ?V3,R3
   \   000073   AC..         MOV       R4,?V2
   \   000075   AD..         MOV       R5,?V3
    875                if ( attrRepNvLen > 0 )
   \   000077   EA           MOV       A,R2
   \   000078   4D           ORL       A,R5
   \   000079   6007         JZ        ??bdb_StartCommissioning_5
    876                {
    877                  osal_nv_delete( ZCD_NV_BDBREPORTINGCONFIG, attrRepNvLen );
   \   00007B                ; Setup parameters for call to function osal_nv_delete
   \   00007B   7A56         MOV       R2,#0x56
   \   00007D   7B00         MOV       R3,#0x0
   \   00007F   12....       LCALL     `??osal_nv_delete::?relay`; Banked call to: osal_nv_delete
    878                }
    879              }
    880          
    881              //Construct the Endpoint-cluster array
    882              bdb_RepConstructReportingData();
   \                     ??bdb_StartCommissioning_5:
   \   000082                ; Setup parameters for call to function bdb_RepConstructReportingData
   \   000082   12....       LCALL     `??bdb_RepConstructReportingData::?relay`; Banked call to: bdb_RepConstructReportingData
    883          #endif //BDB_REPORTING
    884              
    885              osal_nv_read(ZCD_NV_BDBNODEISONANETWORK,0,sizeof(bdbAttributes.bdbNodeIsOnANetwork),&bdbAttributes.bdbNodeIsOnANetwork);
   \   000085                ; Setup parameters for call to function osal_nv_read
   \   000085   75....       MOV       ?V2,#(bdbAttributes + 14) & 0xff
   \   000088   75....       MOV       ?V3,#((bdbAttributes + 14) >> 8) & 0xff
   \   00008B   78..         MOV       R0,#?V2
   \   00008D   12....       LCALL     ?PUSH_XSTACK_I_TWO
   \   000090   75..01       MOV       ?V2,#0x1
   \   000093   75..00       MOV       ?V3,#0x0
   \   000096   78..         MOV       R0,#?V2
   \   000098   12....       LCALL     ?PUSH_XSTACK_I_TWO
   \   00009B   7C00         MOV       R4,#0x0
   \   00009D   7D00         MOV       R5,#0x0
   \   00009F   7A55         MOV       R2,#0x55
   \   0000A1   7B00         MOV       R3,#0x0
   \   0000A3   12....       LCALL     `??osal_nv_read::?relay`; Banked call to: osal_nv_read
   \   0000A6   7404         MOV       A,#0x4
   \   0000A8   12....       LCALL     ?DEALLOC_XSTACK8
    886              
    887              //Are we on a network
    888              if(bdbAttributes.bdbNodeIsOnANetwork == TRUE)
   \   0000AB   90....       MOV       DPTR,#bdbAttributes + 14
   \   0000AE   E0           MOVX      A,@DPTR
   \   0000AF   6401         XRL       A,#0x1
   \   0000B1   6003         JZ        $+5
   \   0000B3   02....       LJMP      ??bdb_StartCommissioning_4 & 0xFFFF
    889              {
    890          #ifdef ZG_BUILD_JOINING_TYPE
    891                //Only for joining devices validate the joining procedure
    892                if(ZG_DEVICE_JOINING_TYPE)
   \   0000B6   90....       MOV       DPTR,#zgDeviceLogicalType
   \   0000B9   E0           MOVX      A,@DPTR
   \   0000BA   6401         XRL       A,#0x1
   \   0000BC   6008         JZ        ??bdb_StartCommissioning_6
   \   0000BE   E0           MOVX      A,@DPTR
   \   0000BF   6402         XRL       A,#0x2
   \   0000C1   6003         JZ        $+5
   \   0000C3   02....       LJMP      ??bdb_StartCommissioning_7 & 0xFFFF
    893                {
    894                  //If we got into a network
    895                  if(!osal_isbufset( AIB_apsTrustCenterAddress, 0x00, Z_EXTADDR_LEN ))
   \                     ??bdb_StartCommissioning_6:
   \   0000C6                ; Setup parameters for call to function osal_isbufset
   \   0000C6   7C08         MOV       R4,#0x8
   \   0000C8   7900         MOV       R1,#0x0
   \   0000CA   90....       MOV       DPTR,#AIB_apsTrustCenterAddress
   \   0000CD   12....       LCALL     ??Subroutine62_0 & 0xFFFF
   \                     ??CrossCallReturnLabel_147:
   \   0000D0   12....       LCALL     `??osal_isbufset::?relay`; Banked call to: osal_isbufset
   \   0000D3   E9           MOV       A,R1
   \   0000D4   6003         JZ        $+5
   \   0000D6   02....       LJMP      ??bdb_StartCommissioning_7 & 0xFFFF
    896                  {
    897                    //Which is not distributed
    898                    if(!APSME_IsDistributedSecurity())
   \   0000D9                ; Setup parameters for call to function APSME_IsDistributedSecurity
   \   0000D9   12....       LCALL     `??APSME_IsDistributedSecurity::?relay`; Banked call to: APSME_IsDistributedSecurity
   \   0000DC   E9           MOV       A,R1
   \   0000DD   6003         JZ        $+5
   \   0000DF   02....       LJMP      ??bdb_StartCommissioning_7 & 0xFFFF
    899                    {
    900                      uint8 keyAttributes;
    901                      osal_nv_read(ZCD_NV_TCLK_TABLE_START, osal_offsetof(APSME_TCLKDevEntry_t,keyAttributes), sizeof(uint8), &keyAttributes);
   \   0000E2                ; Setup parameters for call to function osal_nv_read
   \   0000E2   A8..         MOV       R0,?XSP + 0
   \   0000E4   A9..         MOV       R1,?XSP + 1
   \   0000E6   88..         MOV       ?V2,R0
   \   0000E8   89..         MOV       ?V3,R1
   \   0000EA   78..         MOV       R0,#?V2
   \   0000EC   12....       LCALL     ?PUSH_XSTACK_I_TWO
   \   0000EF   75..01       MOV       ?V2,#0x1
   \   0000F2   75..00       MOV       ?V3,#0x0
   \   0000F5   78..         MOV       R0,#?V2
   \   0000F7   12....       LCALL     ?PUSH_XSTACK_I_TWO
   \   0000FA   7C10         MOV       R4,#0x10
   \   0000FC   7D00         MOV       R5,#0x0
   \   0000FE   7A11         MOV       R2,#0x11
   \   000100   7B01         MOV       R3,#0x1
   \   000102   12....       LCALL     `??osal_nv_read::?relay`; Banked call to: osal_nv_read
   \   000105   7404         MOV       A,#0x4
   \   000107   12....       LCALL     ?DEALLOC_XSTACK8
    902                      //If we must perform the TCLK exchange and we didn't complete it, then reset to FN
    903                      if(requestNewTrustCenterLinkKey && (keyAttributes != ZG_NON_R21_NWK_JOINED) && (keyAttributes != ZG_VERIFIED_KEY))
   \   00010A   90....       MOV       DPTR,#requestNewTrustCenterLinkKey
   \   00010D   E0           MOVX      A,@DPTR
   \   00010E   7003         JNZ       $+5
   \   000110   02....       LJMP      ??bdb_StartCommissioning_7 & 0xFFFF
   \   000113   85..82       MOV       DPL,?XSP + 0
   \   000116   85..83       MOV       DPH,?XSP + 1
   \   000119   E0           MOVX      A,@DPTR
   \   00011A   64FD         XRL       A,#0xfd
   \   00011C   607E         JZ        ??bdb_StartCommissioning_7
   \   00011E   E0           MOVX      A,@DPTR
   \   00011F   6402         XRL       A,#0x2
   \   000121   6079         JZ        ??bdb_StartCommissioning_7
    904                      {
    905                        //Force to initialize the entry
    906                        APSME_TCLKDevEntry_t APSME_TCLKDevEntry;
    907                        
    908                        osal_memset(&APSME_TCLKDevEntry,0,sizeof(APSME_TCLKDevEntry_t));
   \   000123                ; Setup parameters for call to function osal_memset
   \   000123   7C13         MOV       R4,#0x13
   \   000125   7D00         MOV       R5,#0x0
   \   000127   7900         MOV       R1,#0x0
   \   000129   7401         MOV       A,#0x1
   \   00012B   12....       LCALL     ?XSTACK_DISP101_8
   \   00012E   12....       LCALL     `??osal_memset::?relay`; Banked call to: osal_memset
    909                        APSME_TCLKDevEntry.keyAttributes = ZG_DEFAULT_KEY;
   \   000131   7411         MOV       A,#0x11
   \   000133   12....       LCALL     ?XSTACK_DISP0_8
   \   000136   74FF         MOV       A,#-0x1
   \   000138   F0           MOVX      @DPTR,A
    910                        osal_nv_write(ZCD_NV_TCLK_TABLE_START, 0, sizeof(APSME_TCLKDevEntry_t), &APSME_TCLKDevEntry);
   \   000139                ; Setup parameters for call to function osal_nv_write
   \   000139   7401         MOV       A,#0x1
   \   00013B   12....       LCALL     ?XSTACK_DISP100_8
   \   00013E   88..         MOV       ?V2,R0
   \   000140   89..         MOV       ?V3,R1
   \   000142   78..         MOV       R0,#?V2
   \   000144   12....       LCALL     ?PUSH_XSTACK_I_TWO
   \   000147   75..13       MOV       ?V2,#0x13
   \   00014A   75..00       MOV       ?V3,#0x0
   \   00014D   78..         MOV       R0,#?V2
   \   00014F   12....       LCALL     ?PUSH_XSTACK_I_TWO
   \   000152   7C00         MOV       R4,#0x0
   \   000154   7D00         MOV       R5,#0x0
   \   000156   7A11         MOV       R2,#0x11
   \   000158   7B01         MOV       R3,#0x1
   \   00015A   12....       LCALL     ??Subroutine59_0 & 0xFFFF
   \                     ??CrossCallReturnLabel_145:
   \   00015D   12....       LCALL     ?DEALLOC_XSTACK8
    911                        TCLinkKeyFrmCntr[0].txFrmCntr = 0;
   \   000160   90....       MOV       DPTR,#TCLinkKeyFrmCntr
   \   000163   E4           CLR       A
   \   000164   F0           MOVX      @DPTR,A
   \   000165   A3           INC       DPTR
   \   000166   F0           MOVX      @DPTR,A
   \   000167   A3           INC       DPTR
   \   000168   F0           MOVX      @DPTR,A
   \   000169   A3           INC       DPTR
   \   00016A   F0           MOVX      @DPTR,A
    912                        TCLinkKeyFrmCntr[0].rxFrmCntr = 0;
   \   00016B   A3           INC       DPTR
   \   00016C   F0           MOVX      @DPTR,A
   \   00016D   A3           INC       DPTR
   \   00016E   F0           MOVX      @DPTR,A
   \   00016F   A3           INC       DPTR
   \   000170   F0           MOVX      @DPTR,A
   \   000171   A3           INC       DPTR
   \   000172   F0           MOVX      @DPTR,A
    913                        
    914                        
    915                        //reset the device parameters to FN
    916                        bdbAttributes.bdbNodeIsOnANetwork = FALSE;
   \   000173   90....       MOV       DPTR,#bdbAttributes + 14
   \   000176   F0           MOVX      @DPTR,A
    917                        osal_nv_write(ZCD_NV_BDBNODEISONANETWORK,0,sizeof(bdbAttributes.bdbNodeIsOnANetwork),&bdbAttributes.bdbNodeIsOnANetwork);
   \   000177                ; Setup parameters for call to function osal_nv_write
   \   000177   75....       MOV       ?V2,#(bdbAttributes + 14) & 0xff
   \   00017A   75....       MOV       ?V3,#((bdbAttributes + 14) >> 8) & 0xff
   \   00017D   78..         MOV       R0,#?V2
   \   00017F   12....       LCALL     ?PUSH_XSTACK_I_TWO
   \   000182   75..01       MOV       ?V2,#0x1
   \   000185   75..00       MOV       ?V3,#0x0
   \   000188   78..         MOV       R0,#?V2
   \   00018A   12....       LCALL     ?PUSH_XSTACK_I_TWO
   \   00018D   12....       LCALL     ?Subroutine31 & 0xFFFF
   \                     ??CrossCallReturnLabel_143:
   \   000190   12....       LCALL     ?DEALLOC_XSTACK8
    918                        zgWriteStartupOptions(ZG_STARTUP_SET, ZCD_STARTOPT_DEFAULT_CONFIG_STATE | ZCD_STARTOPT_DEFAULT_NETWORK_STATE);
   \   000193                ; Setup parameters for call to function zgWriteStartupOptions
   \   000193   7A03         MOV       R2,#0x3
   \   000195   79FF         MOV       R1,#-0x1
   \   000197   12....       LCALL     `??zgWriteStartupOptions::?relay`; Banked call to: zgWriteStartupOptions
    919                        
    920                        //Then start the commissioning process requested
    921                        bdbCommissioningProcedureState.bdbCommissioningState = BDB_COMMISSIONING_STATE_START_RESUME;
   \   00019A   8040         SJMP      ??bdb_StartCommissioning_8
    922                        osal_set_event( bdb_TaskID, BDB_CHANGE_COMMISSIONING_STATE );
    923                        return;
    924                      }
    925                    }
    926                  }
    927                }
    928          #endif //ZG_BUILD_JOINING_TYPE
    929                
    930                //Set the initialization
    931                bdbAttributes.bdbCommissioningMode |= BDB_COMMISSIONING_MODE_INITIALIZATION;
    932                bdbCommissioningProcedureState.bdbCommissioningState = BDB_INITIALIZATION;
   \                     ??bdb_StartCommissioning_7:
   \   00019C   90....       MOV       DPTR,#bdbCommissioningProcedureState
   \   00019F   7407         MOV       A,#0x7
   \   0001A1   F0           MOVX      @DPTR,A
    933                bdbAttributes.bdbCommissioningMode |= mode & BDB_COMMISSIONING_MODES;
   \   0001A2   7410         MOV       A,#0x10
   \   0001A4   4E           ORL       A,R6
   \   0001A5   F8           MOV       R0,A
   \   0001A6   90....       MOV       DPTR,#bdbAttributes + 11
   \   0001A9   E0           MOVX      A,@DPTR
   \   0001AA   48           ORL       A,R0
   \   0001AB   F0           MOVX      @DPTR,A
    934                
    935                if(ZDOInitDevice(0) == ZDO_INITDEV_RESTORED_NETWORK_STATE)
   \   0001AC                ; Setup parameters for call to function ZDOInitDeviceEx
   \   0001AC   7900         MOV       R1,#0x0
   \   0001AE   7A00         MOV       R2,#0x0
   \   0001B0   7B00         MOV       R3,#0x0
   \   0001B2   12....       LCALL     `??ZDOInitDeviceEx::?relay`; Banked call to: ZDOInitDeviceEx
   \   0001B5   E9           MOV       A,R1
   \   0001B6   7005         JNZ       ??bdb_StartCommissioning_9
    936                {
    937          #ifdef BDB_REPORTING
    938                  //Mark the clusterEndpoint entries that have binding, starts reporting if at least one entry was marked
    939                  bdb_RepUpdateMarkBindings();
   \   0001B8                ; Setup parameters for call to function bdb_RepUpdateMarkBindings
   \   0001B8   12....       LCALL     `??bdb_RepUpdateMarkBindings::?relay`; Banked call to: bdb_RepUpdateMarkBindings
    940          #endif
    941                  return;
   \   0001BB   802F         SJMP      ??bdb_StartCommissioning_2
    942                }
    943                bdb_setNodeIsOnANetwork(FALSE);  
   \                     ??bdb_StartCommissioning_9:
   \   0001BD                ; Setup parameters for call to function bdb_setNodeIsOnANetwork
   \   0001BD   7900         MOV       R1,#0x0
   \   0001BF   12....       LCALL     `??bdb_setNodeIsOnANetwork::?relay`; Banked call to: bdb_setNodeIsOnANetwork
    944                //Not in the network
    945                bdb_reportCommissioningState(BDB_INITIALIZATION,FALSE);
   \   0001C2                ; Setup parameters for call to function bdb_reportCommissioningState
   \   0001C2   7A00         MOV       R2,#0x0
   \   0001C4   7907         MOV       R1,#0x7
   \   0001C6   800F         SJMP      ??bdb_StartCommissioning_10
    946                return;
    947              }
    948            }
    949          
    950            //Got requested only to initialize, if so, report that it failed
    951            if(bdbAttributes.bdbCommissioningMode == 0)
   \                     ??bdb_StartCommissioning_4:
   \   0001C8   90....       MOV       DPTR,#bdbAttributes + 11
   \   0001CB   E0           MOVX      A,@DPTR
   \   0001CC   700E         JNZ       ??bdb_StartCommissioning_8
    952            {
    953              //Set the initialization state and report it to fail
    954              bdbCommissioningProcedureState.bdbCommissioningState = BDB_INITIALIZATION;
   \   0001CE   90....       MOV       DPTR,#bdbCommissioningProcedureState
   \   0001D1   7407         MOV       A,#0x7
   \   0001D3   F0           MOVX      @DPTR,A
    955              bdb_reportCommissioningState(BDB_INITIALIZATION,FALSE);
   \   0001D4                ; Setup parameters for call to function bdb_reportCommissioningState
   \   0001D4   7A00         MOV       R2,#0x0
   \   0001D6   F9           MOV       R1,A
   \                     ??bdb_StartCommissioning_10:
   \   0001D7   12....       LCALL     `??bdb_reportCommissioningState::?relay`; Banked call to: bdb_reportCommissioningState
    956              return;
   \   0001DA   8010         SJMP      ??bdb_StartCommissioning_2
    957            }
    958          
    959            
    960            //Start the commissioning process
    961            bdbCommissioningProcedureState.bdbCommissioningState = BDB_COMMISSIONING_STATE_START_RESUME;
   \                     ??bdb_StartCommissioning_8:
   \   0001DC   90....       MOV       DPTR,#bdbCommissioningProcedureState
   \   0001DF   E4           CLR       A
   \   0001E0   F0           MOVX      @DPTR,A
    962            osal_set_event( bdb_TaskID, BDB_CHANGE_COMMISSIONING_STATE );
   \   0001E1                ; Setup parameters for call to function osal_set_event
   \   0001E1   7A04         MOV       R2,#0x4
   \   0001E3   FB           MOV       R3,A
   \   0001E4   90....       MOV       DPTR,#bdb_TaskID
   \   0001E7   E0           MOVX      A,@DPTR
   \   0001E8   F9           MOV       R1,A
   \   0001E9   12....       LCALL     `??osal_set_event::?relay`; Banked call to: osal_set_event
    963          }
   \                     ??bdb_StartCommissioning_2:
   \   0001EC   7414         MOV       A,#0x14
   \   0001EE   02....       LJMP      ??Subroutine49_0 & 0xFFFF

   \                                 In  segment BANKED_CODE, align 1, keep-with-next
   \                     ??Subroutine45_0:
   \   000000   90....       MOV       DPTR,#bdb_TaskID
   \   000003   E0           MOVX      A,@DPTR
   \   000004   F9           MOV       R1,A
   \   000005   12....       LCALL     `??osal_get_timeoutEx::?relay`; Banked call to: osal_get_timeoutEx
   \   000008   EA           MOV       A,R2
   \   000009   4B           ORL       A,R3
   \   00000A   4C           ORL       A,R4
   \   00000B   4D           ORL       A,R5
   \   00000C   22           RET

   \                                 In  segment BANKED_CODE, align 1, keep-with-next
   \                     ??Subroutine46_0:
   \   000000   E0           MOVX      A,@DPTR
   \   000001   FA           MOV       R2,A
   \   000002   A3           INC       DPTR
   \   000003   E0           MOVX      A,@DPTR
   \   000004   FB           MOV       R3,A
   \   000005   22           RET

   \                                 In  segment BANKED_CODE, align 1, keep-with-next
   \                     ?Subroutine30:
   \   000000   12....       LCALL     `??bdb_nwkSteeringDeviceOnNwk::?relay`; Banked call to: bdb_nwkSteeringDeviceOnNwk
   \   000003                ; Setup parameters for call to function bdb_reportCommissioningState
   \   000003                ; Setup parameters for call to function bdb_reportCommissioningState
   \   000003                ; Setup parameters for call to function bdb_reportCommissioningState
   \   000003   7A01         MOV       R2,#0x1
   \   000005   7904         MOV       R1,#0x4
   \   000007   12....       LCALL     `??bdb_reportCommissioningState::?relay`; Banked call to: bdb_reportCommissioningState
   \   00000A   22           RET

   \                                 In  segment BANKED_CODE, align 1, keep-with-next
   \                     ?Subroutine31:
   \   000000   7C00         MOV       R4,#0x0
   \   000002   7D00         MOV       R5,#0x0
   \   000004   7A55         MOV       R2,#0x55
   \   000006   7B00         MOV       R3,#0x0
   \   000008                REQUIRE ??Subroutine59_0
   \   000008                ; // Fall through to label ??Subroutine59_0

   \                                 In  segment BANKED_CODE, align 1, keep-with-next
   \                     ??Subroutine59_0:
   \   000000   12....       LCALL     `??osal_nv_write::?relay`; Banked call to: osal_nv_write
   \   000003   7404         MOV       A,#0x4
   \   000005   22           RET

   \                                 In  segment BANKED_CODE, align 1, keep-with-next
   \                     ??Subroutine62_0:
   \   000000   12....       LCALL     ??Subroutine46_0 & 0xFFFF
   \                     ??CrossCallReturnLabel_158:
   \   000003   22           RET
    964          
    965          
    966           /*********************************************************************
    967           * @fn          bdb_NotifyCommissioningModeStart
    968           *
    969           * @brief       Notify the user about a commissioning method just started
    970           *
    971           * @param       commissioningMode
    972           *
    973           * @return      none
    974           */

   \                                 In  segment BANKED_CODE, align 1, keep-with-next
    975          void bdb_NotifyCommissioningModeStart(uint8 commissioningMode)
   \                     bdb_NotifyCommissioningModeStart:
    976          {
   \   000000                REQUIRE ?V0
   \   000000                REQUIRE ?V1
   \   000000   74F6         MOV       A,#-0xa
   \   000002   12....       LCALL     ?BANKED_ENTER_XDATA
   \   000005                ; Saved register size: 10
   \   000005                ; Auto size: 3
   \   000005   74FD         MOV       A,#-0x3
   \   000007   12....       LCALL     ?ALLOC_XSTACK8
    977            bdbCommissioningModeMsg_t bdbCommissioningModeMsg;
    978          
    979            bdbCommissioningModeMsg.bdbCommissioningMode = commissioningMode;
   \   00000A   7401         MOV       A,#0x1
   \   00000C   12....       LCALL     ?XSTACK_DISP0_8
   \   00000F   E9           MOV       A,R1
   \   000010   12....       LCALL     ?Subroutine9 & 0xFFFF
    980            bdbCommissioningModeMsg.bdbCommissioningStatus = BDB_COMMISSIONING_IN_PROGRESS;
   \                     ??CrossCallReturnLabel_9:
   \   000013   12....       LCALL     ?Subroutine5 & 0xFFFF
    981            //Remaining commissioning modes are set just before the call to the application to avoid race conditions
    982          
    983            bdb_NotifyApp((uint8*)&bdbCommissioningModeMsg);
   \                     ??CrossCallReturnLabel_0:
   \   000016   12....       LCALL     ?PUSH_XSTACK_I_TWO
   \   000019   12....       LCALL     ?Subroutine15 & 0xFFFF
   \                     ??CrossCallReturnLabel_75:
   \   00001C   12....       LCALL     ?DEALLOC_XSTACK8
    984          }
   \   00001F   7403         MOV       A,#0x3
   \   000021   02....       LJMP      ??Subroutine60_0 & 0xFFFF

   \                                 In  segment BANKED_CODE, align 1, keep-with-next
   \                     ?Subroutine5:
   \   000000   F0           MOVX      @DPTR,A
   \   000001                ; Setup parameters for call to function bdb_SendMsg
   \   000001                ; Setup parameters for call to function bdb_SendMsg
   \   000001                ; Setup parameters for call to function bdb_SendMsg
   \   000001                ; Setup parameters for call to function bdb_SendMsg
   \   000001   A8..         MOV       R0,?XSP + 0
   \   000003   A9..         MOV       R1,?XSP + 1
   \   000005   88..         MOV       ?V0,R0
   \   000007   89..         MOV       ?V1,R1
   \   000009   78..         MOV       R0,#?V0
   \   00000B   22           RET

   \                                 In  segment BANKED_CODE, align 1, keep-with-next
   \                     ?Subroutine9:
   \   000000   F0           MOVX      @DPTR,A
   \   000001   85..82       MOV       DPL,?XSP + 0
   \   000004   85..83       MOV       DPH,?XSP + 1
   \   000007   7401         MOV       A,#0x1
   \   000009   22           RET

   \                                 In  segment BANKED_CODE, align 1, keep-with-next
   \                     ?Subroutine15:
   \   000000   7C03         MOV       R4,#0x3
   \   000002   7B00         MOV       R3,#0x0
   \   000004   7A0A         MOV       R2,#0xa
   \   000006                REQUIRE ??Subroutine48_0
   \   000006                ; // Fall through to label ??Subroutine48_0

   \                                 In  segment BANKED_CODE, align 1, keep-with-next
   \                     ??Subroutine48_0:
   \   000000   90....       MOV       DPTR,#bdb_TaskID
   \   000003   E0           MOVX      A,@DPTR
   \   000004   F9           MOV       R1,A
   \   000005   12....       LCALL     `??bdb_SendMsg::?relay`; Banked call to: bdb_SendMsg
   \   000008   7402         MOV       A,#0x2
   \   00000A   22           RET
    985          
    986          
    987          
    988          #if (ZG_BUILD_JOINING_TYPE)
    989           /*********************************************************************
    990           * @fn          bdb_setNodeJoinLinkKeyType
    991           *
    992           * @brief       Set the key type in use in the network joined. Global centralized key is used by default
    993           *
    994           * @param       none
    995           *
    996           * @return      none
    997           */

   \                                 In  segment BANKED_CODE, align 1, keep-with-next
    998          void bdb_setNodeJoinLinkKeyType(uint8 KeyType)
   \                     bdb_setNodeJoinLinkKeyType:
    999          {
   \   000000   C082         PUSH      DPL
   \   000002   C083         PUSH      DPH
   \   000004                ; Saved register size: 2
   \   000004                ; Auto size: 0
   1000            bdbAttributes.bdbNodeJoinLinkKeyType = KeyType;
   \   000004   E9           MOV       A,R1
   \   000005   90....       MOV       DPTR,#bdbAttributes + 15
   \   000008   02....       LJMP      ??Subroutine43_0 & 0xFFFF
   1001          }

   \                                 In  segment BANKED_CODE, align 1, keep-with-next
   \                     ??Subroutine43_0:
   \   000000   F0           MOVX      @DPTR,A
   \   000001                REQUIRE ??Subroutine44_0
   \   000001                ; // Fall through to label ??Subroutine44_0

   \                                 In  segment BANKED_CODE, align 1, keep-with-next
   \                     ??Subroutine44_0:
   \   000000   D083         POP       DPH
   \   000002   D082         POP       DPL
   \   000004   02....       LJMP      ?BRET
   1002          #endif
   1003          
   1004           /*********************************************************************
   1005           * @fn          bdb_setFN
   1006           *
   1007           * @brief       Set configuration for FN. This FN configuration will be perfome 
   1008           *              upon call to ZDOInitDevice
   1009           *
   1010           * @param       none
   1011           *
   1012           * @return      none
   1013           */

   \                                 In  segment BANKED_CODE, align 1, keep-with-next
   1014          void bdb_setFN(void)
   \                     bdb_setFN:
   1015          {
   \   000000   C082         PUSH      DPL
   \   000002   C083         PUSH      DPH
   \   000004                ; Saved register size: 2
   \   000004                ; Auto size: 0
   1016            bdb_setNodeIsOnANetwork(FALSE);
   \   000004                ; Setup parameters for call to function bdb_setNodeIsOnANetwork
   \   000004   7900         MOV       R1,#0x0
   \   000006   12....       LCALL     `??bdb_setNodeIsOnANetwork::?relay`; Banked call to: bdb_setNodeIsOnANetwork
   1017          
   1018          #if defined ( INTER_PAN ) && defined ( BDB_TL_INITIATOR )
   1019              touchLink_InitFreeRanges( TRUE );
   1020              touchLink_UpdateNV( TOUCHLINK_UPDATE_NV_RANGES );
   1021          #endif
   1022          #if defined ( INTER_PAN ) && defined ( BDB_TL_TARGET ) 
   1023              touchLink_InitFreeRanges( FALSE );
   1024              touchLink_UpdateNV( TOUCHLINK_UPDATE_NV_RANGES );
   1025          #endif
   1026          
   1027            //Set the device as factory new
   1028            zgWriteStartupOptions(ZG_STARTUP_SET, ZCD_STARTOPT_DEFAULT_CONFIG_STATE | ZCD_STARTOPT_DEFAULT_NETWORK_STATE);
   \   000009                ; Setup parameters for call to function zgWriteStartupOptions
   \   000009   7A03         MOV       R2,#0x3
   \   00000B   79FF         MOV       R1,#-0x1
   \   00000D   12....       LCALL     `??zgWriteStartupOptions::?relay`; Banked call to: zgWriteStartupOptions
   1029          }
   \   000010   02....       LJMP      ??Subroutine44_0 & 0xFFFF
   1030          
   1031           /*********************************************************************
   1032           * @fn          bdb_resetLocalAction
   1033           *
   1034           * @brief       Application interface to perform BDB Reset to FN.
   1035           *
   1036           * @param       none
   1037           *
   1038           * @return      none
   1039           */

   \                                 In  segment BANKED_CODE, align 1, keep-with-next
   1040          void bdb_resetLocalAction(void)
   \                     bdb_resetLocalAction:
   1041          {
   \   000000   C082         PUSH      DPL
   \   000002   C083         PUSH      DPH
   \   000004                ; Saved register size: 2
   \   000004                ; Auto size: 5
   \   000004   74FB         MOV       A,#-0x5
   \   000006   12....       LCALL     ?ALLOC_XSTACK8
   1042            //Process reset as nwk leave if the device is on the network and is able to process it
   1043            if((ZG_BUILD_JOINING_TYPE) && (bdbAttributes.bdbNodeIsOnANetwork) && (!(bdbAttributes.bdbCommissioningMode & BDB_COMMISSIONING_MODE_PARENT_LOST)))
   \   000009   90....       MOV       DPTR,#bdbAttributes + 14
   \   00000C   E0           MOVX      A,@DPTR
   \   00000D   6021         JZ        ??bdb_resetLocalAction_0
   \   00000F   90....       MOV       DPTR,#bdbAttributes + 11
   \   000012   E0           MOVX      A,@DPTR
   \   000013   A2E5         MOV       C,0xE0 /* A   */.5
   \   000015   4019         JC        ??bdb_resetLocalAction_0
   1044            {
   1045              NLME_LeaveReq_t leaveReq;
   1046              // Set every field to 0
   1047              osal_memset( &leaveReq, 0, sizeof( NLME_LeaveReq_t ) );
   \   000017                ; Setup parameters for call to function osal_memset
   \   000017   7C05         MOV       R4,#0x5
   \   000019   7D00         MOV       R5,#0x0
   \   00001B   7900         MOV       R1,#0x0
   \   00001D   AA..         MOV       R2,?XSP + 0
   \   00001F   AB..         MOV       R3,?XSP + 1
   \   000021   12....       LCALL     `??osal_memset::?relay`; Banked call to: osal_memset
   1048              
   1049              bdb_setFN();
   \   000024                ; Setup parameters for call to function bdb_setFN
   \   000024   12....       LCALL     `??bdb_setFN::?relay`; Banked call to: bdb_setFN
   1050                
   1051              NLME_LeaveReq( &leaveReq );
   \   000027                ; Setup parameters for call to function NLME_LeaveReq
   \   000027   AA..         MOV       R2,?XSP + 0
   \   000029   AB..         MOV       R3,?XSP + 1
   \   00002B   12....       LCALL     `??NLME_LeaveReq::?relay`; Banked call to: NLME_LeaveReq
   1052              
   1053              return;
   \   00002E   800A         SJMP      ??bdb_resetLocalAction_1
   1054            }
   1055            else
   1056            {
   1057              bdb_setFN();
   \                     ??bdb_resetLocalAction_0:
   \   000030                ; Setup parameters for call to function bdb_setFN
   \   000030   12....       LCALL     `??bdb_setFN::?relay`; Banked call to: bdb_setFN
   1058              
   1059              ZDApp_ResetTimerStart( 500 );
   \   000033                ; Setup parameters for call to function ZDApp_ResetTimerStart
   \   000033   7AF4         MOV       R2,#-0xc
   \   000035   7B01         MOV       R3,#0x1
   \   000037   12....       LCALL     `??ZDApp_ResetTimerStart::?relay`; Banked call to: ZDApp_ResetTimerStart
   1060            }
   1061          }
   \                     ??bdb_resetLocalAction_1:
   \   00003A   7405         MOV       A,#0x5
   \   00003C                REQUIRE ?Subroutine4
   \   00003C                ; // Fall through to label ?Subroutine4

   \                                 In  segment BANKED_CODE, align 1, keep-with-next
   \                     ?Subroutine4:
   \   000000   12....       LCALL     ?DEALLOC_XSTACK8
   \   000003   02....       LJMP      ??Subroutine44_0 & 0xFFFF
   1062          
   1063          
   1064           /*********************************************************************
   1065           * @fn          bdb_parentLost
   1066           *
   1067           * @brief       Notify bdb that connection with parent is lost
   1068           *
   1069           * @return      none
   1070           */

   \                                 In  segment BANKED_CODE, align 1, keep-with-next
   1071          void bdb_parentLost(void)
   \                     bdb_parentLost:
   1072          {
   \   000000   C082         PUSH      DPL
   \   000002   C083         PUSH      DPH
   \   000004                ; Saved register size: 2
   \   000004                ; Auto size: 0
   1073          #if ZG_BUILD_ENDDEVICE_TYPE
   1074            if(ZG_DEVICE_ENDDEVICE_TYPE)
   \   000004   8003         SJMP      ??CrossCallReturnLabel_15
   1075            {
   1076              while(pBDBListNwk)
   1077              {
   1078                bdb_nwkDescFree(pBDBListNwk);
   \                     ??bdb_parentLost_0:
   \   000006                ; Setup parameters for call to function bdb_nwkDescFree
   \   000006   12....       LCALL     ?Subroutine18 & 0xFFFF
   1079              }
   \                     ??CrossCallReturnLabel_15:
   \   000009   90....       MOV       DPTR,#pBDBListNwk
   \   00000C   12....       LCALL     ??Subroutine52_0 & 0xFFFF
   \                     ??CrossCallReturnLabel_95:
   \   00000F   70F5         JNZ       ??bdb_parentLost_0
   1080              
   1081              nwk_desc_list_free();  
   \   000011                ; Setup parameters for call to function nwk_desc_list_free
   \   000011   12....       LCALL     `??nwk_desc_list_free::?relay`; Banked call to: nwk_desc_list_free
   1082              if(bdbCommissioningProcedureState.bdbCommissioningState != BDB_PARENT_LOST)
   \   000014   90....       MOV       DPTR,#bdbCommissioningProcedureState
   \   000017   E0           MOVX      A,@DPTR
   \   000018   6408         XRL       A,#0x8
   \   00001A   6010         JZ        ??bdb_parentLost_1
   1083              {
   1084                //If parent lost during TCLK exchange, then report TCLK exchange fail
   1085                if(bdbCommissioningProcedureState.bdbCommissioningState == BDB_COMMISSIONING_STATE_TC_LINK_KEY_EXCHANGE)
   \   00001C   E0           MOVX      A,@DPTR
   \   00001D   6401         XRL       A,#0x1
   \   00001F   7006         JNZ       ??bdb_parentLost_2
   1086                {
   1087                  bdb_reportCommissioningState(BDB_COMMISSIONING_STATE_TC_LINK_KEY_EXCHANGE, FALSE);
   \   000021                ; Setup parameters for call to function bdb_reportCommissioningState
   \   000021   7A00         MOV       R2,#0x0
   \   000023   7901         MOV       R1,#0x1
   \   000025   8017         SJMP      ??bdb_parentLost_3
   1088                  return;
   1089                }
   1090                bdbCommissioningProcedureState.bdb_ParentLostSavedState = bdbCommissioningProcedureState.bdbCommissioningState;
   \                     ??bdb_parentLost_2:
   \   000027   E0           MOVX      A,@DPTR
   \   000028   90....       MOV       DPTR,#bdbCommissioningProcedureState + 3
   \   00002B   F0           MOVX      @DPTR,A
   1091                
   1092              }
   1093              bdbCommissioningProcedureState.bdbCommissioningState = BDB_PARENT_LOST;
   \                     ??bdb_parentLost_1:
   \   00002C   90....       MOV       DPTR,#bdbCommissioningProcedureState
   \   00002F   7408         MOV       A,#0x8
   \   000031   F0           MOVX      @DPTR,A
   1094              NLME_OrphanStateSet();
   \   000032                ; Setup parameters for call to function NLME_OrphanStateSet
   \   000032   12....       LCALL     `??NLME_OrphanStateSet::?relay`; Banked call to: NLME_OrphanStateSet
   1095              ZDApp_ChangeState( DEV_NWK_ORPHAN );
   \   000035                ; Setup parameters for call to function ZDApp_ChangeState
   \   000035   790A         MOV       R1,#0xa
   \   000037   12....       LCALL     `??ZDApp_ChangeState::?relay`; Banked call to: ZDApp_ChangeState
   1096              bdb_reportCommissioningState(BDB_PARENT_LOST,FALSE);
   \   00003A                ; Setup parameters for call to function bdb_reportCommissioningState
   \   00003A   7A00         MOV       R2,#0x0
   \   00003C   7908         MOV       R1,#0x8
   \                     ??bdb_parentLost_3:
   \   00003E   12....       LCALL     `??bdb_reportCommissioningState::?relay`; Banked call to: bdb_reportCommissioningState
   1097            }
   1098          #endif
   1099          }
   \   000041   80..         SJMP      ??Subroutine44_0

   \                                 In  segment BANKED_CODE, align 1, keep-with-next
   \                     ?Subroutine18:
   \   000000   12....       LCALL     ?Subroutine37 & 0xFFFF
   \                     ??CrossCallReturnLabel_156:
   \   000003   12....       LCALL     `??bdb_nwkDescFree::?relay`; Banked call to: bdb_nwkDescFree
   \   000006   22           RET

   \                                 In  segment BANKED_CODE, align 1, keep-with-next
   \                     ?Subroutine37:
   \   000000   90....       MOV       DPTR,#pBDBListNwk
   \   000003                REQUIRE ??Subroutine46_0
   \   000003                ; // Fall through to label ??Subroutine46_0
   1100          
   1101          
   1102          
   1103          
   1104          
   1105           /*********************************************************************
   1106           * @fn          bdb_NetworkRestoredResumeState
   1107           *
   1108           * @brief       Restore the state of child device after parent lost
   1109           *
   1110           * @return      none
   1111           */

   \                                 In  segment BANKED_CODE, align 1, keep-with-next
   1112          void bdb_NetworkRestoredResumeState(void)
   \                     bdb_NetworkRestoredResumeState:
   1113          {
   \   000000   C082         PUSH      DPL
   \   000002   C083         PUSH      DPH
   \   000004                ; Saved register size: 2
   \   000004                ; Auto size: 0
   1114          #if (BDB_FINDING_BINDING_CAPABILITY_ENABLED==1)   
   1115          #if ZG_BUILD_ENDDEVICE_TYPE
   1116            if(ZG_DEVICE_ENDDEVICE_TYPE)
   1117            {
   1118              uint8 restoreSimpleDesc = FALSE;
   \   000004   7A00         MOV       R2,#0x0
   1119              //If restored when F&B still enabled, then restore the simple descriptors attempts
   1120              if(bdbCommissioningProcedureState.bdbCommissioningState == BDB_COMMISSIONING_STATE_FINDING_BINDING)
   \   000006   90....       MOV       DPTR,#bdbCommissioningProcedureState
   \   000009   E0           MOVX      A,@DPTR
   \   00000A   6406         XRL       A,#0x6
   \   00000C   703F         JNZ       ??bdb_NetworkRestoredResumeState_0
   1121              {
   1122                bdbFindingBindingRespondent_t  *pRespondentTemp = NULL;
   1123                
   1124                pRespondentTemp = pRespondentHead;
   \   00000E   90....       MOV       DPTR,#pRespondentHead
   \   000011   12....       LCALL     ?Subroutine27 & 0xFFFF
   \                     ??CrossCallReturnLabel_28:
   \   000014   EC           MOV       A,R4
   \   000015   F8           MOV       R0,A
   \   000016   ED           MOV       A,R5
   \   000017   801A         SJMP      ??CrossCallReturnLabel_108
   1125                
   1126                while(pRespondentTemp != NULL)
   1127                {
   1128                  if(pRespondentTemp->attempts & FINDING_AND_BINDING_PARENT_LOST)
   \                     ??bdb_NetworkRestoredResumeState_1:
   \   000019   E8           MOV       A,R0
   \   00001A   240C         ADD       A,#0xc
   \   00001C   F582         MOV       DPL,A
   \   00001E   E4           CLR       A
   \   00001F   39           ADDC      A,R1
   \   000020   F583         MOV       DPH,A
   \   000022   E0           MOVX      A,@DPTR
   \   000023   A2E6         MOV       C,0xE0 /* A   */.6
   \   000025   5005         JNC       ??bdb_NetworkRestoredResumeState_2
   1129                  {
   1130                    pRespondentTemp->attempts &= ~FINDING_AND_BINDING_PARENT_LOST;
   \   000027   C2E6         CLR       0xE0 /* A   */.6
   \   000029   F0           MOVX      @DPTR,A
   1131                    restoreSimpleDesc = TRUE;
   \   00002A   7A01         MOV       R2,#0x1
   1132                  }
   1133                  pRespondentTemp = pRespondentTemp->pNext;
   \                     ??bdb_NetworkRestoredResumeState_2:
   \   00002C   E8           MOV       A,R0
   \   00002D   12....       LCALL     ?Subroutine41 & 0xFFFF
   1134                }
   \                     ??CrossCallReturnLabel_59:
   \   000030   12....       LCALL     ?Subroutine39 & 0xFFFF
   \                     ??CrossCallReturnLabel_108:
   \   000033   F9           MOV       R1,A
   \   000034   E8           MOV       A,R0
   \   000035   49           ORL       A,R1
   \   000036   70E1         JNZ       ??bdb_NetworkRestoredResumeState_1
   1135              }
   1136              if(restoreSimpleDesc)
   \   000038   EA           MOV       A,R2
   \   000039   A2E0         MOV       C,0xE0 /* A   */.0
   \   00003B   5010         JNC       ??bdb_NetworkRestoredResumeState_0
   1137              {
   1138                //Restore the simple Descriptor sending after 1 second of restoring the network
   1139                osal_start_timerEx(bdb_TaskID,BDB_RESPONDENT_PROCESS_TIMEOUT, 1000);
   \   00003D                ; Setup parameters for call to function osal_start_timerEx
   \   00003D   90....       MOV       DPTR,#__Constant_3e8
   \   000040   12....       LCALL     ?PUSH_XSTACK8_X_FOUR
   \   000043   7A00         MOV       R2,#0x0
   \   000045   7B40         MOV       R3,#0x40
   \   000047   12....       LCALL     ??Subroutine56_0 & 0xFFFF
   1140              }
   1141            }
   \                     ??CrossCallReturnLabel_133:
   \   00004A   12....       LCALL     ?DEALLOC_XSTACK8
   1142          #endif
   1143          #endif
   1144          }
   \                     ??bdb_NetworkRestoredResumeState_0:
   \   00004D   80..         SJMP      ??Subroutine44_0

   \                                 In  segment BANKED_CODE, align 1, keep-with-next
   \                     ?Subroutine41:
   \   000000   240F         ADD       A,#0xf
   \   000002   F582         MOV       DPL,A
   \   000004   E4           CLR       A
   \   000005   39           ADDC      A,R1
   \   000006   F583         MOV       DPH,A
   \   000008   22           RET

   \                                 In  segment BANKED_CODE, align 1, keep-with-next
   \                     ?Subroutine27:
   \   000000   E0           MOVX      A,@DPTR
   \   000001   FC           MOV       R4,A
   \   000002   A3           INC       DPTR
   \   000003   E0           MOVX      A,@DPTR
   \   000004   FD           MOV       R5,A
   \   000005   22           RET
   1145          
   1146          #if ZG_BUILD_ENDDEVICE_TYPE
   1147           /*********************************************************************
   1148           * @fn          bdb_ZedAttemptRecoverNwk
   1149           *
   1150           * @brief       Instruct the ZED to try to rejoin its previews network
   1151           *
   1152           * @return      success if the attempt is being excecuted
   1153           *              False if device do not have nwk parameters to perform this action
   1154           */

   \                                 In  segment BANKED_CODE, align 1, keep-with-next
   1155          uint8 bdb_ZedAttemptRecoverNwk(void)
   \                     bdb_ZedAttemptRecoverNwk:
   1156          {
   \   000000   C082         PUSH      DPL
   \   000002   C083         PUSH      DPH
   \   000004                ; Saved register size: 2
   \   000004                ; Auto size: 0
   1157            if(ZG_DEVICE_ENDDEVICE_TYPE)
   1158            {
   1159              if(bdbAttributes.bdbNodeIsOnANetwork)
   \   000004   90....       MOV       DPTR,#bdbAttributes + 14
   \   000007   E0           MOVX      A,@DPTR
   \   000008   6018         JZ        ??bdb_ZedAttemptRecoverNwk_0
   1160              {
   1161                if(bdbCommissioningProcedureState.bdbCommissioningState == BDB_PARENT_LOST)
   \   00000A   90....       MOV       DPTR,#bdbCommissioningProcedureState
   \   00000D   E0           MOVX      A,@DPTR
   \   00000E   6408         XRL       A,#0x8
   \   000010   7010         JNZ       ??bdb_ZedAttemptRecoverNwk_0
   1162                {
   1163                  if(ZDOInitDevice(0) == ZDO_INITDEV_RESTORED_NETWORK_STATE)
   \   000012                ; Setup parameters for call to function ZDOInitDeviceEx
   \   000012   7900         MOV       R1,#0x0
   \   000014   7A00         MOV       R2,#0x0
   \   000016   7B00         MOV       R3,#0x0
   \   000018   12....       LCALL     `??ZDOInitDeviceEx::?relay`; Banked call to: ZDOInitDeviceEx
   \   00001B   E9           MOV       A,R1
   \   00001C   7004         JNZ       ??bdb_ZedAttemptRecoverNwk_0
   1164                  {
   1165                    return ZSuccess;
   \   00001E   7900         MOV       R1,#0x0
   \   000020   8002         SJMP      ??bdb_ZedAttemptRecoverNwk_1
   1166                  }
   1167                }
   1168              }
   1169            }
   1170            return ZFailure;
   \                     ??bdb_ZedAttemptRecoverNwk_0:
   \   000022   7901         MOV       R1,#0x1
   \                     ??bdb_ZedAttemptRecoverNwk_1:
   \   000024   80..         SJMP      ??Subroutine44_0
   1171          }
   1172          
   1173          #endif
   1174          
   1175           /*********************************************************************
   1176           * @fn          bdb_reportCommissioningState
   1177           *
   1178           * @brief       Process the result of a BDB main state attempt.
   1179           *
   1180           * @param       bdbCommissioningState - MainState that is issuing fail
   1181           * @param       didSuccess - TRUE if the main state were success, FALSE otherwise
   1182           *
   1183           * @return      none
   1184           */

   \                                 In  segment BANKED_CODE, align 1, keep-with-next
   1185          void bdb_reportCommissioningState(uint8 bdbCommissioningState,bool didSuccess)
   \                     bdb_reportCommissioningState:
   1186          {
   \   000000                REQUIRE ?V0
   \   000000                REQUIRE ?V1
   \   000000   74F6         MOV       A,#-0xa
   \   000002   12....       LCALL     ?BANKED_ENTER_XDATA
   \   000005                ; Saved register size: 10
   \   000005                ; Auto size: 4
   \   000005   74FC         MOV       A,#-0x4
   \   000007   12....       LCALL     ?ALLOC_XSTACK8
   \   00000A   E9           MOV       A,R1
   \   00000B   FE           MOV       R6,A
   \   00000C   EA           MOV       A,R2
   \   00000D   FF           MOV       R7,A
   1187            bdbCommissioningModeMsg_t bdbCommissioningModeMsg;
   1188            //Process only if we are in that state, or if we are on parent lost and processing F&B
   1189            if((bdbCommissioningProcedureState.bdbCommissioningState == bdbCommissioningState)
   1190               || ((bdbCommissioningProcedureState.bdbCommissioningState == BDB_PARENT_LOST) && (bdbCommissioningProcedureState.bdb_ParentLostSavedState == BDB_COMMISSIONING_STATE_FINDING_BINDING)))
   \   00000E   90....       MOV       DPTR,#bdbCommissioningProcedureState
   \   000011   E0           MOVX      A,@DPTR
   \   000012   6E           XRL       A,R6
   \   000013   6013         JZ        ??bdb_reportCommissioningState_0
   \   000015   E0           MOVX      A,@DPTR
   \   000016   6408         XRL       A,#0x8
   \   000018   6003         JZ        $+5
   \   00001A   02....       LJMP      ??bdb_reportCommissioningState_1 & 0xFFFF
   \   00001D   90....       MOV       DPTR,#bdbCommissioningProcedureState + 3
   \   000020   E0           MOVX      A,@DPTR
   \   000021   6406         XRL       A,#0x6
   \   000023   6003         JZ        $+5
   \   000025   02....       LJMP      ??bdb_reportCommissioningState_1 & 0xFFFF
   1191            {
   1192              switch(bdbCommissioningState)
   \                     ??bdb_reportCommissioningState_0:
   \   000028   E9           MOV       A,R1
   \   000029   14           DEC       A
   \   00002A   7003         JNZ       $+5
   \   00002C   02....       LJMP      ??bdb_reportCommissioningState_2 & 0xFFFF
   \   00002F   14           DEC       A
   \   000030   7003         JNZ       $+5
   \   000032   02....       LJMP      ??bdb_reportCommissioningState_3 & 0xFFFF
   \   000035   14           DEC       A
   \   000036   6021         JZ        ??bdb_reportCommissioningState_4
   \   000038   14           DEC       A
   \   000039   7003         JNZ       $+5
   \   00003B   02....       LJMP      ??bdb_reportCommissioningState_5 & 0xFFFF
   \   00003E   14           DEC       A
   \   00003F   7003         JNZ       $+5
   \   000041   02....       LJMP      ??bdb_reportCommissioningState_6 & 0xFFFF
   \   000044   14           DEC       A
   \   000045   7003         JNZ       $+5
   \   000047   02....       LJMP      ??bdb_reportCommissioningState_7 & 0xFFFF
   \   00004A   14           DEC       A
   \   00004B   7003         JNZ       $+5
   \   00004D   02....       LJMP      ??bdb_reportCommissioningState_8 & 0xFFFF
   \   000050   14           DEC       A
   \   000051   7003         JNZ       $+5
   \   000053   02....       LJMP      ??bdb_reportCommissioningState_9 & 0xFFFF
   \   000056   02....       LJMP      ??bdb_reportCommissioningState_10 & 0xFFFF
   1193              {
   1194          #if (ZG_BUILD_JOINING_TYPE)
   1195                case BDB_COMMISSIONING_STATE_JOINING:
   1196                  if(ZG_DEVICE_JOINING_TYPE)
   \                     ??bdb_reportCommissioningState_4:
   \   000059   90....       MOV       DPTR,#zgDeviceLogicalType
   \   00005C   E0           MOVX      A,@DPTR
   \   00005D   6401         XRL       A,#0x1
   \   00005F   6008         JZ        ??bdb_reportCommissioningState_11
   \   000061   E0           MOVX      A,@DPTR
   \   000062   6402         XRL       A,#0x2
   \   000064   6003         JZ        $+5
   \   000066   02....       LJMP      ??bdb_reportCommissioningState_10 & 0xFFFF
   1197                  {
   1198                    //Prepare for the next state or commissioning mode to be excecuted
   1199                    osal_start_timerEx(bdb_TaskID,BDB_CHANGE_COMMISSIONING_STATE,50);
   \                     ??bdb_reportCommissioningState_11:
   \   000069                ; Setup parameters for call to function osal_start_timerEx
   \   000069   90....       MOV       DPTR,#__Constant_32
   \   00006C   12....       LCALL     ?PUSH_XSTACK8_X_FOUR
   \   00006F   12....       LCALL     ?Subroutine14 & 0xFFFF
   \                     ??CrossCallReturnLabel_121:
   \   000072   12....       LCALL     ?DEALLOC_XSTACK8
   1200          
   1201                    if(didSuccess)
   \   000075   EF           MOV       A,R7
   \   000076   601F         JZ        ??bdb_reportCommissioningState_12
   1202                    {
   1203                      //Next state is TC link key exchange
   1204                      bdbCommissioningProcedureState.bdbCommissioningState = BDB_COMMISSIONING_STATE_TC_LINK_KEY_EXCHANGE;
   \   000078   90....       MOV       DPTR,#bdbCommissioningProcedureState
   \   00007B   7401         MOV       A,#0x1
   \   00007D   F0           MOVX      @DPTR,A
   \   00007E   8003         SJMP      ??CrossCallReturnLabel_16
   1205                      //Free the list of nwk discovered
   1206                      while(pBDBListNwk)
   1207                      {
   1208                        bdb_nwkDescFree(pBDBListNwk);
   \                     ??bdb_reportCommissioningState_13:
   \   000080                ; Setup parameters for call to function bdb_nwkDescFree
   \   000080   12....       LCALL     ?Subroutine18 & 0xFFFF
   1209                      }
   \                     ??CrossCallReturnLabel_16:
   \   000083   90....       MOV       DPTR,#pBDBListNwk
   \   000086   12....       LCALL     ??Subroutine52_0 & 0xFFFF
   \                     ??CrossCallReturnLabel_96:
   \   000089   70F5         JNZ       ??bdb_reportCommissioningState_13
   1210                      
   1211                      //Set the poll rate of the ZED joining device to 1 second to allow TCLK 
   1212                      //exchange be perfomed successfully in cases in which application has a 
   1213                      //slow pollrate
   1214                      NLME_SetPollRate(TCLK_POLL_RATE);
   \   00008B                ; Setup parameters for call to function NLME_SetPollRate
   \   00008B   90....       MOV       DPTR,#__Constant_3e8
   \   00008E   12....       LCALL     ?XLOAD_R2345
   \   000091   12....       LCALL     `??NLME_SetPollRate::?relay`; Banked call to: NLME_SetPollRate
   1215                      
   1216                      //No notification in this step
   1217                      return;
   \   000094   02....       LJMP      ??bdb_reportCommissioningState_1 & 0xFFFF
   1218                    } 
   1219                    else
   1220                    {
   1221                      uint8 temp = FALSE;
   \                     ??bdb_reportCommissioningState_12:
   \   000097   7403         MOV       A,#0x3
   \   000099   12....       LCALL     ?XSTACK_DISP0_8
   \   00009C   E4           CLR       A
   \   00009D   F0           MOVX      @DPTR,A
   1222                      //If fail, then restore poll rate
   1223                      NLME_SetPollRate(POLL_RATE);
   \   00009E                ; Setup parameters for call to function NLME_SetPollRate
   \   00009E   90....       MOV       DPTR,#__Constant_3e8
   \   0000A1   12....       LCALL     ?XLOAD_R2345
   \   0000A4   12....       LCALL     `??NLME_SetPollRate::?relay`; Banked call to: NLME_SetPollRate
   1224                      bdbAttributes.bdbCommissioningStatus = BDB_COMMISSIONING_NO_NETWORK;
   \   0000A7   90....       MOV       DPTR,#bdbAttributes + 10
   \   0000AA   7402         MOV       A,#0x2
   \   0000AC   F0           MOVX      @DPTR,A
   1225                      bdbCommissioningModeMsg.bdbCommissioningMode = BDB_COMMISSIONING_NWK_STEERING;
   \   0000AD   14           DEC       A
   \   0000AE   12....       LCALL     ?XSTACK_DISP0_8
   \   0000B1   7401         MOV       A,#0x1
   \   0000B3   F0           MOVX      @DPTR,A
   1226                      bdbCommissioningProcedureState.bdbCommissioningState = BDB_COMMISSIONING_STATE_START_RESUME;
   \   0000B4   90....       MOV       DPTR,#bdbCommissioningProcedureState
   \   0000B7   E4           CLR       A
   \   0000B8   F0           MOVX      @DPTR,A
   1227                      bdbAttributes.bdbCommissioningMode &= ~BDB_COMMISSIONING_MODE_NWK_STEERING;
   \   0000B9   90....       MOV       DPTR,#bdbAttributes + 11
   \   0000BC   E0           MOVX      A,@DPTR
   \   0000BD   C2E1         CLR       0xE0 /* A   */.1
   \   0000BF   F0           MOVX      @DPTR,A
   1228                      
   1229                      //Turn off the radio
   1230                      ZMacSetReq(ZMacRxOnIdle, &temp);
   \   0000C0                ; Setup parameters for call to function ZMacSetReq
   \   0000C0   7403         MOV       A,#0x3
   \   0000C2   12....       LCALL     ?XSTACK_DISP101_8
   \   0000C5   7952         MOV       R1,#0x52
   \   0000C7   12....       LCALL     `??ZMacSetReq::?relay`; Banked call to: ZMacSetReq
   1231                      //Set the device to FN, to start as new for subsequent attempts
   1232                      bdb_setFN();
   \   0000CA                ; Setup parameters for call to function bdb_setFN
   \   0000CA   12....       LCALL     `??bdb_setFN::?relay`; Banked call to: bdb_setFN
   1233                      NLME_ResetRequest();
   \   0000CD                ; Setup parameters for call to function NLME_ResetRequest
   \   0000CD   12....       LCALL     `??NLME_ResetRequest::?relay`; Banked call to: NLME_ResetRequest
   1234                      ZDApp_ChangeState( DEV_HOLD );
   \   0000D0                ; Setup parameters for call to function ZDApp_ChangeState
   \   0000D0   7900         MOV       R1,#0x0
   \   0000D2   12....       LCALL     `??ZDApp_ChangeState::?relay`; Banked call to: ZDApp_ChangeState
   1235                      
   1236                      //Free the list of nwk discovered
   1237                      while(pBDBListNwk)
   \                     ??bdb_reportCommissioningState_14:
   \   0000D5   90....       MOV       DPTR,#pBDBListNwk
   \   0000D8   12....       LCALL     ??Subroutine52_0 & 0xFFFF
   \                     ??CrossCallReturnLabel_97:
   \   0000DB   7003         JNZ       $+5
   \   0000DD   02....       LJMP      ??bdb_reportCommissioningState_10 & 0xFFFF
   1238                      {
   1239                        bdb_nwkDescFree(pBDBListNwk);
   \   0000E0                ; Setup parameters for call to function bdb_nwkDescFree
   \   0000E0   12....       LCALL     ?Subroutine18 & 0xFFFF
   1240                      }
   1241                    }
   1242                  }
   \                     ??CrossCallReturnLabel_17:
   \   0000E3   80F0         SJMP      ??bdb_reportCommissioningState_14
   1243                break;
   1244          
   1245                case BDB_COMMISSIONING_STATE_TC_LINK_KEY_EXCHANGE:
   1246                  if(ZG_DEVICE_JOINING_TYPE)
   \                     ??bdb_reportCommissioningState_2:
   \   0000E5   90....       MOV       DPTR,#zgDeviceLogicalType
   \   0000E8   E0           MOVX      A,@DPTR
   \   0000E9   6401         XRL       A,#0x1
   \   0000EB   6008         JZ        ??bdb_reportCommissioningState_15
   \   0000ED   E0           MOVX      A,@DPTR
   \   0000EE   6402         XRL       A,#0x2
   \   0000F0   6003         JZ        $+5
   \   0000F2   02....       LJMP      ??bdb_reportCommissioningState_10 & 0xFFFF
   1247                  {
   1248                    if(didSuccess)
   \                     ??bdb_reportCommissioningState_15:
   \   0000F5   EA           MOV       A,R2
   \   0000F6   6027         JZ        ??bdb_reportCommissioningState_16
   1249                    {
   1250                      //Clear any setting that would set the device as FN
   1251                      zgWriteStartupOptions(ZG_STARTUP_CLEAR, ZCD_STARTOPT_DEFAULT_CONFIG_STATE | ZCD_STARTOPT_DEFAULT_NETWORK_STATE);            
   \   0000F8                ; Setup parameters for call to function zgWriteStartupOptions
   \   0000F8   7A03         MOV       R2,#0x3
   \   0000FA   7900         MOV       R1,#0x0
   \   0000FC   12....       LCALL     `??zgWriteStartupOptions::?relay`; Banked call to: zgWriteStartupOptions
   1252                      
   1253                      //Next state is nwk steering on the nwk (permit joining)
   1254                      bdbCommissioningProcedureState.bdbCommissioningState = BDB_COMMISSIONING_STATE_STEERING_ON_NWK;
   \   0000FF   90....       MOV       DPTR,#bdbCommissioningProcedureState
   \   000102   7404         MOV       A,#0x4
   \   000104   12....       LCALL     ??Subroutine58_0 & 0xFFFF
   1255                      osal_start_timerEx(bdb_TaskID,BDB_CHANGE_COMMISSIONING_STATE, 50);
   \                     ??CrossCallReturnLabel_141:
   \   000107   12....       LCALL     ?PUSH_XSTACK8_X_FOUR
   \   00010A   12....       LCALL     ?Subroutine14 & 0xFFFF
   \                     ??CrossCallReturnLabel_122:
   \   00010D   12....       LCALL     ?DEALLOC_XSTACK8
   1256                      
   1257                      //Set the poll rate to the application default after TCLK success
   1258                      NLME_SetPollRate(POLL_RATE);
   \   000110                ; Setup parameters for call to function NLME_SetPollRate
   \   000110   90....       MOV       DPTR,#__Constant_3e8
   \   000113   12....       LCALL     ?XLOAD_R2345
   \   000116   12....       LCALL     `??NLME_SetPollRate::?relay`; Banked call to: NLME_SetPollRate
   1259          
   1260                      osal_stop_timerEx( bdb_TaskID, BDB_PROCESS_TIMEOUT );
   \   000119                ; Setup parameters for call to function osal_stop_timerEx
   \   000119   12....       LCALL     ?Subroutine17 & 0xFFFF
   1261                      //No notification to the user is needed
   1262                      return;
   \                     ??CrossCallReturnLabel_66:
   \   00011C   02....       LJMP      ??bdb_reportCommissioningState_1 & 0xFFFF
   1263                    }
   1264                    else
   1265                    {
   1266                      bdbCommissioningModeMsg.bdbCommissioningMode = BDB_COMMISSIONING_NWK_STEERING;
   \                     ??bdb_reportCommissioningState_16:
   \   00011F   7401         MOV       A,#0x1
   \   000121   12....       LCALL     ?XSTACK_DISP0_8
   \   000124   7401         MOV       A,#0x1
   \   000126   F0           MOVX      @DPTR,A
   1267                      bdbAttributes.bdbCommissioningStatus = BDB_COMMISSIONING_TCLK_EX_FAILURE;
   \   000127   90....       MOV       DPTR,#bdbAttributes + 10
   \   00012A   7407         MOV       A,#0x7
   \   00012C   F0           MOVX      @DPTR,A
   1268                      
   1269                      osal_stop_timerEx( bdb_TaskID, BDB_PROCESS_TIMEOUT);
   \   00012D                ; Setup parameters for call to function osal_stop_timerEx
   \   00012D   12....       LCALL     ?Subroutine17 & 0xFFFF
   1270                     
   1271                      //No process shall be attempted after this fail
   1272                      bdbAttributes.bdbCommissioningMode = 0;
   \                     ??CrossCallReturnLabel_67:
   \   000130   90....       MOV       DPTR,#bdbAttributes + 11
   \   000133   E4           CLR       A
   \   000134   F0           MOVX      @DPTR,A
   1273                      
   1274                      //Fill the context for the user notification
   1275                      osal_start_timerEx(bdb_TaskID,BDB_TC_LINK_KEY_EXCHANGE_FAIL,BDB_TC_LINK_KEY_EXCHANGE_FAIL_LEAVE_TIMEOUT);
   \   000135                ; Setup parameters for call to function osal_start_timerEx
   \   000135   90....       MOV       DPTR,#__Constant_1388
   \   000138   12....       LCALL     ?PUSH_XSTACK8_X_FOUR
   \   00013B   7A02         MOV       R2,#0x2
   \   00013D   12....       LCALL     ??Subroutine55_0 & 0xFFFF
   1276                    }
   1277                  }
   \                     ??CrossCallReturnLabel_129:
   \   000140   12....       LCALL     ?DEALLOC_XSTACK8
   \   000143   02....       LJMP      ??bdb_reportCommissioningState_10 & 0xFFFF
   1278                break;
   1279          #endif
   1280                
   1281                case BDB_COMMISSIONING_STATE_STEERING_ON_NWK:
   1282                  bdbCommissioningModeMsg.bdbCommissioningMode = BDB_COMMISSIONING_NWK_STEERING;
   \                     ??bdb_reportCommissioningState_5:
   \   000146   7401         MOV       A,#0x1
   \   000148   12....       LCALL     ?XSTACK_DISP0_8
   \   00014B   7401         MOV       A,#0x1
   \   00014D   F0           MOVX      @DPTR,A
   1283                  if(didSuccess)
   \   00014E   EA           MOV       A,R2
   \   00014F   6007         JZ        ??CrossCallReturnLabel_4
   1284                  {
   1285                    bdbAttributes.bdbCommissioningStatus = BDB_COMMISSIONING_SUCCESS;
   \   000151   90....       MOV       DPTR,#bdbAttributes + 10
   \   000154   E4           CLR       A
   \   000155   12....       LCALL     ?Subroutine7 & 0xFFFF
   1286                    
   1287          #if (ZG_BUILD_RTR_TYPE)          
   1288                    //Update ZDApp state
   1289                    if(ZG_DEVICE_RTRONLY_TYPE)
   1290                    {          
   1291                      ZDApp_ChangeState( DEV_ROUTER );
   1292                    }
   1293          #endif
   1294          #if (ZG_BUILD_ENDDEVICE_TYPE)
   1295                    if(ZG_DEVICE_ENDDEVICE_TYPE)
   1296                    {
   1297                      ZDApp_ChangeState( DEV_END_DEVICE );
   1298                    }
   1299          #endif
   1300                  }
   1301          #if (ZG_BUILD_COORDINATOR_TYPE)
   1302                  else
   1303                  {
   1304                    if(ZG_DEVICE_COORDINATOR_TYPE)
   1305                    {
   1306                      bdbAttributes.bdbCommissioningStatus = BDB_COMMISSIONING_NO_NETWORK;
   1307                    }
   1308                  }
   1309          #endif
   1310                  
   1311                  bdbCommissioningProcedureState.bdbCommissioningState = BDB_COMMISSIONING_STATE_START_RESUME;
   \                     ??CrossCallReturnLabel_4:
   \   000158   12....       LCALL     ?Subroutine12 & 0xFFFF
   1312                  osal_start_timerEx(bdb_TaskID,BDB_CHANGE_COMMISSIONING_STATE,50);
   \                     ??CrossCallReturnLabel_137:
   \   00015B   12....       LCALL     ?PUSH_XSTACK8_X_FOUR
   \   00015E   12....       LCALL     ?Subroutine14 & 0xFFFF
   \                     ??CrossCallReturnLabel_123:
   \   000161   12....       LCALL     ?DEALLOC_XSTACK8
   1313                  bdbAttributes.bdbCommissioningMode &= ~BDB_COMMISSIONING_MODE_NWK_STEERING;
   \   000164   90....       MOV       DPTR,#bdbAttributes + 11
   \   000167   E0           MOVX      A,@DPTR
   \   000168   C2E1         CLR       0xE0 /* A   */.1
   \   00016A   02....       LJMP      ??bdb_reportCommissioningState_17 & 0xFFFF
   1314                break;
   1315                
   1316                case BDB_COMMISSIONING_STATE_FORMATION:
   1317                  bdbCommissioningModeMsg.bdbCommissioningMode = BDB_COMMISSIONING_FORMATION;
   \                     ??bdb_reportCommissioningState_6:
   \   00016D   7401         MOV       A,#0x1
   \   00016F   12....       LCALL     ?XSTACK_DISP0_8
   \   000172   7402         MOV       A,#0x2
   \   000174   F0           MOVX      @DPTR,A
   1318          
   1319                  if(didSuccess)
   \   000175   EA           MOV       A,R2
   \   000176   90....       MOV       DPTR,#bdbAttributes + 10
   \   000179   600A         JZ        ??bdb_reportCommissioningState_18
   1320                  {
   1321                    bdbAttributes.bdbCommissioningStatus = BDB_COMMISSIONING_SUCCESS;
   \   00017B   E4           CLR       A
   \   00017C   F0           MOVX      @DPTR,A
   1322          
   1323                    //Clear any setting that would set the device as FN
   1324                    zgWriteStartupOptions(ZG_STARTUP_CLEAR, ZCD_STARTOPT_DEFAULT_CONFIG_STATE | ZCD_STARTOPT_DEFAULT_NETWORK_STATE);          
   \   00017D                ; Setup parameters for call to function zgWriteStartupOptions
   \   00017D   7A03         MOV       R2,#0x3
   \   00017F   F9           MOV       R1,A
   \   000180   12....       LCALL     `??zgWriteStartupOptions::?relay`; Banked call to: zgWriteStartupOptions
   \   000183   8003         SJMP      ??bdb_reportCommissioningState_19
   1325                    
   1326                     //Update ZDApp State
   1327          #if (ZG_BUILD_RTR_TYPE)
   1328                    if(ZG_DEVICE_RTRONLY_TYPE)
   1329                    {          
   1330                      ZDApp_ChangeState( DEV_ROUTER );
   1331                    }
   1332          #endif    
   1333          #if (ZG_BUILD_COORDINATOR_TYPE)
   1334                    if(ZG_DEVICE_COORDINATOR_TYPE)
   1335                    {          
   1336                      ZDApp_ChangeState( DEV_ZB_COORD );
   1337                    }     
   1338          #endif
   1339                  }
   1340                  else
   1341                  {
   1342                    bdbAttributes.bdbCommissioningStatus = BDB_COMMISSIONING_FORMATION_FAILURE;
   \                     ??bdb_reportCommissioningState_18:
   \   000185   7408         MOV       A,#0x8
   \   000187   F0           MOVX      @DPTR,A
   1343                    //If not on the nwk, then restart the nwk parameters
   1344          #if (ZG_BUILD_RTR_TYPE)
   1345                    if(ZG_DEVICE_RTR_TYPE)
   1346                    {           
   1347                      if(!bdbAttributes.bdbNodeIsOnANetwork)
   1348                      {
   1349                        uint8 temp = FALSE;
   1350                        //Turn off the radio
   1351                        ZMacSetReq(ZMacRxOnIdle, &temp);
   1352                        //Set the device to FN, to start as new for subsequent attempts
   1353                        bdb_setFN();
   1354                        NLME_ResetRequest();
   1355                        ZDApp_ChangeState( DEV_HOLD );
   1356                      }
   1357                    }
   1358          #endif
   1359                  }
   1360                  bdbCommissioningProcedureState.bdbCommissioningState = BDB_COMMISSIONING_STATE_START_RESUME;
   \                     ??bdb_reportCommissioningState_19:
   \   000188   12....       LCALL     ?Subroutine12 & 0xFFFF
   1361                  osal_start_timerEx(bdb_TaskID,BDB_CHANGE_COMMISSIONING_STATE,50);
   \                     ??CrossCallReturnLabel_138:
   \   00018B   12....       LCALL     ?PUSH_XSTACK8_X_FOUR
   \   00018E   12....       LCALL     ?Subroutine14 & 0xFFFF
   \                     ??CrossCallReturnLabel_124:
   \   000191   12....       LCALL     ?DEALLOC_XSTACK8
   1362                  bdbAttributes.bdbCommissioningMode &= ~BDB_COMMISSIONING_MODE_NWK_FORMATION;
   \   000194   90....       MOV       DPTR,#bdbAttributes + 11
   \   000197   E0           MOVX      A,@DPTR
   \   000198   C2E2         CLR       0xE0 /* A   */.2
   \   00019A   02....       LJMP      ??bdb_reportCommissioningState_17 & 0xFFFF
   1363                break;  
   1364                
   1365          
   1366                case BDB_COMMISSIONING_STATE_FINDING_BINDING:
   1367          #if (BDB_FINDING_BINDING_CAPABILITY_ENABLED==1) 
   1368                  bdbCommissioningModeMsg.bdbCommissioningMode = BDB_COMMISSIONING_FINDING_BINDING;
   \                     ??bdb_reportCommissioningState_7:
   \   00019D   7401         MOV       A,#0x1
   \   00019F   12....       LCALL     ?XSTACK_DISP0_8
   \   0001A2   7403         MOV       A,#0x3
   \   0001A4   F0           MOVX      @DPTR,A
   1369          
   1370                  //Do not notify the status if we have another identify to send
   1371                  if(bdbAttributes.bdbCommissioningStatus == BDB_COMMISSIONING_SUCCESS)
   \   0001A5   90....       MOV       DPTR,#bdbAttributes + 10
   \   0001A8   E0           MOVX      A,@DPTR
   \   0001A9   7006         JNZ       ??bdb_reportCommissioningState_20
   1372                  {
   1373                    //Success at least once during F&B as initiator, mark it
   1374                    bdb_FBStateSuccessLatch = TRUE;
   \   0001AB   90....       MOV       DPTR,#bdb_FBStateSuccessLatch
   \   0001AE   7401         MOV       A,#0x1
   \   0001B0   F0           MOVX      @DPTR,A
   1375                  }        
   1376                  
   1377                  //Will we process another indentify?
   1378                  if(((FINDING_AND_BINDING_PERIODIC_ENABLE == FALSE) || (bdb_FB_InitiatorCurrentCyclesNumber == 0)) && (bdb_getRespondentRetry(pRespondentHead) == NULL) && (osal_get_timeoutEx( bdb_TaskID, BDB_RESPONDENT_PROCESS_TIMEOUT) == 0))
   \                     ??bdb_reportCommissioningState_20:
   \   0001B1   90....       MOV       DPTR,#bdb_FB_InitiatorCurrentCyclesNumber
   \   0001B4   E0           MOVX      A,@DPTR
   \   0001B5   6003         JZ        $+5
   \   0001B7   02....       LJMP      ??bdb_reportCommissioningState_1 & 0xFFFF
   \   0001BA                ; Setup parameters for call to function bdb_getRespondentRetry
   \   0001BA   12....       LCALL     ?Subroutine24 & 0xFFFF
   \                     ??CrossCallReturnLabel_24:
   \   0001BD   6003         JZ        $+5
   \   0001BF   02....       LJMP      ??bdb_reportCommissioningState_1 & 0xFFFF
   \   0001C2                ; Setup parameters for call to function osal_get_timeoutEx
   \   0001C2   12....       LCALL     ?Subroutine20 & 0xFFFF
   \                     ??CrossCallReturnLabel_63:
   \   0001C5   6003         JZ        $+5
   \   0001C7   02....       LJMP      ??bdb_reportCommissioningState_1 & 0xFFFF
   1379                  {
   1380                    // Dealocate respondent list and clean all the F&B process
   1381                    pRespondentCurr = NULL;
   \   0001CA   90....       MOV       DPTR,#pRespondentCurr
   \   0001CD   E4           CLR       A
   \   0001CE   F0           MOVX      @DPTR,A
   \   0001CF   A3           INC       DPTR
   \   0001D0   F0           MOVX      @DPTR,A
   1382                    pRespondentNext = NULL;
   \   0001D1   90....       MOV       DPTR,#pRespondentNext
   \   0001D4   F0           MOVX      @DPTR,A
   \   0001D5   A3           INC       DPTR
   \   0001D6   F0           MOVX      @DPTR,A
   1383                    bdb_zclRespondentListClean( &pRespondentHead );
   \   0001D7                ; Setup parameters for call to function bdb_zclRespondentListClean
   \   0001D7   7A..         MOV       R2,#pRespondentHead & 0xff
   \   0001D9   7B..         MOV       R3,#(pRespondentHead >> 8) & 0xff
   \   0001DB   12....       LCALL     `??bdb_zclRespondentListClean::?relay`; Banked call to: bdb_zclRespondentListClean
   1384                    osal_stop_timerEx( bdb_TaskID, BDB_RESPONDENT_PROCESS_TIMEOUT );
   \   0001DE                ; Setup parameters for call to function osal_stop_timerEx
   \   0001DE   7A00         MOV       R2,#0x0
   \   0001E0   7B40         MOV       R3,#0x40
   \   0001E2   12....       LCALL     ??Subroutine47_0 & 0xFFFF
   1385                    
   1386                    //Report success if in any of the attempts we got success, regardless that we did receive no rsp on the last attempt
   1387                    if(bdb_FBStateSuccessLatch && (bdbAttributes.bdbCommissioningStatus == BDB_COMMISSIONING_FB_NO_IDENTIFY_QUERY_RESPONSE))
   \                     ??CrossCallReturnLabel_73:
   \   0001E5   90....       MOV       DPTR,#bdb_FBStateSuccessLatch
   \   0001E8   E0           MOVX      A,@DPTR
   \   0001E9   600A         JZ        ??bdb_reportCommissioningState_21
   \   0001EB   90....       MOV       DPTR,#bdbAttributes + 10
   \   0001EE   E0           MOVX      A,@DPTR
   \   0001EF   640B         XRL       A,#0xb
   \   0001F1   7002         JNZ       ??bdb_reportCommissioningState_21
   1388                    {
   1389                      bdbAttributes.bdbCommissioningStatus = BDB_COMMISSIONING_SUCCESS;
   \   0001F3   E4           CLR       A
   \   0001F4   F0           MOVX      @DPTR,A
   1390                    }
   1391                    
   1392                    //Set default state
   1393                    bdb_FBStateSuccessLatch = FALSE;
   \                     ??bdb_reportCommissioningState_21:
   \   0001F5   90....       MOV       DPTR,#bdb_FBStateSuccessLatch
   \   0001F8   E4           CLR       A
   \   0001F9   F0           MOVX      @DPTR,A
   1394                    
   1395                    //Resume BDB machine state only if we were in F&B, if we were on parent lost, only clean the commissioning mode and remove from bdb_ParentLostSavedState
   1396                    if(bdbCommissioningProcedureState.bdbCommissioningState == BDB_COMMISSIONING_STATE_FINDING_BINDING)
   \   0001FA   90....       MOV       DPTR,#bdbCommissioningProcedureState
   \   0001FD   E0           MOVX      A,@DPTR
   \   0001FE   6406         XRL       A,#0x6
   \   000200   700E         JNZ       ??bdb_reportCommissioningState_22
   1397                    {
   1398                      bdbCommissioningProcedureState.bdbCommissioningState = BDB_COMMISSIONING_STATE_START_RESUME;
   \   000202   12....       LCALL     ??Subroutine57_0 & 0xFFFF
   1399                      osal_start_timerEx(bdb_TaskID,BDB_CHANGE_COMMISSIONING_STATE,50); 
   1400                    }
   \                     ??CrossCallReturnLabel_140:
   \   000205   12....       LCALL     ?PUSH_XSTACK8_X_FOUR
   \   000208   12....       LCALL     ?Subroutine14 & 0xFFFF
   \                     ??CrossCallReturnLabel_125:
   \   00020B   12....       LCALL     ?DEALLOC_XSTACK8
   \   00020E   800A         SJMP      ??bdb_reportCommissioningState_23
   1401                    else if(bdbCommissioningProcedureState.bdb_ParentLostSavedState == BDB_COMMISSIONING_STATE_FINDING_BINDING)
   \                     ??bdb_reportCommissioningState_22:
   \   000210   90....       MOV       DPTR,#bdbCommissioningProcedureState + 3
   \   000213   E0           MOVX      A,@DPTR
   \   000214   6406         XRL       A,#0x6
   \   000216   7002         JNZ       ??bdb_reportCommissioningState_23
   1402                    {
   1403                      bdbCommissioningProcedureState.bdb_ParentLostSavedState = BDB_COMMISSIONING_STATE_START_RESUME;
   \   000218   E4           CLR       A
   \   000219   F0           MOVX      @DPTR,A
   1404                    }
   1405                    
   1406                    bdbAttributes.bdbCommissioningMode &= ~BDB_COMMISSIONING_MODE_FINDING_BINDING;
   \                     ??bdb_reportCommissioningState_23:
   \   00021A   90....       MOV       DPTR,#bdbAttributes + 11
   \   00021D   E0           MOVX      A,@DPTR
   \   00021E   C2E3         CLR       0xE0 /* A   */.3
   \   000220   02....       LJMP      ??bdb_reportCommissioningState_17 & 0xFFFF
   1407                  }
   1408                  else
   1409                  {
   1410                    return;
   1411                  }
   1412          
   1413          #endif
   1414                break;     
   1415                case BDB_COMMISSIONING_STATE_TL:
   1416                  // Set NWK task to run
   1417                  nwk_setStateIdle( FALSE );
   \                     ??bdb_reportCommissioningState_3:
   \   000223                ; Setup parameters for call to function nwk_setStateIdle
   \   000223   7900         MOV       R1,#0x0
   \   000225   12....       LCALL     `??nwk_setStateIdle::?relay`; Banked call to: nwk_setStateIdle
   1418                  bdbCommissioningModeMsg.bdbCommissioningMode = BDB_COMMISSIONING_TOUCHLINK;
   \   000228   7401         MOV       A,#0x1
   \   00022A   12....       LCALL     ?XSTACK_DISP0_8
   \   00022D   7404         MOV       A,#0x4
   \   00022F   F0           MOVX      @DPTR,A
   1419                  if(didSuccess)
   \   000230   EF           MOV       A,R7
   \   000231   6009         JZ        ??CrossCallReturnLabel_5
   1420                  {
   1421                    bdbAttributes.bdbCommissioningStatus = BDB_COMMISSIONING_SUCCESS;
   \   000233   90....       MOV       DPTR,#bdbAttributes + 10
   \   000236   E4           CLR       A
   \   000237   F0           MOVX      @DPTR,A
   1422                    bdbAttributes.bdbCommissioningMode = BDB_COMMISSIONING_MODE_IDDLE;
   \   000238   A3           INC       DPTR
   \   000239   12....       LCALL     ?Subroutine7 & 0xFFFF
   1423                    
   1424                    //Update ZDApp state
   1425          #if (ZG_BUILD_RTR_TYPE)
   1426                    if(ZG_DEVICE_RTRONLY_TYPE)
   1427                    {          
   1428                      ZDApp_ChangeState( DEV_ROUTER );
   1429                    }
   1430          #endif
   1431          #if (ZG_BUILD_ENDDEVICE_TYPE)
   1432                    if(ZG_DEVICE_ENDDEVICE_TYPE)
   1433                    {
   1434                      ZDApp_ChangeState( DEV_END_DEVICE );
   1435                    }
   1436          #endif          
   1437                  }
   1438                  //The fail status is already set from the calling function to report commissioning process
   1439                  
   1440                  // The commissioning FAIL status is set before calling the bdb_reportCommissioningState
   1441                  bdbCommissioningProcedureState.bdbCommissioningState = BDB_COMMISSIONING_STATE_START_RESUME;
   \                     ??CrossCallReturnLabel_5:
   \   00023C   12....       LCALL     ?Subroutine12 & 0xFFFF
   1442                  osal_start_timerEx(bdb_TaskID,BDB_CHANGE_COMMISSIONING_STATE,50); 
   \                     ??CrossCallReturnLabel_139:
   \   00023F   12....       LCALL     ?PUSH_XSTACK8_X_FOUR
   \   000242   12....       LCALL     ?Subroutine14 & 0xFFFF
   \                     ??CrossCallReturnLabel_126:
   \   000245   12....       LCALL     ?DEALLOC_XSTACK8
   1443                  //Clear the event
   1444                  bdbAttributes.bdbCommissioningMode &= ~BDB_COMMISSIONING_MODE_INITIATOR_TL;
   \   000248   90....       MOV       DPTR,#bdbAttributes + 11
   \   00024B   E0           MOVX      A,@DPTR
   \   00024C   C2E0         CLR       0xE0 /* A   */.0
   \   00024E   02....       LJMP      ??bdb_reportCommissioningState_17 & 0xFFFF
   1445                  
   1446                break;
   1447                
   1448                case BDB_INITIALIZATION:
   1449                  //Notify user about successfull initialization
   1450                  bdbCommissioningModeMsg.bdbCommissioningMode = BDB_COMMISSIONING_INITIALIZATION;
   \                     ??bdb_reportCommissioningState_8:
   \   000251   7401         MOV       A,#0x1
   \   000253   12....       LCALL     ?XSTACK_DISP0_8
   \   000256   E4           CLR       A
   \   000257   F0           MOVX      @DPTR,A
   1451                  if(didSuccess)
   \   000258   EA           MOV       A,R2
   \   000259   602A         JZ        ??bdb_reportCommissioningState_24
   1452                  {
   1453                    //Update ZDApp state
   1454          #if (ZG_BUILD_COORDINATOR_TYPE)
   1455                    if(ZG_DEVICE_COORDINATOR_TYPE)
   1456                    {          
   1457                      ZDApp_ChangeState( DEV_ZB_COORD );
   1458                    }
   1459          #endif          
   1460          #if (ZG_BUILD_ENDDEVICE_TYPE)
   1461                    if(ZG_DEVICE_ENDDEVICE_TYPE)
   1462                    {
   1463                      uint32 pollrate = POLL_RATE;
   1464                      NLME_SetPollRate(pollrate);
   \   00025B                ; Setup parameters for call to function NLME_SetPollRate
   \   00025B   90....       MOV       DPTR,#__Constant_3e8
   \   00025E   12....       LCALL     ?XLOAD_R2345
   \   000261   12....       LCALL     `??NLME_SetPollRate::?relay`; Banked call to: NLME_SetPollRate
   1465                      ZDApp_ChangeState( DEV_END_DEVICE );
   \   000264                ; Setup parameters for call to function ZDApp_ChangeState
   \   000264   7906         MOV       R1,#0x6
   \   000266   12....       LCALL     `??ZDApp_ChangeState::?relay`; Banked call to: ZDApp_ChangeState
   1466                      
   1467                    }
   1468          #endif          
   1469                    ZDApp_RestoreNwkSecMaterial();
   \   000269                ; Setup parameters for call to function ZDApp_RestoreNwkSecMaterial
   \   000269   12....       LCALL     `??ZDApp_RestoreNwkSecMaterial::?relay`; Banked call to: ZDApp_RestoreNwkSecMaterial
   1470                    bdbAttributes.bdbCommissioningStatus = BDB_COMMISSIONING_NETWORK_RESTORED;
   \   00026C   90....       MOV       DPTR,#bdbAttributes + 10
   \   00026F   740D         MOV       A,#0xd
   \   000271   F0           MOVX      @DPTR,A
   1471                    bdbCommissioningProcedureState.bdbCommissioningState = BDB_COMMISSIONING_STATE_START_RESUME;
   \   000272   90....       MOV       DPTR,#bdbCommissioningProcedureState
   \   000275   E4           CLR       A
   \   000276   F0           MOVX      @DPTR,A
   1472                    osal_start_timerEx(bdb_TaskID,BDB_CHANGE_COMMISSIONING_STATE,200);
   \   000277                ; Setup parameters for call to function osal_start_timerEx
   \   000277   90....       MOV       DPTR,#__Constant_c8
   \   00027A   12....       LCALL     ?PUSH_XSTACK8_X_FOUR
   \   00027D   12....       LCALL     ?Subroutine14 & 0xFFFF
   1473                  }
   \                     ??CrossCallReturnLabel_127:
   \   000280   12....       LCALL     ?DEALLOC_XSTACK8
   \   000283   8020         SJMP      ??bdb_reportCommissioningState_25
   1474                  else
   1475                  {
   1476          #if (ZG_BUILD_ENDDEVICE_TYPE)                   
   1477                    if(ZG_DEVICE_ENDDEVICE_TYPE)
   1478                    {
   1479                      if(bdb_isDeviceNonFactoryNew())
   \                     ??bdb_reportCommissioningState_24:
   \   000285   90....       MOV       DPTR,#bdbAttributes + 14
   \   000288   E0           MOVX      A,@DPTR
   \   000289   6014         JZ        ??bdb_reportCommissioningState_26
   1480                      {
   1481                        //Notify the user about losing parent
   1482                        bdbCommissioningModeMsg.bdbCommissioningMode = BDB_COMMISSIONING_PARENT_LOST;
   \   00028B   7401         MOV       A,#0x1
   \   00028D   12....       LCALL     ?XSTACK_DISP0_8
   \   000290   7405         MOV       A,#0x5
   \   000292   F0           MOVX      @DPTR,A
   1483                        bdbAttributes.bdbCommissioningMode |= BDB_COMMISSIONING_MODE_PARENT_LOST;
   \   000293   90....       MOV       DPTR,#bdbAttributes + 11
   \   000296   E0           MOVX      A,@DPTR
   \   000297   D2E5         SETB      0xE0 /* A   */.5
   \   000299   F0           MOVX      @DPTR,A
   1484                        
   1485                        //Update ZDApp state
   1486                        ZDApp_ChangeState( DEV_NWK_ORPHAN );
   \   00029A                ; Setup parameters for call to function ZDApp_ChangeState
   \   00029A   790A         MOV       R1,#0xa
   \   00029C   12....       LCALL     `??ZDApp_ChangeState::?relay`; Banked call to: ZDApp_ChangeState
   1487                      }
   1488                    }
   1489          #endif
   1490                    bdbAttributes.bdbCommissioningStatus = BDB_COMMISSIONING_NO_NETWORK;
   \                     ??bdb_reportCommissioningState_26:
   \   00029F   90....       MOV       DPTR,#bdbAttributes + 10
   \   0002A2   7402         MOV       A,#0x2
   \   0002A4   F0           MOVX      @DPTR,A
   1491                  }
   1492                  bdbAttributes.bdbCommissioningMode &= ~BDB_COMMISSIONING_MODE_INITIALIZATION;
   \                     ??bdb_reportCommissioningState_25:
   \   0002A5   90....       MOV       DPTR,#bdbAttributes + 11
   \   0002A8   E0           MOVX      A,@DPTR
   \   0002A9   C2E4         CLR       0xE0 /* A   */.4
   \   0002AB   8041         SJMP      ??bdb_reportCommissioningState_17
   1493          
   1494                break;
   1495          #if (ZG_BUILD_ENDDEVICE_TYPE)     
   1496                case BDB_PARENT_LOST:
   1497                  bdbCommissioningModeMsg.bdbCommissioningMode = BDB_COMMISSIONING_PARENT_LOST;
   \                     ??bdb_reportCommissioningState_9:
   \   0002AD   7401         MOV       A,#0x1
   \   0002AF   12....       LCALL     ?XSTACK_DISP0_8
   \   0002B2   7405         MOV       A,#0x5
   \   0002B4   F0           MOVX      @DPTR,A
   1498                  if(ZG_DEVICE_ENDDEVICE_TYPE)
   1499                  {
   1500                    if(didSuccess)
   \   0002B5   EA           MOV       A,R2
   \   0002B6   602A         JZ        ??bdb_reportCommissioningState_27
   1501                    {
   1502                      uint32 pollrate = POLL_RATE;
   1503                      bdbCommissioningProcedureState.bdbCommissioningState = bdbCommissioningProcedureState.bdb_ParentLostSavedState;  
   \   0002B8   90....       MOV       DPTR,#bdbCommissioningProcedureState + 3
   \   0002BB   E0           MOVX      A,@DPTR
   \   0002BC   90....       MOV       DPTR,#bdbCommissioningProcedureState
   \   0002BF   F0           MOVX      @DPTR,A
   1504                      bdbCommissioningProcedureState.bdb_ParentLostSavedState = 0;
   \   0002C0   90....       MOV       DPTR,#bdbCommissioningProcedureState + 3
   \   0002C3   E4           CLR       A
   \   0002C4   F0           MOVX      @DPTR,A
   1505                      NLME_SetPollRate(pollrate);
   \   0002C5                ; Setup parameters for call to function NLME_SetPollRate
   \   0002C5   90....       MOV       DPTR,#__Constant_3e8
   \   0002C8   12....       LCALL     ?XLOAD_R2345
   \   0002CB   12....       LCALL     `??NLME_SetPollRate::?relay`; Banked call to: NLME_SetPollRate
   1506                      bdbAttributes.bdbCommissioningMode &= ~BDB_COMMISSIONING_MODE_PARENT_LOST;
   \   0002CE   90....       MOV       DPTR,#bdbAttributes + 11
   \   0002D1   E0           MOVX      A,@DPTR
   \   0002D2   C2E5         CLR       0xE0 /* A   */.5
   \   0002D4   F0           MOVX      @DPTR,A
   1507                      bdbAttributes.bdbCommissioningStatus = BDB_COMMISSIONING_NETWORK_RESTORED;
   \   0002D5   90....       MOV       DPTR,#bdbAttributes + 10
   \   0002D8   740D         MOV       A,#0xd
   \   0002DA   12....       LCALL     ?Subroutine7 & 0xFFFF
   1508                      //Update ZDApp state
   1509                      ZDApp_ChangeState( DEV_END_DEVICE );
   1510                      
   1511                      bdb_NetworkRestoredResumeState();
   \                     ??CrossCallReturnLabel_6:
   \   0002DD                ; Setup parameters for call to function bdb_NetworkRestoredResumeState
   \   0002DD   12....       LCALL     `??bdb_NetworkRestoredResumeState::?relay`; Banked call to: bdb_NetworkRestoredResumeState
   \   0002E0   800D         SJMP      ??bdb_reportCommissioningState_10
   1512                    }
   1513                    else
   1514                    {
   1515                      bdbAttributes.bdbCommissioningMode |= BDB_COMMISSIONING_MODE_PARENT_LOST;
   \                     ??bdb_reportCommissioningState_27:
   \   0002E2   90....       MOV       DPTR,#bdbAttributes + 11
   \   0002E5   E0           MOVX      A,@DPTR
   \   0002E6   D2E5         SETB      0xE0 /* A   */.5
   \   0002E8   F0           MOVX      @DPTR,A
   1516                      bdbAttributes.bdbCommissioningStatus = BDB_COMMISSIONING_NO_NETWORK;
   \   0002E9   90....       MOV       DPTR,#bdbAttributes + 10
   \   0002EC   7402         MOV       A,#0x2
   \                     ??bdb_reportCommissioningState_17:
   \   0002EE   F0           MOVX      @DPTR,A
   1517                    }
   1518                  }
   1519                break;
   1520          #endif
   1521              }
   1522          #ifdef MT_APP_CNF_FUNC
   1523              //Notify the user about the status, the main state which has failed
   1524              bdbCommissioningModeMsg.bdbCommissioningStatus = bdbAttributes.bdbCommissioningStatus;
   1525              
   1526              bdb_NotifyApp((uint8*)&bdbCommissioningModeMsg);
   1527          #else
   1528              if(pfnCommissioningStatusCB)
   \                     ??bdb_reportCommissioningState_10:
   \   0002EF   90....       MOV       DPTR,#pfnCommissioningStatusCB
   \   0002F2   12....       LCALL     ??Subroutine52_0 & 0xFFFF
   \                     ??CrossCallReturnLabel_98:
   \   0002F5   6016         JZ        ??bdb_reportCommissioningState_1
   1529              {
   1530                //Notify the user about the status, the main state which has failed
   1531                bdbCommissioningModeMsg.bdbCommissioningStatus = bdbAttributes.bdbCommissioningStatus;
   \   0002F7   90....       MOV       DPTR,#bdbAttributes + 10
   \   0002FA   E0           MOVX      A,@DPTR
   \   0002FB   85..82       MOV       DPL,?XSP + 0
   \   0002FE   85..83       MOV       DPH,?XSP + 1
   \   000301   12....       LCALL     ?Subroutine5 & 0xFFFF
   1532                
   1533                bdb_NotifyApp((uint8*)&bdbCommissioningModeMsg);
   1534              }
   1535          #endif
   1536            }  
   \                     ??CrossCallReturnLabel_1:
   \   000304   12....       LCALL     ?PUSH_XSTACK_I_TWO
   \   000307   12....       LCALL     ?Subroutine15 & 0xFFFF
   \                     ??CrossCallReturnLabel_76:
   \   00030A   12....       LCALL     ?DEALLOC_XSTACK8
   1537          }
   \                     ??bdb_reportCommissioningState_1:
   \   00030D   7404         MOV       A,#0x4
   \   00030F   02....       LJMP      ??Subroutine60_0 & 0xFFFF

   \                                 In  segment BANKED_CODE, align 1, keep-with-next
   \                     ?Subroutine20:
   \   000000   7A00         MOV       R2,#0x0
   \   000002   7B40         MOV       R3,#0x40
   \   000004                REQUIRE ??Subroutine45_0
   \   000004                ; // Fall through to label ??Subroutine45_0

   \                                 In  segment BANKED_CODE, align 1, keep-with-next
   \                     ?Subroutine7:
   \   000000   F0           MOVX      @DPTR,A
   \   000001                ; Setup parameters for call to function ZDApp_ChangeState
   \   000001                ; Setup parameters for call to function ZDApp_ChangeState
   \   000001                ; Setup parameters for call to function ZDApp_ChangeState
   \   000001   7906         MOV       R1,#0x6
   \   000003   12....       LCALL     `??ZDApp_ChangeState::?relay`; Banked call to: ZDApp_ChangeState
   \   000006   22           RET

   \                                 In  segment BANKED_CODE, align 1, keep-with-next
   \                     ?Subroutine17:
   \   000000   7A00         MOV       R2,#0x0
   \   000002   7B10         MOV       R3,#0x10
   \   000004                REQUIRE ??Subroutine47_0
   \   000004                ; // Fall through to label ??Subroutine47_0

   \                                 In  segment BANKED_CODE, align 1, keep-with-next
   \                     ?Subroutine24:
   \   000000   90....       MOV       DPTR,#pRespondentHead
   \   000003   12....       LCALL     ??Subroutine46_0 & 0xFFFF
   \                     ??CrossCallReturnLabel_154:
   \   000006   12....       LCALL     `??bdb_getRespondentRetry::?relay`; Banked call to: bdb_getRespondentRetry
   \   000009   EA           MOV       A,R2
   \   00000A   4B           ORL       A,R3
   \   00000B   22           RET

   \                                 In  segment BANKED_CODE, align 1, keep-with-next
   \                     ?Subroutine14:
   \   000000   7A04         MOV       R2,#0x4
   \   000002                REQUIRE ??Subroutine55_0
   \   000002                ; // Fall through to label ??Subroutine55_0

   \                                 In  segment BANKED_CODE, align 1, keep-with-next
   \                     ??Subroutine55_0:
   \   000000   7B00         MOV       R3,#0x0
   \   000002                REQUIRE ??Subroutine56_0
   \   000002                ; // Fall through to label ??Subroutine56_0

   \                                 In  segment BANKED_CODE, align 1, keep-with-next
   \                     ?Subroutine12:
   \   000000   90....       MOV       DPTR,#bdbCommissioningProcedureState
   \   000003                REQUIRE ??Subroutine57_0
   \   000003                ; // Fall through to label ??Subroutine57_0

   \                                 In  segment BANKED_CODE, align 1, keep-with-next
   \                     ??Subroutine57_0:
   \   000000   E4           CLR       A
   \   000001                REQUIRE ??Subroutine58_0
   \   000001                ; // Fall through to label ??Subroutine58_0

   \                                 In  segment BANKED_CODE, align 1, keep-with-next
   \                     ??Subroutine58_0:
   \   000000   F0           MOVX      @DPTR,A
   \   000001                ; Setup parameters for call to function osal_start_timerEx
   \   000001                ; Setup parameters for call to function osal_start_timerEx
   \   000001                ; Setup parameters for call to function osal_start_timerEx
   \   000001                ; Setup parameters for call to function osal_start_timerEx
   \   000001                ; Setup parameters for call to function osal_start_timerEx
   \   000001                ; Setup parameters for call to function osal_start_timerEx
   \   000001   90....       MOV       DPTR,#__Constant_32
   \   000004   22           RET
   1538          
   1539          
   1540           /*********************************************************************
   1541           * @fn          bdb_nwkFormationAttempt
   1542           *
   1543           * @brief       Process a nwk formation attempt.
   1544           *
   1545           * @param       didSuccess - TRUE if the nwk formation was success, FALSE 
   1546           *                         otherwise and try secondary channel
   1547           *
   1548           * @return      none
   1549           */

   \                                 In  segment BANKED_CODE, align 1, keep-with-next
   1550          void bdb_nwkFormationAttempt(bool didSuccess)
   \                     bdb_nwkFormationAttempt:
   1551          {
   \   000000   74F7         MOV       A,#-0x9
   \   000002   12....       LCALL     ?BANKED_ENTER_XDATA
   \   000005                ; Saved register size: 9
   \   000005                ; Auto size: 0
   \   000005   E9           MOV       A,R1
   1552            if(didSuccess)
   \   000006   6004         JZ        ??bdb_nwkFormationAttempt_0
   1553            {
   1554              bdb_reportCommissioningState(BDB_COMMISSIONING_STATE_FORMATION,TRUE);
   \   000008                ; Setup parameters for call to function bdb_reportCommissioningState
   \   000008   7A01         MOV       R2,#0x1
   \   00000A   801F         SJMP      ??bdb_nwkFormationAttempt_1
   1555            }
   1556            else
   1557            {
   1558              //Can we try the secondary channel set?
   1559              if((vDoPrimaryScan) && (bdbAttributes.bdbSecondaryChannelSet))
   \                     ??bdb_nwkFormationAttempt_0:
   \   00000C   90....       MOV       DPTR,#vDoPrimaryScan
   \   00000F   E0           MOVX      A,@DPTR
   \   000010   6017         JZ        ??bdb_nwkFormationAttempt_2
   \   000012   90....       MOV       DPTR,#bdbAttributes
   \   000015   12....       LCALL     ?XLOAD_R0123
   \   000018   E8           MOV       A,R0
   \   000019   49           ORL       A,R1
   \   00001A   4A           ORL       A,R2
   \   00001B   4B           ORL       A,R3
   \   00001C   600B         JZ        ??bdb_nwkFormationAttempt_2
   1560              {
   1561                vDoPrimaryScan = FALSE;
   \   00001E   90....       MOV       DPTR,#vDoPrimaryScan
   \   000021   E4           CLR       A
   \   000022   F0           MOVX      @DPTR,A
   1562                bdb_nwkJoiningFormation(FALSE);
   \   000023                ; Setup parameters for call to function bdb_nwkJoiningFormation
   \   000023   F9           MOV       R1,A
   \   000024   12....       LCALL     `??bdb_nwkJoiningFormation::?relay`; Banked call to: bdb_nwkJoiningFormation
   \   000027   8007         SJMP      ??bdb_nwkFormationAttempt_3
   1563              }
   1564              else
   1565              {
   1566                bdb_reportCommissioningState(BDB_COMMISSIONING_STATE_FORMATION, FALSE);
   \                     ??bdb_nwkFormationAttempt_2:
   \   000029                ; Setup parameters for call to function bdb_reportCommissioningState
   \   000029   7A00         MOV       R2,#0x0
   \                     ??bdb_nwkFormationAttempt_1:
   \   00002B   7905         MOV       R1,#0x5
   \   00002D   12....       LCALL     `??bdb_reportCommissioningState::?relay`; Banked call to: bdb_reportCommissioningState
   1567              }
   1568            }
   1569          }
   \                     ??bdb_nwkFormationAttempt_3:
   \   000030   02....       LJMP      ?Subroutine0 & 0xFFFF
   1570          
   1571          
   1572          
   1573          /*********************************************************************
   1574           * @fn          bdb_isDeviceNonFactoryNew
   1575           *
   1576           * @brief       Returns the state of bdbNodeIsOnANetwork attribute
   1577           * 
   1578           * @param       none
   1579           *
   1580           * @return      bdbNodeIsOnANetwork
   1581           */

   \                                 In  segment BANKED_CODE, align 1, keep-with-next
   1582          bool bdb_isDeviceNonFactoryNew(void)
   \                     bdb_isDeviceNonFactoryNew:
   1583          {
   \   000000   C082         PUSH      DPL
   \   000002   C083         PUSH      DPH
   \   000004                ; Saved register size: 2
   \   000004                ; Auto size: 0
   1584            return bdbAttributes.bdbNodeIsOnANetwork;
   \   000004   90....       MOV       DPTR,#bdbAttributes + 14
   \   000007   E0           MOVX      A,@DPTR
   \   000008   F9           MOV       R1,A
   \   000009   02....       LJMP      ??Subroutine44_0 & 0xFFFF
   1585          }
   1586          
   1587          
   1588          /*********************************************************************
   1589           * @fn          bdb_doTrustCenterRequireKeyExchange
   1590           *
   1591           * @brief       Returns the state of bdbTrustCenterRequireKeyExchange attribute
   1592           * 
   1593           * @param       none
   1594           *
   1595           * @return      bdbTrustCenterRequireKeyExchange
   1596           */

   \                                 In  segment BANKED_CODE, align 1, keep-with-next
   1597          bool bdb_doTrustCenterRequireKeyExchange(void)
   \                     bdb_doTrustCenterRequireKeyExchange:
   1598          {
   \   000000                ; Saved register size: 0
   \   000000                ; Auto size: 0
   1599          #if (ZG_BUILD_COORDINATOR_TYPE) 
   1600            return bdbAttributes.bdbTrustCenterRequireKeyExchange;
   1601          #else
   1602            return 0;
   \   000000   7900         MOV       R1,#0x0
   \   000002   02....       LJMP      ?BRET
   1603          #endif
   1604          }
   1605          
   1606          /*********************************************************************
   1607           * @fn      bdb_rejoinNwk
   1608           *
   1609           * @brief   Attempt to rejoin/resume a nwk from nv parameters
   1610           *
   1611           * @param   none
   1612           *
   1613           * @return  ZStatus_t
   1614           */

   \                                 In  segment BANKED_CODE, align 1, keep-with-next
   1615          ZStatus_t bdb_rejoinNwk(void)
   \                     bdb_rejoinNwk:
   1616          {
   \   000000   74F7         MOV       A,#-0x9
   \   000002   12....       LCALL     ?BANKED_ENTER_XDATA
   \   000005                ; Saved register size: 9
   \   000005                ; Auto size: 1
   \   000005   74FF         MOV       A,#-0x1
   \   000007   12....       LCALL     ?ALLOC_XSTACK8
   1617            ZStatus_t rejoinStatus = ZSuccess;
   \   00000A   7E00         MOV       R6,#0x0
   1618            
   1619            // Transition state machine to correct rejoin state based on nwk key
   1620            if ( ZDApp_RestoreNwkKey( FALSE )== TRUE )
   \   00000C                ; Setup parameters for call to function ZDApp_RestoreNwkKey
   \   00000C   7900         MOV       R1,#0x0
   \   00000E   12....       LCALL     `??ZDApp_RestoreNwkKey::?relay`; Banked call to: ZDApp_RestoreNwkKey
   \   000011   E9           MOV       A,R1
   \   000012   6401         XRL       A,#0x1
   \   000014   7004         JNZ       ??bdb_rejoinNwk_0
   1621            {
   1622              ZDApp_ChangeState( DEV_NWK_SEC_REJOIN_CURR_CHANNEL );
   \   000016                ; Setup parameters for call to function ZDApp_ChangeState
   \   000016   7904         MOV       R1,#0x4
   \   000018   8002         SJMP      ??bdb_rejoinNwk_1
   1623            }
   1624            else
   1625            {
   1626              ZDApp_ChangeState( DEV_NWK_TC_REJOIN_CURR_CHANNEL );
   \                     ??bdb_rejoinNwk_0:
   \   00001A                ; Setup parameters for call to function ZDApp_ChangeState
   \   00001A   790E         MOV       R1,#0xe
   \                     ??bdb_rejoinNwk_1:
   \   00001C   12....       LCALL     `??ZDApp_ChangeState::?relay`; Banked call to: ZDApp_ChangeState
   1627            }
   1628          
   1629            // Before trying to do rejoin, check if the device has a valid short address
   1630            // If not, generate a random short address for itself
   1631            if ( _NIB.nwkDevAddress == INVALID_NODE_ADDR )
   \   00001F   90....       MOV       DPTR,#_NIB + 20
   \   000022   E0           MOVX      A,@DPTR
   \   000023   64FE         XRL       A,#0xfe
   \   000025   7003         JNZ       ??bdb_rejoinNwk_2
   \   000027   A3           INC       DPTR
   \   000028   E0           MOVX      A,@DPTR
   \   000029   F4           CPL       A
   \                     ??bdb_rejoinNwk_2:
   \   00002A   7002         JNZ       ??bdb_rejoinNwk_3
   1632            {
   1633              rejoinStatus = ZFailure;
   \   00002C   7E01         MOV       R6,#0x1
   1634            }
   1635          
   1636            // Check if the device has a valid PanID, if not, set it to the discovered Pan
   1637            if ( _NIB.nwkPanId == 0xFFFF )
   \                     ??bdb_rejoinNwk_3:
   \   00002E   90....       MOV       DPTR,#_NIB + 33
   \   000031   E0           MOVX      A,@DPTR
   \   000032   F4           CPL       A
   \   000033   7003         JNZ       ??bdb_rejoinNwk_4
   \   000035   A3           INC       DPTR
   \   000036   E0           MOVX      A,@DPTR
   \   000037   F4           CPL       A
   \                     ??bdb_rejoinNwk_4:
   \   000038   7004         JNZ       ??bdb_rejoinNwk_5
   1638            {
   1639              rejoinStatus = ZFailure;
   \   00003A   7E01         MOV       R6,#0x1
   \   00003C   803A         SJMP      ??bdb_rejoinNwk_6
   1640            }
   1641          
   1642            if(rejoinStatus == ZSuccess)
   \                     ??bdb_rejoinNwk_5:
   \   00003E   EE           MOV       A,R6
   \   00003F   A2E0         MOV       C,0xE0 /* A   */.0
   \   000041   4035         JC        ??bdb_rejoinNwk_6
   1643            {
   1644              uint8 tmp = true;
   \   000043   85..82       MOV       DPL,?XSP + 0
   \   000046   85..83       MOV       DPH,?XSP + 1
   \   000049   7401         MOV       A,#0x1
   \   00004B   F0           MOVX      @DPTR,A
   1645              ZMacSetReq( ZMacRxOnIdle, &tmp ); // Set receiver always on during rejoin
   \   00004C                ; Setup parameters for call to function ZMacSetReq
   \   00004C   AA..         MOV       R2,?XSP + 0
   \   00004E   AB..         MOV       R3,?XSP + 1
   \   000050   7952         MOV       R1,#0x52
   \   000052   12....       LCALL     `??ZMacSetReq::?relay`; Banked call to: ZMacSetReq
   1646                  
   1647              // Perform Secure or Unsecure Rejoin depending on available configuration
   1648              if ( ZG_SECURE_ENABLED && ( ZDApp_RestoreNwkKey( TRUE ) == TRUE ) )
   \   000055                ; Setup parameters for call to function ZDApp_RestoreNwkKey
   \   000055   7901         MOV       R1,#0x1
   \   000057   12....       LCALL     `??ZDApp_RestoreNwkKey::?relay`; Banked call to: ZDApp_RestoreNwkKey
   \   00005A   E9           MOV       A,R1
   \   00005B   6401         XRL       A,#0x1
   \   00005D   90....       MOV       DPTR,#_NIB + 22
   \   000060   700B         JNZ       ??bdb_rejoinNwk_7
   1649              {
   1650                rejoinStatus = NLME_ReJoinRequest( ZDO_UseExtendedPANID, _NIB.nwkLogicalChannel);
   \   000062                ; Setup parameters for call to function NLME_ReJoinRequest
   \   000062   E0           MOVX      A,@DPTR
   \   000063   F9           MOV       R1,A
   \   000064   7A..         MOV       R2,#ZDO_UseExtendedPANID & 0xff
   \   000066   7B..         MOV       R3,#(ZDO_UseExtendedPANID >> 8) & 0xff
   \   000068   12....       LCALL     `??NLME_ReJoinRequest::?relay`; Banked call to: NLME_ReJoinRequest
   \   00006B   8009         SJMP      ??bdb_rejoinNwk_8
   1651              }
   1652              else
   1653              {
   1654                rejoinStatus = NLME_ReJoinRequestUnsecure( ZDO_UseExtendedPANID, _NIB.nwkLogicalChannel);
   \                     ??bdb_rejoinNwk_7:
   \   00006D                ; Setup parameters for call to function NLME_ReJoinRequestUnsecure
   \   00006D   E0           MOVX      A,@DPTR
   \   00006E   F9           MOV       R1,A
   \   00006F   7A..         MOV       R2,#ZDO_UseExtendedPANID & 0xff
   \   000071   7B..         MOV       R3,#(ZDO_UseExtendedPANID >> 8) & 0xff
   \   000073   12....       LCALL     `??NLME_ReJoinRequestUnsecure::?relay`; Banked call to: NLME_ReJoinRequestUnsecure
   \                     ??bdb_rejoinNwk_8:
   \   000076   E9           MOV       A,R1
   \   000077   FE           MOV       R6,A
   1655              }
   1656            }
   1657            
   1658            return rejoinStatus;
   \                     ??bdb_rejoinNwk_6:
   \   000078   EE           MOV       A,R6
   \   000079   F9           MOV       R1,A
   \   00007A   7401         MOV       A,#0x1
   \   00007C   12....       LCALL     ?DEALLOC_XSTACK8
   \   00007F                REQUIRE ?Subroutine0
   \   00007F                ; // Fall through to label ?Subroutine0
   1659          }
   1660          
   1661          #if (ZG_BUILD_JOINING_TYPE)
   1662           /*********************************************************************
   1663           * @fn          bdb_nwkDiscoveryAttempt
   1664           *
   1665           * @brief       Process a nwk discovery attempt
   1666           *
   1667           * @param       didSuccess - TRUE we found nwk in the scanned channels, FALSE if 
   1668           *                           no suitable nwks were found, try secondary channel
   1669           *
   1670           * @return      none
   1671           */

   \                                 In  segment BANKED_CODE, align 1, keep-with-next
   1672          void bdb_nwkDiscoveryAttempt(bool didSuccess)
   \                     bdb_nwkDiscoveryAttempt:
   1673          {
   \   000000                REQUIRE ?V0
   \   000000                REQUIRE ?V1
   \   000000   74F6         MOV       A,#-0xa
   \   000002   12....       LCALL     ?BANKED_ENTER_XDATA
   \   000005                ; Saved register size: 10
   \   000005                ; Auto size: 1
   \   000005   74FF         MOV       A,#-0x1
   \   000007   12....       LCALL     ?ALLOC_XSTACK8
   1674            uint8 bdbJoinEvent = BDB_JOIN_EVENT_NWK_DISCOVERY;
   \   00000A   85..82       MOV       DPL,?XSP + 0
   \   00000D   85..83       MOV       DPH,?XSP + 1
   \   000010   E4           CLR       A
   \   000011   F0           MOVX      @DPTR,A
   1675            
   1676            if(didSuccess)
   \   000012   E9           MOV       A,R1
   \   000013   601B         JZ        ??bdb_nwkDiscoveryAttempt_0
   1677            {
   1678              bdb_SendMsg(bdb_TaskID, BDB_COMMISSIONING_STATE_JOINING, BDB_MSG_EVENT_SUCCESS,sizeof(bdbJoinEvent),(uint8*)&bdbJoinEvent);
   \   000015                ; Setup parameters for call to function bdb_SendMsg
   \   000015   A8..         MOV       R0,?XSP + 0
   \   000017   A9..         MOV       R1,?XSP + 1
   \   000019   88..         MOV       ?V0,R0
   \   00001B   89..         MOV       ?V1,R1
   \   00001D   78..         MOV       R0,#?V0
   \   00001F   12....       LCALL     ?PUSH_XSTACK_I_TWO
   \   000022   7C01         MOV       R4,#0x1
   \   000024   7B00         MOV       R3,#0x0
   \   000026   7A03         MOV       R2,#0x3
   \   000028   12....       LCALL     ??Subroutine48_0 & 0xFFFF
   1679            }
   \                     ??CrossCallReturnLabel_79:
   \   00002B   12....       LCALL     ?DEALLOC_XSTACK8
   \   00002E   8030         SJMP      ??bdb_nwkDiscoveryAttempt_1
   1680            else
   1681            {
   1682              //Can we try the secondary channel set?
   1683              if((vDoPrimaryScan) && (bdbAttributes.bdbSecondaryChannelSet))
   \                     ??bdb_nwkDiscoveryAttempt_0:
   \   000030   90....       MOV       DPTR,#vDoPrimaryScan
   \   000033   E0           MOVX      A,@DPTR
   \   000034   6023         JZ        ??bdb_nwkDiscoveryAttempt_2
   \   000036   90....       MOV       DPTR,#bdbAttributes
   \   000039   12....       LCALL     ?XLOAD_R0123
   \   00003C   E8           MOV       A,R0
   \   00003D   49           ORL       A,R1
   \   00003E   4A           ORL       A,R2
   \   00003F   4B           ORL       A,R3
   \   000040   6017         JZ        ??bdb_nwkDiscoveryAttempt_2
   1684              {
   1685                vDoPrimaryScan = FALSE;
   \   000042   90....       MOV       DPTR,#vDoPrimaryScan
   \   000045   E4           CLR       A
   \   000046   F0           MOVX      @DPTR,A
   1686                bdb_setChannel(bdbAttributes.bdbSecondaryChannelSet);
   \   000047                ; Setup parameters for call to function bdb_setChannel
   \   000047   90....       MOV       DPTR,#bdbAttributes
   \   00004A   12....       LCALL     ?XLOAD_R2345
   \   00004D   12....       LCALL     `??bdb_setChannel::?relay`; Banked call to: bdb_setChannel
   1687                
   1688                ZDApp_NetworkInit( 50 );
   \   000050                ; Setup parameters for call to function ZDApp_NetworkInit
   \   000050   7A32         MOV       R2,#0x32
   \   000052   7B00         MOV       R3,#0x0
   \   000054   12....       LCALL     `??ZDApp_NetworkInit::?relay`; Banked call to: ZDApp_NetworkInit
   \   000057   8007         SJMP      ??bdb_nwkDiscoveryAttempt_1
   1689              }
   1690              else
   1691              {
   1692                bdb_reportCommissioningState(BDB_COMMISSIONING_STATE_JOINING, FALSE);
   \                     ??bdb_nwkDiscoveryAttempt_2:
   \   000059                ; Setup parameters for call to function bdb_reportCommissioningState
   \   000059   7A00         MOV       R2,#0x0
   \   00005B   7903         MOV       R1,#0x3
   \   00005D   12....       LCALL     `??bdb_reportCommissioningState::?relay`; Banked call to: bdb_reportCommissioningState
   1693              }
   1694            }
   1695          }
   \                     ??bdb_nwkDiscoveryAttempt_1:
   \   000060   02....       LJMP      ?Subroutine1 & 0xFFFF

   \                                 In  segment BANKED_CODE, align 1, keep-with-next
   \                     ?Subroutine1:
   \   000000   7401         MOV       A,#0x1
   \   000002                REQUIRE ??Subroutine60_0
   \   000002                ; // Fall through to label ??Subroutine60_0
   1696          
   1697           /*********************************************************************
   1698           * @fn          bdb_filterNwkDisc
   1699           *
   1700           * @brief       Filter the nwks found and attempt to join the suitable nwks
   1701           *              Here the application can include nwk filters 
   1702           *
   1703           * @param       none
   1704           *
   1705           * @return      none
   1706           */

