###############################################################################
#
# IAR C/C++ Compiler V10.20.1.5333 for 8051               04/Jun/2018  16:34:47
# Copyright 2004-2018 IAR Systems AB.
# PC-locked license - IAR Embedded Workbench for 8051
#
#    Core               =  plain
#    Code model         =  banked
#    Data model         =  large
#    Calling convention =  xdata reentrant
#    Constant location  =  data_rom
#    Dptr setup         =  1,16
#                          
#    Source file        =  
#        C:\Texas Instruments\Z-Stack 3.0.1\Components\stack\zdo\ZDSecMgr.c
#    Command line       =  
#        -f C:\Users\yao\AppData\Local\Temp\EW1E32.tmp ("C:\Texas
#        Instruments\Z-Stack 3.0.1\Components\stack\zdo\ZDSecMgr.c" -D
#        BDB_REPORTING -D SECURE=1 -D TC_LINKKEY_JOIN -D NV_INIT -D NV_RESTORE
#        -D NWK_AUTO_POLL -D xZTOOL_P1 -D xMT_TASK -D xMT_APP_FUNC -D
#        xMT_SYS_FUNC -D xMT_ZDO_FUNC -D xMT_ZDO_MGMT -D xMT_APP_CNF_FUNC -D
#        LCD_SUPPORTED=DEBUG -D MULTICAST_ENABLED=FALSE -D ZCL_READ -D
#        ZCL_DISCOVER -D ZCL_WRITE -D ZCL_BASIC -D ZCL_IDENTIFY -D ZCL_ON_OFF
#        -D ZCL_GROUPS -D ZCL_LEVEL_CTRL -D ZCL_SCENES -lC "C:\Texas
#        Instruments\Z-Stack
#        3.0.1\Projects\zstack\HomeAutomation\SampleLight\CC2530DB\EndDeviceEB\List"
#        -lA "C:\Texas Instruments\Z-Stack
#        3.0.1\Projects\zstack\HomeAutomation\SampleLight\CC2530DB\EndDeviceEB\List"
#        --diag_suppress Pe001,Pa010 -o "C:\Texas Instruments\Z-Stack
#        3.0.1\Projects\zstack\HomeAutomation\SampleLight\CC2530DB\EndDeviceEB\Obj"
#        -e --debug --core=plain --dptr=16,1 --data_model=large
#        --code_model=banked --calling_convention=xdata_reentrant
#        --place_constants=data_rom --nr_virtual_regs 16 -f "C:\Texas
#        Instruments\Z-Stack
#        3.0.1\Projects\zstack\HomeAutomation\SampleLight\CC2530DB\..\..\..\Tools\CC2530DB\f8wEndev.cfg"
#        (-DCPU32MHZ -DROOT=__near_func -DMAC_CFG_TX_DATA_MAX=3
#        -DMAC_CFG_TX_MAX=6 -DMAC_CFG_RX_MAX=3) -f "C:\Texas
#        Instruments\Z-Stack
#        3.0.1\Projects\zstack\HomeAutomation\SampleLight\CC2530DB\..\..\..\Tools\CC2530DB\f8wConfig.cfg"
#        (-DZIGBEEPRO -DSECURE=1 -DZG_SECURE_DYNAMIC=0 -DREFLECTOR
#        -DDEFAULT_CHANLIST=0x00000800 -DZDAPP_CONFIG_PAN_ID=0x1234
#        -DNWK_START_DELAY=100 -DEXTENDED_JOINING_RANDOM_MASK=0x007F
#        -DBEACON_REQUEST_DELAY=100 -DBEACON_REQ_DELAY_MASK=0x00FF
#        -DLINK_STATUS_JITTER_MASK=0x007F -DROUTE_EXPIRY_TIME=30
#        -DAPSC_ACK_WAIT_DURATION_POLLED=3000 -DNWK_INDIRECT_MSG_TIMEOUT=7
#        -DMAX_RREQ_ENTRIES=8 -DAPSC_MAX_FRAME_RETRIES=3
#        -DNWK_MAX_DATA_RETRIES=2 -DMAX_POLL_FAILURE_RETRIES=2 -DMAX_BCAST=9
#        -DAPS_MAX_GROUPS=16 -DMAX_RTG_ENTRIES=40 -DNWK_MAX_BINDING_ENTRIES=4
#        -DMAX_BINDING_CLUSTER_IDS=4 -DDEFAULT_KEY={0} -DMAC_MAX_FRAME_SIZE=116
#        -DZDNWKMGR_MIN_TRANSMISSIONS=20 "-DCONST=const __code"
#        -DGENERIC=__generic -DRFD_RCVC_ALWAYS_ON=TRUE -DPOLL_RATE=1000
#        -DQUEUED_POLL_RATE=100 -DRESPONSE_POLL_RATE=100 -DREJOIN_POLL_RATE=440
#        -DREJOIN_BACKOFF=900000 -DREJOIN_SCAN=900000 -DENABLE_LED4_DISABLE_S1)
#        -f "C:\Texas Instruments\Z-Stack
#        3.0.1\Projects\zstack\HomeAutomation\SampleLight\CC2530DB\..\..\..\Tools\CC2530DB\f8wZCL.cfg"
#        -I "C:\Texas Instruments\Z-Stack
#        3.0.1\Projects\zstack\HomeAutomation\SampleLight\CC2530DB\" -I
#        "C:\Texas Instruments\Z-Stack
#        3.0.1\Projects\zstack\HomeAutomation\SampleLight\CC2530DB\..\Source\"
#        -I "C:\Texas Instruments\Z-Stack
#        3.0.1\Projects\zstack\HomeAutomation\SampleLight\CC2530DB\..\..\Source\"
#        -I "C:\Texas Instruments\Z-Stack
#        3.0.1\Projects\zstack\HomeAutomation\SampleLight\CC2530DB\..\..\..\ZMain\TI2530DB\"
#        -I "C:\Texas Instruments\Z-Stack
#        3.0.1\Projects\zstack\HomeAutomation\SampleLight\CC2530DB\..\..\..\..\..\Components\hal\include\"
#        -I "C:\Texas Instruments\Z-Stack
#        3.0.1\Projects\zstack\HomeAutomation\SampleLight\CC2530DB\..\..\..\..\..\Components\hal\target\CC2530EB\"
#        -I "C:\Texas Instruments\Z-Stack
#        3.0.1\Projects\zstack\HomeAutomation\SampleLight\CC2530DB\..\..\..\..\..\Components\mac\include\"
#        -I "C:\Texas Instruments\Z-Stack
#        3.0.1\Projects\zstack\HomeAutomation\SampleLight\CC2530DB\..\..\..\..\..\Components\mac\high_level\"
#        -I "C:\Texas Instruments\Z-Stack
#        3.0.1\Projects\zstack\HomeAutomation\SampleLight\CC2530DB\..\..\..\..\..\Components\mac\low_level\srf04\"
#        -I "C:\Texas Instruments\Z-Stack
#        3.0.1\Projects\zstack\HomeAutomation\SampleLight\CC2530DB\..\..\..\..\..\Components\mac\low_level\srf04\single_chip\"
#        -I "C:\Texas Instruments\Z-Stack
#        3.0.1\Projects\zstack\HomeAutomation\SampleLight\CC2530DB\..\..\..\..\..\Components\mt\"
#        -I "C:\Texas Instruments\Z-Stack
#        3.0.1\Projects\zstack\HomeAutomation\SampleLight\CC2530DB\..\..\..\..\..\Components\osal\include\"
#        -I "C:\Texas Instruments\Z-Stack
#        3.0.1\Projects\zstack\HomeAutomation\SampleLight\CC2530DB\..\..\..\..\..\Components\services\saddr\"
#        -I "C:\Texas Instruments\Z-Stack
#        3.0.1\Projects\zstack\HomeAutomation\SampleLight\CC2530DB\..\..\..\..\..\Components\services\sdata\"
#        -I "C:\Texas Instruments\Z-Stack
#        3.0.1\Projects\zstack\HomeAutomation\SampleLight\CC2530DB\..\..\..\..\..\Components\stack\af\"
#        -I "C:\Texas Instruments\Z-Stack
#        3.0.1\Projects\zstack\HomeAutomation\SampleLight\CC2530DB\..\..\..\..\..\Components\stack\bdb\"
#        -I "C:\Texas Instruments\Z-Stack
#        3.0.1\Projects\zstack\HomeAutomation\SampleLight\CC2530DB\..\..\..\..\..\Components\stack\gp\"
#        -I "C:\Texas Instruments\Z-Stack
#        3.0.1\Projects\zstack\HomeAutomation\SampleLight\CC2530DB\..\..\..\..\..\Components\stack\nwk\"
#        -I "C:\Texas Instruments\Z-Stack
#        3.0.1\Projects\zstack\HomeAutomation\SampleLight\CC2530DB\..\..\..\..\..\Components\stack\sapi\"
#        -I "C:\Texas Instruments\Z-Stack
#        3.0.1\Projects\zstack\HomeAutomation\SampleLight\CC2530DB\..\..\..\..\..\Components\stack\sec\"
#        -I "C:\Texas Instruments\Z-Stack
#        3.0.1\Projects\zstack\HomeAutomation\SampleLight\CC2530DB\..\..\..\..\..\Components\stack\sys\"
#        -I "C:\Texas Instruments\Z-Stack
#        3.0.1\Projects\zstack\HomeAutomation\SampleLight\CC2530DB\..\..\..\..\..\Components\stack\zcl\"
#        -I "C:\Texas Instruments\Z-Stack
#        3.0.1\Projects\zstack\HomeAutomation\SampleLight\CC2530DB\..\..\..\..\..\Components\stack\zdo\"
#        -I "C:\Texas Instruments\Z-Stack
#        3.0.1\Projects\zstack\HomeAutomation\SampleLight\CC2530DB\..\..\..\..\..\Components\zmac\"
#        -I "C:\Texas Instruments\Z-Stack
#        3.0.1\Projects\zstack\HomeAutomation\SampleLight\CC2530DB\..\..\..\..\..\Components\zmac\f8w\"
#        -Ohz --require_prototypes)
#    Locale             =  Chinese (Simplified)_CHN.936
#    List file          =  
#        C:\Texas Instruments\Z-Stack
#        3.0.1\Projects\zstack\HomeAutomation\SampleLight\CC2530DB\EndDeviceEB\List\ZDSecMgr.lst
#    Object file        =  
#        C:\Texas Instruments\Z-Stack
#        3.0.1\Projects\zstack\HomeAutomation\SampleLight\CC2530DB\EndDeviceEB\Obj\ZDSecMgr.r51
#
###############################################################################

C:\Texas Instruments\Z-Stack 3.0.1\Components\stack\zdo\ZDSecMgr.c
      1          /******************************************************************************
      2            Filename:       ZDSecMgr.c
      3            Revised:        $Date: 2014-06-05 11:25:00 -0700 (Thu, 05 Jun 2014) $
      4            Revision:       $Revision: 38833 $
      5          
      6            Description:    The ZigBee Device Security Manager.
      7          
      8          
      9            Copyright 2005-2014 Texas Instruments Incorporated. All rights reserved.
     10          
     11            IMPORTANT: Your use of this Software is limited to those specific rights
     12            granted under the terms of a software license agreement between the user
     13            who downloaded the software, his/her employer (which must be your employer)
     14            and Texas Instruments Incorporated (the "License"). You may not use this
     15            Software unless you agree to abide by the terms of the License. The License
     16            limits your use, and you acknowledge, that the Software may not be modified,
     17            copied or distributed unless embedded on a Texas Instruments microcontroller
     18            or used solely and exclusively in conjunction with a Texas Instruments radio
     19            frequency transceiver, which is integrated into your product. Other than for
     20            the foregoing purpose, you may not use, reproduce, copy, prepare derivative
     21            works of, modify, distribute, perform, display or sell this Software and/or
     22            its documentation for any purpose.
     23          
     24            YOU FURTHER ACKNOWLEDGE AND AGREE THAT THE SOFTWARE AND DOCUMENTATION ARE
     25            PROVIDED "AS IS" WITHOUT WARRANTY OF ANY KIND, EITHER EXPRESS OR IMPLIED,
     26            INCLUDING WITHOUT LIMITATION, ANY WARRANTY OF MERCHANTABILITY, TITLE,
     27            NON-INFRINGEMENT AND FITNESS FOR A PARTICULAR PURPOSE. IN NO EVENT SHALL
     28            TEXAS INSTRUMENTS OR ITS LICENSORS BE LIABLE OR OBLIGATED UNDER CONTRACT,
     29            NEGLIGENCE, STRICT LIABILITY, CONTRIBUTION, BREACH OF WARRANTY, OR OTHER
     30            LEGAL EQUITABLE THEORY ANY DIRECT OR INDIRECT DAMAGES OR EXPENSES
     31            INCLUDING BUT NOT LIMITED TO ANY INCIDENTAL, SPECIAL, INDIRECT, PUNITIVE
     32            OR CONSEQUENTIAL DAMAGES, LOST PROFITS OR LOST DATA, COST OF PROCUREMENT
     33            OF SUBSTITUTE GOODS, TECHNOLOGY, SERVICES, OR ANY CLAIMS BY THIRD PARTIES
     34            (INCLUDING BUT NOT LIMITED TO ANY DEFENSE THEREOF), OR OTHER SIMILAR COSTS.
     35          
     36            Should you have any questions regarding your right to use this Software,
     37            contact Texas Instruments Incorporated at www.TI.com.
     38          ******************************************************************************/
     39          
     40          #ifdef __cplusplus
     41          extern "C"
     42          {
     43          #endif
     44          
     45          /******************************************************************************
     46           * INCLUDES
     47           */
     48          #include "ZComDef.h"
     49          #include "OSAL.h"
     50          #include "OSAL_Nv.h"
     51          #include "ZGlobals.h"
     52          #include "ssp.h"
     53          #include "nwk_globals.h"
     54          #include "nwk.h"
     55          #include "NLMEDE.h"
     56          #include "AddrMgr.h"
     57          #include "AssocList.h"
     58          #include "APSMEDE.h"
     59          #include "ZDConfig.h"
     60          #include "ZDSecMgr.h"
     61            
     62          #include "bdb.h"
     63          #include "bdb_interface.h"
     64          
     65          /******************************************************************************
     66           * CONSTANTS
     67           */
     68          // maximum number of devices managed by this Security Manager
     69          #if !defined ( ZDSECMGR_DEVICE_MAX )
     70            #define ZDSECMGR_DEVICE_MAX 3
     71          #endif
     72          
     73          // maximum number of LINK keys this device may store
     74          #define ZDSECMGR_ENTRY_MAX ZDSECMGR_DEVICE_MAX
     75          
     76          // total number of stored devices
     77          #if !defined ( ZDSECMGR_STORED_DEVICES )
     78            #define ZDSECMGR_STORED_DEVICES 3
     79          #endif
     80          
     81          // Joining Device Policies: r21 spec 4.9.1
     82          // This boolean indicates whether the device will request a new Trust Center Link key after joining.
     83          // TC link key cannot be requested if join is performed on distributed nwk

   \                                 In  segment XDATA_I, align 1, keep-with-next
     84          bool  requestNewTrustCenterLinkKey = TRUE;  
   \                     requestNewTrustCenterLinkKey:
   \   000000                DS 1
   \   000001                REQUIRE `?<Initializer for requestNewTrustCenterLinkKey`
   \   000001                REQUIRE __INIT_XDATA_I
     85          //This integer indicates the maximum time in seconds that a device will wait for a response to a 
     86          //request for a Trust Center link key.

   \                                 In  segment XDATA_I, align 1, keep-with-next
     87          uint32  requestLinkKeyTimeout = BDBC_TC_LINK_KEY_EXANGE_TIMEOUT;
   \                     requestLinkKeyTimeout:
   \   000000                DS 4
   \   000004                REQUIRE `?<Initializer for requestLinkKeyTimeout>`
   \   000004                REQUIRE __INIT_XDATA_I
     88           //bool acceptNewUnsolicitedApplicationLinkKey;   
     89          
     90          // APSME Stub Implementations
     91          #define ZDSecMgrLinkKeySet       APSME_LinkKeySet
     92          #define ZDSecMgrLinkKeyNVIdGet   APSME_LinkKeyNVIdGet
     93          #define ZDSecMgrKeyFwdToChild    APSME_KeyFwdToChild
     94          #define ZDSecMgrIsLinkKeyValid   APSME_IsLinkKeyValid
     95          
     96          
     97          
     98          /******************************************************************************
     99           * TYPEDEFS
    100           */
    101          typedef struct
    102          {
    103            uint16            ami;
    104            uint16            keyNvId;   // index to the Link Key table in NV
    105            ZDSecMgr_Authentication_Option authenticateOption;
    106          } ZDSecMgrEntry_t;
    107          
    108          typedef struct
    109          {
    110            uint16          nwkAddr;
    111            uint8*          extAddr;
    112            uint16          parentAddr;
    113            uint8           secure;
    114            uint8           devStatus;
    115          } ZDSecMgrDevice_t;
    116          
    117          /******************************************************************************
    118           * EXTERNAL VARIABLES
    119           */
    120          extern CONST uint8 gMAX_NWK_SEC_MATERIAL_TABLE_ENTRIES;
    121          extern pfnZdoCb zdoCBFunc[MAX_ZDO_CB_FUNC];
    122          
    123          
    124          /******************************************************************************
    125           * EXTERNAL FUNCTIONS
    126           */
    127          extern void   ZDApp_ResetTimerCancel( void );
    128          /******************************************************************************
    129           * LOCAL VARIABLES
    130           */
    131          #if 0 // Taken out because the following functionality is only used for test
    132                // purpose. A more efficient (above) way is used. It can be put
    133                // back in if customers request for a white/black list feature.
    134          uint8 ZDSecMgrStoredDeviceList[ZDSECMGR_STORED_DEVICES][Z_EXTADDR_LEN] =
    135          {
    136            { 0x01, 0x00, 0x00, 0x00, 0x00, 0x00, 0x00, 0x00 },
    137            { 0x00, 0x00, 0x00, 0x00, 0x00, 0x00, 0x00, 0x01 },
    138            { 0x00, 0x00, 0x00, 0x00, 0x00, 0x00, 0x00, 0x00 },
    139          };
    140          #endif
    141          

   \                                 In  segment XDATA_Z, align 1, keep-with-next
    142          uint8 ZDSecMgrTCExtAddr[Z_EXTADDR_LEN]=
   \                     ZDSecMgrTCExtAddr:
   \   000000                DS 8
   \   000008                REQUIRE __INIT_XDATA_Z
    143            { 0x00, 0x00, 0x00, 0x00, 0x00, 0x00, 0x00, 0x00 };
    144          

   \                                 In  segment XDATA_Z, align 1, keep-with-next
    145          uint8 ZDSecMgrTCAuthenticated = FALSE;
   \                     ZDSecMgrTCAuthenticated:
   \   000000                DS 1
   \   000001                REQUIRE __INIT_XDATA_Z
    146          

   \                                 In  segment XDATA_Z, align 1, keep-with-next
    147          ZDSecMgrEntry_t* ZDSecMgrEntries  = NULL;
   \                     ZDSecMgrEntries:
   \   000000                DS 2
   \   000002                REQUIRE __INIT_XDATA_Z
    148          
    149          void ZDSecMgrAddrMgrCB( uint8 update, AddrMgrEntry_t* newEntry, AddrMgrEntry_t* oldEntry );
    150          

   \                                 In  segment XDATA_Z, align 1, keep-with-next
    151          uint8 ZDSecMgrPermitJoiningEnabled;
   \                     ZDSecMgrPermitJoiningEnabled:
   \   000000                DS 1
   \   000001                REQUIRE __INIT_XDATA_Z

   \                                 In  segment XDATA_Z, align 1, keep-with-next
    152          uint8 ZDSecMgrPermitJoiningTimed;
   \                     ZDSecMgrPermitJoiningTimed:
   \   000000                DS 1
   \   000001                REQUIRE __INIT_XDATA_Z
    153          

   \                                 In  segment XDATA_Z, align 1, keep-with-next
    154          APSME_TCLKDevEntry_t TrustCenterLinkKey;
   \                     TrustCenterLinkKey:
   \   000000                DS 19
   \   000013                REQUIRE __INIT_XDATA_Z
    155          

   \                                 In  segment XDATA_Z, align 1, keep-with-next
    156          APSME_ApsLinkKeyFrmCntr_t ApsLinkKeyFrmCntr[ZDSECMGR_ENTRY_MAX];
   \                     ApsLinkKeyFrmCntr:
   \   000000                DS 27
   \   00001B                REQUIRE __INIT_XDATA_Z

   \                                 In  segment XDATA_Z, align 1, keep-with-next
    157          APSME_TCLinkKeyFrmCntr_t TCLinkKeyFrmCntr[ZDSECMGR_TC_DEVICE_MAX];
   \                     TCLinkKeyFrmCntr:
   \   000000                DS 27
   \   00001B                REQUIRE __INIT_XDATA_Z
    158          

   \                                 In  segment CODE_C, align 1
    159           CONST uint16 gZDSECMGR_TC_DEVICE_MAX = ZDSECMGR_TC_DEVICE_MAX;
   \                     gZDSECMGR_TC_DEVICE_MAX:
   \   000000   0300         DW 3

   \                                 In  segment CODE_C, align 1
    160           CONST uint16 gZDSECMGR_TC_DEVICE_IC_MAX = ZDSECMGR_TC_DEVICE_IC_MAX;
   \                     gZDSECMGR_TC_DEVICE_IC_MAX:
   \   000000   0100         DW 1

   \                                 In  segment CODE_C, align 1
    161           CONST uint8  gZDSECMGR_TC_ATTEMPT_DEFAULT_KEY = ZDSECMGR_TC_ATTEMPT_DEFAULT_KEY;
   \                     gZDSECMGR_TC_ATTEMPT_DEFAULT_KEY:
   \   000000   00           DB 0
    162          /******************************************************************************
    163           * PRIVATE FUNCTIONS
    164           *
    165           *   ZDSecMgrAddrStore
    166           *   ZDSecMgrExtAddrStore
    167           *   ZDSecMgrExtAddrLookup
    168           *   ZDSecMgrEntryInit
    169           *   ZDSecMgrEntryLookup
    170           *   ZDSecMgrEntryLookupAMI
    171           *   ZDSecMgrEntryLookupExt
    172           *   ZDSecMgrEntryLookupExtGetIndex
    173           *   ZDSecMgrEntryFree
    174           *   ZDSecMgrEntryNew
    175           *   ZDSecMgrAppKeyGet
    176           *   ZDSecMgrAppKeyReq
    177           *   ZDSecMgrTclkReq
    178           *   ZDSecMgrAppConfKeyReq 
    179           *   ZDSecMgrSendNwkKey
    180           *   ZDSecMgrDeviceRemove
    181           *   ZDSecMgrDeviceValidateRM
    182           *   ZDSecMgrDeviceValidate
    183           *   ZDSecMgrDeviceJoin
    184           *   ZDSecMgrDeviceJoinDirect
    185           *   ZDSecMgrDeviceJoinFwd
    186           *   ZDSecMgrDeviceNew
    187           *   ZDSecMgrAssocDeviceAuth
    188           *   ZDSecMgrAuthNwkKey
    189           *   APSME_TCLinkKeyInit
    190           *   APSME_IsDefaultTCLK
    191           */
    192          
    193          //-----------------------------------------------------------------------------
    194          // address management
    195          //-----------------------------------------------------------------------------
    196          ZStatus_t ZDSecMgrAddrStore( uint16 nwkAddr, uint8* extAddr, uint16* ami );
    197          ZStatus_t ZDSecMgrExtAddrStore( uint16 nwkAddr, uint8* extAddr, uint16* ami );
    198          ZStatus_t ZDSecMgrExtAddrLookup( uint8* extAddr, uint16* ami );
    199          
    200          //-----------------------------------------------------------------------------
    201          // Trust Center management
    202          //-----------------------------------------------------------------------------
    203          uint8 ZDSecMgrTCExtAddrCheck( uint8* extAddr );
    204          void ZDSecMgrTCDataLoad( uint8* extAddr );
    205          
    206          //-----------------------------------------------------------------------------
    207          // entry data
    208          //-----------------------------------------------------------------------------
    209          void ZDSecMgrEntryInit(uint8 state);
    210          ZStatus_t ZDSecMgrEntryLookup( uint16 nwkAddr, ZDSecMgrEntry_t** entry );
    211          ZStatus_t ZDSecMgrEntryLookupAMI( uint16 ami, ZDSecMgrEntry_t** entry );
    212          ZStatus_t ZDSecMgrEntryLookupExt( uint8* extAddr, ZDSecMgrEntry_t** entry );
    213          ZStatus_t ZDSecMgrEntryLookupExtGetIndex( uint8* extAddr, ZDSecMgrEntry_t** entry, uint16* entryIndex );
    214          ZStatus_t ZDSecMgrEntryLookupAMIGetIndex( uint16 ami, uint16* entryIndex );
    215          void ZDSecMgrEntryFree( ZDSecMgrEntry_t* entry );
    216          ZStatus_t ZDSecMgrEntryNew( ZDSecMgrEntry_t** entry );
    217          ZStatus_t ZDSecMgrAuthenticationSet( uint8* extAddr, ZDSecMgr_Authentication_Option option );
    218          void ZDSecMgrApsLinkKeyInit(uint8 setDefault);
    219          #if defined ( NV_RESTORE )
    220          static void ZDSecMgrWriteNV(void);
    221          static void ZDSecMgrRestoreFromNV(void);
    222          static void ZDSecMgrUpdateNV( uint16 index );
    223          #endif
    224          
    225          //-----------------------------------------------------------------------------
    226          // key support
    227          //-----------------------------------------------------------------------------
    228          ZStatus_t ZDSecMgrAppKeyGet( uint16  initNwkAddr,
    229                                       uint8*  initExtAddr,
    230                                       uint16  partNwkAddr,
    231                                       uint8*  partExtAddr,
    232                                       uint8** key,
    233                                       uint8*  keyType );
    234          void ZDSecMgrAppKeyReq( ZDO_RequestKeyInd_t* ind );
    235          void ZDSecMgrTclkReq( ZDO_RequestKeyInd_t* ind );
    236          void ZDSecMgrAppConfKeyReq( ZDO_VerifyKeyInd_t* ind );
    237          ZStatus_t ZDSecMgrSendNwkKey( ZDSecMgrDevice_t* device );
    238          void ZDSecMgrNwkKeyInit(uint8 setDefault);
    239          
    240          //-----------------------------------------------------------------------------
    241          // device management
    242          //-----------------------------------------------------------------------------
    243          void ZDSecMgrDeviceRemove( ZDSecMgrDevice_t* device );
    244          ZStatus_t ZDSecMgrDeviceValidateRM( ZDSecMgrDevice_t* device );
    245          ZStatus_t ZDSecMgrDeviceValidate( ZDSecMgrDevice_t* device );
    246          ZStatus_t ZDSecMgrDeviceJoin( ZDSecMgrDevice_t* device );
    247          ZStatus_t ZDSecMgrDeviceJoinDirect( ZDSecMgrDevice_t* device );
    248          ZStatus_t ZDSecMgrDeviceJoinFwd( ZDSecMgrDevice_t* device );
    249          ZStatus_t ZDSecMgrDeviceNew( ZDSecMgrDevice_t* device );
    250          
    251          //-----------------------------------------------------------------------------
    252          // association management
    253          //-----------------------------------------------------------------------------
    254          void ZDSecMgrAssocDeviceAuth( associated_devices_t* assoc );
    255          
    256          //-----------------------------------------------------------------------------
    257          // authentication management
    258          //-----------------------------------------------------------------------------
    259          void ZDSecMgrAuthNwkKey( void );
    260          
    261          //-----------------------------------------------------------------------------
    262          // APSME function
    263          //-----------------------------------------------------------------------------
    264          void APSME_TCLinkKeyInit( uint8 setDefault );
    265          uint8 APSME_IsDefaultTCLK( uint8 *extAddr );
    266          void ZDSecMgrGenerateSeed(uint8 setDefault );
    267          void ZDSecMgrGenerateKeyFromSeed(uint8 *extAddr, uint8 shift, uint8 *key);
    268          /******************************************************************************
    269           * @fn          ZDSecMgrAddrStore
    270           *
    271           * @brief       Store device addresses.
    272           *
    273           * @param       nwkAddr - [in] NWK address
    274           * @param       extAddr - [in] EXT address
    275           * @param       ami     - [out] Address Manager index
    276           *
    277           * @return      ZStatus_t
    278           */

   \                                 In  segment BANKED_CODE, align 1, keep-with-next
    279          ZStatus_t ZDSecMgrAddrStore( uint16 nwkAddr, uint8* extAddr, uint16* ami )
   \                     ZDSecMgrAddrStore:
    280          {
   \   000000   74F7         MOV       A,#-0x9
   \   000002   12....       LCALL     ?BANKED_ENTER_XDATA
   \   000005                ; Saved register size: 9
   \   000005                ; Auto size: 13
   \   000005   74F3         MOV       A,#-0xd
   \   000007   12....       LCALL     ?ALLOC_XSTACK8
    281            ZStatus_t      status;
    282            AddrMgrEntry_t entry;
    283          
    284          
    285            // add entry
    286            entry.user    = ADDRMGR_USER_SECURITY;
   \   00000A   85..82       MOV       DPL,?XSP + 0
   \   00000D   85..83       MOV       DPH,?XSP + 1
   \   000010   7402         MOV       A,#0x2
   \   000012   F0           MOVX      @DPTR,A
    287            entry.nwkAddr = nwkAddr;
   \   000013   14           DEC       A
   \   000014   12....       LCALL     ?XSTACK_DISP0_8
   \   000017   12....       LCALL     ?Subroutine13 & 0xFFFF
    288            AddrMgrExtAddrSet( entry.extAddr, extAddr );
   \                     ??CrossCallReturnLabel_8:
   \   00001A   12....       LCALL     ?XSTACK_DISP0_8
   \   00001D   AA82         MOV       R2,DPL
   \   00001F   AB83         MOV       R3,DPH
   \   000021   12....       LCALL     `??AddrMgrExtAddrSet::?relay`; Banked call to: AddrMgrExtAddrSet
   \   000024   7416         MOV       A,#0x16
   \   000026   12....       LCALL     ?XSTACK_DISP0_8
   \   000029   12....       LCALL     ?Subroutine28 & 0xFFFF
    289          
    290            if ( AddrMgrEntryUpdate( &entry ) == TRUE )
   \                     ??CrossCallReturnLabel_34:
   \   00002C   700A         JNZ       ??ZDSecMgrAddrStore_0
    291            {
    292              // return successful results
    293              *ami   = entry.index;
   \   00002E   740B         MOV       A,#0xb
   \   000030   12....       LCALL     ?XSTACK_DISP0_8
   \   000033   12....       LCALL     ?Subroutine10 & 0xFFFF
    294              status = ZSuccess;
    295            }
   \                     ??CrossCallReturnLabel_122:
   \   000036   8008         SJMP      ??CrossCallReturnLabel_18
    296            else
    297            {
    298              // return failed results
    299              *ami   = entry.index;
   \                     ??ZDSecMgrAddrStore_0:
   \   000038   740B         MOV       A,#0xb
   \   00003A   12....       LCALL     ?XSTACK_DISP0_8
   \   00003D   12....       LCALL     ?Subroutine17 & 0xFFFF
    300              status = ZNwkUnknownDevice;
    301            }
    302          
    303            return status;
   \                     ??CrossCallReturnLabel_18:
   \   000040   02....       LJMP      ?Subroutine0 & 0xFFFF
    304          }

   \                                 In  segment BANKED_CODE, align 1, keep-with-next
   \                     ?Subroutine10:
   \   000000   12....       LCALL     ?Subroutine71 & 0xFFFF
   \                     ??CrossCallReturnLabel_114:
   \   000003                REQUIRE ??Subroutine77_0
   \   000003                ; // Fall through to label ??Subroutine77_0

   \                                 In  segment BANKED_CODE, align 1, keep-with-next
   \                     ??Subroutine77_0:
   \   000000   E8           MOV       A,R0
   \   000001   F0           MOVX      @DPTR,A
   \   000002   A3           INC       DPTR
   \   000003   E9           MOV       A,R1
   \   000004   F0           MOVX      @DPTR,A
   \   000005   7900         MOV       R1,#0x0
   \   000007   22           RET

   \                                 In  segment BANKED_CODE, align 1, keep-with-next
   \                     ?Subroutine28:
   \   000000   12....       LCALL     ?Subroutine72 & 0xFFFF
   \                     ??CrossCallReturnLabel_213:
   \   000003   FE           MOV       R6,A
   \   000004   E9           MOV       A,R1
   \   000005   FF           MOV       R7,A
   \   000006                ; Setup parameters for call to function AddrMgrEntryUpdate
   \   000006                ; Setup parameters for call to function AddrMgrEntryUpdate
   \   000006   AA..         MOV       R2,?XSP + 0
   \   000008   AB..         MOV       R3,?XSP + 1
   \   00000A   12....       LCALL     `??AddrMgrEntryUpdate::?relay`; Banked call to: AddrMgrEntryUpdate
   \   00000D   E9           MOV       A,R1
   \   00000E   6401         XRL       A,#0x1
   \   000010   22           RET

   \                                 In  segment BANKED_CODE, align 1, keep-with-next
   \                     ?Subroutine17:
   \   000000   12....       LCALL     ?Subroutine71 & 0xFFFF
   \                     ??CrossCallReturnLabel_115:
   \   000003   E8           MOV       A,R0
   \   000004   F0           MOVX      @DPTR,A
   \   000005   A3           INC       DPTR
   \   000006   E9           MOV       A,R1
   \   000007   F0           MOVX      @DPTR,A
   \   000008   79C8         MOV       R1,#-0x38
   \   00000A   22           RET

   \                                 In  segment BANKED_CODE, align 1, keep-with-next
   \                     ?Subroutine71:
   \   000000   E0           MOVX      A,@DPTR
   \   000001   F8           MOV       R0,A
   \   000002   A3           INC       DPTR
   \   000003   E0           MOVX      A,@DPTR
   \   000004   F9           MOV       R1,A
   \   000005   8E82         MOV       DPL,R6
   \   000007   8F83         MOV       DPH,R7
   \   000009   22           RET

   \                                 In  segment BANKED_CODE, align 1, keep-with-next
   \                     ?Subroutine72:
   \   000000   E0           MOVX      A,@DPTR
   \   000001   F8           MOV       R0,A
   \   000002   A3           INC       DPTR
   \   000003   E0           MOVX      A,@DPTR
   \   000004   F9           MOV       R1,A
   \   000005   E8           MOV       A,R0
   \   000006   22           RET

   \                                 In  segment BANKED_CODE, align 1, keep-with-next
   \                     ?Subroutine13:
   \   000000   EA           MOV       A,R2
   \   000001   F0           MOVX      @DPTR,A
   \   000002   A3           INC       DPTR
   \   000003   EB           MOV       A,R3
   \   000004   F0           MOVX      @DPTR,A
   \   000005                ; Setup parameters for call to function AddrMgrExtAddrSet
   \   000005                ; Setup parameters for call to function AddrMgrExtAddrSet
   \   000005                ; Setup parameters for call to function AddrMgrExtAddrSet
   \   000005   7403         MOV       A,#0x3
   \   000007   22           RET

   \                                 In  segment BANKED_CODE, align 1, keep-with-next
   \                     ?Subroutine0:
   \   000000   740D         MOV       A,#0xd
   \   000002                REQUIRE ??Subroutine87_0
   \   000002                ; // Fall through to label ??Subroutine87_0

   \                                 In  segment BANKED_CODE, align 1, keep-with-next
   \                     ??Subroutine87_0:
   \   000000   12....       LCALL     ?DEALLOC_XSTACK8
   \   000003                REQUIRE ??Subroutine88_0
   \   000003                ; // Fall through to label ??Subroutine88_0

   \                                 In  segment BANKED_CODE, align 1, keep-with-next
   \                     ??Subroutine88_0:
   \   000000   7F01         MOV       R7,#0x1
   \   000002   02....       LJMP      ?BANKED_LEAVE_XDATA
    305          
    306          /******************************************************************************
    307           * @fn          ZDSecMgrExtAddrStore
    308           *
    309           * @brief       Store EXT address.
    310           *
    311           * @param       extAddr - [in] EXT address
    312           * @param       ami     - [out] Address Manager index
    313           *
    314           * @return      ZStatus_t
    315           */

   \                                 In  segment BANKED_CODE, align 1, keep-with-next
    316          ZStatus_t ZDSecMgrExtAddrStore( uint16 nwkAddr, uint8* extAddr, uint16* ami )
   \                     ZDSecMgrExtAddrStore:
    317          {
   \   000000   74F7         MOV       A,#-0x9
   \   000002   12....       LCALL     ?BANKED_ENTER_XDATA
   \   000005                ; Saved register size: 9
   \   000005                ; Auto size: 13
   \   000005   74F3         MOV       A,#-0xd
   \   000007   12....       LCALL     ?ALLOC_XSTACK8
    318            ZStatus_t      status;
    319            AddrMgrEntry_t entry;
    320          
    321          
    322            // add entry
    323            entry.user    = ADDRMGR_USER_SECURITY;
   \   00000A   85..82       MOV       DPL,?XSP + 0
   \   00000D   85..83       MOV       DPH,?XSP + 1
   \   000010   7402         MOV       A,#0x2
   \   000012   F0           MOVX      @DPTR,A
    324            entry.nwkAddr = nwkAddr;
   \   000013   14           DEC       A
   \   000014   12....       LCALL     ?XSTACK_DISP0_8
   \   000017   12....       LCALL     ?Subroutine13 & 0xFFFF
    325            AddrMgrExtAddrSet( entry.extAddr, extAddr );
   \                     ??CrossCallReturnLabel_9:
   \   00001A   12....       LCALL     ?XSTACK_DISP0_8
   \   00001D   AA82         MOV       R2,DPL
   \   00001F   AB83         MOV       R3,DPH
   \   000021   12....       LCALL     `??AddrMgrExtAddrSet::?relay`; Banked call to: AddrMgrExtAddrSet
   \   000024   7416         MOV       A,#0x16
   \   000026   12....       LCALL     ?XSTACK_DISP0_8
   \   000029   12....       LCALL     ?Subroutine28 & 0xFFFF
    326          
    327            if ( AddrMgrEntryUpdate( &entry ) == TRUE )
   \                     ??CrossCallReturnLabel_35:
   \   00002C   700A         JNZ       ??ZDSecMgrExtAddrStore_0
    328            {
    329              // return successful results
    330              *ami   = entry.index;
   \   00002E   740B         MOV       A,#0xb
   \   000030   12....       LCALL     ?XSTACK_DISP0_8
   \   000033   12....       LCALL     ?Subroutine10 & 0xFFFF
    331              status = ZSuccess;
    332            }
   \                     ??CrossCallReturnLabel_123:
   \   000036   8008         SJMP      ??CrossCallReturnLabel_19
    333            else
    334            {
    335              // return failed results
    336              *ami   = entry.index;
   \                     ??ZDSecMgrExtAddrStore_0:
   \   000038   740B         MOV       A,#0xb
   \   00003A   12....       LCALL     ?XSTACK_DISP0_8
   \   00003D   12....       LCALL     ?Subroutine17 & 0xFFFF
    337              status = ZNwkUnknownDevice;
    338            }
    339          
    340            return status;
   \                     ??CrossCallReturnLabel_19:
   \   000040   02....       LJMP      ?Subroutine0 & 0xFFFF
    341          }
    342          
    343          /******************************************************************************
    344           * @fn          ZDSecMgrExtAddrLookup
    345           *
    346           * @brief       Lookup index for specified EXT address.
    347           *
    348           * @param       extAddr - [in] EXT address
    349           * @param       ami     - [out] Address Manager index
    350           *
    351           * @return      ZStatus_t
    352           */

   \                                 In  segment BANKED_CODE, align 1, keep-with-next
    353          ZStatus_t ZDSecMgrExtAddrLookup( uint8* extAddr, uint16* ami )
   \                     ZDSecMgrExtAddrLookup:
    354          {
   \   000000   74F7         MOV       A,#-0x9
   \   000002   12....       LCALL     ?BANKED_ENTER_XDATA
   \   000005                ; Saved register size: 9
   \   000005                ; Auto size: 13
   \   000005   74F3         MOV       A,#-0xd
   \   000007   12....       LCALL     ?ALLOC_XSTACK8
   \   00000A   EC           MOV       A,R4
   \   00000B   FE           MOV       R6,A
   \   00000C   ED           MOV       A,R5
   \   00000D   FF           MOV       R7,A
    355            ZStatus_t      status;
    356            AddrMgrEntry_t entry;
    357          
    358          
    359            // lookup entry
    360            entry.user = ADDRMGR_USER_SECURITY;
   \   00000E   85..82       MOV       DPL,?XSP + 0
   \   000011   85..83       MOV       DPH,?XSP + 1
   \   000014   7402         MOV       A,#0x2
   \   000016   F0           MOVX      @DPTR,A
    361            AddrMgrExtAddrSet( entry.extAddr, extAddr );
   \   000017                ; Setup parameters for call to function AddrMgrExtAddrSet
   \   000017   EA           MOV       A,R2
   \   000018   FC           MOV       R4,A
   \   000019   EB           MOV       A,R3
   \   00001A   FD           MOV       R5,A
   \   00001B   7403         MOV       A,#0x3
   \   00001D   12....       LCALL     ?XSTACK_DISP0_8
   \   000020   AA82         MOV       R2,DPL
   \   000022   AB83         MOV       R3,DPH
   \   000024   12....       LCALL     `??AddrMgrExtAddrSet::?relay`; Banked call to: AddrMgrExtAddrSet
    362          
    363            if ( AddrMgrEntryLookupExt( &entry ) == TRUE )
   \   000027                ; Setup parameters for call to function AddrMgrEntryLookupExt
   \   000027   AA..         MOV       R2,?XSP + 0
   \   000029   AB..         MOV       R3,?XSP + 1
   \   00002B   12....       LCALL     `??AddrMgrEntryLookupExt::?relay`; Banked call to: AddrMgrEntryLookupExt
   \   00002E   E9           MOV       A,R1
   \   00002F   6401         XRL       A,#0x1
   \   000031   700A         JNZ       ??ZDSecMgrExtAddrLookup_0
    364            {
    365              // return successful results
    366              *ami   = entry.index;
   \   000033   740B         MOV       A,#0xb
   \   000035   12....       LCALL     ?XSTACK_DISP0_8
   \   000038   12....       LCALL     ?Subroutine10 & 0xFFFF
    367              status = ZSuccess;
    368            }
   \                     ??CrossCallReturnLabel_124:
   \   00003B   8008         SJMP      ??CrossCallReturnLabel_20
    369            else
    370            {
    371              // return failed results
    372              *ami   = entry.index;
   \                     ??ZDSecMgrExtAddrLookup_0:
   \   00003D   740B         MOV       A,#0xb
   \   00003F   12....       LCALL     ?XSTACK_DISP0_8
   \   000042   12....       LCALL     ?Subroutine17 & 0xFFFF
    373              status = ZNwkUnknownDevice;
    374            }
    375          
    376            return status;
   \                     ??CrossCallReturnLabel_20:
   \   000045   02....       LJMP      ?Subroutine0 & 0xFFFF
    377          }
    378          
    379          /******************************************************************************
    380           * @fn          ZDSecMgrAddrClear
    381           *
    382           * @brief       Clear security bit from Address Manager for specific device.
    383           *
    384           * @param       extAddr - [in] EXT address
    385           *
    386           * @return      ZStatus_t
    387           */

   \                                 In  segment BANKED_CODE, align 1, keep-with-next
    388          ZStatus_t ZDSecMgrAddrClear( uint8* extAddr )
   \                     ZDSecMgrAddrClear:
    389          {
   \   000000   74F7         MOV       A,#-0x9
   \   000002   12....       LCALL     ?BANKED_ENTER_XDATA
   \   000005                ; Saved register size: 9
   \   000005                ; Auto size: 15
   \   000005   74F1         MOV       A,#-0xf
   \   000007   12....       LCALL     ?ALLOC_XSTACK8
    390            ZStatus_t status;
    391            uint16 entryAmi;
    392          
    393            // get Address Manager Index
    394            status = ZDSecMgrExtAddrLookup( extAddr, &entryAmi );
   \   00000A                ; Setup parameters for call to function ZDSecMgrExtAddrLookup
   \   00000A   AC..         MOV       R4,?XSP + 0
   \   00000C   AD..         MOV       R5,?XSP + 1
   \   00000E   12....       LCALL     `??ZDSecMgrExtAddrLookup::?relay`; Banked call to: ZDSecMgrExtAddrLookup
   \   000011   E9           MOV       A,R1
   \   000012   FE           MOV       R6,A
    395          
    396            if ( status == ZSuccess )
   \   000013   7022         JNZ       ??ZDSecMgrAddrClear_0
    397            {
    398              AddrMgrEntry_t addrEntry;
    399          
    400              // Clear SECURITY User bit from the address manager
    401              addrEntry.user = ADDRMGR_USER_SECURITY;
   \   000015   7402         MOV       A,#0x2
   \   000017   12....       LCALL     ?XSTACK_DISP0_8
   \   00001A   7402         MOV       A,#0x2
   \   00001C   F0           MOVX      @DPTR,A
    402              addrEntry.index = entryAmi;
   \   00001D   12....       LCALL     ?Subroutine30 & 0xFFFF
   \                     ??CrossCallReturnLabel_193:
   \   000020   740D         MOV       A,#0xd
   \   000022   12....       LCALL     ?XSTACK_DISP0_8
   \   000025   12....       LCALL     ??Subroutine84_0 & 0xFFFF
    403          
    404              if ( AddrMgrEntryRelease( &addrEntry ) != TRUE )
   \                     ??CrossCallReturnLabel_163:
   \   000028                ; Setup parameters for call to function AddrMgrEntryRelease
   \   000028   7402         MOV       A,#0x2
   \   00002A   12....       LCALL     ?XSTACK_DISP101_8
   \   00002D   12....       LCALL     `??AddrMgrEntryRelease::?relay`; Banked call to: AddrMgrEntryRelease
   \   000030   E9           MOV       A,R1
   \   000031   6401         XRL       A,#0x1
   \   000033   6002         JZ        ??ZDSecMgrAddrClear_0
    405              {
    406                // return failure results
    407                status = ZFailure;
   \   000035   7E01         MOV       R6,#0x1
    408              }
    409            }
    410          
    411            return status;
   \                     ??ZDSecMgrAddrClear_0:
   \   000037   EE           MOV       A,R6
   \   000038   F9           MOV       R1,A
   \   000039   740F         MOV       A,#0xf
   \   00003B   02....       LJMP      ??Subroutine87_0 & 0xFFFF
    412          }

   \                                 In  segment BANKED_CODE, align 1, keep-with-next
   \                     ??Subroutine84_0:
   \   000000   E8           MOV       A,R0
   \   000001   F0           MOVX      @DPTR,A
   \   000002   A3           INC       DPTR
   \   000003   E9           MOV       A,R1
   \   000004   F0           MOVX      @DPTR,A
   \   000005   22           RET

   \                                 In  segment BANKED_CODE, align 1, keep-with-next
   \                     ?Subroutine30:
   \   000000   85..82       MOV       DPL,?XSP + 0
   \   000003   85..83       MOV       DPH,?XSP + 1
   \   000006                REQUIRE ??Subroutine85_0
   \   000006                ; // Fall through to label ??Subroutine85_0

   \                                 In  segment BANKED_CODE, align 1, keep-with-next
   \                     ??Subroutine85_0:
   \   000000   12....       LCALL     ?Subroutine73 & 0xFFFF
   \                     ??CrossCallReturnLabel_199:
   \   000003   22           RET

   \                                 In  segment BANKED_CODE, align 1, keep-with-next
   \                     ?Subroutine73:
   \   000000   E0           MOVX      A,@DPTR
   \   000001   F8           MOV       R0,A
   \   000002   A3           INC       DPTR
   \   000003   E0           MOVX      A,@DPTR
   \   000004   F9           MOV       R1,A
   \   000005   22           RET
    413          
    414          /******************************************************************************
    415           * @fn          ZDSecMgrEntryInit
    416           *
    417           * @brief       Initialize entry sub module
    418           *
    419           * @param       state - device initialization state
    420           *
    421           * @return      none
    422           */

   \                                 In  segment BANKED_CODE, align 1, keep-with-next
    423          void ZDSecMgrEntryInit(uint8 state)
   \                     ZDSecMgrEntryInit:
    424          {
   \   000000   74F7         MOV       A,#-0x9
   \   000002   12....       LCALL     ?BANKED_ENTER_XDATA
   \   000005                ; Saved register size: 9
   \   000005                ; Auto size: 0
   \   000005   E9           MOV       A,R1
   \   000006   FE           MOV       R6,A
    425            if (ZDSecMgrEntries == NULL)
   \   000007   90....       MOV       DPTR,#ZDSecMgrEntries
   \   00000A   12....       LCALL     ??Subroutine86_0 & 0xFFFF
   \                     ??CrossCallReturnLabel_200:
   \   00000D   7031         JNZ       ??ZDSecMgrEntryInit_0
    426            {
    427              uint16 index;
    428          
    429              if ((ZDSecMgrEntries = osal_mem_alloc(sizeof(ZDSecMgrEntry_t) * ZDSECMGR_ENTRY_MAX)) == NULL)
   \   00000F                ; Setup parameters for call to function osal_mem_alloc
   \   00000F   7A0F         MOV       R2,#0xf
   \   000011   7B00         MOV       R3,#0x0
   \   000013   12....       LCALL     `??osal_mem_alloc::?relay`; Banked call to: osal_mem_alloc
   \   000016   90....       MOV       DPTR,#ZDSecMgrEntries
   \   000019   12....       LCALL     ??Subroutine92_0 & 0xFFFF
   \                     ??CrossCallReturnLabel_215:
   \   00001C   F9           MOV       R1,A
   \   00001D   EA           MOV       A,R2
   \   00001E   49           ORL       A,R1
   \   00001F   6025         JZ        ??ZDSecMgrEntryInit_1
    430              {
    431                return;
    432              }
    433          
    434              for (index = 0; index < ZDSECMGR_ENTRY_MAX; index++)
   \   000021   7800         MOV       R0,#0x0
   \   000023   7900         MOV       R1,#0x0
    435              {
    436                ZDSecMgrEntries[index].ami = INVALID_NODE_ADDR;
   \                     ??ZDSecMgrEntryInit_2:
   \   000025   12....       LCALL     ?Subroutine35 & 0xFFFF
    437          
    438                ZDSecMgrEntries[index].keyNvId = SEC_NO_KEY_NV_ID;
    439              }
   \                     ??CrossCallReturnLabel_50:
   \   000028   74FE         MOV       A,#-0x2
   \   00002A   F0           MOVX      @DPTR,A
   \   00002B   A3           INC       DPTR
   \   00002C   04           INC       A
   \   00002D   12....       LCALL     ?Subroutine68 & 0xFFFF
   \                     ??CrossCallReturnLabel_108:
   \   000030   A3           INC       DPTR
   \   000031   A3           INC       DPTR
   \   000032   E4           CLR       A
   \   000033   F0           MOVX      @DPTR,A
   \   000034   A3           INC       DPTR
   \   000035   F0           MOVX      @DPTR,A
   \   000036   08           INC       R0
   \   000037   E8           MOV       A,R0
   \   000038   7001         JNZ       ??ZDSecMgrEntryInit_3
   \   00003A   09           INC       R1
   \                     ??ZDSecMgrEntryInit_3:
   \   00003B   12....       LCALL     ?Subroutine48 & 0xFFFF
    440            }
   \                     ??CrossCallReturnLabel_132:
   \   00003E   40E5         JC        ??ZDSecMgrEntryInit_2
    441          
    442          #if defined NV_RESTORE
    443            if (state == ZDO_INITDEV_RESTORED_NETWORK_STATE)
   \                     ??ZDSecMgrEntryInit_0:
   \   000040   EE           MOV       A,R6
   \   000041   7003         JNZ       ??ZDSecMgrEntryInit_1
    444            {
    445              ZDSecMgrRestoreFromNV();
   \   000043                ; Setup parameters for call to function ZDSecMgrRestoreFromNV
   \   000043   12....       LCALL     `??ZDSecMgrRestoreFromNV::?relay`; Banked call to: ZDSecMgrRestoreFromNV
    446            }
    447          #else
    448            (void)state;
    449          #endif
    450          }
   \                     ??ZDSecMgrEntryInit_1:
   \   000046   02....       LJMP      ??Subroutine88_0 & 0xFFFF

   \                                 In  segment BANKED_CODE, align 1, keep-with-next
   \                     ?Subroutine48:
   \   000000   C3           CLR       C
   \   000001                REQUIRE ??Subroutine79_0
   \   000001                ; // Fall through to label ??Subroutine79_0

   \                                 In  segment BANKED_CODE, align 1, keep-with-next
   \                     ??Subroutine79_0:
   \   000000   9403         SUBB      A,#0x3
   \   000002   E9           MOV       A,R1
   \   000003   9400         SUBB      A,#0x0
   \   000005   22           RET

   \                                 In  segment BANKED_CODE, align 1, keep-with-next
   \                     ?Subroutine35:
   \   000000   12....       LCALL     ?Subroutine75 & 0xFFFF
   \                     ??CrossCallReturnLabel_119:
   \   000003   8A82         MOV       DPL,R2
   \   000005   F583         MOV       DPH,A
   \   000007   22           RET

   \                                 In  segment BANKED_CODE, align 1, keep-with-next
   \                     ?Subroutine75:
   \   000000   E8           MOV       A,R0
   \   000001   FA           MOV       R2,A
   \   000002   E9           MOV       A,R1
   \   000003   FB           MOV       R3,A
   \   000004   EA           MOV       A,R2
   \   000005   75F005       MOV       B,#0x5
   \   000008   A4           MUL       AB
   \   000009   FA           MOV       R2,A
   \   00000A   ACF0         MOV       R4,B
   \   00000C   75F005       MOV       B,#0x5
   \   00000F   EB           MOV       A,R3
   \   000010   A4           MUL       AB
   \   000011   2C           ADD       A,R4
   \   000012   FB           MOV       R3,A
   \   000013   90....       MOV       DPTR,#ZDSecMgrEntries
   \   000016   E0           MOVX      A,@DPTR
   \   000017   2A           ADD       A,R2
   \   000018   FA           MOV       R2,A
   \   000019   A3           INC       DPTR
   \   00001A   E0           MOVX      A,@DPTR
   \   00001B   3B           ADDC      A,R3
   \   00001C   FB           MOV       R3,A
   \   00001D   22           RET

   \                                 In  segment BANKED_CODE, align 1, keep-with-next
   \                     ?Subroutine68:
   \   000000   F0           MOVX      @DPTR,A
   \   000001                ; Setup parameters for call to function AssocGetWithShort
   \   000001   8A82         MOV       DPL,R2
   \   000003   8B83         MOV       DPH,R3
   \   000005   22           RET

   \                                 In  segment BANKED_CODE, align 1, keep-with-next
   \                     ??Subroutine86_0:
   \   000000   12....       LCALL     ?Subroutine72 & 0xFFFF
   \                     ??CrossCallReturnLabel_214:
   \   000003   49           ORL       A,R1
   \   000004   22           RET

   \                                 In  segment BANKED_CODE, align 1, keep-with-next
   \                     ??Subroutine92_0:
   \   000000   EA           MOV       A,R2
   \   000001   F0           MOVX      @DPTR,A
   \   000002   A3           INC       DPTR
   \   000003   EB           MOV       A,R3
   \   000004   F0           MOVX      @DPTR,A
   \   000005   22           RET
    451          
    452          /******************************************************************************
    453           * @fn          ZDSecMgrEntryLookup
    454           *
    455           * @brief       Lookup entry index using specified NWK address.
    456           *
    457           * @param       nwkAddr - [in] NWK address
    458           * @param       entry   - [out] valid entry
    459           *
    460           * @return      ZStatus_t
    461           */

   \                                 In  segment BANKED_CODE, align 1, keep-with-next
    462          ZStatus_t ZDSecMgrEntryLookup( uint16 nwkAddr, ZDSecMgrEntry_t** entry )
   \                     ZDSecMgrEntryLookup:
    463          {
   \   000000                REQUIRE ?V0
   \   000000   74F7         MOV       A,#-0x9
   \   000002   12....       LCALL     ?BANKED_ENTER_XDATA
   \   000005                ; Saved register size: 9
   \   000005                ; Auto size: 13
   \   000005   74F3         MOV       A,#-0xd
   \   000007   12....       LCALL     ?ALLOC_XSTACK8
   \   00000A   EC           MOV       A,R4
   \   00000B   FE           MOV       R6,A
   \   00000C   ED           MOV       A,R5
   \   00000D   FF           MOV       R7,A
    464            uint16         index;
    465            AddrMgrEntry_t addrMgrEntry;
    466          
    467            // initialize results
    468            *entry = NULL;
   \   00000E   8C82         MOV       DPL,R4
   \   000010   F583         MOV       DPH,A
   \   000012   12....       LCALL     ?Subroutine9 & 0xFFFF
    469          
    470            // verify data is available
    471            if ( ZDSecMgrEntries != NULL )
   \                     ??CrossCallReturnLabel_0:
   \   000015   6045         JZ        ??ZDSecMgrEntryLookup_0
    472            {
    473              addrMgrEntry.user    = ADDRMGR_USER_SECURITY;
   \   000017   85..82       MOV       DPL,?XSP + 0
   \   00001A   85..83       MOV       DPH,?XSP + 1
   \   00001D   7402         MOV       A,#0x2
   \   00001F   F0           MOVX      @DPTR,A
    474              addrMgrEntry.nwkAddr = nwkAddr;
   \   000020   14           DEC       A
   \   000021   12....       LCALL     ?XSTACK_DISP0_8
   \   000024   12....       LCALL     ?Subroutine21 & 0xFFFF
    475          
    476              if ( AddrMgrEntryLookupNwk( &addrMgrEntry ) == TRUE )
   \                     ??CrossCallReturnLabel_127:
   \   000027   12....       LCALL     `??AddrMgrEntryLookupNwk::?relay`; Banked call to: AddrMgrEntryLookupNwk
   \   00002A   E9           MOV       A,R1
   \   00002B   6401         XRL       A,#0x1
   \   00002D   702D         JNZ       ??ZDSecMgrEntryLookup_0
    477              {
    478                for ( index = 0; index < ZDSECMGR_ENTRY_MAX ; index++ )
   \   00002F   7800         MOV       R0,#0x0
   \   000031   7900         MOV       R1,#0x0
    479                {
    480                  if ( addrMgrEntry.index == ZDSecMgrEntries[index].ami )
   \                     ??ZDSecMgrEntryLookup_1:
   \   000033   12....       LCALL     ?Subroutine75 & 0xFFFF
   \                     ??CrossCallReturnLabel_118:
   \   000036   740B         MOV       A,#0xb
   \   000038   12....       LCALL     ?XSTACK_DISP0_8
   \   00003B   12....       LCALL     ?Subroutine36 & 0xFFFF
   \                     ??CrossCallReturnLabel_52:
   \   00003E   8A82         MOV       DPL,R2
   \   000040   8B83         MOV       DPH,R3
   \   000042   E0           MOVX      A,@DPTR
   \   000043   6C           XRL       A,R4
   \   000044   7003         JNZ       ??ZDSecMgrEntryLookup_2
   \   000046   A3           INC       DPTR
   \   000047   E0           MOVX      A,@DPTR
   \   000048   6D           XRL       A,R5
   \                     ??ZDSecMgrEntryLookup_2:
   \   000049   7007         JNZ       ??ZDSecMgrEntryLookup_3
    481                  {
    482                    // return successful results
    483                    *entry = &ZDSecMgrEntries[index];
   \   00004B   12....       LCALL     ?Subroutine22 & 0xFFFF
    484          
    485                    // break from loop
    486                    return ZSuccess;
   \                     ??CrossCallReturnLabel_220:
   \   00004E   7900         MOV       R1,#0x0
   \   000050   800C         SJMP      ??ZDSecMgrEntryLookup_4
    487                  }
    488                }
   \                     ??ZDSecMgrEntryLookup_3:
   \   000052   08           INC       R0
   \   000053   E8           MOV       A,R0
   \   000054   7001         JNZ       ??ZDSecMgrEntryLookup_5
   \   000056   09           INC       R1
   \                     ??ZDSecMgrEntryLookup_5:
   \   000057   12....       LCALL     ?Subroutine48 & 0xFFFF
    489              }
    490            }
   \                     ??CrossCallReturnLabel_133:
   \   00005A   40D7         JC        ??ZDSecMgrEntryLookup_1
    491          
    492            return ZNwkUnknownDevice;
   \                     ??ZDSecMgrEntryLookup_0:
   \   00005C   79C8         MOV       R1,#-0x38
   \                     ??ZDSecMgrEntryLookup_4:
   \   00005E   02....       LJMP      ?Subroutine0 & 0xFFFF
    493          }

   \                                 In  segment BANKED_CODE, align 1, keep-with-next
   \                     ?Subroutine21:
   \   000000   EA           MOV       A,R2
   \   000001   F0           MOVX      @DPTR,A
   \   000002   A3           INC       DPTR
   \   000003   EB           MOV       A,R3
   \   000004                REQUIRE ??Subroutine78_0
   \   000004                ; // Fall through to label ??Subroutine78_0

   \                                 In  segment BANKED_CODE, align 1, keep-with-next
   \                     ??Subroutine78_0:
   \   000000   F0           MOVX      @DPTR,A
   \   000001                ; Setup parameters for call to function AddrMgrEntryLookupNwk
   \   000001                ; Setup parameters for call to function APSME_RequestKeyReq
   \   000001                ; Setup parameters for call to function ZDSecMgrDeviceNew
   \   000001                ; Setup parameters for call to function ZDSecMgrDeviceRemove
   \   000001   AA..         MOV       R2,?XSP + 0
   \   000003   AB..         MOV       R3,?XSP + 1
   \   000005   22           RET

   \                                 In  segment BANKED_CODE, align 1, keep-with-next
   \                     ?Subroutine9:
   \   000000   E4           CLR       A
   \   000001   F0           MOVX      @DPTR,A
   \   000002   A3           INC       DPTR
   \   000003   F0           MOVX      @DPTR,A
   \   000004   90....       MOV       DPTR,#ZDSecMgrEntries
   \   000007   12....       LCALL     ?Subroutine72 & 0xFFFF
   \                     ??CrossCallReturnLabel_212:
   \   00000A   49           ORL       A,R1
   \   00000B   22           RET

   \                                 In  segment BANKED_CODE, align 1, keep-with-next
   \                     ?Subroutine36:
   \   000000   E0           MOVX      A,@DPTR
   \   000001   FC           MOV       R4,A
   \   000002   A3           INC       DPTR
   \   000003   E0           MOVX      A,@DPTR
   \   000004   FD           MOV       R5,A
   \   000005   22           RET

   \                                 In  segment BANKED_CODE, align 1, keep-with-next
   \                     ?Subroutine22:
   \   000000   8E82         MOV       DPL,R6
   \   000002   8F83         MOV       DPH,R7
   \   000004                REQUIRE ??Subroutine92_0
   \   000004                ; // Fall through to label ??Subroutine92_0
    494          
    495          /******************************************************************************
    496           * @fn          ZDSecMgrEntryLookupAMI
    497           *
    498           * @brief       Lookup entry using specified address index
    499           *
    500           * @param       ami   - [in] Address Manager index
    501           * @param       entry - [out] valid entry
    502           *
    503           * @return      ZStatus_t
    504           */

   \                                 In  segment BANKED_CODE, align 1, keep-with-next
    505          ZStatus_t ZDSecMgrEntryLookupAMI( uint16 ami, ZDSecMgrEntry_t** entry )
   \                     ZDSecMgrEntryLookupAMI:
    506          {
   \   000000                REQUIRE ?V0
   \   000000   74F7         MOV       A,#-0x9
   \   000002   12....       LCALL     ?BANKED_ENTER_XDATA
   \   000005                ; Saved register size: 9
   \   000005                ; Auto size: 0
    507            uint16 index;
    508          
    509            // initialize results
    510            *entry = NULL;
   \   000005   8C82         MOV       DPL,R4
   \   000007   8D83         MOV       DPH,R5
   \   000009   12....       LCALL     ?Subroutine9 & 0xFFFF
    511          
    512            // verify data is available
    513            if ( ZDSecMgrEntries != NULL )
   \                     ??CrossCallReturnLabel_1:
   \   00000C   6030         JZ        ??ZDSecMgrEntryLookupAMI_0
    514            {
    515              for ( index = 0; index < ZDSECMGR_ENTRY_MAX ; index++ )
   \   00000E   7800         MOV       R0,#0x0
   \   000010   7900         MOV       R1,#0x0
    516              {
    517                if ( ZDSecMgrEntries[index].ami == ami )
   \                     ??ZDSecMgrEntryLookupAMI_1:
   \   000012   12....       LCALL     ?Subroutine51 & 0xFFFF
   \                     ??CrossCallReturnLabel_83:
   \   000015   FE           MOV       R6,A
   \   000016   A3           INC       DPTR
   \   000017   E0           MOVX      A,@DPTR
   \   000018   3F           ADDC      A,R7
   \   000019   FF           MOV       R7,A
   \   00001A   8E82         MOV       DPL,R6
   \   00001C   F583         MOV       DPH,A
   \   00001E   E0           MOVX      A,@DPTR
   \   00001F   6A           XRL       A,R2
   \   000020   7003         JNZ       ??ZDSecMgrEntryLookupAMI_2
   \   000022   A3           INC       DPTR
   \   000023   E0           MOVX      A,@DPTR
   \   000024   6B           XRL       A,R3
   \                     ??ZDSecMgrEntryLookupAMI_2:
   \   000025   700D         JNZ       ??ZDSecMgrEntryLookupAMI_3
    518                {
    519                  // return successful results
    520                  *entry = &ZDSecMgrEntries[index];
   \   000027   8C82         MOV       DPL,R4
   \   000029   8D83         MOV       DPH,R5
   \   00002B   EE           MOV       A,R6
   \   00002C   F0           MOVX      @DPTR,A
   \   00002D   A3           INC       DPTR
   \   00002E   EF           MOV       A,R7
   \   00002F   F0           MOVX      @DPTR,A
    521          
    522                  // break from loop
    523                  return ZSuccess;
   \   000030   7900         MOV       R1,#0x0
   \   000032   800C         SJMP      ??ZDSecMgrEntryLookupAMI_4
    524                }
    525              }
   \                     ??ZDSecMgrEntryLookupAMI_3:
   \   000034   08           INC       R0
   \   000035   E8           MOV       A,R0
   \   000036   7001         JNZ       ??ZDSecMgrEntryLookupAMI_5
   \   000038   09           INC       R1
   \                     ??ZDSecMgrEntryLookupAMI_5:
   \   000039   12....       LCALL     ?Subroutine48 & 0xFFFF
    526            }
   \                     ??CrossCallReturnLabel_134:
   \   00003C   40D4         JC        ??ZDSecMgrEntryLookupAMI_1
    527          
    528            return ZNwkUnknownDevice;
   \                     ??ZDSecMgrEntryLookupAMI_0:
   \   00003E   79C8         MOV       R1,#-0x38
   \                     ??ZDSecMgrEntryLookupAMI_4:
   \   000040   02....       LJMP      ??Subroutine88_0 & 0xFFFF
    529          }

   \                                 In  segment BANKED_CODE, align 1, keep-with-next
   \                     ?Subroutine51:
   \   000000   E8           MOV       A,R0
   \   000001   FE           MOV       R6,A
   \   000002   E9           MOV       A,R1
   \   000003   FF           MOV       R7,A
   \   000004   EE           MOV       A,R6
   \   000005   75F005       MOV       B,#0x5
   \   000008   A4           MUL       AB
   \   000009   FE           MOV       R6,A
   \   00000A   85F0..       MOV       ?V0,B
   \   00000D   75F005       MOV       B,#0x5
   \   000010   EF           MOV       A,R7
   \   000011   A4           MUL       AB
   \   000012   25..         ADD       A,?V0
   \   000014   FF           MOV       R7,A
   \   000015   90....       MOV       DPTR,#ZDSecMgrEntries
   \   000018   E0           MOVX      A,@DPTR
   \   000019   2E           ADD       A,R6
   \   00001A   22           RET
    530          
    531          /******************************************************************************
    532           * @fn          ZDSecMgrEntryLookupExt
    533           *
    534           * @brief       Lookup entry index using specified EXT address.
    535           *
    536           * @param       extAddr - [in] EXT address
    537           * @param       entry   - [out] valid entry
    538           *
    539           * @return      ZStatus_t
    540           */

   \                                 In  segment BANKED_CODE, align 1, keep-with-next
    541          ZStatus_t ZDSecMgrEntryLookupExt( uint8* extAddr, ZDSecMgrEntry_t** entry )
   \                     ZDSecMgrEntryLookupExt:
    542          {
   \   000000                REQUIRE ?V0
   \   000000   74F7         MOV       A,#-0x9
   \   000002   12....       LCALL     ?BANKED_ENTER_XDATA
   \   000005                ; Saved register size: 9
   \   000005                ; Auto size: 2
   \   000005   74FE         MOV       A,#-0x2
   \   000007   12....       LCALL     ?ALLOC_XSTACK8
   \   00000A   EC           MOV       A,R4
   \   00000B   FE           MOV       R6,A
   \   00000C   ED           MOV       A,R5
   \   00000D   FF           MOV       R7,A
    543            ZStatus_t status;
    544            uint16    ami;
    545          
    546            // initialize results
    547            *entry = NULL;
   \   00000E   8C82         MOV       DPL,R4
   \   000010   F583         MOV       DPH,A
   \   000012   E4           CLR       A
   \   000013   F0           MOVX      @DPTR,A
   \   000014   A3           INC       DPTR
   \   000015   F0           MOVX      @DPTR,A
    548            status = ZNwkUnknownDevice;
   \   000016   75..C8       MOV       ?V0,#-0x38
    549          
    550            // lookup address index
    551            if ( ZDSecMgrExtAddrLookup( extAddr, &ami ) == ZSuccess )
   \   000019                ; Setup parameters for call to function ZDSecMgrExtAddrLookup
   \   000019   AC..         MOV       R4,?XSP + 0
   \   00001B   AD..         MOV       R5,?XSP + 1
   \   00001D   12....       LCALL     `??ZDSecMgrExtAddrLookup::?relay`; Banked call to: ZDSecMgrExtAddrLookup
   \   000020   E9           MOV       A,R1
   \   000021   7010         JNZ       ??ZDSecMgrEntryLookupExt_0
    552            {
    553              status = ZDSecMgrEntryLookupAMI( ami, entry );
   \   000023                ; Setup parameters for call to function ZDSecMgrEntryLookupAMI
   \   000023   EE           MOV       A,R6
   \   000024   FC           MOV       R4,A
   \   000025   EF           MOV       A,R7
   \   000026   FD           MOV       R5,A
   \   000027   85..82       MOV       DPL,?XSP + 0
   \   00002A   85..83       MOV       DPH,?XSP + 1
   \   00002D   12....       LCALL     ?Subroutine31 & 0xFFFF
    554            }
   \                     ??CrossCallReturnLabel_39:
   \   000030   E9           MOV       A,R1
   \   000031   F5..         MOV       ?V0,A
    555          
    556            return status;
   \                     ??ZDSecMgrEntryLookupExt_0:
   \   000033   A9..         MOV       R1,?V0
   \   000035   02....       LJMP      ?Subroutine7 & 0xFFFF
    557          }

   \                                 In  segment BANKED_CODE, align 1, keep-with-next
   \                     ?Subroutine7:
   \   000000   7402         MOV       A,#0x2
   \   000002   02....       LJMP      ??Subroutine87_0 & 0xFFFF

   \                                 In  segment BANKED_CODE, align 1, keep-with-next
   \                     ?Subroutine31:
   \   000000   12....       LCALL     ?Subroutine69 & 0xFFFF
   \                     ??CrossCallReturnLabel_150:
   \   000003   12....       LCALL     `??ZDSecMgrEntryLookupAMI::?relay`; Banked call to: ZDSecMgrEntryLookupAMI
   \   000006   22           RET

   \                                 In  segment BANKED_CODE, align 1, keep-with-next
   \                     ?Subroutine69:
   \   000000   E0           MOVX      A,@DPTR
   \   000001   FA           MOV       R2,A
   \   000002   A3           INC       DPTR
   \   000003   E0           MOVX      A,@DPTR
   \   000004   FB           MOV       R3,A
   \   000005   22           RET
    558          
    559          /******************************************************************************
    560           * @fn          ZDSecMgrEntryLookupExtGetIndex
    561           *
    562           * @brief       Lookup entry index using specified EXT address.
    563           *
    564           * @param       extAddr - [in] EXT address
    565           * @param       entryIndex - [out] valid index to the entry table
    566           *
    567           * @return      ZStatus_t
    568           */

   \                                 In  segment BANKED_CODE, align 1, keep-with-next
    569          ZStatus_t ZDSecMgrEntryLookupExtGetIndex( uint8* extAddr, ZDSecMgrEntry_t** entry, uint16* entryIndex )
   \                     ZDSecMgrEntryLookupExtGetIndex:
    570          {
   \   000000   74F7         MOV       A,#-0x9
   \   000002   12....       LCALL     ?BANKED_ENTER_XDATA
   \   000005                ; Saved register size: 9
   \   000005                ; Auto size: 2
   \   000005   74FE         MOV       A,#-0x2
   \   000007   12....       LCALL     ?ALLOC_XSTACK8
   \   00000A   EC           MOV       A,R4
   \   00000B   FE           MOV       R6,A
   \   00000C   ED           MOV       A,R5
   \   00000D   FF           MOV       R7,A
    571            uint16 ami;
    572            uint16 index;
    573          
    574            // lookup address index
    575            if ( ZDSecMgrExtAddrLookup( extAddr, &ami ) == ZSuccess )
   \   00000E                ; Setup parameters for call to function ZDSecMgrExtAddrLookup
   \   00000E   AC..         MOV       R4,?XSP + 0
   \   000010   AD..         MOV       R5,?XSP + 1
   \   000012   12....       LCALL     `??ZDSecMgrExtAddrLookup::?relay`; Banked call to: ZDSecMgrExtAddrLookup
   \   000015   E9           MOV       A,R1
   \   000016   703B         JNZ       ??ZDSecMgrEntryLookupExtGetIndex_0
    576            {
    577              // verify data is available
    578              if ( ZDSecMgrEntries != NULL )
   \   000018   90....       MOV       DPTR,#ZDSecMgrEntries
   \   00001B   12....       LCALL     ??Subroutine86_0 & 0xFFFF
   \                     ??CrossCallReturnLabel_201:
   \   00001E   6033         JZ        ??ZDSecMgrEntryLookupExtGetIndex_0
    579              {
    580                for ( index = 0; index < ZDSECMGR_ENTRY_MAX ; index++ )
   \   000020   7800         MOV       R0,#0x0
   \   000022   7900         MOV       R1,#0x0
    581                {
    582                  if ( ZDSecMgrEntries[index].ami == ami )
   \                     ??ZDSecMgrEntryLookupExtGetIndex_1:
   \   000024   12....       LCALL     ?Subroutine35 & 0xFFFF
   \                     ??CrossCallReturnLabel_51:
   \   000027   12....       LCALL     ?Subroutine36 & 0xFFFF
   \                     ??CrossCallReturnLabel_53:
   \   00002A   85..82       MOV       DPL,?XSP + 0
   \   00002D   85..83       MOV       DPH,?XSP + 1
   \   000030   E0           MOVX      A,@DPTR
   \   000031   6C           XRL       A,R4
   \   000032   7003         JNZ       ??ZDSecMgrEntryLookupExtGetIndex_2
   \   000034   A3           INC       DPTR
   \   000035   E0           MOVX      A,@DPTR
   \   000036   6D           XRL       A,R5
   \                     ??ZDSecMgrEntryLookupExtGetIndex_2:
   \   000037   7010         JNZ       ??ZDSecMgrEntryLookupExtGetIndex_3
    583                  {
    584                    // return successful results
    585                    *entry = &ZDSecMgrEntries[index];
   \   000039   12....       LCALL     ?Subroutine22 & 0xFFFF
    586                    *entryIndex = index;
   \                     ??CrossCallReturnLabel_221:
   \   00003C   740B         MOV       A,#0xb
   \   00003E   12....       LCALL     ?XSTACK_DISP0_8
   \   000041   12....       LCALL     ?Subroutine41 & 0xFFFF
    587          
    588                    // break from loop
    589                    return ZSuccess;
    590                  }
    591                }
   \                     ??CrossCallReturnLabel_63:
   \   000044   12....       LCALL     ??Subroutine77_0 & 0xFFFF
   \                     ??CrossCallReturnLabel_125:
   \   000047   800C         SJMP      ??ZDSecMgrEntryLookupExtGetIndex_4
   \                     ??ZDSecMgrEntryLookupExtGetIndex_3:
   \   000049   08           INC       R0
   \   00004A   E8           MOV       A,R0
   \   00004B   7001         JNZ       ??ZDSecMgrEntryLookupExtGetIndex_5
   \   00004D   09           INC       R1
   \                     ??ZDSecMgrEntryLookupExtGetIndex_5:
   \   00004E   12....       LCALL     ?Subroutine48 & 0xFFFF
    592              }
    593            }
   \                     ??CrossCallReturnLabel_135:
   \   000051   40D1         JC        ??ZDSecMgrEntryLookupExtGetIndex_1
    594          
    595            return ZNwkUnknownDevice;
   \                     ??ZDSecMgrEntryLookupExtGetIndex_0:
   \   000053   79C8         MOV       R1,#-0x38
   \                     ??ZDSecMgrEntryLookupExtGetIndex_4:
   \   000055   02....       LJMP      ?Subroutine7 & 0xFFFF
    596          }

   \                                 In  segment BANKED_CODE, align 1, keep-with-next
   \                     ?Subroutine41:
   \   000000   12....       LCALL     ?Subroutine74 & 0xFFFF
   \                     ??CrossCallReturnLabel_117:
   \   000003   22           RET

   \                                 In  segment BANKED_CODE, align 1, keep-with-next
   \                     ?Subroutine74:
   \   000000   E0           MOVX      A,@DPTR
   \   000001   FA           MOV       R2,A
   \   000002   A3           INC       DPTR
   \   000003   E0           MOVX      A,@DPTR
   \   000004   F583         MOV       DPH,A
   \   000006   8A82         MOV       DPL,R2
   \   000008   22           RET
    597          
    598          /******************************************************************************
    599           * @fn          ZDSecMgrEntryLookupAMIGetIndex
    600           *
    601           * @brief       Lookup entry using specified address index
    602           *
    603           * @param       ami   - [in] Address Manager index
    604           * @param       entryIndex - [out] valid index to the entry table
    605           *
    606           * @return      ZStatus_t
    607           */

   \                                 In  segment BANKED_CODE, align 1, keep-with-next
    608          ZStatus_t ZDSecMgrEntryLookupAMIGetIndex( uint16 ami, uint16* entryIndex )
   \                     ZDSecMgrEntryLookupAMIGetIndex:
    609          {
   \   000000                REQUIRE ?V0
   \   000000   74F7         MOV       A,#-0x9
   \   000002   12....       LCALL     ?BANKED_ENTER_XDATA
   \   000005                ; Saved register size: 9
   \   000005                ; Auto size: 0
    610            uint16 index;
    611          
    612            // verify data is available
    613            if ( ZDSecMgrEntries != NULL )
   \   000005   90....       MOV       DPTR,#ZDSecMgrEntries
   \   000008   12....       LCALL     ??Subroutine86_0 & 0xFFFF
   \                     ??CrossCallReturnLabel_202:
   \   00000B   602D         JZ        ??ZDSecMgrEntryLookupAMIGetIndex_0
    614            {
    615              for ( index = 0; index < ZDSECMGR_ENTRY_MAX ; index++ )
   \   00000D   7800         MOV       R0,#0x0
   \   00000F   7900         MOV       R1,#0x0
    616              {
    617                if ( ZDSecMgrEntries[index].ami == ami )
   \                     ??ZDSecMgrEntryLookupAMIGetIndex_1:
   \   000011   12....       LCALL     ?Subroutine51 & 0xFFFF
   \                     ??CrossCallReturnLabel_84:
   \   000014   F5..         MOV       ?V0,A
   \   000016   A3           INC       DPTR
   \   000017   E0           MOVX      A,@DPTR
   \   000018   3F           ADDC      A,R7
   \   000019   85..82       MOV       DPL,?V0
   \   00001C   F583         MOV       DPH,A
   \   00001E   E0           MOVX      A,@DPTR
   \   00001F   6A           XRL       A,R2
   \   000020   7003         JNZ       ??ZDSecMgrEntryLookupAMIGetIndex_2
   \   000022   A3           INC       DPTR
   \   000023   E0           MOVX      A,@DPTR
   \   000024   6B           XRL       A,R3
   \                     ??ZDSecMgrEntryLookupAMIGetIndex_2:
   \   000025   7009         JNZ       ??ZDSecMgrEntryLookupAMIGetIndex_3
    618                {
    619                  // return successful results
    620                  *entryIndex = index;
   \   000027   8C82         MOV       DPL,R4
   \   000029   8D83         MOV       DPH,R5
   \   00002B   12....       LCALL     ??Subroutine77_0 & 0xFFFF
    621          
    622                  // break from loop
    623                  return ZSuccess;
    624                }
    625              }
   \                     ??CrossCallReturnLabel_126:
   \   00002E   800C         SJMP      ??ZDSecMgrEntryLookupAMIGetIndex_4
   \                     ??ZDSecMgrEntryLookupAMIGetIndex_3:
   \   000030   08           INC       R0
   \   000031   E8           MOV       A,R0
   \   000032   7001         JNZ       ??ZDSecMgrEntryLookupAMIGetIndex_5
   \   000034   09           INC       R1
   \                     ??ZDSecMgrEntryLookupAMIGetIndex_5:
   \   000035   12....       LCALL     ?Subroutine48 & 0xFFFF
    626            }
   \                     ??CrossCallReturnLabel_136:
   \   000038   40D7         JC        ??ZDSecMgrEntryLookupAMIGetIndex_1
    627          
    628            return ZNwkUnknownDevice;
   \                     ??ZDSecMgrEntryLookupAMIGetIndex_0:
   \   00003A   79C8         MOV       R1,#-0x38
   \                     ??ZDSecMgrEntryLookupAMIGetIndex_4:
   \   00003C   02....       LJMP      ??Subroutine88_0 & 0xFFFF
    629          }
    630          
    631          /******************************************************************************
    632           * @fn          ZDSecMgrEntryFree
    633           *
    634           * @brief       Free entry.
    635           *
    636           * @param       entry - [in] valid entry
    637           *
    638           * @return      ZStatus_t
    639           */

   \                                 In  segment BANKED_CODE, align 1, keep-with-next
    640          void ZDSecMgrEntryFree( ZDSecMgrEntry_t* entry )
   \                     ZDSecMgrEntryFree:
    641          {
   \   000000                REQUIRE ?V0
   \   000000                REQUIRE ?V1
   \   000000                REQUIRE ?V2
   \   000000                REQUIRE ?V4
   \   000000                REQUIRE ?V5
   \   000000                REQUIRE ?V6
   \   000000                REQUIRE ?V7
   \   000000   74F0         MOV       A,#-0x10
   \   000002   12....       LCALL     ?BANKED_ENTER_XDATA
   \   000005                ; Saved register size: 16
   \   000005                ; Auto size: 4
   \   000005   74FC         MOV       A,#-0x4
   \   000007   12....       LCALL     ?ALLOC_XSTACK8
   \   00000A   EA           MOV       A,R2
   \   00000B   FE           MOV       R6,A
   \   00000C   EB           MOV       A,R3
   \   00000D   FF           MOV       R7,A
    642            APSME_LinkKeyData_t   *pApsLinkKey = NULL;
    643          
    644          #if defined ( NV_RESTORE )
    645            ZStatus_t status;
    646            uint16 entryIndex;
    647          
    648            status = ZDSecMgrEntryLookupAMIGetIndex( entry->ami, &entryIndex );
   \   00000E                ; Setup parameters for call to function ZDSecMgrEntryLookupAMIGetIndex
   \   00000E   7402         MOV       A,#0x2
   \   000010   12....       LCALL     ?XSTACK_DISP102_8
   \   000013   8A82         MOV       DPL,R2
   \   000015   8B83         MOV       DPH,R3
   \   000017   12....       LCALL     ??Subroutine80_0 & 0xFFFF
   \                     ??CrossCallReturnLabel_137:
   \   00001A   12....       LCALL     `??ZDSecMgrEntryLookupAMIGetIndex::?relay`; Banked call to: ZDSecMgrEntryLookupAMIGetIndex
   \   00001D   E9           MOV       A,R1
   \   00001E   F5..         MOV       ?V2,A
    649          #endif
    650          
    651            pApsLinkKey = (APSME_LinkKeyData_t *)osal_mem_alloc(sizeof(APSME_LinkKeyData_t));
   \   000020                ; Setup parameters for call to function osal_mem_alloc
   \   000020   7A18         MOV       R2,#0x18
   \   000022   7B00         MOV       R3,#0x0
   \   000024   12....       LCALL     `??osal_mem_alloc::?relay`; Banked call to: osal_mem_alloc
   \   000027   8A..         MOV       ?V4,R2
   \   000029   8B..         MOV       ?V5,R3
    652          
    653            if (pApsLinkKey != NULL)
   \   00002B   EA           MOV       A,R2
   \   00002C   4B           ORL       A,R3
   \   00002D   603B         JZ        ??ZDSecMgrEntryFree_0
    654            {
    655              osal_memset( pApsLinkKey, 0x00, sizeof(APSME_LinkKeyData_t) );
   \   00002F                ; Setup parameters for call to function osal_memset
   \   00002F   7C18         MOV       R4,#0x18
   \   000031   7D00         MOV       R5,#0x0
   \   000033   7900         MOV       R1,#0x0
   \   000035   12....       LCALL     `??osal_memset::?relay`; Banked call to: osal_memset
    656          
    657              // Clear the APS Link key in NV
    658              osal_nv_write( entry->keyNvId, 0,
    659                                  sizeof(APSME_LinkKeyData_t), pApsLinkKey);
   \   000038   EE           MOV       A,R6
   \   000039   12....       LCALL     ?Subroutine53 & 0xFFFF
   \                     ??CrossCallReturnLabel_87:
   \   00003C                ; Setup parameters for call to function osal_nv_write
   \   00003C   78..         MOV       R0,#?V4
   \   00003E   12....       LCALL     ?PUSH_XSTACK_I_TWO
   \   000041   75..18       MOV       ?V6,#0x18
   \   000044   75..00       MOV       ?V7,#0x0
   \   000047   78..         MOV       R0,#?V6
   \   000049   12....       LCALL     ?PUSH_XSTACK_I_TWO
   \   00004C   7C00         MOV       R4,#0x0
   \   00004E   7D00         MOV       R5,#0x0
   \   000050   12....       LCALL     ?Subroutine40 & 0xFFFF
   \                     ??CrossCallReturnLabel_147:
   \   000053   12....       LCALL     ??Subroutine96_0 & 0xFFFF
   \                     ??CrossCallReturnLabel_241:
   \   000056   12....       LCALL     ?DEALLOC_XSTACK8
    660          
    661              // set entry to invalid Key
    662              entry->keyNvId = SEC_NO_KEY_NV_ID;
   \   000059   85..82       MOV       DPL,?V0
   \   00005C   85..83       MOV       DPH,?V1
   \   00005F   E4           CLR       A
   \   000060   F0           MOVX      @DPTR,A
   \   000061   A3           INC       DPTR
   \   000062   F0           MOVX      @DPTR,A
    663          
    664              osal_mem_free(pApsLinkKey);
   \   000063                ; Setup parameters for call to function osal_mem_free
   \   000063   AA..         MOV       R2,?V4
   \   000065   AB..         MOV       R3,?V5
   \   000067   12....       LCALL     `??osal_mem_free::?relay`; Banked call to: osal_mem_free
    665            }
    666          
    667            // marking the entry as INVALID_NODE_ADDR
    668            entry->ami = INVALID_NODE_ADDR;
   \                     ??ZDSecMgrEntryFree_0:
   \   00006A   8E82         MOV       DPL,R6
   \   00006C   8F83         MOV       DPH,R7
   \   00006E   74FE         MOV       A,#-0x2
   \   000070   F0           MOVX      @DPTR,A
   \   000071   A3           INC       DPTR
   \   000072   04           INC       A
   \   000073   F0           MOVX      @DPTR,A
    669          
    670            // set to default value
    671            entry->authenticateOption = ZDSecMgr_Not_Authenticated;
   \   000074   8E82         MOV       DPL,R6
   \   000076   8F83         MOV       DPH,R7
   \   000078   A3           INC       DPTR
   \   000079   A3           INC       DPTR
   \   00007A   A3           INC       DPTR
   \   00007B   A3           INC       DPTR
   \   00007C   E4           CLR       A
   \   00007D   F0           MOVX      @DPTR,A
    672          
    673          #if defined ( NV_RESTORE )
    674            if ( status == ZSuccess )
   \   00007E   E5..         MOV       A,?V2
   \   000080   6003         JZ        $+5
   \   000082   02....       LJMP      ??ZDSecMgrEntryFree_1 & 0xFFFF
    675            {
    676              ZDSecMgrUpdateNV(entryIndex);
   \   000085   7402         MOV       A,#0x2
   \   000087   12....       LCALL     ?XSTACK_DISP0_8
   \   00008A   12....       LCALL     ??Subroutine80_0 & 0xFFFF
    677            }
   \                     ??CrossCallReturnLabel_138:
   \   00008D   EA           MOV       A,R2
   \   00008E   75F005       MOV       B,#0x5
   \   000091   A4           MUL       AB
   \   000092   FE           MOV       R6,A
   \   000093   A8F0         MOV       R0,B
   \   000095   75F005       MOV       B,#0x5
   \   000098   EB           MOV       A,R3
   \   000099   A4           MUL       AB
   \   00009A   28           ADD       A,R0
   \   00009B   FF           MOV       R7,A
   \   00009C   90....       MOV       DPTR,#ZDSecMgrEntries
   \   00009F   12....       LCALL     ??Subroutine86_0 & 0xFFFF
   \                     ??CrossCallReturnLabel_203:
   \   0000A2   603B         JZ        ??ZDSecMgrEntryFree_2
   \   0000A4                ; Setup parameters for call to function osal_nv_write
   \   0000A4   90....       MOV       DPTR,#ZDSecMgrEntries
   \   0000A7   E0           MOVX      A,@DPTR
   \   0000A8   2E           ADD       A,R6
   \   0000A9   F5..         MOV       ?V0,A
   \   0000AB   A3           INC       DPTR
   \   0000AC   E0           MOVX      A,@DPTR
   \   0000AD   3F           ADDC      A,R7
   \   0000AE   F5..         MOV       ?V1,A
   \   0000B0   78..         MOV       R0,#?V0
   \   0000B2   12....       LCALL     ?PUSH_XSTACK_I_TWO
   \   0000B5   75..05       MOV       ?V0,#0x5
   \   0000B8   75..00       MOV       ?V1,#0x0
   \   0000BB   78..         MOV       R0,#?V0
   \   0000BD   12....       LCALL     ?PUSH_XSTACK_I_TWO
   \   0000C0   EA           MOV       A,R2
   \   0000C1   75F005       MOV       B,#0x5
   \   0000C4   A4           MUL       AB
   \   0000C5   A8F0         MOV       R0,B
   \   0000C7   75F005       MOV       B,#0x5
   \   0000CA   EB           MOV       A,R3
   \   0000CB   A4           MUL       AB
   \   0000CC   28           ADD       A,R0
   \   0000CD   FB           MOV       R3,A
   \   0000CE   EE           MOV       A,R6
   \   0000CF   2402         ADD       A,#0x2
   \   0000D1   FC           MOV       R4,A
   \   0000D2   E4           CLR       A
   \   0000D3   3B           ADDC      A,R3
   \   0000D4   FD           MOV       R5,A
   \   0000D5   7A4C         MOV       R2,#0x4c
   \   0000D7   7B00         MOV       R3,#0x0
   \   0000D9   12....       LCALL     ??Subroutine96_0 & 0xFFFF
   \                     ??CrossCallReturnLabel_260:
   \   0000DC   12....       LCALL     ?DEALLOC_XSTACK8
   \                     ??ZDSecMgrEntryFree_2:
   \   0000DF                ; Setup parameters for call to function osal_nv_read
   \   0000DF   A8..         MOV       R0,?XSP + 0
   \   0000E1   A9..         MOV       R1,?XSP + 1
   \   0000E3   88..         MOV       ?V0,R0
   \   0000E5   89..         MOV       ?V1,R1
   \   0000E7   78..         MOV       R0,#?V0
   \   0000E9   12....       LCALL     ?PUSH_XSTACK_I_TWO
   \   0000EC   75..02       MOV       ?V0,#0x2
   \   0000EF   75..00       MOV       ?V1,#0x0
   \   0000F2   78..         MOV       R0,#?V0
   \   0000F4   12....       LCALL     ?PUSH_XSTACK_I_TWO
   \   0000F7   12....       LCALL     ?Subroutine56 & 0xFFFF
   \                     ??CrossCallReturnLabel_291:
   \   0000FA   12....       LCALL     ?DEALLOC_XSTACK8
   \   0000FD   E9           MOV       A,R1
   \   0000FE   7052         JNZ       ??ZDSecMgrEntryFree_1
   \   000100   12....       LCALL     ?Subroutine38 & 0xFFFF
   \                     ??CrossCallReturnLabel_59:
   \   000103   E0           MOVX      A,@DPTR
   \   000104   64FE         XRL       A,#0xfe
   \   000106   7003         JNZ       ??ZDSecMgrEntryFree_3
   \   000108   A3           INC       DPTR
   \   000109   E0           MOVX      A,@DPTR
   \   00010A   F4           CPL       A
   \                     ??ZDSecMgrEntryFree_3:
   \   00010B   85..82       MOV       DPL,?XSP + 0
   \   00010E   85..83       MOV       DPH,?XSP + 1
   \   000111   7015         JNZ       ??ZDSecMgrEntryFree_4
   \   000113   12....       LCALL     ??Subroutine86_0 & 0xFFFF
   \                     ??CrossCallReturnLabel_204:
   \   000116   6014         JZ        ??ZDSecMgrEntryFree_5
   \   000118   85..82       MOV       DPL,?XSP + 0
   \   00011B   85..83       MOV       DPH,?XSP + 1
   \   00011E   E0           MOVX      A,@DPTR
   \   00011F   24FF         ADD       A,#-0x1
   \   000121   F0           MOVX      @DPTR,A
   \   000122   A3           INC       DPTR
   \   000123   E0           MOVX      A,@DPTR
   \   000124   34FF         ADDC      A,#-0x1
   \   000126   8003         SJMP      ??CrossCallReturnLabel_65
   \                     ??ZDSecMgrEntryFree_4:
   \   000128   12....       LCALL     ?Subroutine42 & 0xFFFF
   \                     ??CrossCallReturnLabel_65:
   \   00012B   F0           MOVX      @DPTR,A
   \                     ??ZDSecMgrEntryFree_5:
   \   00012C                ; Setup parameters for call to function osal_nv_write
   \   00012C   A8..         MOV       R0,?XSP + 0
   \   00012E   A9..         MOV       R1,?XSP + 1
   \   000130   88..         MOV       ?V0,R0
   \   000132   89..         MOV       ?V1,R1
   \   000134   78..         MOV       R0,#?V0
   \   000136   12....       LCALL     ?PUSH_XSTACK_I_TWO
   \   000139   75..02       MOV       ?V0,#0x2
   \   00013C   75..00       MOV       ?V1,#0x0
   \   00013F   78..         MOV       R0,#?V0
   \   000141   12....       LCALL     ?PUSH_XSTACK_I_TWO
   \   000144   7C00         MOV       R4,#0x0
   \   000146   7D00         MOV       R5,#0x0
   \   000148   7A4C         MOV       R2,#0x4c
   \   00014A   7B00         MOV       R3,#0x0
   \   00014C   12....       LCALL     ??Subroutine96_0 & 0xFFFF
   \                     ??CrossCallReturnLabel_261:
   \   00014F   12....       LCALL     ?DEALLOC_XSTACK8
    678          #endif
    679          }
   \                     ??ZDSecMgrEntryFree_1:
   \   000152   7404         MOV       A,#0x4
   \   000154                REQUIRE ?Subroutine1
   \   000154                ; // Fall through to label ?Subroutine1

   \                                 In  segment BANKED_CODE, align 1, keep-with-next
   \                     ?Subroutine1:
   \   000000   12....       LCALL     ?DEALLOC_XSTACK8
   \   000003   7F08         MOV       R7,#0x8
   \   000005   02....       LJMP      ?BANKED_LEAVE_XDATA

   \                                 In  segment BANKED_CODE, align 1, keep-with-next
   \                     ?Subroutine53:
   \   000000   2402         ADD       A,#0x2
   \   000002   F8           MOV       R0,A
   \   000003   E4           CLR       A
   \   000004   3F           ADDC      A,R7
   \   000005   88..         MOV       ?V0,R0
   \   000007   F5..         MOV       ?V1,A
   \   000009   22           RET

   \                                 In  segment BANKED_CODE, align 1, keep-with-next
   \                     ?Subroutine40:
   \   000000   85..82       MOV       DPL,?V0
   \   000003   85..83       MOV       DPH,?V1
   \   000006                REQUIRE ??Subroutine80_0
   \   000006                ; // Fall through to label ??Subroutine80_0

   \                                 In  segment BANKED_CODE, align 1, keep-with-next
   \                     ??Subroutine80_0:
   \   000000   12....       LCALL     ?Subroutine69 & 0xFFFF
   \                     ??CrossCallReturnLabel_154:
   \   000003   22           RET

   \                                 In  segment BANKED_CODE, align 1, keep-with-next
   \                     ?Subroutine42:
   \   000000   E0           MOVX      A,@DPTR
   \   000001   2401         ADD       A,#0x1
   \   000003   F0           MOVX      @DPTR,A
   \   000004   A3           INC       DPTR
   \   000005   E0           MOVX      A,@DPTR
   \   000006   3400         ADDC      A,#0x0
   \   000008   22           RET

   \                                 In  segment BANKED_CODE, align 1, keep-with-next
   \                     ?Subroutine38:
   \   000000   90....       MOV       DPTR,#ZDSecMgrEntries
   \   000003   E0           MOVX      A,@DPTR
   \   000004   2E           ADD       A,R6
   \   000005   F8           MOV       R0,A
   \   000006   A3           INC       DPTR
   \   000007   E0           MOVX      A,@DPTR
   \   000008   3F           ADDC      A,R7
   \   000009   8882         MOV       DPL,R0
   \   00000B   F583         MOV       DPH,A
   \   00000D   22           RET

   \                                 In  segment BANKED_CODE, align 1, keep-with-next
   \                     ??Subroutine96_0:
   \   000000   12....       LCALL     `??osal_nv_write::?relay`; Banked call to: osal_nv_write
   \   000003   7404         MOV       A,#0x4
   \   000005   22           RET

   \                                 In  segment BANKED_CODE, align 1, keep-with-next
   \                     ?Subroutine56:
   \   000000   7C00         MOV       R4,#0x0
   \   000002   7D00         MOV       R5,#0x0
   \   000004                REQUIRE ??Subroutine104_0
   \   000004                ; // Fall through to label ??Subroutine104_0

   \                                 In  segment BANKED_CODE, align 1, keep-with-next
   \                     ??Subroutine104_0:
   \   000000   7A4C         MOV       R2,#0x4c
   \   000002                REQUIRE ??Subroutine105_0
   \   000002                ; // Fall through to label ??Subroutine105_0

   \                                 In  segment BANKED_CODE, align 1, keep-with-next
   \                     ??Subroutine105_0:
   \   000000   7B00         MOV       R3,#0x0
   \   000002                REQUIRE ??Subroutine106_0
   \   000002                ; // Fall through to label ??Subroutine106_0

   \                                 In  segment BANKED_CODE, align 1, keep-with-next
   \                     ??Subroutine106_0:
   \   000000   12....       LCALL     `??osal_nv_read::?relay`; Banked call to: osal_nv_read
   \   000003   7404         MOV       A,#0x4
   \   000005   22           RET
    680          
    681          /******************************************************************************
    682           * @fn          ZDSecMgrEntryNew
    683           *
    684           * @brief       Get a new entry.
    685           *
    686           * @param       entry - [out] valid entry
    687           *
    688           * @return      ZStatus_t
    689           */

   \                                 In  segment BANKED_CODE, align 1, keep-with-next
    690          ZStatus_t ZDSecMgrEntryNew( ZDSecMgrEntry_t** entry )
   \                     ZDSecMgrEntryNew:
    691          {
   \   000000                REQUIRE ?V0
   \   000000   74F7         MOV       A,#-0x9
   \   000002   12....       LCALL     ?BANKED_ENTER_XDATA
   \   000005                ; Saved register size: 9
   \   000005                ; Auto size: 0
    692            uint16 index;
    693          
    694            // initialize results
    695            *entry = NULL;
   \   000005   8A82         MOV       DPL,R2
   \   000007   8B83         MOV       DPH,R3
   \   000009   12....       LCALL     ?Subroutine9 & 0xFFFF
    696          
    697            // verify data is available
    698            if ( ZDSecMgrEntries != NULL )
   \                     ??CrossCallReturnLabel_2:
   \   00000C   605B         JZ        ??ZDSecMgrEntryNew_0
    699            {
    700              // find available entry
    701              for ( index = 0; index < ZDSECMGR_ENTRY_MAX ; index++ )
   \   00000E   7C00         MOV       R4,#0x0
   \   000010   7D00         MOV       R5,#0x0
    702              {
    703                if ( ZDSecMgrEntries[index].ami == INVALID_NODE_ADDR )
   \                     ??ZDSecMgrEntryNew_1:
   \   000012   EC           MOV       A,R4
   \   000013   F8           MOV       R0,A
   \   000014   ED           MOV       A,R5
   \   000015   F9           MOV       R1,A
   \   000016   E8           MOV       A,R0
   \   000017   75F005       MOV       B,#0x5
   \   00001A   A4           MUL       AB
   \   00001B   F8           MOV       R0,A
   \   00001C   AEF0         MOV       R6,B
   \   00001E   75F005       MOV       B,#0x5
   \   000021   E9           MOV       A,R1
   \   000022   A4           MUL       AB
   \   000023   2E           ADD       A,R6
   \   000024   F9           MOV       R1,A
   \   000025   90....       MOV       DPTR,#ZDSecMgrEntries
   \   000028   E0           MOVX      A,@DPTR
   \   000029   28           ADD       A,R0
   \   00002A   FE           MOV       R6,A
   \   00002B   A3           INC       DPTR
   \   00002C   E0           MOVX      A,@DPTR
   \   00002D   39           ADDC      A,R1
   \   00002E   FF           MOV       R7,A
   \   00002F   8E82         MOV       DPL,R6
   \   000031   F583         MOV       DPH,A
   \   000033   E0           MOVX      A,@DPTR
   \   000034   64FE         XRL       A,#0xfe
   \   000036   7003         JNZ       ??ZDSecMgrEntryNew_2
   \   000038   A3           INC       DPTR
   \   000039   E0           MOVX      A,@DPTR
   \   00003A   F4           CPL       A
   \                     ??ZDSecMgrEntryNew_2:
   \   00003B   701F         JNZ       ??ZDSecMgrEntryNew_3
    704                {
    705                  // return successful result
    706                  *entry = &ZDSecMgrEntries[index];
   \   00003D   8A82         MOV       DPL,R2
   \   00003F   8B83         MOV       DPH,R3
   \   000041   EE           MOV       A,R6
   \   000042   F0           MOVX      @DPTR,A
   \   000043   A3           INC       DPTR
   \   000044   EF           MOV       A,R7
   \   000045   F0           MOVX      @DPTR,A
    707          
    708                  // Set the authentication option to default
    709                  ZDSecMgrEntries[index].authenticateOption = ZDSecMgr_Not_Authenticated;
   \   000046   90....       MOV       DPTR,#ZDSecMgrEntries
   \   000049   E0           MOVX      A,@DPTR
   \   00004A   28           ADD       A,R0
   \   00004B   FA           MOV       R2,A
   \   00004C   A3           INC       DPTR
   \   00004D   E0           MOVX      A,@DPTR
   \   00004E   39           ADDC      A,R1
   \   00004F   8A82         MOV       DPL,R2
   \   000051   F583         MOV       DPH,A
   \   000053   A3           INC       DPTR
   \   000054   A3           INC       DPTR
   \   000055   A3           INC       DPTR
   \   000056   A3           INC       DPTR
   \   000057   E4           CLR       A
   \   000058   F0           MOVX      @DPTR,A
    710          
    711                  // break from loop
    712                  return ZSuccess;
   \   000059   F9           MOV       R1,A
   \   00005A   800F         SJMP      ??ZDSecMgrEntryNew_4
    713                }
    714              }
   \                     ??ZDSecMgrEntryNew_3:
   \   00005C   0C           INC       R4
   \   00005D   EC           MOV       A,R4
   \   00005E   7001         JNZ       ??ZDSecMgrEntryNew_5
   \   000060   0D           INC       R5
   \                     ??ZDSecMgrEntryNew_5:
   \   000061   C3           CLR       C
   \   000062   9403         SUBB      A,#0x3
   \   000064   ED           MOV       A,R5
   \   000065   9400         SUBB      A,#0x0
   \   000067   40A9         JC        ??ZDSecMgrEntryNew_1
    715            }
    716          
    717            return ZNwkUnknownDevice;
   \                     ??ZDSecMgrEntryNew_0:
   \   000069   79C8         MOV       R1,#-0x38
   \                     ??ZDSecMgrEntryNew_4:
   \   00006B   02....       LJMP      ??Subroutine88_0 & 0xFFFF
    718          }
    719          
    720          /******************************************************************************
    721           * @fn          ZDSecMgrAppKeyGet
    722           *
    723           * @brief       get an APP key - option APP(MASTER or LINK) key
    724           *
    725           * @param       initNwkAddr - [in] NWK address of initiator device
    726           * @param       initExtAddr - [in] EXT address of initiator device
    727           * @param       partNwkAddr - [in] NWK address of partner device
    728           * @param       partExtAddr - [in] EXT address of partner device
    729           * @param       key         - [out] APP(MASTER or LINK) key
    730           * @param       keyType     - [out] APP(MASTER or LINK) key type
    731           *
    732           * @return      ZStatus_t
    733           */

   \                                 In  segment XDATA_I, align 1, keep-with-next
    734          uint8 ZDSecMgrAppKeyType = KEY_TYPE_APP_LINK;    // Set the default key type
   \                     ZDSecMgrAppKeyType:
   \   000000                DS 1
   \   000001                REQUIRE `?<Initializer for ZDSecMgrAppKeyType>`
   \   000001                REQUIRE __INIT_XDATA_I
    735                                                           // to KEY_TYPE_APP_LINK since
    736                                                           // only specific requirement
    737                                                           // right now comes from SE profile

   \                                 In  segment BANKED_CODE, align 1, keep-with-next
    738          ZStatus_t ZDSecMgrAppKeyGet( uint16  initNwkAddr,
   \                     ZDSecMgrAppKeyGet:
    739                                       uint8*  initExtAddr,
    740                                       uint16  partNwkAddr,
    741                                       uint8*  partExtAddr,
    742                                       uint8** key,
    743                                       uint8*  keyType )
    744          {
   \   000000   C082         PUSH      DPL
   \   000002   C083         PUSH      DPH
   \   000004                ; Saved register size: 2
   \   000004                ; Auto size: 0
    745            // Intentionally unreferenced parameters
    746            (void)initNwkAddr;
    747            (void)initExtAddr;
    748            (void)partNwkAddr;
    749            (void)partExtAddr;
    750          
    751            //---------------------------------------------------------------------------
    752            // note:
    753            // should use a robust mechanism to generate keys, for example
    754            // combine EXT addresses and call a hash function
    755            //---------------------------------------------------------------------------
    756            SSP_GetTrueRand( SEC_KEY_LEN, *key );
   \   000004                ; Setup parameters for call to function SSP_GetTrueRand
   \   000004   7404         MOV       A,#0x4
   \   000006   12....       LCALL     ?XSTACK_DISP0_8
   \   000009   12....       LCALL     ?Subroutine34 & 0xFFFF
   \                     ??CrossCallReturnLabel_46:
   \   00000C   12....       LCALL     ??Subroutine80_0 & 0xFFFF
   \                     ??CrossCallReturnLabel_139:
   \   00000F   7910         MOV       R1,#0x10
   \   000011   12....       LCALL     `??SSP_GetTrueRand::?relay`; Banked call to: SSP_GetTrueRand
    757          
    758            *keyType = ZDSecMgrAppKeyType;
   \   000014   90....       MOV       DPTR,#ZDSecMgrAppKeyType
   \   000017   E0           MOVX      A,@DPTR
   \   000018   C0E0         PUSH      A
   \   00001A   7406         MOV       A,#0x6
   \   00001C   12....       LCALL     ?XSTACK_DISP0_8
   \   00001F   12....       LCALL     ?Subroutine34 & 0xFFFF
   \                     ??CrossCallReturnLabel_47:
   \   000022   D0E0         POP       A
   \   000024   F0           MOVX      @DPTR,A
    759          
    760            return ZSuccess;
   \   000025   7900         MOV       R1,#0x0
   \   000027   02....       LJMP      ??Subroutine83_0 & 0xFFFF
    761          }

   \                                 In  segment BANKED_CODE, align 1, keep-with-next
   \                     ?Subroutine34:
   \   000000   12....       LCALL     ?Subroutine76 & 0xFFFF
   \                     ??CrossCallReturnLabel_120:
   \   000003   22           RET

   \                                 In  segment BANKED_CODE, align 1, keep-with-next
   \                     ?Subroutine76:
   \   000000   E0           MOVX      A,@DPTR
   \   000001   F8           MOV       R0,A
   \   000002   A3           INC       DPTR
   \   000003   E0           MOVX      A,@DPTR
   \   000004   F583         MOV       DPH,A
   \   000006   8882         MOV       DPL,R0
   \   000008   22           RET

   \                                 In  segment BANKED_CODE, align 1, keep-with-next
   \                     ??Subroutine83_0:
   \   000000   D083         POP       DPH
   \   000002   D082         POP       DPL
   \   000004   02....       LJMP      ?BRET
    762          
    763          
    764          
    765          
    766          /******************************************************************************
    767           * @fn          ZDSecMgrAppKeyReq
    768           *
    769           * @brief       Process request for APP key between two devices.
    770           *
    771           * @param       device - [in] ZDO_RequestKeyInd_t, request info
    772           *
    773           * @return      none
    774           */

   \                                 In  segment BANKED_CODE, align 1, keep-with-next
    775          void ZDSecMgrAppKeyReq( ZDO_RequestKeyInd_t* ind )
   \                     ZDSecMgrAppKeyReq:
    776          {
   \   000000                REQUIRE ?V0
   \   000000                REQUIRE ?V1
   \   000000                REQUIRE ?V2
   \   000000                REQUIRE ?V3
   \   000000   74F4         MOV       A,#-0xc
   \   000002   12....       LCALL     ?BANKED_ENTER_XDATA
   \   000005                ; Saved register size: 12
   \   000005                ; Auto size: 39
   \   000005   74D9         MOV       A,#-0x27
   \   000007   12....       LCALL     ?ALLOC_XSTACK8
   \   00000A   EA           MOV       A,R2
   \   00000B   FE           MOV       R6,A
   \   00000C   EB           MOV       A,R3
   \   00000D   FF           MOV       R7,A
    777            APSME_TransportKeyReq_t req;
    778            uint8                   initExtAddr[Z_EXTADDR_LEN];
    779            uint16                  partNwkAddr;
    780            uint8                   key[SEC_KEY_LEN];
    781          
    782          
    783            // validate initiator and partner
    784            if ( ( APSME_LookupNwkAddr( ind->partExtAddr, &partNwkAddr ) == TRUE ) &&
    785                 ( APSME_LookupExtAddr( ind->srcAddr, initExtAddr ) == TRUE      )   )
   \   00000E   EA           MOV       A,R2
   \   00000F   2405         ADD       A,#0x5
   \   000011   F5..         MOV       ?V0,A
   \   000013   E4           CLR       A
   \   000014   3F           ADDC      A,R7
   \   000015   F5..         MOV       ?V1,A
   \   000017                ; Setup parameters for call to function APSME_LookupNwkAddr
   \   000017   AC..         MOV       R4,?XSP + 0
   \   000019   AD..         MOV       R5,?XSP + 1
   \   00001B   AA..         MOV       R2,?V0
   \   00001D   12....       LCALL     ?Subroutine61 & 0xFFFF
   \                     ??CrossCallReturnLabel_95:
   \   000020   6003         JZ        $+5
   \   000022   02....       LJMP      ??ZDSecMgrAppKeyReq_0 & 0xFFFF
   \   000025   12....       LCALL     ?Subroutine54 & 0xFFFF
   \                     ??CrossCallReturnLabel_89:
   \   000028                ; Setup parameters for call to function APSME_LookupExtAddr
   \   000028   740F         MOV       A,#0xf
   \   00002A   12....       LCALL     ?XSTACK_DISP102_8
   \   00002D   12....       LCALL     ?Subroutine37 & 0xFFFF
   \                     ??CrossCallReturnLabel_57:
   \   000030   6003         JZ        $+5
   \   000032   02....       LJMP      ??ZDSecMgrAppKeyReq_0 & 0xFFFF
    786            {
    787              // point the key to some memory
    788              req.key = key;
   \   000035   7417         MOV       A,#0x17
   \   000037   12....       LCALL     ?XSTACK_DISP100_8
   \   00003A   7406         MOV       A,#0x6
   \   00003C   12....       LCALL     ?XSTACK_DISP0_8
   \   00003F   12....       LCALL     ??Subroutine84_0 & 0xFFFF
    789          
    790              // get an APP key - option APP (MASTER or LINK) key
    791              if ( ZDSecMgrAppKeyGet( ind->srcAddr,
    792                                      initExtAddr,
    793                                      partNwkAddr,
    794                                      ind->partExtAddr,
    795                                      &req.key,
    796                                      &req.keyType ) == ZSuccess )
   \                     ??CrossCallReturnLabel_164:
   \   000042                ; Setup parameters for call to function ZDSecMgrAppKeyGet
   \   000042   7404         MOV       A,#0x4
   \   000044   12....       LCALL     ?XSTACK_DISP0_8
   \   000047   8582..       MOV       ?V2,DPL
   \   00004A   8583..       MOV       ?V3,DPH
   \   00004D   78..         MOV       R0,#?V2
   \   00004F   12....       LCALL     ?PUSH_XSTACK_I_TWO
   \   000052   7408         MOV       A,#0x8
   \   000054   12....       LCALL     ?XSTACK_DISP0_8
   \   000057   8582..       MOV       ?V2,DPL
   \   00005A   8583..       MOV       ?V3,DPH
   \   00005D   78..         MOV       R0,#?V2
   \   00005F   12....       LCALL     ?PUSH_XSTACK_I_TWO
   \   000062   78..         MOV       R0,#?V0
   \   000064   12....       LCALL     ?PUSH_XSTACK_I_TWO
   \   000067   7406         MOV       A,#0x6
   \   000069   12....       LCALL     ?XSTACK_DISP0_8
   \   00006C   12....       LCALL     ?PUSH_XSTACK8_X_TWO
   \   00006F   7417         MOV       A,#0x17
   \   000071   12....       LCALL     ?XSTACK_DISP102_8
   \   000074   8E82         MOV       DPL,R6
   \   000076   8F83         MOV       DPH,R7
   \   000078   12....       LCALL     ??Subroutine80_0 & 0xFFFF
   \                     ??CrossCallReturnLabel_140:
   \   00007B   12....       LCALL     `??ZDSecMgrAppKeyGet::?relay`; Banked call to: ZDSecMgrAppKeyGet
   \   00007E   7408         MOV       A,#0x8
   \   000080   12....       LCALL     ?DEALLOC_XSTACK8
   \   000083   E9           MOV       A,R1
   \   000084   706A         JNZ       ??ZDSecMgrAppKeyReq_0
    797              {
    798                // always secure
    799                req.nwkSecure = TRUE;
   \   000086   740C         MOV       A,#0xc
   \   000088   12....       LCALL     ?XSTACK_DISP0_8
   \   00008B   7401         MOV       A,#0x1
   \   00008D   F0           MOVX      @DPTR,A
    800                req.apsSecure = TRUE;
   \   00008E   740B         MOV       A,#0xb
   \   000090   12....       LCALL     ?XSTACK_DISP0_8
   \   000093   7401         MOV       A,#0x1
   \   000095   F0           MOVX      @DPTR,A
    801                req.tunnel    = NULL;
   \   000096   740D         MOV       A,#0xd
   \   000098   12....       LCALL     ?XSTACK_DISP0_8
   \   00009B   12....       LCALL     ?Subroutine14 & 0xFFFF
    802          
    803                // send key to initiator device
    804                req.dstAddr   = ind->srcAddr;
   \                     ??CrossCallReturnLabel_12:
   \   00009E   7402         MOV       A,#0x2
   \   0000A0   12....       LCALL     ?XSTACK_DISP0_8
   \   0000A3   12....       LCALL     ??Subroutine84_0 & 0xFFFF
    805                req.extAddr   = ind->partExtAddr;
   \                     ??CrossCallReturnLabel_165:
   \   0000A6   7408         MOV       A,#0x8
   \   0000A8   12....       LCALL     ?XSTACK_DISP0_8
   \   0000AB   E5..         MOV       A,?V0
   \   0000AD   F0           MOVX      @DPTR,A
   \   0000AE   A3           INC       DPTR
   \   0000AF   E5..         MOV       A,?V1
   \   0000B1   F0           MOVX      @DPTR,A
    806                req.initiator = TRUE;
   \   0000B2   740A         MOV       A,#0xa
   \   0000B4   12....       LCALL     ?XSTACK_DISP0_8
   \   0000B7   7401         MOV       A,#0x1
   \   0000B9   F0           MOVX      @DPTR,A
    807                APSME_TransportKeyReq( &req );
   \   0000BA                ; Setup parameters for call to function APSME_TransportKeyReq
   \   0000BA   04           INC       A
   \   0000BB   12....       LCALL     ?XSTACK_DISP101_8
   \   0000BE   12....       LCALL     `??APSME_TransportKeyReq::?relay`; Banked call to: APSME_TransportKeyReq
    808          
    809                // send key to partner device
    810                req.dstAddr   = partNwkAddr;
   \   0000C1   12....       LCALL     ?Subroutine30 & 0xFFFF
   \                     ??CrossCallReturnLabel_194:
   \   0000C4   7402         MOV       A,#0x2
   \   0000C6   12....       LCALL     ?XSTACK_DISP0_8
   \   0000C9   12....       LCALL     ??Subroutine84_0 & 0xFFFF
    811                req.extAddr   = initExtAddr;
   \                     ??CrossCallReturnLabel_166:
   \   0000CC   740F         MOV       A,#0xf
   \   0000CE   12....       LCALL     ?XSTACK_DISP100_8
   \   0000D1   7408         MOV       A,#0x8
   \   0000D3   12....       LCALL     ?XSTACK_DISP0_8
   \   0000D6   12....       LCALL     ??Subroutine84_0 & 0xFFFF
    812                req.initiator = FALSE;
   \                     ??CrossCallReturnLabel_167:
   \   0000D9   740A         MOV       A,#0xa
   \   0000DB   12....       LCALL     ?XSTACK_DISP0_8
   \   0000DE   E4           CLR       A
   \   0000DF   F0           MOVX      @DPTR,A
    813          
    814                APSME_TransportKeyReq( &req );
   \   0000E0                ; Setup parameters for call to function APSME_TransportKeyReq
   \   0000E0   7402         MOV       A,#0x2
   \   0000E2   12....       LCALL     ?XSTACK_DISP101_8
   \   0000E5   12....       LCALL     ?Subroutine62 & 0xFFFF
    815          
    816                // clear copy of key in RAM
    817                osal_memset( key, 0x00, SEC_KEY_LEN);
    818          
    819              }
    820            }
   \                     ??CrossCallReturnLabel_98:
   \   0000E8   7417         MOV       A,#0x17
   \   0000EA   12....       LCALL     ?XSTACK_DISP101_8
   \   0000ED   12....       LCALL     `??osal_memset::?relay`; Banked call to: osal_memset
    821          }
   \                     ??ZDSecMgrAppKeyReq_0:
   \   0000F0   7427         MOV       A,#0x27
   \   0000F2   02....       LJMP      ?Subroutine3 & 0xFFFF

   \                                 In  segment BANKED_CODE, align 1, keep-with-next
   \                     ?Subroutine62:
   \   000000   12....       LCALL     `??APSME_TransportKeyReq::?relay`; Banked call to: APSME_TransportKeyReq
   \   000003                ; Setup parameters for call to function osal_memset
   \   000003                ; Setup parameters for call to function osal_memset
   \   000003   7C10         MOV       R4,#0x10
   \   000005   7D00         MOV       R5,#0x0
   \   000007   7900         MOV       R1,#0x0
   \   000009   22           RET

   \                                 In  segment BANKED_CODE, align 1, keep-with-next
   \                     ?Subroutine61:
   \   000000   FB           MOV       R3,A
   \   000001   12....       LCALL     `??APSME_LookupNwkAddr::?relay`; Banked call to: APSME_LookupNwkAddr
   \   000004   E9           MOV       A,R1
   \   000005   6401         XRL       A,#0x1
   \   000007   22           RET

   \                                 In  segment BANKED_CODE, align 1, keep-with-next
   \                     ?Subroutine54:
   \   000000   EE           MOV       A,R6
   \   000001   2402         ADD       A,#0x2
   \   000003   E4           CLR       A
   \   000004   3F           ADDC      A,R7
   \   000005   F9           MOV       R1,A
   \   000006   0E           INC       R6
   \   000007   0E           INC       R6
   \   000008   FF           MOV       R7,A
   \   000009   22           RET

   \                                 In  segment BANKED_CODE, align 1, keep-with-next
   \                     ?Subroutine37:
   \   000000   8E82         MOV       DPL,R6
   \   000002   8983         MOV       DPH,R1
   \   000004   12....       LCALL     ?Subroutine69 & 0xFFFF
   \                     ??CrossCallReturnLabel_152:
   \   000007   12....       LCALL     `??APSME_LookupExtAddr::?relay`; Banked call to: APSME_LookupExtAddr
   \   00000A   E9           MOV       A,R1
   \   00000B   6401         XRL       A,#0x1
   \   00000D   22           RET

   \                                 In  segment BANKED_CODE, align 1, keep-with-next
   \                     ?Subroutine14:
   \   000000   E4           CLR       A
   \   000001   F0           MOVX      @DPTR,A
   \   000002   A3           INC       DPTR
   \   000003   F0           MOVX      @DPTR,A
   \   000004   8E82         MOV       DPL,R6
   \   000006   8F83         MOV       DPH,R7
   \   000008   12....       LCALL     ?Subroutine73 & 0xFFFF
   \                     ??CrossCallReturnLabel_196:
   \   00000B   22           RET

   \                                 In  segment BANKED_CODE, align 1, keep-with-next
   \                     ?Subroutine3:
   \   000000   12....       LCALL     ?DEALLOC_XSTACK8
   \   000003                REQUIRE ??Subroutine91_0
   \   000003                ; // Fall through to label ??Subroutine91_0

   \                                 In  segment BANKED_CODE, align 1, keep-with-next
   \                     ??Subroutine91_0:
   \   000000   7F04         MOV       R7,#0x4
   \   000002   02....       LJMP      ?BANKED_LEAVE_XDATA
    822          
    823          /******************************************************************************
    824           * @fn          ZDSecMgrTclkReq
    825           *
    826           * @brief       Process request for TCLK.
    827           *
    828           * @param       device - [in] ZDO_RequestKeyInd_t, request info
    829           *
    830           * @return      none
    831           */

   \                                 In  segment BANKED_CODE, align 1, keep-with-next
    832          void ZDSecMgrTclkReq( ZDO_RequestKeyInd_t* ind )
   \                     ZDSecMgrTclkReq:
    833          {
   \   000000                REQUIRE ?V0
   \   000000                REQUIRE ?V1
   \   000000   74F6         MOV       A,#-0xa
   \   000002   12....       LCALL     ?BANKED_ENTER_XDATA
   \   000005                ; Saved register size: 10
   \   000005                ; Auto size: 59
   \   000005   74C5         MOV       A,#-0x3b
   \   000007   12....       LCALL     ?ALLOC_XSTACK8
   \   00000A   EA           MOV       A,R2
   \   00000B   FE           MOV       R6,A
   \   00000C   EB           MOV       A,R3
   \   00000D   FF           MOV       R7,A
    834            APSME_TransportKeyReq_t req;
    835            uint8                   initExtAddr[Z_EXTADDR_LEN];
    836            uint16                  partNwkAddr;
    837            uint8                   key[SEC_KEY_LEN];
    838            APSME_TCLKDevEntry_t    TCLKDevEntry;
    839            uint8                   found;
    840              
    841            // validate initiator and partner
    842            if ( ( ( APSME_LookupNwkAddr( ind->partExtAddr, &partNwkAddr ) == TRUE ) || ( ind->keyType != KEY_TYPE_APP_MASTER ) ) &&
    843                 (   APSME_LookupExtAddr( ind->srcAddr, initExtAddr )      == TRUE ) )
   \   00000E                ; Setup parameters for call to function APSME_LookupNwkAddr
   \   00000E   7401         MOV       A,#0x1
   \   000010   12....       LCALL     ?XSTACK_DISP102_8
   \   000013   EA           MOV       A,R2
   \   000014   2405         ADD       A,#0x5
   \   000016   FA           MOV       R2,A
   \   000017   E4           CLR       A
   \   000018   3F           ADDC      A,R7
   \   000019   12....       LCALL     ?Subroutine61 & 0xFFFF
   \                     ??CrossCallReturnLabel_96:
   \   00001C   6010         JZ        ??ZDSecMgrTclkReq_0
   \   00001E   8E82         MOV       DPL,R6
   \   000020   8F83         MOV       DPH,R7
   \   000022   A3           INC       DPTR
   \   000023   A3           INC       DPTR
   \   000024   A3           INC       DPTR
   \   000025   A3           INC       DPTR
   \   000026   E0           MOVX      A,@DPTR
   \   000027   6402         XRL       A,#0x2
   \   000029   7003         JNZ       $+5
   \   00002B   02....       LJMP      ??ZDSecMgrTclkReq_1 & 0xFFFF
   \                     ??ZDSecMgrTclkReq_0:
   \   00002E   12....       LCALL     ?Subroutine54 & 0xFFFF
   \                     ??CrossCallReturnLabel_90:
   \   000031                ; Setup parameters for call to function APSME_LookupExtAddr
   \   000031   7410         MOV       A,#0x10
   \   000033   12....       LCALL     ?XSTACK_DISP102_8
   \   000036   12....       LCALL     ?Subroutine37 & 0xFFFF
   \                     ??CrossCallReturnLabel_58:
   \   000039   6003         JZ        $+5
   \   00003B   02....       LJMP      ??ZDSecMgrTclkReq_1 & 0xFFFF
    844            {
    845              // point the key to some memory
    846              req.key = key;
   \   00003E   742B         MOV       A,#0x2b
   \   000040   12....       LCALL     ?XSTACK_DISP100_8
   \   000043   7407         MOV       A,#0x7
   \   000045   12....       LCALL     ?XSTACK_DISP0_8
   \   000048   12....       LCALL     ??Subroutine84_0 & 0xFFFF
    847          
    848              //Search for the entry
    849              APSME_SearchTCLinkKeyEntry(initExtAddr,&found, &TCLKDevEntry);
   \                     ??CrossCallReturnLabel_168:
   \   00004B                ; Setup parameters for call to function APSME_SearchTCLinkKeyEntry
   \   00004B   7418         MOV       A,#0x18
   \   00004D   12....       LCALL     ?XSTACK_DISP100_8
   \   000050   88..         MOV       ?V0,R0
   \   000052   89..         MOV       ?V1,R1
   \   000054   78..         MOV       R0,#?V0
   \   000056   12....       LCALL     ?PUSH_XSTACK_I_TWO
   \   000059   7402         MOV       A,#0x2
   \   00005B   12....       LCALL     ?XSTACK_DISP102_8
   \   00005E   7412         MOV       A,#0x12
   \   000060   12....       LCALL     ?XSTACK_DISP101_8
   \   000063   12....       LCALL     ??Subroutine81_0 & 0xFFFF
   \                     ??CrossCallReturnLabel_157:
   \   000066   12....       LCALL     ?DEALLOC_XSTACK8
    850          
    851              //If found, generate the key accordingly to the key attribute
    852              if(found)
   \   000069   85..82       MOV       DPL,?XSP + 0
   \   00006C   85..83       MOV       DPH,?XSP + 1
   \   00006F   E0           MOVX      A,@DPTR
   \   000070   6065         JZ        ??ZDSecMgrTclkReq_1
    853              {
    854                //Generate key from the seed, which would be the unique key
    855                ZDSecMgrGenerateKeyFromSeed(TCLKDevEntry.extAddr,TCLKDevEntry.SeedShift_IcIndex,req.key);
   \   000072                ; Setup parameters for call to function ZDSecMgrGenerateKeyFromSeed
   \   000072   7407         MOV       A,#0x7
   \   000074   12....       LCALL     ?XSTACK_DISP0_8
   \   000077   12....       LCALL     ?Subroutine36 & 0xFFFF
   \                     ??CrossCallReturnLabel_54:
   \   00007A   742A         MOV       A,#0x2a
   \   00007C   12....       LCALL     ?XSTACK_DISP0_8
   \   00007F   E0           MOVX      A,@DPTR
   \   000080   F9           MOV       R1,A
   \   000081   7420         MOV       A,#0x20
   \   000083   12....       LCALL     ?XSTACK_DISP0_8
   \   000086   AA82         MOV       R2,DPL
   \   000088   AB83         MOV       R3,DPH
   \   00008A   12....       LCALL     `??ZDSecMgrGenerateKeyFromSeed::?relay`; Banked call to: ZDSecMgrGenerateKeyFromSeed
    856              
    857                // always secure
    858                req.nwkSecure = TRUE;
   \   00008D   740D         MOV       A,#0xd
   \   00008F   12....       LCALL     ?XSTACK_DISP0_8
   \   000092   7401         MOV       A,#0x1
   \   000094   F0           MOVX      @DPTR,A
    859                req.apsSecure = TRUE;
   \   000095   740C         MOV       A,#0xc
   \   000097   12....       LCALL     ?XSTACK_DISP0_8
   \   00009A   7401         MOV       A,#0x1
   \   00009C   F0           MOVX      @DPTR,A
    860                req.tunnel    = NULL;
   \   00009D   740E         MOV       A,#0xe
   \   00009F   12....       LCALL     ?XSTACK_DISP0_8
   \   0000A2   12....       LCALL     ?Subroutine14 & 0xFFFF
    861          
    862                // send key to initiator device
    863                req.dstAddr   = ind->srcAddr;
   \                     ??CrossCallReturnLabel_13:
   \   0000A5   7403         MOV       A,#0x3
   \   0000A7   12....       LCALL     ?XSTACK_DISP0_8
   \   0000AA   12....       LCALL     ??Subroutine84_0 & 0xFFFF
    864                req.extAddr   = initExtAddr;
   \                     ??CrossCallReturnLabel_169:
   \   0000AD   7410         MOV       A,#0x10
   \   0000AF   12....       LCALL     ?XSTACK_DISP100_8
   \   0000B2   7409         MOV       A,#0x9
   \   0000B4   12....       LCALL     ?XSTACK_DISP0_8
   \   0000B7   12....       LCALL     ?Subroutine18 & 0xFFFF
    865                req.initiator = TRUE;
   \                     ??CrossCallReturnLabel_21:
   \   0000BA   12....       LCALL     ?XSTACK_DISP0_8
   \   0000BD   7401         MOV       A,#0x1
   \   0000BF   F0           MOVX      @DPTR,A
    866                req.keyType   = KEY_TYPE_TC_LINK;
   \   0000C0   7405         MOV       A,#0x5
   \   0000C2   12....       LCALL     ?XSTACK_DISP0_8
   \   0000C5   7404         MOV       A,#0x4
   \   0000C7   F0           MOVX      @DPTR,A
    867                  
    868                APSME_TransportKeyReq( &req );
   \   0000C8                ; Setup parameters for call to function APSME_TransportKeyReq
   \   0000C8   14           DEC       A
   \   0000C9   12....       LCALL     ?XSTACK_DISP101_8
   \   0000CC   12....       LCALL     ?Subroutine62 & 0xFFFF
    869                  
    870                // clear copy of key in RAM
    871                osal_memset( key, 0x00, SEC_KEY_LEN);
    872              
    873              }
    874            }
   \                     ??CrossCallReturnLabel_99:
   \   0000CF   742B         MOV       A,#0x2b
   \   0000D1   12....       LCALL     ?XSTACK_DISP101_8
   \   0000D4   12....       LCALL     `??osal_memset::?relay`; Banked call to: osal_memset
    875          }
   \                     ??ZDSecMgrTclkReq_1:
   \   0000D7   743B         MOV       A,#0x3b
   \   0000D9   02....       LJMP      ?Subroutine4 & 0xFFFF

   \                                 In  segment BANKED_CODE, align 1, keep-with-next
   \                     ?Subroutine18:
   \   000000   E8           MOV       A,R0
   \   000001   F0           MOVX      @DPTR,A
   \   000002   A3           INC       DPTR
   \   000003   E9           MOV       A,R1
   \   000004   F0           MOVX      @DPTR,A
   \   000005                ; Setup parameters for call to function APSME_GetRequest
   \   000005   740B         MOV       A,#0xb
   \   000007   22           RET

   \                                 In  segment BANKED_CODE, align 1, keep-with-next
   \                     ??Subroutine81_0:
   \   000000   12....       LCALL     `??APSME_SearchTCLinkKeyEntry::?relay`; Banked call to: APSME_SearchTCLinkKeyEntry
   \   000003   7402         MOV       A,#0x2
   \   000005   22           RET

   \                                 In  segment BANKED_CODE, align 1, keep-with-next
   \                     ?Subroutine4:
   \   000000   12....       LCALL     ?DEALLOC_XSTACK8
   \   000003                REQUIRE ??Subroutine89_0
   \   000003                ; // Fall through to label ??Subroutine89_0

   \                                 In  segment BANKED_CODE, align 1, keep-with-next
   \                     ??Subroutine89_0:
   \   000000   7F02         MOV       R7,#0x2
   \   000002   02....       LJMP      ?BANKED_LEAVE_XDATA
    876          
    877          /******************************************************************************
    878           * @fn          ZDSecMgrAppConfKeyReq
    879           *
    880           * @brief       Process request for APP key between two devices.
    881           *
    882           * @param       device - [in] ZDO_VerifyKeyInd_t, request info
    883           *
    884           * @return      none
    885           */

   \                                 In  segment BANKED_CODE, align 1, keep-with-next
    886          void ZDSecMgrAppConfKeyReq( ZDO_VerifyKeyInd_t* ind )
   \                     ZDSecMgrAppConfKeyReq:
    887          {
   \   000000                ; Saved register size: 0
   \   000000                ; Auto size: 0
    888            APSME_ConfirmKeyReq_t   req;
    889          
    890            // send key to initiator device
    891            req.dstAddr      = ind->srcAddr;
    892            req.status       = ind->verifyKeyStatus;
    893            req.dstExtAddr   = ind->extAddr;
    894            req.keyType      = ind->keyType;
    895          
    896            if ( ( ZSTACK_DEVICE_BUILD & DEVICE_BUILD_COORDINATOR ) != 0 )
    897            {
    898              APSME_ConfirmKeyReq( &req );
    899            }
    900            
    901          }
   \   000000   02....       LJMP      ?BRET
    902          
    903          
    904          /******************************************************************************
    905           * @fn          ZDSecMgrSendNwkKey
    906           *
    907           * @brief       Send NWK key to device joining network.
    908           *
    909           * @param       device - [in] ZDSecMgrDevice_t, device info
    910           *
    911           * @return      ZStatus_t
    912           */

   \                                 In  segment BANKED_CODE, align 1, keep-with-next
    913          ZStatus_t ZDSecMgrSendNwkKey( ZDSecMgrDevice_t* device )
   \                     ZDSecMgrSendNwkKey:
    914          {
   \   000000                REQUIRE ?V0
   \   000000                REQUIRE ?V1
   \   000000                REQUIRE ?V2
   \   000000                REQUIRE ?V3
   \   000000   74F4         MOV       A,#-0xc
   \   000002   12....       LCALL     ?BANKED_ENTER_XDATA
   \   000005                ; Saved register size: 12
   \   000005                ; Auto size: 34
   \   000005   74DE         MOV       A,#-0x22
   \   000007   12....       LCALL     ?ALLOC_XSTACK8
   \   00000A   EA           MOV       A,R2
   \   00000B   FE           MOV       R6,A
   \   00000C   EB           MOV       A,R3
   \   00000D   FF           MOV       R7,A
    915            ZStatus_t status;
    916            APSME_TransportKeyReq_t req;
    917            APSDE_FrameTunnel_t tunnel;
    918            nwkKeyDesc tmpKey;
    919          
    920            req.dstAddr   = device->nwkAddr;
   \   00000E   8A82         MOV       DPL,R2
   \   000010   F583         MOV       DPH,A
   \   000012   12....       LCALL     ??Subroutine85_0 & 0xFFFF
   \                     ??CrossCallReturnLabel_184:
   \   000015   7404         MOV       A,#0x4
   \   000017   12....       LCALL     ?XSTACK_DISP0_8
   \   00001A   12....       LCALL     ??Subroutine84_0 & 0xFFFF
    921            req.extAddr   = device->extAddr;
   \                     ??CrossCallReturnLabel_170:
   \   00001D   EA           MOV       A,R2
   \   00001E   12....       LCALL     ?Subroutine53 & 0xFFFF
   \                     ??CrossCallReturnLabel_88:
   \   000021   8882         MOV       DPL,R0
   \   000023   F583         MOV       DPH,A
   \   000025   12....       LCALL     ??Subroutine85_0 & 0xFFFF
   \                     ??CrossCallReturnLabel_185:
   \   000028   740A         MOV       A,#0xa
   \   00002A   12....       LCALL     ?XSTACK_DISP0_8
   \   00002D   12....       LCALL     ??Subroutine84_0 & 0xFFFF
    922          
    923            req.keyType   = KEY_TYPE_NWK;
   \                     ??CrossCallReturnLabel_171:
   \   000030   7406         MOV       A,#0x6
   \   000032   12....       LCALL     ?XSTACK_DISP0_8
   \   000035   7401         MOV       A,#0x1
   \   000037   F0           MOVX      @DPTR,A
    924          
    925            // get the Active Key into a local variable
    926            if ( NLME_ReadNwkKeyInfo( 0, sizeof(tmpKey), &tmpKey,
    927                                     ZCD_NV_NWK_ACTIVE_KEY_INFO ) != SUCCESS )
   \   000038                ; Setup parameters for call to function NLME_ReadNwkKeyInfo
   \   000038   75..3A       MOV       ?V2,#0x3a
   \   00003B   75..00       MOV       ?V3,#0x0
   \   00003E   78..         MOV       R0,#?V2
   \   000040   12....       LCALL     ?PUSH_XSTACK_I_TWO
   \   000043   7413         MOV       A,#0x13
   \   000045   12....       LCALL     ?XSTACK_DISP100_8
   \   000048   88..         MOV       ?V2,R0
   \   00004A   89..         MOV       ?V3,R1
   \   00004C   78..         MOV       R0,#?V2
   \   00004E   12....       LCALL     ?PUSH_XSTACK_I_TWO
   \   000051   7C11         MOV       R4,#0x11
   \   000053   7D00         MOV       R5,#0x0
   \   000055   7A00         MOV       R2,#0x0
   \   000057   7B00         MOV       R3,#0x0
   \   000059   12....       LCALL     `??NLME_ReadNwkKeyInfo::?relay`; Banked call to: NLME_ReadNwkKeyInfo
   \   00005C   7404         MOV       A,#0x4
   \   00005E   12....       LCALL     ?DEALLOC_XSTACK8
   \   000061   E9           MOV       A,R1
   \   000062   600D         JZ        ??ZDSecMgrSendNwkKey_0
    928            {
    929              // set key data to all 0s if NV read fails
    930              osal_memset(&tmpKey, 0x00, sizeof(tmpKey));
   \   000064                ; Setup parameters for call to function osal_memset
   \   000064   7C11         MOV       R4,#0x11
   \   000066   7D00         MOV       R5,#0x0
   \   000068   7900         MOV       R1,#0x0
   \   00006A   EC           MOV       A,R4
   \   00006B   12....       LCALL     ?XSTACK_DISP101_8
   \   00006E   12....       LCALL     `??osal_memset::?relay`; Banked call to: osal_memset
    931            }
    932          
    933            if ( ZG_CHECK_SECURITY_MODE == ZG_SECURITY_SE_STANDARD )
    934            {
    935              // set values
    936              req.keySeqNum = tmpKey.keySeqNum;
   \                     ??ZDSecMgrSendNwkKey_0:
   \   000071   7411         MOV       A,#0x11
   \   000073   12....       LCALL     ?XSTACK_DISP0_8
   \   000076   E0           MOVX      A,@DPTR
   \   000077   C0E0         PUSH      A
   \   000079   7407         MOV       A,#0x7
   \   00007B   12....       LCALL     ?XSTACK_DISP0_8
   \   00007E   D0E0         POP       A
   \   000080   F0           MOVX      @DPTR,A
    937              req.key       = tmpKey.key;
   \   000081   7412         MOV       A,#0x12
   \   000083   12....       LCALL     ?XSTACK_DISP0_8
   \   000086   A882         MOV       R0,DPL
   \   000088   A983         MOV       R1,DPH
   \   00008A   7408         MOV       A,#0x8
   \   00008C   12....       LCALL     ?XSTACK_DISP0_8
   \   00008F   12....       LCALL     ??Subroutine84_0 & 0xFFFF
    938          
    939              //devtag.pro.security.todo - make sure that if there is no link key the NWK
    940              //key isn't used to secure the frame at the APS layer -- since the receiving
    941              //device may not have a NWK key yet
    942              req.apsSecure = TRUE;
   \                     ??CrossCallReturnLabel_172:
   \   000092   740D         MOV       A,#0xd
   \   000094   12....       LCALL     ?XSTACK_DISP0_8
   \   000097   7401         MOV       A,#0x1
   \   000099   F0           MOVX      @DPTR,A
    943          
    944              // check if using secure hop to parent
    945              if ( device->parentAddr == NLME_GetShortAddr() )
   \   00009A                ; Setup parameters for call to function NLME_GetShortAddr
   \   00009A   12....       LCALL     `??NLME_GetShortAddr::?relay`; Banked call to: NLME_GetShortAddr
   \   00009D   EE           MOV       A,R6
   \   00009E   2404         ADD       A,#0x4
   \   0000A0   F8           MOV       R0,A
   \   0000A1   E4           CLR       A
   \   0000A2   3F           ADDC      A,R7
   \   0000A3   F9           MOV       R1,A
   \   0000A4   8882         MOV       DPL,R0
   \   0000A6   F583         MOV       DPH,A
   \   0000A8   E0           MOVX      A,@DPTR
   \   0000A9   6A           XRL       A,R2
   \   0000AA   7003         JNZ       ??ZDSecMgrSendNwkKey_1
   \   0000AC   A3           INC       DPTR
   \   0000AD   E0           MOVX      A,@DPTR
   \   0000AE   6B           XRL       A,R3
   \                     ??ZDSecMgrSendNwkKey_1:
   \   0000AF   7011         JNZ       ??ZDSecMgrSendNwkKey_2
    946              {
    947                req.nwkSecure = FALSE;
   \   0000B1   740E         MOV       A,#0xe
   \   0000B3   12....       LCALL     ?XSTACK_DISP0_8
   \   0000B6   E4           CLR       A
   \   0000B7   F0           MOVX      @DPTR,A
    948                req.tunnel    = NULL;
   \   0000B8   740F         MOV       A,#0xf
   \   0000BA   12....       LCALL     ?XSTACK_DISP0_8
   \   0000BD   E4           CLR       A
   \   0000BE   F0           MOVX      @DPTR,A
   \   0000BF   A3           INC       DPTR
   \   0000C0   802C         SJMP      ??ZDSecMgrSendNwkKey_3
    949              }
    950              else
    951              {
    952                req.nwkSecure   = TRUE;
   \                     ??ZDSecMgrSendNwkKey_2:
   \   0000C2   740E         MOV       A,#0xe
   \   0000C4   12....       LCALL     ?XSTACK_DISP0_8
   \   0000C7   7401         MOV       A,#0x1
   \   0000C9   F0           MOVX      @DPTR,A
    953                req.tunnel      = &tunnel;
   \   0000CA   740F         MOV       A,#0xf
   \   0000CC   12....       LCALL     ?XSTACK_DISP0_8
   \   0000CF   E5..         MOV       A,?XSP + 0
   \   0000D1   F0           MOVX      @DPTR,A
   \   0000D2   A3           INC       DPTR
   \   0000D3   E5..         MOV       A,?XSP + 1
   \   0000D5   12....       LCALL     ?Subroutine16 & 0xFFFF
    954                req.tunnel->tna = device->parentAddr;
    955                req.tunnel->dea = device->extAddr;
    956              }
    957            }
   \                     ??CrossCallReturnLabel_16:
   \   0000D8   85..82       MOV       DPL,?XSP + 0
   \   0000DB   85..83       MOV       DPH,?XSP + 1
   \   0000DE   12....       LCALL     ?Subroutine15 & 0xFFFF
   \                     ??CrossCallReturnLabel_14:
   \   0000E1   F8           MOV       R0,A
   \   0000E2   A3           INC       DPTR
   \   0000E3   E0           MOVX      A,@DPTR
   \   0000E4   F9           MOV       R1,A
   \   0000E5   7402         MOV       A,#0x2
   \   0000E7   12....       LCALL     ?XSTACK_DISP0_8
   \   0000EA   E8           MOV       A,R0
   \   0000EB   F0           MOVX      @DPTR,A
   \   0000EC   A3           INC       DPTR
   \   0000ED   E9           MOV       A,R1
   \                     ??ZDSecMgrSendNwkKey_3:
   \   0000EE   F0           MOVX      @DPTR,A
    958            else
    959            {
    960              // default values
    961              //devtag.0604.verify
    962              req.nwkSecure = TRUE;
    963              req.apsSecure = FALSE;
    964              req.tunnel    = NULL;
    965          
    966              if ( device->parentAddr != NLME_GetShortAddr() )
    967              {
    968                req.dstAddr = device->parentAddr;
    969              }
    970          
    971              // send the real key
    972              if ( zgPreConfigKeys == FALSE )
    973              {
    974                req.keySeqNum = tmpKey.keySeqNum;
    975                req.key       = tmpKey.key;
    976          
    977                // check if using secure hop to to parent
    978                if ( device->parentAddr == NLME_GetShortAddr() )
    979                {
    980                  req.nwkSecure = FALSE;
    981                }
    982              }
    983              else
    984              {
    985                // this is to send the all zero key when the NWK key has been preconfigured
    986                req.key       = NULL;
    987                req.keySeqNum = 0;
    988              }
    989            }
    990          
    991            status = APSME_TransportKeyReq( &req );
   \   0000EF                ; Setup parameters for call to function APSME_TransportKeyReq
   \   0000EF   7404         MOV       A,#0x4
   \   0000F1   12....       LCALL     ?XSTACK_DISP101_8
   \   0000F4   12....       LCALL     `??APSME_TransportKeyReq::?relay`; Banked call to: APSME_TransportKeyReq
   \   0000F7   E9           MOV       A,R1
   \   0000F8   FE           MOV       R6,A
    992          
    993            // clear copy of key in RAM before return
    994            osal_memset( &tmpKey, 0x00, sizeof(nwkKeyDesc) );
   \   0000F9                ; Setup parameters for call to function osal_memset
   \   0000F9   7C11         MOV       R4,#0x11
   \   0000FB   7D00         MOV       R5,#0x0
   \   0000FD   7900         MOV       R1,#0x0
   \   0000FF   EC           MOV       A,R4
   \   000100   12....       LCALL     ?XSTACK_DISP101_8
   \   000103   12....       LCALL     `??osal_memset::?relay`; Banked call to: osal_memset
    995          
    996            return status;
   \   000106   EE           MOV       A,R6
   \   000107   F9           MOV       R1,A
   \   000108   7422         MOV       A,#0x22
   \   00010A   02....       LJMP      ?Subroutine3 & 0xFFFF
    997          }

   \                                 In  segment BANKED_CODE, align 1, keep-with-next
   \                     ?Subroutine16:
   \   000000   F0           MOVX      @DPTR,A
   \   000001   8882         MOV       DPL,R0
   \   000003   8983         MOV       DPH,R1
   \   000005   12....       LCALL     ?Subroutine73 & 0xFFFF
   \                     ??CrossCallReturnLabel_197:
   \   000008   22           RET

   \                                 In  segment BANKED_CODE, align 1, keep-with-next
   \                     ?Subroutine15:
   \   000000   E8           MOV       A,R0
   \   000001   F0           MOVX      @DPTR,A
   \   000002   A3           INC       DPTR
   \   000003   E9           MOV       A,R1
   \   000004   F0           MOVX      @DPTR,A
   \   000005                ; Setup parameters for call to function osal_memcpy
   \   000005   85..82       MOV       DPL,?V0
   \   000008   85..83       MOV       DPH,?V1
   \   00000B   E0           MOVX      A,@DPTR
   \   00000C   22           RET
    998          
    999          /******************************************************************************
   1000           * @fn          ZDSecMgrDeviceRemoveByExtAddr
   1001           *
   1002           * @brief       Remove device entry by its ext address.
   1003           *
   1004           * @param       pAddr - pointer to the extended address
   1005           *
   1006           * @return      ZStatus_t
   1007           */

   \                                 In  segment BANKED_CODE, align 1, keep-with-next
   1008          ZStatus_t ZDSecMgrDeviceRemoveByExtAddr( uint8 *pAddr )
   \                     ZDSecMgrDeviceRemoveByExtAddr:
   1009          {
   \   000000   74F7         MOV       A,#-0x9
   \   000002   12....       LCALL     ?BANKED_ENTER_XDATA
   \   000005                ; Saved register size: 9
   \   000005                ; Auto size: 2
   \   000005   74FE         MOV       A,#-0x2
   \   000007   12....       LCALL     ?ALLOC_XSTACK8
   1010            ZDSecMgrEntry_t *pEntry;
   1011            uint8           retValue;
   1012          
   1013            retValue = (uint8)ZDSecMgrEntryLookupExt( pAddr, &pEntry );
   \   00000A                ; Setup parameters for call to function ZDSecMgrEntryLookupExt
   \   00000A   AC..         MOV       R4,?XSP + 0
   \   00000C   AD..         MOV       R5,?XSP + 1
   \   00000E   12....       LCALL     `??ZDSecMgrEntryLookupExt::?relay`; Banked call to: ZDSecMgrEntryLookupExt
   \   000011   E9           MOV       A,R1
   \   000012   FE           MOV       R6,A
   1014          
   1015            if( retValue == ZSuccess )
   \   000013   700C         JNZ       ??ZDSecMgrDeviceRemoveByExtAddr_0
   1016            {
   1017              // remove device from entry data
   1018              ZDSecMgrEntryFree( pEntry );
   \   000015                ; Setup parameters for call to function ZDSecMgrEntryFree
   \   000015   85..82       MOV       DPL,?XSP + 0
   \   000018   85..83       MOV       DPH,?XSP + 1
   \   00001B   12....       LCALL     ??Subroutine80_0 & 0xFFFF
   1019            }
   \                     ??CrossCallReturnLabel_141:
   \   00001E   12....       LCALL     `??ZDSecMgrEntryFree::?relay`; Banked call to: ZDSecMgrEntryFree
   1020          
   1021            return retValue;
   \                     ??ZDSecMgrDeviceRemoveByExtAddr_0:
   \   000021   EE           MOV       A,R6
   \   000022   F9           MOV       R1,A
   \   000023                REQUIRE ?Subroutine7
   \   000023                ; // Fall through to label ?Subroutine7
   1022          }
   1023          
   1024          /******************************************************************************
   1025           * @fn          ZDSecMgrDeviceRemove
   1026           *
   1027           * @brief       Remove device from network.
   1028           *
   1029           * @param       device - [in] ZDSecMgrDevice_t, device info
   1030           *
   1031           * @return      none
   1032           */

   \                                 In  segment BANKED_CODE, align 1, keep-with-next
   1033          void ZDSecMgrDeviceRemove( ZDSecMgrDevice_t* device )
   \                     ZDSecMgrDeviceRemove:
   1034          {
   \   000000                REQUIRE ?V0
   \   000000                REQUIRE ?V1
   \   000000   74F6         MOV       A,#-0xa
   \   000002   12....       LCALL     ?BANKED_ENTER_XDATA
   \   000005                ; Saved register size: 10
   \   000005                ; Auto size: 19
   \   000005   74ED         MOV       A,#-0x13
   \   000007   12....       LCALL     ?ALLOC_XSTACK8
   \   00000A   EA           MOV       A,R2
   \   00000B   FE           MOV       R6,A
   \   00000C   EB           MOV       A,R3
   \   00000D   FF           MOV       R7,A
   1035            APSME_RemoveDeviceReq_t remDevReq;
   1036            NLME_LeaveReq_t         leaveReq;
   1037            associated_devices_t*   assoc;
   1038            uint8 TC_ExtAddr[Z_EXTADDR_LEN];
   1039          
   1040            // check if parent, remove the device
   1041            if ( device->parentAddr == NLME_GetShortAddr() )
   \   00000E                ; Setup parameters for call to function NLME_GetShortAddr
   \   00000E   12....       LCALL     `??NLME_GetShortAddr::?relay`; Banked call to: NLME_GetShortAddr
   \   000011   8A..         MOV       ?V0,R2
   \   000013   8B..         MOV       ?V1,R3
   \   000015   8E82         MOV       DPL,R6
   \   000017   8F83         MOV       DPH,R7
   \   000019   A3           INC       DPTR
   \   00001A   A3           INC       DPTR
   \   00001B   A3           INC       DPTR
   \   00001C   A3           INC       DPTR
   \   00001D   12....       LCALL     ??Subroutine80_0 & 0xFFFF
   \                     ??CrossCallReturnLabel_142:
   \   000020   EE           MOV       A,R6
   \   000021   2402         ADD       A,#0x2
   \   000023   F8           MOV       R0,A
   \   000024   E4           CLR       A
   \   000025   3F           ADDC      A,R7
   \   000026   F9           MOV       R1,A
   \   000027   E5..         MOV       A,?V0
   \   000029   6A           XRL       A,R2
   \   00002A   7003         JNZ       ??ZDSecMgrDeviceRemove_0
   \   00002C   E5..         MOV       A,?V1
   \   00002E   6B           XRL       A,R3
   \                     ??ZDSecMgrDeviceRemove_0:
   \   00002F   6003         JZ        $+5
   \   000031   02....       LJMP      ??ZDSecMgrDeviceRemove_1 & 0xFFFF
   1042            {
   1043              // this is the parent of the device
   1044              leaveReq.extAddr        = device->extAddr;
   \   000034   8882         MOV       DPL,R0
   \   000036   8983         MOV       DPH,R1
   \   000038   12....       LCALL     ??Subroutine80_0 & 0xFFFF
   \                     ??CrossCallReturnLabel_143:
   \   00003B   7401         MOV       A,#0x1
   \   00003D   12....       LCALL     ?XSTACK_DISP0_8
   \   000040   12....       LCALL     ?Subroutine13 & 0xFFFF
   1045              leaveReq.removeChildren = FALSE;
   \                     ??CrossCallReturnLabel_10:
   \   000043   12....       LCALL     ?XSTACK_DISP0_8
   \   000046   E4           CLR       A
   \   000047   F0           MOVX      @DPTR,A
   1046              leaveReq.rejoin         = FALSE;
   \   000048   7404         MOV       A,#0x4
   \   00004A   12....       LCALL     ?XSTACK_DISP0_8
   \   00004D   E4           CLR       A
   \   00004E   12....       LCALL     ?Subroutine23 & 0xFFFF
   1047          
   1048              // find child association
   1049              assoc = AssocGetWithExt( device->extAddr );
   \                     ??CrossCallReturnLabel_26:
   \   000051   FA           MOV       R2,A
   \   000052   A3           INC       DPTR
   \   000053   E0           MOVX      A,@DPTR
   \   000054   FB           MOV       R3,A
   \   000055   12....       LCALL     `??AssocGetWithExt::?relay`; Banked call to: AssocGetWithExt
   \   000058   8B..         MOV       ?V1,R3
   \   00005A   A9..         MOV       R1,?V1
   1050          
   1051              if ( ( assoc != NULL                            ) &&
   1052                   ( assoc->nodeRelation >= CHILD_RFD         ) &&
   1053                   ( assoc->nodeRelation <= CHILD_FFD_RX_IDLE )    )
   \   00005C   EA           MOV       A,R2
   \   00005D   49           ORL       A,R1
   \   00005E   6030         JZ        ??ZDSecMgrDeviceRemove_2
   \   000060   8A82         MOV       DPL,R2
   \   000062   8B83         MOV       DPH,R3
   \   000064   A3           INC       DPTR
   \   000065   A3           INC       DPTR
   \   000066   A3           INC       DPTR
   \   000067   A3           INC       DPTR
   \   000068   E0           MOVX      A,@DPTR
   \   000069   6025         JZ        ??ZDSecMgrDeviceRemove_2
   \   00006B   C3           CLR       C
   \   00006C   9405         SUBB      A,#0x5
   \   00006E   5020         JNC       ??ZDSecMgrDeviceRemove_2
   1054              {
   1055                // check if associated device is authenticated
   1056                if ( assoc->devStatus & DEV_SEC_AUTH_STATUS )
   \   000070   8A82         MOV       DPL,R2
   \   000072   8B83         MOV       DPH,R3
   \   000074   A3           INC       DPTR
   \   000075   A3           INC       DPTR
   \   000076   A3           INC       DPTR
   \   000077   A3           INC       DPTR
   \   000078   A3           INC       DPTR
   \   000079   E0           MOVX      A,@DPTR
   \   00007A   A2E3         MOV       C,0xE0 /* A   */.3
   \   00007C   7405         MOV       A,#0x5
   \   00007E   5006         JNC       ??ZDSecMgrDeviceRemove_3
   1057                {
   1058                  leaveReq.silent = FALSE;
   \   000080   12....       LCALL     ?XSTACK_DISP0_8
   \   000083   E4           CLR       A
   \   000084   8005         SJMP      ??ZDSecMgrDeviceRemove_4
   1059                }
   1060                else
   1061                {
   1062                  leaveReq.silent = TRUE;
   \                     ??ZDSecMgrDeviceRemove_3:
   \   000086   12....       LCALL     ?XSTACK_DISP0_8
   \   000089   7401         MOV       A,#0x1
   \                     ??ZDSecMgrDeviceRemove_4:
   \   00008B   F0           MOVX      @DPTR,A
   1063                }
   1064          
   1065                NLME_LeaveReq( &leaveReq );
   \   00008C                ; Setup parameters for call to function NLME_LeaveReq
   \   00008C   7401         MOV       A,#0x1
   \   00008E   8029         SJMP      ??ZDSecMgrDeviceRemove_5
   1066              }
   1067              else if ( device->nwkAddr == NLME_GetShortAddr() )
   \                     ??ZDSecMgrDeviceRemove_2:
   \   000090                ; Setup parameters for call to function NLME_GetShortAddr
   \   000090   12....       LCALL     `??NLME_GetShortAddr::?relay`; Banked call to: NLME_GetShortAddr
   \   000093   8A..         MOV       ?V0,R2
   \   000095   8B..         MOV       ?V1,R3
   \   000097   A8..         MOV       R0,?V0
   \   000099   A9..         MOV       R1,?V1
   \   00009B   8E82         MOV       DPL,R6
   \   00009D   8F83         MOV       DPH,R7
   \   00009F   E0           MOVX      A,@DPTR
   \   0000A0   68           XRL       A,R0
   \   0000A1   7003         JNZ       ??ZDSecMgrDeviceRemove_6
   \   0000A3   A3           INC       DPTR
   \   0000A4   E0           MOVX      A,@DPTR
   \   0000A5   69           XRL       A,R1
   \                     ??ZDSecMgrDeviceRemove_6:
   \   0000A6   7076         JNZ       ??ZDSecMgrDeviceRemove_7
   1068              {
   1069                // this is when ZC wants that ZR removes itself from the network
   1070                leaveReq.extAddr = NULL;
   \   0000A8   7401         MOV       A,#0x1
   \   0000AA   12....       LCALL     ?XSTACK_DISP0_8
   \   0000AD   E4           CLR       A
   \   0000AE   F0           MOVX      @DPTR,A
   \   0000AF   A3           INC       DPTR
   \   0000B0   F0           MOVX      @DPTR,A
   1071                leaveReq.silent = FALSE;
   \   0000B1   7405         MOV       A,#0x5
   \   0000B3   12....       LCALL     ?XSTACK_DISP0_8
   \   0000B6   E4           CLR       A
   \   0000B7   F0           MOVX      @DPTR,A
   1072          
   1073                NLME_LeaveReq( &leaveReq );
   \   0000B8                ; Setup parameters for call to function NLME_LeaveReq
   \   0000B8   04           INC       A
   \                     ??ZDSecMgrDeviceRemove_5:
   \   0000B9   12....       LCALL     ?XSTACK_DISP101_8
   \   0000BC   12....       LCALL     `??NLME_LeaveReq::?relay`; Banked call to: NLME_LeaveReq
   \   0000BF   805D         SJMP      ??ZDSecMgrDeviceRemove_7
   1074              }
   1075            }
   1076            else
   1077            {
   1078              // this is not the parent of the device
   1079              remDevReq.parentAddr   = device->parentAddr;
   \                     ??ZDSecMgrDeviceRemove_1:
   \   0000C1   7406         MOV       A,#0x6
   \   0000C3   12....       LCALL     ?XSTACK_DISP0_8
   \   0000C6   EA           MOV       A,R2
   \   0000C7   F0           MOVX      @DPTR,A
   \   0000C8   A3           INC       DPTR
   \   0000C9   EB           MOV       A,R3
   \   0000CA   12....       LCALL     ?Subroutine16 & 0xFFFF
   1080              remDevReq.childExtAddr = device->extAddr;
   \                     ??CrossCallReturnLabel_17:
   \   0000CD   7408         MOV       A,#0x8
   \   0000CF   12....       LCALL     ?XSTACK_DISP0_8
   \   0000D2   12....       LCALL     ?Subroutine18 & 0xFFFF
   1081          
   1082              if ( ZG_CHECK_SECURITY_MODE == ZG_SECURITY_SE_STANDARD )
   1083              {
   1084                uint8 found;
   1085                APSME_GetRequest( apsTrustCenterAddress,0, TC_ExtAddr );
   \                     ??CrossCallReturnLabel_22:
   \   0000D5   12....       LCALL     ?XSTACK_DISP102_8
   \   0000D8   12....       LCALL     ?Subroutine60 & 0xFFFF
   1086                
   1087                APSME_SearchTCLinkKeyEntry(TC_ExtAddr,&found,NULL);
   \                     ??CrossCallReturnLabel_93:
   \   0000DB   12....       LCALL     ?PUSH_XSTACK_I_TWO
   \   0000DE   7402         MOV       A,#0x2
   \   0000E0   12....       LCALL     ?XSTACK_DISP102_8
   \   0000E3   740D         MOV       A,#0xd
   \   0000E5   12....       LCALL     ?XSTACK_DISP101_8
   \   0000E8   12....       LCALL     ??Subroutine81_0 & 0xFFFF
   \                     ??CrossCallReturnLabel_158:
   \   0000EB   12....       LCALL     ?DEALLOC_XSTACK8
   1088                
   1089                // For ZG_GLOBAL_LINK_KEY the message has to be sent twice, one
   1090                // APS un-encrypted and one APS encrypted, to make sure that it can interoperate
   1091                // with legacy Coordinator devices which can only handle one or the other.
   1092          #if defined ( APP_TP2_TEST_MODE )
   1093                if ( ( zgApsLinkKeyType == ZG_GLOBAL_LINK_KEY ) && ( found == FALSE ) && ( guTxApsSecON != TRUE ) )
   1094          #else
   1095                if ( ( zgApsLinkKeyType == ZG_GLOBAL_LINK_KEY ) && ( found == FALSE ) )
   \   0000EE   90....       MOV       DPTR,#zgApsLinkKeyType
   \   0000F1   E0           MOVX      A,@DPTR
   \   0000F2   6401         XRL       A,#0x1
   \   0000F4   7018         JNZ       ??ZDSecMgrDeviceRemove_8
   \   0000F6   85..82       MOV       DPL,?XSP + 0
   \   0000F9   85..83       MOV       DPH,?XSP + 1
   \   0000FC   E0           MOVX      A,@DPTR
   \   0000FD   700F         JNZ       ??ZDSecMgrDeviceRemove_8
   1096          #endif
   1097                {
   1098                  remDevReq.apsSecure = FALSE;
   \   0000FF   740A         MOV       A,#0xa
   \   000101   12....       LCALL     ?XSTACK_DISP0_8
   \   000104   E4           CLR       A
   \   000105   F0           MOVX      @DPTR,A
   1099          
   1100                  APSME_RemoveDeviceReq( &remDevReq );
   \   000106                ; Setup parameters for call to function APSME_RemoveDeviceReq
   \   000106   7406         MOV       A,#0x6
   \   000108   12....       LCALL     ?XSTACK_DISP101_8
   \   00010B   12....       LCALL     `??APSME_RemoveDeviceReq::?relay`; Banked call to: APSME_RemoveDeviceReq
   1101                }
   1102          
   1103          #if defined ( APP_TP2_TEST_MODE )
   1104                if ( guTxApsSecON != FALSE )
   1105                {
   1106                  remDevReq.apsSecure = TRUE;
   1107          
   1108                  APSME_RemoveDeviceReq( &remDevReq );
   1109                }
   1110          #else
   1111                remDevReq.apsSecure = TRUE;
   \                     ??ZDSecMgrDeviceRemove_8:
   \   00010E   740A         MOV       A,#0xa
   \   000110   12....       LCALL     ?XSTACK_DISP0_8
   \   000113   7401         MOV       A,#0x1
   \   000115   F0           MOVX      @DPTR,A
   1112          
   1113                APSME_RemoveDeviceReq( &remDevReq );
   \   000116                ; Setup parameters for call to function APSME_RemoveDeviceReq
   \   000116   7406         MOV       A,#0x6
   \   000118   12....       LCALL     ?XSTACK_DISP101_8
   \   00011B   12....       LCALL     `??APSME_RemoveDeviceReq::?relay`; Banked call to: APSME_RemoveDeviceReq
   1114          #endif
   1115              }
   1116              else
   1117              {
   1118                remDevReq.apsSecure = FALSE;
   1119          
   1120                APSME_RemoveDeviceReq( &remDevReq );
   1121              }
   1122            }
   1123          }
   \                     ??ZDSecMgrDeviceRemove_7:
   \   00011E   7413         MOV       A,#0x13
   \   000120   02....       LJMP      ?Subroutine4 & 0xFFFF

   \                                 In  segment BANKED_CODE, align 1, keep-with-next
   \                     ?Subroutine60:
   \   000000   7A00         MOV       R2,#0x0
   \   000002   7B00         MOV       R3,#0x0
   \   000004   79AB         MOV       R1,#-0x55
   \   000006   12....       LCALL     `??APSME_GetRequest::?relay`; Banked call to: APSME_GetRequest
   \   000009                ; Setup parameters for call to function APSME_SearchTCLinkKeyEntry
   \   000009                ; Setup parameters for call to function APSME_SearchTCLinkKeyEntry
   \   000009   E4           CLR       A
   \   00000A   F5..         MOV       ?V0,A
   \   00000C   F5..         MOV       ?V1,A
   \   00000E   78..         MOV       R0,#?V0
   \   000010   22           RET

   \                                 In  segment BANKED_CODE, align 1, keep-with-next
   \                     ?Subroutine23:
   \   000000   F0           MOVX      @DPTR,A
   \   000001                ; Setup parameters for call to function AssocGetWithExt
   \   000001   8882         MOV       DPL,R0
   \   000003   8983         MOV       DPH,R1
   \   000005   E0           MOVX      A,@DPTR
   \   000006   22           RET
   1124          
   1125          /******************************************************************************
   1126           * @fn          ZDSecMgrDeviceValidateRM (RESIDENTIAL MODE)
   1127           *
   1128           * @brief       Decide whether device is allowed.
   1129           *
   1130           * @param       device - [in] ZDSecMgrDevice_t, device info
   1131           *
   1132           * @return      ZStatus_t
   1133           */

   \                                 In  segment BANKED_CODE, align 1, keep-with-next
   1134          ZStatus_t ZDSecMgrDeviceValidateRM( ZDSecMgrDevice_t* device )
   \                     ZDSecMgrDeviceValidateRM:
   1135          {
   \   000000   C082         PUSH      DPL
   \   000002   C083         PUSH      DPH
   \   000004                ; Saved register size: 2
   \   000004                ; Auto size: 0
   1136            ZStatus_t status;
   1137          
   1138            status = ZSuccess;
   \   000004   7900         MOV       R1,#0x0
   1139          
   1140            (void)device;  // Intentionally unreferenced parameter
   1141          
   1142            // For test purpose, turning off the zgSecurePermitJoin flag will force
   1143            // the trust center to reject any newly joining devices by sending
   1144            // Remove-device to the parents.
   1145            if ( zgSecurePermitJoin == FALSE )
   \   000006   90....       MOV       DPTR,#zgSecurePermitJoin
   \   000009   E0           MOVX      A,@DPTR
   \   00000A   7002         JNZ       ??ZDSecMgrDeviceValidateRM_0
   1146            {
   1147              status = ZNwkUnknownDevice;
   \   00000C   79C8         MOV       R1,#-0x38
   1148            }
   1149          
   1150          
   1151          
   1152          #if 0  // Taken out because the following functionality is only used for test
   1153                 // purpose. A more efficient (above) way is used. It can be put
   1154                 // back in if customers request for a white/black list feature.
   1155                 // ZDSecMgrStoredDeviceList[] is defined in ZDSecMgr.c
   1156          
   1157            // The following code processes the device black list (stored device list)
   1158            // If the joining device is not part of the forbidden device list
   1159            // Return ZSuccess. Otherwise, return ZNwkUnknownDevice. The trust center
   1160            // will send Remove-device and ban the device from joining.
   1161          
   1162            uint8     index;
   1163            uint8*    restricted;
   1164          
   1165            // Look through the stored device list - used for restricted devices
   1166            for ( index = 0; index < ZDSECMGR_STORED_DEVICES; index++ )
   1167            {
   1168              restricted = ZDSecMgrStoredDeviceList[index];
   1169          
   1170              if ( AddrMgrExtAddrEqual( restricted, device->extAddr )  == TRUE )
   1171              {
   1172                // return as unknown device in regards to validation
   1173                status = ZNwkUnknownDevice;
   1174          
   1175                // break from loop
   1176                index = ZDSECMGR_STORED_DEVICES;
   1177              }
   1178            }
   1179          
   1180          #endif
   1181          
   1182            return status;
   \                     ??ZDSecMgrDeviceValidateRM_0:
   \   00000E   02....       LJMP      ??Subroutine83_0 & 0xFFFF
   1183          }
   1184          
   1185          /******************************************************************************
   1186           * @fn          ZDSecMgrDeviceValidate
   1187           *
   1188           * @brief       Decide whether device is allowed.
   1189           *
   1190           * @param       device - [in] ZDSecMgrDevice_t, device info
   1191           *
   1192           * @return      ZStatus_t
   1193           */

   \                                 In  segment BANKED_CODE, align 1, keep-with-next
   1194          ZStatus_t ZDSecMgrDeviceValidate( ZDSecMgrDevice_t* device )
   \                     ZDSecMgrDeviceValidate:
   1195          {
   \   000000   C082         PUSH      DPL
   \   000002   C083         PUSH      DPH
   \   000004                ; Saved register size: 2
   \   000004                ; Auto size: 0
   1196            ZStatus_t status;
   1197          
   1198            if ( ZDSecMgrPermitJoiningEnabled == TRUE )
   \   000004   90....       MOV       DPTR,#ZDSecMgrPermitJoiningEnabled
   \   000007   E0           MOVX      A,@DPTR
   \   000008   6401         XRL       A,#0x1
   \   00000A   7007         JNZ       ??ZDSecMgrDeviceValidate_0
   1199            {
   1200              status = ZDSecMgrDeviceValidateRM( device );
   \   00000C                ; Setup parameters for call to function ZDSecMgrDeviceValidateRM
   \   00000C   12....       LCALL     `??ZDSecMgrDeviceValidateRM::?relay`; Banked call to: ZDSecMgrDeviceValidateRM
   \   00000F   E9           MOV       A,R1
   \   000010   F9           MOV       R1,A
   \   000011   8002         SJMP      ??ZDSecMgrDeviceValidate_1
   1201            }
   1202            else
   1203            {
   1204              status = ZNwkUnknownDevice;
   \                     ??ZDSecMgrDeviceValidate_0:
   \   000013   79C8         MOV       R1,#-0x38
   1205            }
   1206          
   1207            return status;
   \                     ??ZDSecMgrDeviceValidate_1:
   \   000015   02....       LJMP      ??Subroutine83_0 & 0xFFFF
   1208          }
   1209          
   1210          /******************************************************************************
   1211           * @fn          ZDSecMgrDeviceJoin
   1212           *
   1213           * @brief       Try to join this device.
   1214           *
   1215           * @param       device - [in] ZDSecMgrDevice_t, device info
   1216           *
   1217           * @return      ZStatus_t
   1218           */

   \                                 In  segment BANKED_CODE, align 1, keep-with-next
   1219          ZStatus_t ZDSecMgrDeviceJoin( ZDSecMgrDevice_t* device )
   \                     ZDSecMgrDeviceJoin:
   1220          {
   \   000000                REQUIRE ?V0
   \   000000                REQUIRE ?V1
   \   000000                REQUIRE ?V2
   \   000000                REQUIRE ?V3
   \   000000                REQUIRE ?V4
   \   000000                REQUIRE ?V6
   \   000000                REQUIRE ?V7
   \   000000   74F0         MOV       A,#-0x10
   \   000002   12....       LCALL     ?BANKED_ENTER_XDATA
   \   000005                ; Saved register size: 16
   \   000005                ; Auto size: 14
   \   000005   74F2         MOV       A,#-0xe
   \   000007   12....       LCALL     ?ALLOC_XSTACK8
   \   00000A   EA           MOV       A,R2
   \   00000B   FE           MOV       R6,A
   \   00000C   EB           MOV       A,R3
   \   00000D   FF           MOV       R7,A
   1221            ZStatus_t status = ZSuccess;
   \   00000E   75..00       MOV       ?V4,#0x0
   1222            uint16    ami;
   1223          
   1224            // attempt to validate device that joined/rejoined without security
   1225            if ( device->secure == FALSE )
   \   000011   EA           MOV       A,R2
   \   000012   2402         ADD       A,#0x2
   \   000014   F5..         MOV       ?V0,A
   \   000016   E4           CLR       A
   \   000017   3F           ADDC      A,R7
   \   000018   F5..         MOV       ?V1,A
   \   00001A   EA           MOV       A,R2
   \   00001B   2406         ADD       A,#0x6
   \   00001D   F8           MOV       R0,A
   \   00001E   E4           CLR       A
   \   00001F   3F           ADDC      A,R7
   \   000020   88..         MOV       ?V2,R0
   \   000022   F5..         MOV       ?V3,A
   \   000024   8882         MOV       DPL,R0
   \   000026   F583         MOV       DPH,A
   \   000028   E0           MOVX      A,@DPTR
   \   000029   7008         JNZ       ??ZDSecMgrDeviceJoin_0
   1226            {
   1227              status = ZDSecMgrDeviceValidate( device );
   \   00002B                ; Setup parameters for call to function ZDSecMgrDeviceValidate
   \   00002B   12....       LCALL     `??ZDSecMgrDeviceValidate::?relay`; Banked call to: ZDSecMgrDeviceValidate
   \   00002E   E9           MOV       A,R1
   \   00002F   F5..         MOV       ?V4,A
   1228            }
   1229          
   1230            if ( status == ZSuccess )
   \   000031   7050         JNZ       ??ZDSecMgrDeviceJoin_1
   1231            {
   1232              // Add the device to the address manager
   1233              ZDSecMgrAddrStore( device->nwkAddr, device->extAddr, &ami );
   \                     ??ZDSecMgrDeviceJoin_0:
   \   000033                ; Setup parameters for call to function ZDSecMgrAddrStore
   \   000033   A8..         MOV       R0,?XSP + 0
   \   000035   A9..         MOV       R1,?XSP + 1
   \   000037   88..         MOV       ?V6,R0
   \   000039   89..         MOV       ?V7,R1
   \   00003B   78..         MOV       R0,#?V6
   \   00003D   12....       LCALL     ?PUSH_XSTACK_I_TWO
   \   000040   85..82       MOV       DPL,?V0
   \   000043   85..83       MOV       DPH,?V1
   \   000046   12....       LCALL     ?Subroutine36 & 0xFFFF
   \                     ??CrossCallReturnLabel_55:
   \   000049   8E82         MOV       DPL,R6
   \   00004B   8F83         MOV       DPH,R7
   \   00004D   12....       LCALL     ??Subroutine80_0 & 0xFFFF
   \                     ??CrossCallReturnLabel_144:
   \   000050   12....       LCALL     ?Subroutine63 & 0xFFFF
   \                     ??CrossCallReturnLabel_100:
   \   000053   12....       LCALL     ?DEALLOC_XSTACK8
   1234          
   1235              // Only send the key to devices that have not been authenticated
   1236              if ( ( device->devStatus & DEV_SEC_INIT_STATUS ) &&
   1237                   ( device->secure == FALSE ) )
   \   000056   8E82         MOV       DPL,R6
   \   000058   8F83         MOV       DPH,R7
   \   00005A   A3           INC       DPTR
   \   00005B   A3           INC       DPTR
   \   00005C   A3           INC       DPTR
   \   00005D   A3           INC       DPTR
   \   00005E   A3           INC       DPTR
   \   00005F   A3           INC       DPTR
   \   000060   A3           INC       DPTR
   \   000061   E0           MOVX      A,@DPTR
   \   000062   A2E2         MOV       C,0xE0 /* A   */.2
   \   000064   501D         JNC       ??ZDSecMgrDeviceJoin_1
   \   000066   85..82       MOV       DPL,?V2
   \   000069   85..83       MOV       DPH,?V3
   \   00006C   E0           MOVX      A,@DPTR
   \   00006D   7014         JNZ       ??ZDSecMgrDeviceJoin_1
   1238              {
   1239                //send the nwk key data to the joining device
   1240                status = ZDSecMgrSendNwkKey( device );
   \   00006F                ; Setup parameters for call to function ZDSecMgrSendNwkKey
   \   00006F   EE           MOV       A,R6
   \   000070   FA           MOV       R2,A
   \   000071   EF           MOV       A,R7
   \   000072   FB           MOV       R3,A
   \   000073   12....       LCALL     `??ZDSecMgrSendNwkKey::?relay`; Banked call to: ZDSecMgrSendNwkKey
   \   000076   E9           MOV       A,R1
   \   000077   F5..         MOV       ?V4,A
   1241              }
   1242          
   1243              if ( status != ZSuccess )
   \   000079   6015         JZ        ??ZDSecMgrDeviceJoin_2
   1244              {
   1245                ZDSecMgrAddrClear( device->extAddr );
   \   00007B                ; Setup parameters for call to function ZDSecMgrAddrClear
   \   00007B   12....       LCALL     ?Subroutine40 & 0xFFFF
   1246              }
   1247            }
   \                     ??CrossCallReturnLabel_148:
   \   00007E   12....       LCALL     `??ZDSecMgrAddrClear::?relay`; Banked call to: ZDSecMgrAddrClear
   \   000081   8004         SJMP      ??ZDSecMgrDeviceJoin_3
   1248          
   1249            if ( status != ZSuccess )
   \                     ??ZDSecMgrDeviceJoin_1:
   \   000083   E5..         MOV       A,?V4
   \   000085   6009         JZ        ??ZDSecMgrDeviceJoin_2
   1250            {
   1251              // not allowed or transport key failed, remove the device
   1252              ZDSecMgrDeviceRemove( device );
   \                     ??ZDSecMgrDeviceJoin_3:
   \   000087                ; Setup parameters for call to function ZDSecMgrDeviceRemove
   \   000087   EE           MOV       A,R6
   \   000088   FA           MOV       R2,A
   \   000089   EF           MOV       A,R7
   \   00008A   FB           MOV       R3,A
   \   00008B   12....       LCALL     `??ZDSecMgrDeviceRemove::?relay`; Banked call to: ZDSecMgrDeviceRemove
   \   00008E   8059         SJMP      ??ZDSecMgrDeviceJoin_4
   1253            }
   1254            else
   1255            {
   1256              // Pass the Trust Center Device Indication to higher layer if callback registered
   1257              if (zdoCBFunc[ZDO_TC_DEVICE_CBID] != NULL )
   \                     ??ZDSecMgrDeviceJoin_2:
   \   000090   90....       MOV       DPTR,#zdoCBFunc + 16
   \   000093   12....       LCALL     ??Subroutine86_0 & 0xFFFF
   \                     ??CrossCallReturnLabel_205:
   \   000096   6051         JZ        ??ZDSecMgrDeviceJoin_4
   1258              {
   1259                ZDO_TC_Device_t dev;
   1260          
   1261                dev.nwkAddr = device->nwkAddr;
   \   000098   8E82         MOV       DPL,R6
   \   00009A   8F83         MOV       DPH,R7
   \   00009C   12....       LCALL     ??Subroutine85_0 & 0xFFFF
   \                     ??CrossCallReturnLabel_186:
   \   00009F   7402         MOV       A,#0x2
   \   0000A1   12....       LCALL     ?XSTACK_DISP0_8
   \   0000A4   12....       LCALL     ?Subroutine15 & 0xFFFF
   1262                osal_memcpy( dev.extAddr, device->extAddr, Z_EXTADDR_LEN );
   \                     ??CrossCallReturnLabel_15:
   \   0000A7   F5..         MOV       ?V0,A
   \   0000A9   A3           INC       DPTR
   \   0000AA   E0           MOVX      A,@DPTR
   \   0000AB   F5..         MOV       ?V1,A
   \   0000AD   75..00       MOV       ?V2,#0x0
   \   0000B0   78..         MOV       R0,#?V0
   \   0000B2   12....       LCALL     ?PUSH_XSTACK_I_THREE
   \   0000B5   7C08         MOV       R4,#0x8
   \   0000B7   7D00         MOV       R5,#0x0
   \   0000B9   7407         MOV       A,#0x7
   \   0000BB   12....       LCALL     ?XSTACK_DISP0_8
   \   0000BE   AA82         MOV       R2,DPL
   \   0000C0   AB83         MOV       R3,DPH
   \   0000C2   12....       LCALL     ??Subroutine103_0 & 0xFFFF
   \                     ??CrossCallReturnLabel_278:
   \   0000C5   12....       LCALL     ?DEALLOC_XSTACK8
   1263                dev.parentAddr = device->parentAddr;
   \   0000C8   8E82         MOV       DPL,R6
   \   0000CA   8F83         MOV       DPH,R7
   \   0000CC   A3           INC       DPTR
   \   0000CD   A3           INC       DPTR
   \   0000CE   A3           INC       DPTR
   \   0000CF   A3           INC       DPTR
   \   0000D0   12....       LCALL     ??Subroutine85_0 & 0xFFFF
   \                     ??CrossCallReturnLabel_187:
   \   0000D3   740C         MOV       A,#0xc
   \   0000D5   12....       LCALL     ?XSTACK_DISP0_8
   \   0000D8   12....       LCALL     ??Subroutine84_0 & 0xFFFF
   1264          
   1265                zdoCBFunc[ZDO_TC_DEVICE_CBID]( (void*)&dev );
   \                     ??CrossCallReturnLabel_173:
   \   0000DB                ; Setup parameters for indirect call
   \   0000DB   7402         MOV       A,#0x2
   \   0000DD   12....       LCALL     ?XSTACK_DISP101_8
   \   0000E0   90....       MOV       DPTR,#zdoCBFunc + 16
   \   0000E3   12....       LCALL     ?Subroutine34 & 0xFFFF
   1266              }
   1267            }
   \                     ??CrossCallReturnLabel_48:
   \   0000E6   12....       LCALL     ?CALL_IND
   1268                
   1269                
   1270          
   1271            return status;
   \                     ??ZDSecMgrDeviceJoin_4:
   \   0000E9   A9..         MOV       R1,?V4
   \   0000EB   740E         MOV       A,#0xe
   \   0000ED   02....       LJMP      ?Subroutine1 & 0xFFFF
   1272          }

   \                                 In  segment BANKED_CODE, align 1, keep-with-next
   \                     ?Subroutine63:
   \   000000   12....       LCALL     `??ZDSecMgrAddrStore::?relay`; Banked call to: ZDSecMgrAddrStore
   \   000003   7402         MOV       A,#0x2
   \   000005   22           RET

   \                                 In  segment BANKED_CODE, align 1, keep-with-next
   \                     ??Subroutine103_0:
   \   000000   12....       LCALL     `??osal_memcpy::?relay`; Banked call to: osal_memcpy
   \   000003   7403         MOV       A,#0x3
   \   000005   22           RET
   1273          
   1274          /******************************************************************************
   1275           * @fn          ZDSecMgrDeviceJoinDirect
   1276           *
   1277           * @brief       Try to join this device as a direct child.
   1278           *
   1279           * @param       device - [in] ZDSecMgrDevice_t, device info
   1280           *
   1281           * @return      ZStatus_t
   1282           */

   \                                 In  segment BANKED_CODE, align 1, keep-with-next
   1283          ZStatus_t ZDSecMgrDeviceJoinDirect( ZDSecMgrDevice_t* device )
   \                     ZDSecMgrDeviceJoinDirect:
   1284          {
   \   000000                REQUIRE ?V0
   \   000000                REQUIRE ?V1
   \   000000                REQUIRE ?V2
   \   000000                REQUIRE ?V3
   \   000000   74F4         MOV       A,#-0xc
   \   000002   12....       LCALL     ?BANKED_ENTER_XDATA
   \   000005                ; Saved register size: 12
   \   000005                ; Auto size: 20
   \   000005   74EC         MOV       A,#-0x14
   \   000007   12....       LCALL     ?ALLOC_XSTACK8
   \   00000A   EA           MOV       A,R2
   \   00000B   FE           MOV       R6,A
   \   00000C   EB           MOV       A,R3
   \   00000D   FF           MOV       R7,A
   1285            ZStatus_t status;
   1286            
   1287            if(device->secure == FALSE)
   \   00000E   8A82         MOV       DPL,R2
   \   000010   F583         MOV       DPH,A
   \   000012   A3           INC       DPTR
   \   000013   A3           INC       DPTR
   \   000014   A3           INC       DPTR
   \   000015   A3           INC       DPTR
   \   000016   A3           INC       DPTR
   \   000017   A3           INC       DPTR
   \   000018   E0           MOVX      A,@DPTR
   \   000019   6003         JZ        $+5
   \   00001B   02....       LJMP      ??ZDSecMgrDeviceJoinDirect_0 & 0xFFFF
   1288            {  
   1289              uint8  found;
   1290              uint16 keyNvIndex;
   1291              APSME_TCLKDevEntry_t TCLKDevEntry;
   1292              
   1293              keyNvIndex = APSME_SearchTCLinkKeyEntry(device->extAddr,&found, &TCLKDevEntry);
   \   00001E                ; Setup parameters for call to function APSME_SearchTCLinkKeyEntry
   \   00001E   7401         MOV       A,#0x1
   \   000020   12....       LCALL     ?XSTACK_DISP100_8
   \   000023   88..         MOV       ?V0,R0
   \   000025   89..         MOV       ?V1,R1
   \   000027   78..         MOV       R0,#?V0
   \   000029   12....       LCALL     ?PUSH_XSTACK_I_TWO
   \   00002C   7402         MOV       A,#0x2
   \   00002E   12....       LCALL     ?XSTACK_DISP102_8
   \   000031   8A82         MOV       DPL,R2
   \   000033   8B83         MOV       DPH,R3
   \   000035   A3           INC       DPTR
   \   000036   A3           INC       DPTR
   \   000037   12....       LCALL     ??Subroutine80_0 & 0xFFFF
   \                     ??CrossCallReturnLabel_145:
   \   00003A   12....       LCALL     ??Subroutine81_0 & 0xFFFF
   \                     ??CrossCallReturnLabel_159:
   \   00003D   12....       LCALL     ?DEALLOC_XSTACK8
   1294              
   1295              //If found and it was verified, then allow it to join in a fresh state by erasing the key entry
   1296              if((found == TRUE) && (TCLKDevEntry.keyAttributes == ZG_VERIFIED_KEY))
   \   000040   85..82       MOV       DPL,?XSP + 0
   \   000043   85..83       MOV       DPH,?XSP + 1
   \   000046   E0           MOVX      A,@DPTR
   \   000047   6401         XRL       A,#0x1
   \   000049   7065         JNZ       ??ZDSecMgrDeviceJoinDirect_0
   \   00004B   7411         MOV       A,#0x11
   \   00004D   12....       LCALL     ?XSTACK_DISP0_8
   \   000050   E0           MOVX      A,@DPTR
   \   000051   6402         XRL       A,#0x2
   \   000053   705B         JNZ       ??ZDSecMgrDeviceJoinDirect_0
   1297              {
   1298                uint16 index;
   1299                TCLKDevEntry.keyAttributes = ZG_DEFAULT_KEY;
   \   000055   74FF         MOV       A,#-0x1
   \   000057   F0           MOVX      @DPTR,A
   1300                //Increase the shift by one. Validate the maximum shift of the seed which is 15
   1301                TCLKDevEntry.SeedShift_IcIndex++;
   1302                TCLKDevEntry.SeedShift_IcIndex &= 0x0F;
   \   000058   7413         MOV       A,#0x13
   \   00005A   12....       LCALL     ?XSTACK_DISP0_8
   \   00005D   E0           MOVX      A,@DPTR
   \   00005E   04           INC       A
   \   00005F   540F         ANL       A,#0xf
   \   000061   F0           MOVX      @DPTR,A
   1303                
   1304                TCLKDevEntry.rxFrmCntr = 0;
   \   000062   7405         MOV       A,#0x5
   \   000064   12....       LCALL     ?XSTACK_DISP0_8
   \   000067   12....       LCALL     ?Subroutine24 & 0xFFFF
   1305                TCLKDevEntry.txFrmCntr = 0;
   \                     ??CrossCallReturnLabel_29:
   \   00006A   12....       LCALL     ?XSTACK_DISP0_8
   \   00006D   12....       LCALL     ??Subroutine98_0 & 0xFFFF
   1306                
   1307                index = keyNvIndex - ZCD_NV_TCLK_TABLE_START;
   \                     ??CrossCallReturnLabel_263:
   \   000070   12....       LCALL     ?Subroutine59 & 0xFFFF
   1308                
   1309                TCLinkKeyFrmCntr[index].rxFrmCntr = 0;
   \                     ??CrossCallReturnLabel_91:
   \   000073   ACF0         MOV       R4,B
   \   000075   75F009       MOV       B,#0x9
   \   000078   E9           MOV       A,R1
   \   000079   A4           MUL       AB
   \   00007A   2C           ADD       A,R4
   \   00007B   F9           MOV       R1,A
   \   00007C   74..         MOV       A,#TCLinkKeyFrmCntr & 0xff
   \   00007E   28           ADD       A,R0
   \   00007F   F8           MOV       R0,A
   \   000080   74..         MOV       A,#(TCLinkKeyFrmCntr >> 8) & 0xff
   \   000082   39           ADDC      A,R1
   \   000083   F9           MOV       R1,A
   \   000084   8882         MOV       DPL,R0
   \   000086   F583         MOV       DPH,A
   \   000088   A3           INC       DPTR
   \   000089   A3           INC       DPTR
   \   00008A   A3           INC       DPTR
   \   00008B   A3           INC       DPTR
   \   00008C   12....       LCALL     ??Subroutine98_0 & 0xFFFF
   1310                TCLinkKeyFrmCntr[index].txFrmCntr = 0;
   \                     ??CrossCallReturnLabel_264:
   \   00008F   8882         MOV       DPL,R0
   \   000091   8983         MOV       DPH,R1
   \   000093   12....       LCALL     ??Subroutine99_0 & 0xFFFF
   1311                
   1312                //Update the entry
   1313                osal_nv_write(keyNvIndex,0,sizeof(APSME_TCLKDevEntry_t), &TCLKDevEntry );
   \                     ??CrossCallReturnLabel_262:
   \   000096                ; Setup parameters for call to function osal_nv_write
   \   000096   78..         MOV       R0,#?V0
   \   000098   12....       LCALL     ?PUSH_XSTACK_I_TWO
   \   00009B   75..13       MOV       ?V0,#0x13
   \   00009E   75..00       MOV       ?V1,#0x0
   \   0000A1   78..         MOV       R0,#?V0
   \   0000A3   12....       LCALL     ?PUSH_XSTACK_I_TWO
   \   0000A6   7C00         MOV       R4,#0x0
   \   0000A8   7D00         MOV       R5,#0x0
   \   0000AA   12....       LCALL     ??Subroutine96_0 & 0xFFFF
   1314              }
   1315              
   1316            }
   \                     ??CrossCallReturnLabel_242:
   \   0000AD   12....       LCALL     ?DEALLOC_XSTACK8
   1317          
   1318            status = ZDSecMgrDeviceJoin( device );
   \                     ??ZDSecMgrDeviceJoinDirect_0:
   \   0000B0                ; Setup parameters for call to function ZDSecMgrDeviceJoin
   \   0000B0   EE           MOV       A,R6
   \   0000B1   FA           MOV       R2,A
   \   0000B2   EF           MOV       A,R7
   \   0000B3   FB           MOV       R3,A
   \   0000B4   12....       LCALL     `??ZDSecMgrDeviceJoin::?relay`; Banked call to: ZDSecMgrDeviceJoin
   \   0000B7   E9           MOV       A,R1
   \   0000B8   F5..         MOV       ?V0,A
   1319          
   1320            if ( status == ZSuccess )
   \   0000BA   7007         JNZ       ??CrossCallReturnLabel_42
   1321            {
   1322              // set association status to authenticated
   1323              ZDSecMgrAssocDeviceAuth( AssocGetWithShort( device->nwkAddr ) );
   \   0000BC                ; Setup parameters for call to function AssocGetWithShort
   \   0000BC   8E82         MOV       DPL,R6
   \   0000BE   8F83         MOV       DPH,R7
   \   0000C0   12....       LCALL     ?Subroutine32 & 0xFFFF
   1324              
   1325            #if (ZG_BUILD_COORDINATOR_TYPE)    
   1326              //Add the device as joining device, if it did join unsecured
   1327              if(device->secure == FALSE)
   1328              {
   1329                bdb_TCAddJoiningDevice(NLME_GetShortAddr(),device->extAddr);
   1330              }
   1331            #endif
   1332            }
   1333          
   1334            return status;
   \                     ??CrossCallReturnLabel_42:
   \   0000C3   A9..         MOV       R1,?V0
   \   0000C5   7414         MOV       A,#0x14
   \   0000C7   02....       LJMP      ?Subroutine3 & 0xFFFF
   1335          }

   \                                 In  segment BANKED_CODE, align 1, keep-with-next
   \                     ?Subroutine32:
   \   000000   12....       LCALL     ?Subroutine69 & 0xFFFF
   \                     ??CrossCallReturnLabel_151:
   \   000003   12....       LCALL     `??AssocGetWithShort::?relay`; Banked call to: AssocGetWithShort
   \   000006                ; Setup parameters for call to function ZDSecMgrAssocDeviceAuth
   \   000006                ; Setup parameters for call to function ZDSecMgrAssocDeviceAuth
   \   000006   12....       LCALL     `??ZDSecMgrAssocDeviceAuth::?relay`; Banked call to: ZDSecMgrAssocDeviceAuth
   \   000009   22           RET

   \                                 In  segment BANKED_CODE, align 1, keep-with-next
   \                     ??Subroutine98_0:
   \   000000   E4           CLR       A
   \   000001                REQUIRE ??Subroutine99_0
   \   000001                ; // Fall through to label ??Subroutine99_0

   \                                 In  segment BANKED_CODE, align 1, keep-with-next
   \                     ??Subroutine99_0:
   \   000000   12....       LCALL     ??Subroutine101_0 & 0xFFFF
   \                     ??CrossCallReturnLabel_273:
   \   000003   22           RET

   \                                 In  segment BANKED_CODE, align 1, keep-with-next
   \                     ?Subroutine59:
   \   000000   EA           MOV       A,R2
   \   000001   24EF         ADD       A,#-0x11
   \   000003   F8           MOV       R0,A
   \   000004   EB           MOV       A,R3
   \   000005   34FE         ADDC      A,#-0x2
   \   000007   F9           MOV       R1,A
   \   000008   E8           MOV       A,R0
   \   000009   75F009       MOV       B,#0x9
   \   00000C   A4           MUL       AB
   \   00000D   F8           MOV       R0,A
   \   00000E   22           RET

   \                                 In  segment BANKED_CODE, align 1, keep-with-next
   \                     ?Subroutine24:
   \   000000   12....       LCALL     ?Subroutine67 & 0xFFFF
   \                     ??CrossCallReturnLabel_272:
   \   000003                ; Setup parameters for call to function osal_nv_write
   \   000003   04           INC       A
   \   000004   22           RET

   \                                 In  segment BANKED_CODE, align 1, keep-with-next
   \                     ?Subroutine67:
   \   000000   E4           CLR       A
   \   000001                REQUIRE ??Subroutine101_0
   \   000001                ; // Fall through to label ??Subroutine101_0

   \                                 In  segment BANKED_CODE, align 1, keep-with-next
   \                     ??Subroutine101_0:
   \   000000   F0           MOVX      @DPTR,A
   \   000001   A3           INC       DPTR
   \   000002   F0           MOVX      @DPTR,A
   \   000003   A3           INC       DPTR
   \   000004   F0           MOVX      @DPTR,A
   \   000005   A3           INC       DPTR
   \   000006   F0           MOVX      @DPTR,A
   \   000007   22           RET
   1336          
   1337          /******************************************************************************
   1338           * @fn          ZDSecMgrDeviceJoinFwd
   1339           *
   1340           * @brief       Forward join to Trust Center.
   1341           *
   1342           * @param       device - [in] ZDSecMgrDevice_t, device info
   1343           *
   1344           * @return      ZStatus_t
   1345           */

   \                                 In  segment BANKED_CODE, align 1, keep-with-next
   1346          ZStatus_t ZDSecMgrDeviceJoinFwd( ZDSecMgrDevice_t* device )
   \                     ZDSecMgrDeviceJoinFwd:
   1347          {
   \   000000                REQUIRE ?V0
   \   000000                REQUIRE ?V1
   \   000000   74F6         MOV       A,#-0xa
   \   000002   12....       LCALL     ?BANKED_ENTER_XDATA
   \   000005                ; Saved register size: 10
   \   000005                ; Auto size: 17
   \   000005   74EF         MOV       A,#-0x11
   \   000007   12....       LCALL     ?ALLOC_XSTACK8
   1348            ZStatus_t               status;
   1349            APSME_UpdateDeviceReq_t req;
   1350            uint8 TC_ExtAddr[Z_EXTADDR_LEN];
   1351          
   1352            // forward any joining device to the Trust Center -- the Trust Center will
   1353            // decide if the device is allowed to join
   1354            status = ZSuccess;
   1355          
   1356            // forward authorization to the Trust Center
   1357            req.dstAddr    = APSME_TRUSTCENTER_NWKADDR;
   \   00000A   7401         MOV       A,#0x1
   \   00000C   12....       LCALL     ?XSTACK_DISP0_8
   \   00000F   E4           CLR       A
   \   000010   F0           MOVX      @DPTR,A
   \   000011   A3           INC       DPTR
   \   000012   12....       LCALL     ?Subroutine68 & 0xFFFF
   1358            req.devAddr    = device->nwkAddr;
   \                     ??CrossCallReturnLabel_109:
   \   000015   12....       LCALL     ??Subroutine85_0 & 0xFFFF
   \                     ??CrossCallReturnLabel_188:
