:020000040000FA
:06000000020AFA020247A9
:03002B000208F4D4
:030033000206BB07
:0300530002017C2B
:03006B00020695F5
:100083000201DB0100F0FF0700080000FFFF000092
:10009300050400000003000147726F757000FF0440
:1000A30000100020FD000206FFFFFF0EFF4A8683BB
:1000B300FED3407A939723A5C639B26916D505C3F3
:1000C300B5008000194B640408005711000000209C
:1000D30020204C4556454C2023232320202020005C
:1000E3006A15000070150000000000007C158215E1
:1000F30088158E150000000000000000B2150000F6
:100103000000080401010101068D840000000104C0
:100113000000BE11000000E8030000FFFF321201DF
:1001230088130000E803000064006400B801A0BB6A
:100133000D00A0BB0D0002020207040101051E020F
:10014300051E020A0A0108080103B80B02803E01DA
:1001530002FEFFE8030A0500013412020A0114013A
:10016300E005030101FF0FC32700000000F926008B
:10017300000000FF000000FF00C0E074F112045E05
:10018300A2AFE433F509D2AF85A708AFA1EF5508B5
:10019300FE74105E6006120EA475A1EF74085E6013
:1001A30008120EAA75A1F78024EFA2E092F0E508E9
:1001B300A2E082F05017906198E0F89003EEE0C35C
:1001C30098A2D265D0335002E8F075A1FEE509A2EA
:1001D300E092AF7F020204BDC0E074F212045EA29B
:1001E300AFE433FED2AF9061A4E0F8759B00E591D4
:1001F30058540860087591F7120EF88023E591585A
:10020300541060087591EF120EFE8014E591A2E080
:1002130092F0E8A2E082F05007E0C2E0F01210484A
:100223009061A3E0F8E5E9585404600E12101E75BE
:10023300E9FB906193E0A2E640F2EEA2E092AF7F89
:10024300010204BDC0E074F212045EA2AFE433FE07
:10025300D2AF9061A5E0F8E5BF585404600675BFBE
:10026300FB12106080D4C3E498F8E499F91202AA4F
:100273008026C3E49AFAE49BFBE920E7E91202AA89
:10028300E498F8E499F922C3E498F8E499F912029E
:10029300AAE498F8E499F9C3E49AFAE49BFB22EB05
:1002A30020E7CFE920E7E0B90010BB0008E88AF0B7
:1002B30084F8AAF022E4FBC8FA22EB70227B10C870
:1002C30033C8C933C9335007C39AC3DBF280069AD4
:1002D30050012ADBEAC833F4C8C933F4C9FA2275DA
:1002E300F008E4C833C8C933C933C99AC99B500459
:1002F300C92AC93BD5F0ECFBC833F4C8E4C9FA22D8
:10030300080808EAC0E0EBC0E086F0E7A4FA1809A1
:1003130086F0E7A42AFA180986F0E7A42AFA18094E
:1003230086F0E7A42AFA1986F0E7A4FBE5F02AFA97
:10033300190886F0E7A42BFBE5F03AFA190886F0D2
:10034300E7A42BFBE5F03AFA18180986F0E7A4C5F1
:10035300F02BFBE43AFA1908E7C5F0C6A426F6E544
:10036300F03BFBE43AFA1886F0E7A4F6E5F008263A
:10037300F6E43B08F6E43A08F6D0E0FBD0E0FA22D4
:10038300E4CFC0E0E4CEC0E0E4CDC0E0E4CCC0E024
:1003930075F020E626F608E633F608E633F608E6B7
:1003A30033F6181818EC33FCED33FDEE33FEEF3360
:1003B300FFC3EC9709ED9709EE9709EF9719191900
:1003C300400FFFEC97FC09ED97FD09EE97FE191915
:1003D30006D5F0BFECF709EDF709EEF709EFF719CA
:1003E3001919D0E0FCD0E0FDD0E0FED0E0FF2225DB
:1003F30018C582C0E0E51934FFC583C0E0E518C322
:10040300958224F810AF08858319858218800885A2
:100413008319858218D2AFCEF0A3E520F0A3780824
:10042300E608F0A3DEFAEFF0A3E58124FAF8E60884
:10043300F0A3E608F0A3E608F0A30808E608F0A393
:10044300E608F0A315811581D0E0FED0E0F8158110
:1004530015811581E8C0E0EEC0E022C0D02518C5A3
:1004630082C0E0E51934FFC583C0E0E518C3958277
:1004730024F310AF088583198582188008858319B2
:10048300858218D2AFC8F0A3E9F0A3EAF0A3EBF09A
:10049300A37908E709F0A3D8FAECF0A3EDF0A3EEF3
:1004A300F0A3EFF0A3D0E0F0A3D0E0F0A3D0E0F00E
:1004B300A3E520F0A3E5F0F0A32285198385188234
:1004C300E0C0E0A3E0F9A3E0FAA3E0FBA37808E02F
:1004D300F608A3DFFAE0FCA3E0FDA3E0FEA3E0FF40
:1004E300A3E0C0E0A3E0C0E0A3E0F5D0A3E0F520E3
:1004F300A3E0A3F5F010AF0885831985821880085F
:10050300858319858218D2AFD082D083D0E0F8D00A
:10051300E032120B74B90003020554E4900301782E
:10052300D279128002F0A3D8FCD9FA7AD27B149044
:10053300008678F779018015E493A3AD82AE838AB0
:10054300828B83F0A3AA82AB838D828E83D8E9D971
:10055300E7758289758394740512086B75822E750D
:100563008324740012086BE47375F0108E1A8F1BCA
:1005730085821F85831E851882851983E0CEA3E0BB
:10058300CF851F82851E83EBC9EAC8EDCBECCAC3B6
:10059300E833C8E933C9EA33CAEB33CBC3EA9EF580
:1005A3001DEB9FF51CB35004AB1CAA1DEC33CCED23
:1005B30033CDD5F0DAAE1AAF1B22D083D082ECC094
:1005C300E0EDC0E0E493A3FCE493A3FDED4C600DE8
:1005D3001206D9EC24FFFCED34FFFD80EFE493A376
:1005E300FCE493A3FDED4C600D120776EC24FFFCB5
:1005F300ED34FFFD80EFD0E0FDD0E0FCE493A3C039
:10060300E0E493C0E022851983851882E0A3FEE02D
:10061300A3F5207808E0A3F608DFFAE0A3FFE0A340
:10062300C0E0E0A3C0E0E0A3C0E0E0A3C0E0E0A33B
:10063300C0E010AF08858218858319800885821869
:10064300858319D2AFD083D082020871D083D08240
:10065300E9C0E0E493A3C386F0C5F095F0F908E49C
:1006630093A386F0C5F095F0700BE493A3C3994070
:1006730005E9048002A3E475F002A42582F582E56E
:10068300F03583F583D0E0F9E493A3C0E0E493C0AD
:10069300E022C0E074F212045EA2AFE433FED2AFF4
:1006A300E589A2E15003120DA2758900C2C5EEA22D
:1006B300E092AF7F010204BDC0E074F212045EA2B7
:1006C300AFE433FED2AFE58BA2E05003120DA27567
:1006D3008B00C2E880D8C0E0C3E49396087401930A
:1006E3009618400FE49366700808740193661870B7
:1006F300007019A3A3C3E49396087401939618A3F7
:10070300A3400DD0E0D0E0D0E00205F9A3A3A3A35A
:10071300A3A3D0E0227404800474028000CCC0E060
:10072300EDC0E0E518C39CCCAD1950011D10AF0618
:100733008C188D1980068C188D19D2AF1207EDD045
:10074300E0FDD0E0FC2274028000CCC0E0EDC0E00C
:10075300E518C39CCCAD1950011D10AF068C188D44
:100763001980068C188D19D2AF1207CBD0E0FDD0BB
:10077300E0FC22C0E0C0F088F0E4936670080874DF
:10078300019366187000A8F0A3A3700BD0F0D0E01B
:10079300D0E0D0E00205F9A3A3D0F0D0E022D083CB
:1007A300D082CCC0E0E493A3600612080E1470FA62
:1007B300E493A3600612096D1470FAD0E0FCE4938D
:1007C300A3C0E0E493C0E022CAC0E0E493A3C582DF
:1007D300CCC582C583CDC583F0A3C582CCC582C5F4
:1007E30083CDC583DAE5D0E0CA22CAC0E0E0A3C561
:1007F30082CCC582C583CDC583F0A3C582CCC58217
:10080300C583CDC583DAE6D0E0CA22C0E0E493A372
:10081300D39C5010E493A3C39C400AD0E0D0E0D013
:10082300E00207BEA3A3A3D0E022C008C3E096F56D
:100833000808A3E096420808A3E096420808A3E04C
:100843009645087001D3D008227009080808226071
:1008530016181818C6C333C608C633C608C633C627
:1008630008C633C6D5E0EA22C09FF59FE473D09F44
:1008730022D083D082C09FE493C0E0740193C0E090
:10088300740293F59F227404800A74038006740231
:1008930080027401C0E0F4041208BFD0E0120B37E9
:1008A3002200C0D0251810AF08F518500C05198088
:1008B30008F51850020519D2AFD0D0222518F582B9
:1008C30010AF08F518400C15198008F518400215EB
:1008D30019D2AF85198322BB0102E722C082C083EC
:1008E30089828A83BB0003E08002E493D083D082B1
:1008F30022C0E0C0D0E8C0E0A8A8D2AFC2C7E8A237
:10090300E792AFD0E0F8D0D0D0E032601608080804
:10091300C6C313C618C613C618C613C618C613C64D
:10092300D5E0EA222518F8E43519F9222518FAE466
:100933003519FB222518FCE43519FD22C3E0C696C0
:10094300F608A3E0C696F608A3E0C696F608A3E069
:10095300C696F622251810AF08F518400C15198015
:1009630008F51840021519D2AF22C0E0E493A36C36
:100973007009D0E0D0E0D0E00207BEA3A3D0E0220C
:10098300E066701008A3E066700A08A3E0667004CE
:1009930008A3E06622C3E09608A3E09608A3E096C6
:1009A30008A3E096A2D265D03322E7667010080947
:1009B300E766700A0809E76670040809E76622C358
:1009C300E697F60809E697F60809E697F60809E6B2
:1009D30097F622C3E49396087401939608740293DE
:1009E30096087403939622C3E096F008A3E096F06A
:1009F30008A3E096F008A3E096F022E657F608096C
:100A0300E657F60809E657F60809E657F622E02600
:100A1300F608A3E036F608A3E036F608A3E036F6B8
:100A230022E046F008A3E046F008A3E046F008A35E
:100A3300E046F022E056F608A3E056F608A3E05697
:100A4300F608A3E056F622E056F008A3E056F008B5
:100A5300A3E056F008A3E056F022E647F60809E6BD
:100A630047F60809E647F60809E647F62270042226
:100A7300600D18C6C333C608C633C6D5E0F41822C2
:100A8300E627F60809E637F60809E637F60809E621
:100A930037F622E026F008A3E036F008A3E036F0AC
:100AA30008A3E036F022E4C396F608E496F608E4D9
:100AB30096F608E496F622600D08C6A2E713C61858
:100AC300C613C6D5E0F322C6F4C608C6F4C608C6E4
:100AD300F4C608C6F4C622C3E7960809E7960809D0
:100AE300E7960809E79622C3E09608A3E09608A3D1
:100AF300E09608A3E0962275D00075813F75180132
:100B030075190300020515E6F008A3E6F008A3E64D
:100B1300F008A3E6F022600C08C6C313C618C61378
:100B2300C6D5E0F422E0F608A3E0F608A3E0F60851
:100B3300A3E0F622CAC0E0E6F0A308DAFAD0E0FAAE
:100B430022E8F0A3E9F0A3EAF0A3EBF022E0F8A394
:100B5300E0F9A3E0FAA3E0FB22EAF0A3EBF0A3ECB5
:100B6300F0A3EDF022E0FAA3E0FBA3E0FCA3E0FD99
:100B730022E5C754F84401F5C77901222518F58207
:100B8300E43519F58322C2AF75D69F020000221205
:100B930008745DCC041208742CCD0412087423CE9F
:100BA30004120874CBCE04120874DFCE0412087446
:100BB30049CF0412087453CF04120874C0CF04122F
:100BC3000874CACF0412087467D00412087426D1BB
:100BD3000412087489D204120874DCD20412087453
:100BE30014D304120874BFE502120874EAE5021272
:100BF3000874FFE50212087432E60212087451E623
:100C03000212087492E60212087430E702120874A2
:100C1300EFE70212087439EB02120874B0ED021206
:100C2300087456EE0212087483EE02120874CDEEB5
:100C33000212087458EF02120874F9EF02120874D2
:100C43005CF002120874A0F00212087444F102125C
:100C53000874C3F102120874F6F10212087405F362
:100C63000212087429F3021208748DF30212087435
:100C730071F40212087479F6021208741BF7021257
:100C830008749AF9021208741EFA021208749FFC7F
:100C930002120874D9FC0212087434FE021208749A
:100CA3003EFE0212087484FE02120874F7A40412B2
:100CB300087473A504120874A6A504120874D4A5B5
:100CC3000412087417A80412087436A804120874CE
:100CD3007BA80412087411A9041208745DA90412F4
:100CE3000874EFA904120874C7AA0412087418AB95
:100CF300041208747DAB04120874FAAB041208746E
:100D030030AC041208747BAC04120874A1AC041256
:100D1300087431AD04120874C8AD0412087414AE1B
:100D23000412087445AE041208747CAE04120874ED
:100D330004B004120874CEB004120874A8B10412EB
:100D4300087436FF0112087447FF01120874E5FFA7
:100D530001120874F0FF04120874EB7F0012087488
:100D630003AB0512087413AB051208742BAB051201
:100D7300087493AB0512087461A905120874E4A9F9
:100D8300051208744AAA05120874CDFD01120874ED
:100D9300ECFD0112087459FE011208749EFE011243
:100DA3000874F7FE01120874B08805120874C58828
:100DB30005120874D08905120874018A0512087493
:100DC3001B8A05120874918A05120874768B051222
:100DD3000874EA8B05120874048C051208741B8CC2
:100DE30005120874298C05120874418C05120874C5
:100DF300568C051208747B8C05120874CB8C051273
:100E030008745C84051208746A8405120874E38408
:100E130005120874B78505120874898705120874CA
:100E2300EE87051208741F8805120874548805128A
:100E330008749C880512087412AE0512087454F3E2
:100E43000412087480F304120874F1F50412087490
:100E530031F60412087471F60412087485F604124C
:100E630008749EF6041208748FF70412087434F899
:100E73000412087448F8041208744DA40512087487
:100E830071A4051208748AA405120874BCA405127F
:100E93000874ECA40512087419A5051208747BA53F
:100EA300051208748AA50512087494A5051208741E
:100EB300A1A505120874219D05120874419D051210
:100EC3000874809D051208749B9D05120874BA9DD1
:100ED30005120874209E05120874299E05120874D1
:100EE300869E05120874959E05120874B99E051214
:100EF30008747A9F05120874879F05120874989FD7
:100F03000512087487AD051208749FAD05120874A5
:100F1300CBAD051208749EF804120874F8F9041294
:100F2300087406FA0412087419FA041208742EFAE3
:100F33000412087443FA0412087456FA041208746B
:100F4300CAFA041208742FFB04120874D1FB0412AA
:100F5300087495FC04120874A5FC04120874B4FC0C
:100F6300041208746AAA051208748EAA051208747A
:100F7300B6AA05120874DEAA05120874C69F0512E4
:100F83000874ED9F051208740BA0051208747EA067
:100F9300051208744E9A05120874679A05120874AC
:100FA300739A05120874879A05120874A59A051294
:100FB3000874AF9A05120874B99A05120874CC9A8A
:100FC30005120874529B05120874C79B0512087416
:100FD300F69B05120874449C05120874939C051231
:100FE3000874AE9C05120874B89C05120874C99C59
:100FF300051208740C9D051208743CAD05120874A3
:10100300FADC0412087424DD0412087441DD0412AE
:10101300087454DD041208746ADD04120874C8DD10
:101023000412087400DE04120874F4E10412087454
:1010330039E3041208746CE304120874CFE3041256
:1010430008742FE50412087457E5041208746CE55C
:10105300041208747CE504120874C0E504120874D1
:101063001BE6041208742BE60412087431A8051257
:1010730008744BA80512087473A8051208748CA889
:1010830005120874B0A805120874CEA805120874D6
:10109300E5A80512087413A9051208742EA90512F0
:1010A3000874CEAD051208740491051208741491E6
:1010B300051208741992051208744B9205120874EC
:1010C3007B92051208749E9205120874B59205125C
:1010D3000874EF92051208745493051208749693DA
:1010E30005120874D5930512087406940512087442
:1010F3003194051208740A7E001208741C7E0012D3
:101103000874307F00120874BD7F00120874ABA509
:1011130005120874E1A505120874FBA505120874ED
:101123003DA6051208744DA605120874E7A605121C
:1011330008745AD30412087464D3041208749ED337
:101143000412087407D40412087424D40412087413
:101153003DD404120874DFD4041208745ED7041259
:10116300087467D704120874ACD704120874D5D76F
:1011730004120874E2D70412087453D804120874D2
:10118300DED8041208742CD9041208746AD9041224
:101193000874CFD904120874F2D90412087469DAF6
:1011A30004120874C0DA04120874FBDA0412087417
:1011B30030DB0412087442DB0412087454DB04129B
:1011C300087473DB0412087489DB0412087444DCAA
:1011D3000412087490DC04120874CEDC0412087440
:1011E300F1A60512087417A2051208744DA2051280
:1011F300087495A205120874EEA305120874008002
:10120300041208742481041208745E8104120874A1
:10121300088304120874328304120874A785041225
:101223000874E785041208747D87041208741A8809
:10123300041208746C88041208740F890412087469
:10124300478904120874898904120874F88A0412FD
:101253000874468C04120874778E04120874A58EE1
:1012630004120874CC8E04120874D58E0412087408
:10127300258F04120874B78F04120874E6920412BF
:101283000874699304120874F4AE05120874DFAC91
:1012930005120874008D05120874168D0512087462
:1012A300BA8D05120874F98D05120874168E05128D
:1012B3000874478E05120874948E05120874C78E3D
:1012C30005120874028F05120874F790051208744A
:1012D300FFFE031208745EFF031208749CFF0312DF
:1012E3000874DDFF031208740080021208740C8076
:1012F300021208746E800212087478800212087455
:101303000581021208744181021208740C820212D0
:1013130008746A8202120874B78202120874348352
:10132300021208748A830212087407840212087472
:10133300AD85021208748287021208746D88021246
:101343000874618902120874BA8B02120874148D2E
:1013530002120874AB8D02120874EA8E021208742A
:10136300E88F021208744C9102120874DE9502127F
:101373000874C696021208745997021208747E976D
:1013830002120874A397021208743D98021208749B
:10139300539802120874759802120874E6980212A0
:1013A30008740599021208742E99021208742E9A71
:1013B30002120874329B02120874B89C0212087459
:1013C300D99C021208747F9D02120874C79D0212F1
:1013D30008742C9E02120874AD9E02120874119FA9
:1013E300021208746D9F0212087403A0021208749B
:1013F30078A002120874ABA00212087413A102129F
:1014030008746CA202120874FEA302120874A5A445
:101413000212087400A7021208744DA7021208747E
:101423005DA702120874ACA7021208741EA8021268
:1014330008744EA802120874BCA80212087467A9A3
:101443000212087459AB02120874D8AD0212087460
:10145300DDAE0212087401B302120874C2B30212A1
:101463000874E4B40212087481B60212087414ED0D
:1014730003120874A3ED0312087409EE031208742F
:10148300F4EE03120874EFEF0312087466F003120C
:101493000874D3F103120874F0F103120874F2F222
:1014A3000312087438F403120874DEF40312087488
:1014B30053F80312087467FA03120874F6FA031256
:1014C30008748EFB0312087415FD03120874EEFDF5
:1014D300031208747AAC0512087424D90312087431
:1014E300EDD903120874B0DA031208743ADB03125D
:1014F3000874B5DB03120874FFDB0312087417DCEE
:101503000312087435DC031208744FDC03120874E9
:1015130001DD0312087411DE0312087487DF03125E
:101523000874BADF03120874CADF03120874B2E046
:101533000312087473E10312087405EC03120874B0
:101543003FEC03120874ADEC03120874CFEC0312E2
:101553000874E0EC0312087491ED041208749BEE16
:10156300041208748AEF04120874D6EF0412087484
:10157300E6EF0412087413F00412087413F1041252
:10158300087442F1041208747FF104120874C8F15C
:1015930004120874F4F1041208749CF2041208741F
:1015A300C1F204120874CDF204120874EBF20412AF
:1015B300087438F30412087415AC05120874A16892
:1015C30000120874D0680012087448690012087485
:1015D3004B6A00120874A76A00120874286C001280
:1015E3000874446C00120874966C00120874CE6C74
:1015F30000120874E16C00120874336D0012087451
:10160300BF6D001208742C6E00120874566E00121F
:1016130008748E6E001208747270001208744B7195
:1016230000120874947200120874C07200120874D5
:101633009373001208741B74001208745C74001214
:101643000874767400120874BD7400120874DD7493
:101653000012087477750012087406760012087475
:10166300607600120874A4760012087420790012C0
:101673000874427A001208747E7A00120874707B30
:1016830000120874987B001208749B7B0012087484
:10169300A57B00120874B87B00120874417C001209
:1016A3000874777C001208748A7C00120874B67C74
:1016B30000120874DD7C00120874017D00120874A6
:1016C300987D00120874A67D00120874BC7D001278
:1016D3000874F47D0012087496AB05120874A2AB6B
:1016E30005120874E0AB05120874FDFF01120874BB
:1016F3005BE604120874AAE6041208744AE80412AA
:10170300087405EA0412087447EA0412087466EBC5
:101713000412087470EC0412087492EC0412087436
:1017230000D5031208745DED0412087420A7031298
:10173300087443A70312087496A803120874DFA859
:101743000312087439A9031208749FA903120874B9
:10175300A2A903120874EEA90312087468AA03125B
:101763000874F0AA03120874F3AA031208747FAB77
:1017730003120874C2AB0312087415B00312087481
:10178300B2B10312087405B203120874C3C9041278
:1017930008749BB603120874FBB703120874BCB930
:1017A300031208744ABA031208744BBB0312087479
:1017B300FEBC03120874E5BD0312087448BF03128C
:1017C3000874B9BF03120874B693041208745694CC
:1017D30004120874C09404120874D994041208748F
:1017E300639504120874B99504120874FD950412E4
:1017F3000874649604120874DA970412087408993A
:1018030004120874819904120874849B04120874E6
:101813002C9C04120874C09C04120874939D041237
:101823000874729F04120874E4A004120874F4A1EB
:10183300041208749CA204120874AEA30412087460
:101843005FE301120874D3E3011208741BE401126D
:10185300087459E401120874A2E401120874ECE458
:101863000112087424E501120874A2E50112087438
:10187300FCE50112087458E701120874E9E7011244
:10188300087447E80112087461E80112087482E8D9
:1018930001120874DAE8011208744BEB01120874A0
:1018A3006AEB0112087449EC0112087461ED01122C
:1018B3000874DEED011208744BEE01120874B4EEE5
:1018C300011208746EEF011208742CF101120874EE
:1018D3002DF201120874B2F30112087493F5011288
:1018E3000874F6F7011208749CF9011208746AFA75
:1018F30001120874D0FA01120874E7FA011208748D
:10190300D7FB01120874C3FC0112087430FD0112E5
:1019130008746D9705120874B998051208747699BE
:1019230005120874DA9905120874EDFC04120874A0
:1019330008FD041208744CFD0412087472FD0412AD
:10194300087498FD04120874B0FD0412087413FEA1
:101953000412087428FE041208744AFF041208745F
:1019630053FF041208745CFF0412087465FF041229
:101973000874008005120874EE8305120874F3835B
:1019830005120874F58305120874FA950512087494
:1019930081AE051208744AAE05120874ADAE051285
:1019A3000874D6AE051208740080031208743380DD
:1019B300031208749A8003120874268103120874B0
:1019C300CB81031208741382031208743882031242
:1019D300087451820312087477820312087499827F
:1019E30003120874D782031208742683031208743F
:1019F3004F8303120874AE8303120874878403129F
:101A030008743D85031208749B850312087462866B
:101A130003120874B9860312087424870312087426
:101A2300628703120874B88703120874308803129C
:101A330008748788031208748A88031208740B8950
:101A430003120874AA8903120874128A0312087411
:101A5300018B03120874238B03120874868C031200
:101A63000874CA8C03120874D78C03120874DB8DB4
:101A730003120874E88D03120874F18D03120874BD
:101A8300EC8F031208740691031208747A910312FF
:101A93000874E791031208740F9203120874A19259
:101AA30003120874DD9203120874C09403120874BD
:101AB300979803120874AB9803120874BB98031227
:101AC3000874C59803120874CE9803120874D79843
:101AD30003120874E198031208741099031208742E
:101AE3004399031208744E990312087472990312EE
:101AF3000874969903120874F39903120874399AB7
:101B030003120874559A03120874C89A03120874CE
:101B1300FF9A031208743E9B031208748B9B0312F3
:101B23000874119C03120874ED9D03120874899EB6
:101B3300031208746E9F03120874E3A1031208745E
:101B430036A2031208745EA20312087488A3031258
:101B53000874BEA30312087410A403120874C5A466
:101B63000312087475A503120874AAA50312087456
:101B730040A603120874C4A6031208746A860112ED
:101B830008749C8601120874CC8601120874A0881C
:101B930001120874818901120874D9890112087429
:101BA3001C8B01120874688B011208749C8E01123D
:101BB3000874B29101120874FC9201120874929392
:101BC300011208749E9301120874DE9301120874C3
:101BD3006895011208745C960112087486960112C6
:101BE3000874ED9601120874469701120874BD97A4
:101BF30001120874049A011208749B9B0112087461
:101C03006F9C01120874AE9D01120874F39F0112B8
:101C13000874C4A201120874D3A20112087457A352
:101C230001120874FEA30112087441A4011208747E
:101C33008AA401120874DEA40112087443A50112D8
:101C43000874A6A501120874C2A501120874F4A5AC
:101C53000112087433A60112087418A7011208743C
:101C6300C7A7011208744BAA011208748DAB0112A5
:101C730008746CAC01120874ECAC011208740EB158
:101C8300011208744CB101120874A7B1011208744F
:101C9300DAB10112087456B20112087472B2011259
:101CA30008740DB3011208745BB3011208742EB4E7
:101CB30001120874F3B40112087491B50112087487
:101CC3009AB801120874AEB9011208744BBD01121F
:101CD300087453BE0112087456BE0112087485BEFF
:101CE3000112087484C0011208745DC101120874E2
:101CF300A4C101120874F1C2011208742BC30112AA
:101D03000874D8C3011208740CC401120874BEC449
:101D130001120874CDC60112087438C70112087481
:101D230080C701120874B9C7011208744BC80112A5
:101D33000874EEC9011208741DCB01120874E4CBB8
:101D430001120874DACD01120874EECD0112087481
:101D530002CE0112087438CE0112087468CE011243
:101D63000874F6CF01120874D7D00112087447D152
:101D730001120874F7D10112087427D201120874F2
:101D8300F1D201120874AED301120874B7D501124F
:101D93000874F6D50112087463D601120874A8D723
:101DA300011208745BD8011208748FD801120874E9
:101DB300A7D8011208744AD90112087438DC011239
:101DC300087403DE0112087427DE0112087445DE6D
:101DD3000112087419DF0112087441E30112087437
:101DE3007B2A00120874AD2A00120874AC2E00126C
:101DF3000874F82E001208743E2F00120874E62FA0
:101E030000120874503000120874983000120874DD
:101E1300F63100120874FB3200120874ED3600121A
:101E230008747E3700120874A63800120874033948
:101E330000120874D23A00120874493B0012087465
:101E4300533B00120874603B001208748B3B001272
:101E53000874723C001208742B3D00120874AE3DE6
:101E630000120874C73D00120874F03D0012087494
:101E73001D3E001208747740001208743B410012A3
:101E83000874804100120874F74100120874A542D7
:101E930000120874D742001208741D43001208741C
:101EA300594300120874AA4300120874FE43001237
:101EB3000874894400120874D44400120874394524
:101EC30000120874B24500120874714700120874B6
:101ED3008048001208749F4900120874FB4C0012DA
:101EE30008742A5000120874E350001208742B512E
:101EF30000120874CA5200120874DE5200120874E9
:101F0300E85200120874F25200120874FE520012D2
:101F130008741D5300120874D353001208742C5410
:101F230000120874365400120874405400120874E6
:101F3300B05400120874F75400120874FC550012D0
:101F430008744B5600120874EE5600120874C757F3
:101F530000120874E75800120874295A0012087412
:101F6300235B001208743B5B001208746F5B001262
:101F730008748D5B00120874EC5B00120874135C28
:101F830000120874AE5C001208746D5D00120874D0
:101F9300DD5D00120874555E001208745F5F001265
:101FA30008742C600012087484600012087488613D
:101FB30000120874CD6100120874286200120874BC
:101FC3008F6200120874BD6200120874E16200128D
:101FD300087416630012087443630012087489635B
:101FE30000120874AD6300120874166400120874BA
:101FF300FE640012087449650012087472650012C9
:1020030008740A66001208748266001208749B66DC
:1020130000120874C76600120874BC6700120874C3
:1020230081B204120874B9B204120874DAB2041249
:1020330008741EB30412087482B3041208748CB3B8
:10204300041208749CB304120874D3B30412087402
:10205300CBB704120874D9B904120874C6BB0412AE
:1020630008745DBC04120874FFBC04120874A7B999
:102073000212087417BA0212087477BA02120874AB
:10208300C2BA02120874DDBA0212087404BB021247
:10209300087421BB021208742DBB02120874D8BC49
:1020A30002120874F1BC021208747ABD0212087499
:1020B3008DBD02120874ACBD0212087447BE021231
:1020C3000874B7BF021208745EC102120874EDC12E
:1020D30002120874F0C10212087460C2021208747A
:1020E3007EC20212087423C3021208745FC3021271
:1020F300087462C30212087428C4021208748BC4E1
:1021030002120874C4C40212087439C50212087496
:1021130057C502120874A5C5021208747AC60212C2
:102123000874C8C60212087410C7021208749DC747
:1021330002120874D2C70212087407C80212087484
:1021430015C80212087474C802120874ECC802128B
:1021530008742DC9021208747DC902120874A8C933
:1021630002120874C2C902120874DCC9021208748C
:10217300B7CA02120874C1CA02120874FCCA021256
:1021830008740CCB0212087415CB021208746DCBC1
:102193000212087481CB02120874B7CC02120874BD
:1021A300CCCC021208745ACD02120874C2CD0212AA
:1021B300087475CE0212087480CE02120874CDCF53
:1021C30002120874E9CF0212087435D0021208749F
:1021D300A4D002120874DDD002120874F7D00212E0
:1021E300087439D102120874FBD302120874B1D4F3
:1021F3000212087441D50212087489D702120874B6
:10220300A1D702120874A4D702120874B0D702121D
:102213000874C4D702120874CCD702120874FFD70B
:1022230002120874F2D8021208747DD902120874DB
:1022330010DA0212087489DA021208744DDB0212F2
:1022430008746FDB0212087408DC0212087465DC80
:102253000212087468DC02120874E2DC02120874C9
:102263002EDE0212087439DF02120874C4DF021270
:102273000874C9E00212087489E102120874BAE111
:1022830002120874E0E102120874E9E10212087410
:1022930017E202120874AFE20212087464E3021236
:1022A3000874D5E3021208747CE40212087403E58F
:1022B3000212087442E50212087485E502120874DA
:1022C300BED403120874E8D303120874D2D30312E2
:1022D300087493D303120874DFD203120874CCCFAB
:1022E30003120874CBCD031208749BCD0312087438
:1022F30036CD03120874C9CC0312087488CC0312B8
:102303000874C1CB031208745CCB0312087407CBA7
:1023130003120874AACA0312087481C90312087449
:102323001EC9031208749AC80312087495C80312CD
:10233300087489C8031208744CC50312087426C5AF
:1023430003120874CBC40312087488C403120874FC
:1023530046C4031208740DC904120874BCC80412DD
:10236300087495D8031208744AD803120874DED788
:10237300031208747DD70312087453D70312087429
:1023830033C40312087428C40312087404C4031268
:10239300087413C20312087423D7031208749BC171
:1023A3000312087457C103120874D6C003120874C9
:1023B30092C00312087419D70312087466C003127B
:1023C30008747DB50312087471C80412087418C820
:1023D30004120874DAC704120874ADC7041208742F
:1023E30079C70412087418C70412087400C70412CA
:1023F3000874D0C604120874A5C30412087478C103
:10240300041208747FBF0412087405BF0412087411
:10241300B4BE041208746EBE04120874ACD6031260
:102423000874D8BD04120874DCEC0400000080FBBF
:102433008F000100AC1587000100AA1535000400C8
:102443007315250002007715260002007915270071
:1024530002007B152800010085152900010086155F
:1024630084000400BC1286000100E0142A0001006D
:1024730087152B00010088152C0001008D152D00F8
:102483000800C8122E0001008E152F0001008F15C1
:102493003000010090153100010091153200010058
:1024A300D01233000100D11234000100921536001E
:1024B3000100D212380001009315390001008C1578
:1024C30083000200A81563000100DE12640001000E
:1024D3008915650001008A156D000100DF12710086
:1024E3000800C01266000100A715430001009815FB
:1024F300440002009915450001009B1546000200A7
:102503009C1547000800D612480001009E154B0099
:1025130001009F1504000100AB15A1000100AF15D8
:1025230037000100AE1588000100AD153C00010025
:10253300D3123D000100941549000200A015670065
:102543000100E0124D000200A2154E000100A41587
:102553004F000200A5153E00010097155100010030
:10256300D412520001009515530001009615540032
:102573000100D5120000000000000000000020014F
:102583006886000003002001698600000400420100
:10259300C58300000500420183810000060042015B
:1025A3009481000007003001678600001000420399
:1025B300711100001100300382110000120010039A
:1025C30083110000FDFF2101648603000000210345
:1025D30084110300FDFF210164860600000010053D
:1025E30087110600FDFF2101648608000000200515
:1025F30088110800010021018A110800100021033D
:102603008D110800110020038F110800120021030F
:1026130090110800130021039211080014002103F4
:1026230094110800FDFF21016486040000001801D5
:1026330086110400FDFF210164860500FDFF2101D1
:102643006486000136360101000102010001030125
:102653000001040106060502000007010034080119
:10266300000F090401010D0100FF0E08000017020D
:102673000000190100FF1A0100011B0100FE1C01EB
:1026830000081D0200001F010001200100012102BA
:1026930000002301000F240200002601000127018E
:1026A3000008280200FF2A0100072B0102402C0129
:1026B30000002D0100012E0100012F0100FF300158
:1026C3000B1D310800003A0100083B01000F3C01DB
:1026D30000013D0100FF3E040000420400004604E7
:1026E30000004A0400004E04000052040000560497
:1026F30000005A04000001037103010301030103F5
:102703000103010322030203010310030003000377
:102713000003000300030003000342030003240338
:102723000603000300030403120325032303250305
:10273300230304030403000300030003440300030F
:102743000003230300036503210035038103000312
:10275300050300030003000300032503230303020F
:1027630071023001600211027002010202020202D0
:102773008002100261023A00410063027302720296
:102783006202430200021302380000020002040244
:1027930012020002000200020002040204023700D7
:1027A30037003C02440200023900000200026502C5
:1027B3000002350281020002050282028302000246
:1027C300030071003001600011007000310220032A
:1027D30050048000100061000000140063007300C7
:1027E30072006200430000001300060000000000B6
:1027F30004001200000000000000000004000400B8
:10280300370037003C0244000000000000000000D5
:102813006500000035008100000005000000830012
:1028230000000101710101010101110101013101E7
:10283300010101018001100161013B0014006301EA
:1028430073017201620143010001130106013D019D
:10285300350004011201000100010001000104011F
:102863000401330133013C0144013201360000010C
:1028730000016501000135008101000105018201AC
:102883008301000136000100060000000F00000074
:102893000000000000000000000003FFFF00000430
:1028A30003FFFF0000FFFF0FF4010005C404032032
:1028B300000100000B000000000000000003010FF6
:1028C3000000000000000000000000000000000005
:1028D30000000000000000000000000000000000F5
:1028E3000000F6133E14FC130613021444140214DE
:1028F300501408140613021444140E140613000093
:1029030000001414061300000000000000001A1455
:1029130006132014561426140613000000000000AA
:102923000000000000002C146814321406132C1449
:1029330068143214061320145614381406131300A3
:1029430098170000F2170100F217020050170280D7
:102953004A170300561704005C170480621705002A
:10296300681706007417310086173300C22334003A
:102973009217FFFF000007ECFDFDFDECDCDCCCBC97
:10298300ACAC9C9C8C7C7C6C6C5C5C5C4C4C3C3C34
:102993002C2C1C1C03EAF5E5D5D5C5B5A595958565
:1029A30085757565655555454535352525151505D4
:1029B3000A581E02221E052E1E07281E0C0A1E0D73
:1029C300161EFF000000160F00000B150B0200027D
:1029D300220F3300000E0F5A6967426565416C6C24
:1029E30069616E63653039D0D1D2D3D4D5D6D7D807
:1029F300D9DADBDCDDDEDF000000040600000406BC
:102A030000010406000204303017181921301B1D81
:102A13001F3000034D4C4651181A250502000119B9
:102A23001618161618230300303016181920231A07
:102A33001C1E30003C40423A3F3F392F47300C0EBA
:102A4300020B040B0A0708000F0204020101010133
:102A5300090200BE040AE803000001000300E803C2
:102A63000E001E0404091903101E030A0C040408B3
:102A730028020C05081504FF74F71203F2E99013FA
:102A8300B7F090136CE4F01210F69013CFE4F0A3B8
:102A9300F09013B8F0A3F0121FAE1210FC9012EFD7
:102AA300E4F0A3F012195A02445974F01203F274B9
:102AB300D31209578518828519831260EF548060F9
:102AC300689013B7E0F912117A8A088B09AE08AF40
:102AD30009EE4F604C7C0080010CEC75F003A4F808
:102AE300A9F074B328F582742939F583E493F4606B
:102AF30029E493F88E828F83E06870DDEC75F00330
:102B0300A4F874B428F582742939F583E493C0E0FA
:102B1300740193F583D08212056AEEFAEFFB12116A
:102B2300681266906480022E92851882851983A3A9
:102B3300E054206021121EBE8A088B09AE08AF093B
:102B4300EE4F600A121E16EEFAEFFB1211681266C0
:102B5300906420022E92851882851983E0A2E050AA
:102B630025901371E0640F70117900121DECE96078
:102B730009901573120B68121E0485188285198338
:102B8300E06401022E7154207003022E767A207BBA
:102B9300009013B7E0F91212BEEA4B4C4D701A9035
:102BA30013CB120B50E8494A4B700E750801750997
:102BB30000750A00750B00806A750C00750D0075B1
:102BC3000E00750F001212CA8A088B098C0A8D0B2E
:102BD3009013CB120B50E8494A4B60319013CB78DA
:102BE3000812082D400E750CFF750DFF750EFF754D
:102BF3000F7F801985080C85090D8C0E8D0F90139E
:102C0300CB780C12093F7401780C12090E850C085D
:102C1300850D09850E0A850F0BE5081230917003A7
:102C2300022DB17C0079047A007B00121E948A0C79
:102C33008B0DAE0CAF0D022CF27402120B7F74FFDE
:102C4300F07403120B7F74FFF07404120B7F74FF94
:102C530012640F7407120937125B0A125BE2121E29
:102C6300DCE96401706B124C834480F8A3E0F974CF
:102C730028120B7FE8F0A3E912633EE0C0E0742A58
:102C8300120B7FD0E0124595540860167428120B7E
:102C93007FA3E04401122EA5C0E0742C120B7FD059
:102CA300E0F0125F3B6012124438125FF3E0F874F5
:102CB30016120B7FE8F0A3E4F090860E1207187447
:102CC30006120937740B12092F121AAA7404120878
:102CD300A48E828F83A3A3A3A3A3A3A3A3A37406F6
:102CE300122EA5F9121E767405120B7F126007EEE1
:102CF3004F7003022DB17C007904EEFAEFFB121E34
:102D0300947405120B7FEAF0A3EB1252B1E0F50CB9
:102D1300A3E0F50DE4F50EF50F7808790C120ADA45
:102D23004023EE2404F8E43FF985080C85090D8857
:102D3300828983C3E0950CF0A3E0950D126799E8AF
:102D43004970A4800C8E828F83A3A3A3A3E4F0A372
:102D5300F08E828F83A3A3A3A3A3A3A3A3A3A3E020
:102D630064018E828F83A3A3A3A3A3A37023E05440
:102D7300046003022C3C8E828F83A3A3A3A3A3A38B
:102D8300A3A3A37406F07AB7122FD4121DFE022C4C
:102D9300EAA3A3A3A3E06003022C3C8E828F83A348
:102DA300A3A3A3A3A3A3A3A37401F0022CEA121E5B
:102DB300647C0079017A007B00121E948B0DEA4536
:102DC3000D600C7A207B009013B7E0F91211A47CFC
:102DD3000079047A007B00121E94EA4B7013804D35
:102DE3008A828B83A3A3A3A312613DEE98EF99403C
:102DF3000B8A828B83A3A3A3A31260077C007904AD
:102E0300121E948B0BA90BEA4970D5C3E5089EE506
:102E1300099F500DC3EE9508FEEF9509FFEE4F7025
:102E2300167A207B009013B7E0F91211A49013CB0C
:102E3300122E9EA3F0802EEE2EFEEF33FF8E088F10
:102E430009E4F50AF50B78081208897A207B0090CB
:102E530013B7E0F91212AC74041208A41212CA9048
:102E630013CB120B5C851882851983E06420FAA3C7
:102E7300E0801CA3E0540460191257AA12234A7974
:102E83000190136A125BE2121ABC1266906404FB8F
:102E930080047A007B00742D025F10E4F0A3F0A39A
:102EA300F02212459AA3A3E022C082C08374EA12DF
:102EB30009577C167D007900AA18AB1912114474C6
:102EC30008120B7F7402F0901360125A0A122EEC50
:102ED3007409120B7F125A237413120B7FE41256D8
:102EE300E812194E741602485EE8F0A3E9F0901355
:102EF3006A125F592274F71203F274DA120957EA5D
:102F0300FEEBFFEE4F602DAC18AD19121EDC7406FC
:102F1300120B7FE0601E7417120B7FE0FD74011229
:102F23000B7FE0FCEEFAEFFB7900121DC2E96004AF
:102F330079A480027900742602445674F71203F2CE
:102F4300EAFEEBFF8E828F83A3A3A3A3A3A3E05484
:102F5300406017125F1D125BE2121F72E960067A6E
:102F6300FF7BFF8015125F1D8003901360125BE2ED
:102F730074FE6A700374FF6B6047125F1D1260EF8B
:102F8300121F72E98E828F83600E12672812486BBC
:102F930038F583E4F0A3800312674DF07CF27D1DC6
:102FA3008E828F83125BE2121954E9F5087015EED5
:102FB3004F60097901EEFAEFFB121E70A908024473
:102FC300597508CDAA08122FD4121DFEE960E080BE
:102FD300EB8E828F8312672C240CF582E438F58301
:102FE300E0F92274F61203F2E9FEEAFF7A0F7B009E
:102FF300121162EA4B601F8A828B83740CF0EEA37A
:10300300A3F0EF8A828B831241EE9013B7E0F9129B
:10301300116E79008034EEF9121E9A8A088B09A882
:1030230008A909E849602188828983A3A3A3A3A3EC
:10303300A3A3A3A37406126150A3A3A3A3A3E0F9BC
:10304300121B4CEEF9121E7679100254AB74F41273
:1030530003F28A088B098C0A8D0B901371E0640FBD
:103063007028123090602390136CE064086005E0D0
:103073006404701678081208897A017B009013B7EC
:10308300E0F91212AC74041208A40232F6EA4509FC
:10309300450A450B2274F41203F274FC120957EA31
:1030A300FEEBFF8E828F83A3A3E0F9121E9A8A0898
:1030B3008B09EA450970030231D78E828F83A3A857
:1030C30082A983E0C0E0EA12569AD0E01240596424
:1030D300F160288E828F83A3E064CD601E8E828F81
:1030E30083A3E0641A60148E828F83A3E064E96093
:1030F3000A8E828F83A3E064E170307900121E7020
:10310300E96028E5082404F50AE43509F50B850888
:10311300828509831231E812403F125BE2121108E3
:10312300850A82850B831260EF80788E828F83A35A
:10313300E0C0E07402120B7FD0E01248711267877F
:10314300EE240B12475DC0E07403120B7FD0E0F056
:10315300E508126401123762E0AA18AB1970051270
:103163001AA48003121F5A7402120B7FE064E970E1
:10317300328508828509831238FB750A01780A12A1
:103183000895750AE9780A120895124023124466D5
:10319300A3A3A3A3A312445E125BE2121F12740241
:1031A3001208A4850882850983A3A3A3A3A3A3A3C9
:1031B300A3A3E064027012850882850983A3A3A3F5
:1031C300A3A3A3A3A3A37406F08E828F83A3A3E078
:1031D300F9121E76121E649015791236C6121E0459
:1031E30074040232F3A3A3A3A3A3A3125AF78E82F8
:1031F3008F832274F41203F2EAFEEBFF7508008E4C
:10320300828F83A3A3A3A3A3E0603B750808125B8B
:10321300D579FF121C248B0BEA450B601075082C23
:103223008E828F83A3A3A3A3A3E0D2E0F08E828F29
:1032330083A3A3A3A3A3E05403640160030232EDB9
:103243004308110232EDEE241812475D6036EE2476
:103253001A12475D6003F470121260F57003A3E065
:103263006960030232ED750822807FEE241B125A37
:10327300EDEE241A12475DFAEE241912475DF91296
:103283001B3A8066125BD5121F72E96402700375E4
:1032930008011260F57003A3E0697006E508D2E146
:1032A300F508E50860158E828F83A3A3E07006E519
:1032B30008D2E58004E508D2E6F508125BD5121FB3
:1032C30072E964017006E508D2E0F5088E828F8307
:1032D300A3A3E06015EE241D124F9DF9121F60E9B0
:1032E30064016006E508C2E0F508A90880057409D1
:1032F3001208A47F0402060974F01203F274D712B1
:103303000957EAFEEBFF8E828F83A3A3A3A3E0609A
:1033130011901577125F4460099015771236C61223
:103323001E0474031209378E828F83A3A3A312583A
:10333300BC125BE0121EDCE9700302349178017465
:1033430005120B7FE0C39402400278007407120B4E
:103353007FE0C3940240027800740C120B7FE06498
:10336300F87003A3E0F47003023491740C120B7F22
:10337300E064F97003A3E0F47003023491740C1257
:103383000B7FE064FA7003A3E0F4700302349174DA
:103393000C120B7FE064FB7003A3E0F470030234B0
:1033A300917406120B7FE0F990135AE069600302EF
:1033B3003491E8A2E040030234917427120B7FE0BA
:1033C3006003023491EE2413125F4F7422120B7FB9
:1033D3001258C6241C125F4F7410120B7F125A230B
:1033E3007409120B7FE0601D741A120B7FE0FD74E9
:1033F30004120B7FE0FC8E828F83125BE079011253
:103403001DC2E9703D740312092F121E10E9F50C59
:103413007409120B7FE0702E901354E0602874221D
:10342300550C642260207442550C6442701474205D
:10343300120B7F1236D2600E7420120B7F1236BF2E
:1034430060047ACF804AE9A2E6504D7420120B7FC4
:10345300124FA324FD600F14600C24FD600824FDAB
:10346300600424FE70287420120B7F1236B8700E8D
:103473007420120B7F1255F7A3E0640D601A7403D6
:1034830012092F121F8AE96401700D0236B37AD331
:103493007B001216EA0236B3EE242DF582E43FF5E3
:1034A300831238F27003A3E069702275080078086C
:1034B3001208957808120895EE242F12475DF91229
:1034C30036D8125BE2121F1274021208A474091296
:1034D3000B7FE070030235751236D8125BE2121FC0
:1034E300DE8A0E8B0FEA450F700302360C7404124A
:1034F3000B7FE0F88E828F83A3A3E028F8A3E03448
:1035030000F9E812486B39F583E0F88A828B83A3CC
:10351300A3A3E068600EE88A828B83A3A3A312416E
:10352300E7122E9F7904E9120B7F124CA4A3E02A21
:10353300F8A3E034008882F583A3AA82AB83121137
:10354300508A088B098C0A8D0B850E82850F83A305
:10355300A3A3A3780812082D40030236B39085B6BF
:103563007808120A11850E82850F83126783A312CE
:10357300499790136CE064046008E06409600302F7
:1035830036B3E50CA2E54003023646EE242F124C77
:1035930074F0EE243012475DC0E07401120B7FD04B
:1035A300E0F0EE243112475DC0E07402120B7FD0CD
:1035B300E0F07414120B7FE06401702C740E120B94
:1035C3007F124050241312475D687003A3E06970B3
:1035D30017740C120B7F125BE2121F72E964027004
:1035E300077414120B7FE4F0EE2425F582E43FF513
:1035F300831207187404120937740712092F121A59
:10360300AA74041208A40236B39013B1E0640160F3
:10361300030235757420120B7F1236D27009E50C44
:10362300A2E650030235757410120B7FE0F47003A9
:10363300A3E0F4607BEEFCEFFD740312092F121E6E
:103643001C806DA2E650697420120B7F125B04701C
:1036530016741A120B7FE064027055740312092F5B
:103663007900121F5480497420120B7F1236BF70E9
:1036730014741A120B7FE064047035740312092F5B
:10368300121F48802B7420120B7F1236B8700C79EE
:1036930000740312092F121F9680157420120B7FDA
:1036A3001255F7E0640C7008740312092F121FA25D
:1036B3007429025F10125F27E0640322125F27E080
:1036C300640722E0F508A3E0AA08FBE4FCFD22124C
:1036D3004FA7640622EE242BF582E43F1236E6124E
:1036E300475622F583125AF7EE2274F41203F2EAD4
:1036F300FEEBFF8C088D099012D0E0600F1260F58D
:103703007003A3E0697005121B2880497900125BDE
:10371300D5121B588A828B83E5824583602FA3A32E
:10372300A3A3A3A3E054186024E508241C12375F65
:1037330012071C12375B12071CEE241812475DF99F
:10374300123767121B6A74041208A48008790012E6
:103753003767121B2E0232F6E5082413F582E4358F
:1037630009F583228E828F83A3A3A3A3A3A3A3A379
:10377300A31236E8125A01125BE62274F71203F21F
:1037830074F7120957EAFEEBFF90136CE0640360D1
:103793000DE064016008E0640960030238998E82D9
:1037A3008F83A3E0600302385C7C007D007A027B98
:1037B3000012110212389E8A828B83125F55901376
:1037C3005D125A23795312193C90136CE06409601B
:1037D3000990136A125BE2121FD885188285198338
:1037E30074011256E8794212193C90136C7404F078
:1037F300740112092F794A12193674011209377AA2
:10380300627B131212E29011C1E0640B700574061F
:10381300F0800B790090136A125BE2121ABC9013CA
:103823005D125AF37A037B00121102901360125A4D
:10383300F37A047B00121102901357E0A2E35004C1
:10384300D2F08002C2F01256DE795212193C901562
:1038530073120B68121E04803AFC7D007A037B10FE
:103863001211029011C1E0640B7003740AF09012FC
:10387300D4E4F0FA7B409013B7E0F91212B88E82C9
:103883008F83A3E0F990136A125BE2121ABC9013C0
:103893006CE4F0121E467409024456EE2402FAE464
:1038A3003FFB22C082C0839012EF125F44701790D7
:1038B300136CE024FB6005146007800A9012F68005
:1038C300209012F8801BE84960089012F0123ACA5F
:1038D300700C8A828B83A3E0F9121AB0800E9013C6
:1038E300E6125F4460061255F812056A025124126B
:1038F3005F5990136AE06822125F59E8FAE9FB22E4
:1039030074F51203F274D81209578A088B098A8254
:103913008B83A3A3A3A3A3A3A3A3E0C3940F5003E5
:10392300023AC58A828B83A3A3A31260077415127C
:1039330009378A828B83A3A3A3A3A3A3A3A3E0F939
:103943008A828B83125BD9121E527415120B7FE08D
:10395300702E850882850983A3A3A3A3A3A3A3A38E
:10396300E0C3940B401A8E828F83A3A3A3A3A3A3C4
:10397300A3A3E064027009EE240B12475DF4600315
:10398300023AC57417120B7FE060076402600302FA
:103993003AC590136CE06402601AE0640660159007
:1039A30012EF125F447003023AC5123ACA6003026F
:1039B3003AC580329012EF125F44702A750800787E
:1039C300081208957808120895EE2410F582E43F52
:1039D300F5831258BDA3A3A31231E8125BE2121FB1
:1039E3001274021208A48E828F83125A0AE8F0A37B
:1039F300E9124062125F557402120B7F1258C6120D
:103A03004C84C0E07404120B7FD0E0F0EE240B1260
:103A13006142740F7808120B197405120B7FE508C5
:103A2300F07419120B7FE0C0E07406120B7FD0E034
:103A3300F0741B120B7FE0C0E07407120B7FD0E021
:103A4300F07416120B7FE0C0E07409120B7FD0E014
:103A5300F07417120B7FE0C0E07408120B7FD0E004
:103A6300F0EE241012475DC0E0740A120B7FD0E021
:103A7300F0741A120B7FE0C0E0740B120B7FD0E0DE
:103A8300F07427120B7FE0C0E0740C120B7FD0E0C0
:103A9300F0741C120B7FA982AA8389088A09750A0C
:103AA30000780812088D7C087D007410120B7FAA21
:103AB30082AB8312113874031208A4AA18AB19122B
:103AC3001AB674280245AAE0C8125AE364012274A4
:103AD300F21203F274F81209578A0A8B0B8C0C8DBD
:103AE3000D8908908549AC18AD1974081207EDC209
:103AF30000AC0AAD0BAA18AB191212DCE97002D2A2
:103B0300009013B88014AC0AAD0BEE240BFAE43F1B
:103B1300FB1212DCE9701B1247431243A2601EA280
:103B23000040E38E828F83E0650C7004A3E0650D93
:103B330070E58E828F83A3A3E0650870DAEEFAEF57
:103B4300FB740802406FC082C0839013B8025121F6
:103B5300C082C0839013B8E4F0A3023DC374F7128C
:103B630003F29013B8126696800FEA2414F582E4E8
:103B73001260041211F8EEFAEFFBEA4B70EC9013AB
:103B8300B8E4F0A3F002445974F21203F28A0C8BE6
:103B93000DECFEEDFF890B8A828B831256A5F0A3F1
:103BA300A882A9838A828B83123C541241E2A3E048
:103BB300C454F0FA88828983E04A124CC8850C8287
:103BC3008B83A3A3123C54123C67E0333354FC129F
:103BD3003C5BE033333354F8123C5BA3E0A2E0E4F4
:103BE300331313FA88828983E04AF0EE2403FE50EC
:103BF300010FE50C2407F508E4350DF509750A00F6
:103C0300780812088D7C087D00EEFAEFFB1211385C
:103C130074031208A4EE2408FE50010FE50C240FD0
:103C2300F508E4350DF509780812088D7C037D004D
:103C3300EEFAEFFB12113874031208A4E50BC394D8
:103C43000F400BE50C124865350D125270F002401F
:103C530072A3E08882898322FA88828983E04A12E8
:103C63003C67A322F0850C828B83A3A3A3A32274B6
:103C7300F21203F2EAFEEBFF8C0C8D0D8E828F8322
:103C8300E08C828D831252A6A882A983E0540F8C04
:103C9300828D83124058C41250C7124CBE1250CFAB
:103CA300124056A2E2E4338C828D831240551313E3
:103CB30013541F1250C7124055A2E7E4338C828D70
:103CC30083A3A3A3A3A3A3F0EE2403FE50010F8EAB
:103CD300088F09750A00780812088D7C087D00E5B5
:103CE3000C2407FAE4350DFB12113874031208A4EF
:103CF300EE2408FE50010F8E088F09780812088DF4
:103D03007C037D00E50C240FFAE4350DFB1211381A
:103D130074031208A48E828F83A3A3A3E0C0E012CE
:103D230067A1D0E0F002407274F61203F2EAFEEBF0
:103D3300FF8E828F83A3858208858309E0F9121A97
:103D4300D4850882850983E064EB601E8E828F83AD
:103D5300A3E064E160148E828F83A3E064F1600AC0
:103D63008E828F83A3E0641A70078E828F83A3E40D
:103D7300F0901573120B68121E047508017808126F
:103D830008958E828F83A3E0F50878081208957949
:103D93000090136A125AF3901360125BE2121F121F
:103DA30074021208A4121E640254ABC082C083E9D9
:103DB3009013CA7003E4800274018004EAF0A3EB59
:103DC300F002512474F61203F29013CAE0701B7CC4
:103DD3000079017A007B00121E94EA4B600C8A8200
:103DE3008B83125F446003121DF80254ABC082C080
:103DF300837904121E8EE9F8902A76E493C39840DF
:103E03001079FF121E8EE9F8902A75E493C3985037
:103E13000479018002790002512474F21203F28AB8
:103E23000A8B0B8909C2008A828B83A3A3A3A3A352
:103E3300A3A3A3E0F9121E9A8A0C8B0DAE0CAF0D4F
:103E4300750801EE4F6003023F06850A82850B83E6
:103E5300A3A3A3A3A3A3125AF3850A82850B83A367
:103E6300A3A3A3A3A3A312403F125BE2121E828A61
:103E73000C8B0DAE0CAF0DEE4F700302401C8E8207
:103E83008F83A3A3A3A3E4F0A3F0E50A240CFAE42D
:103E9300350BFB8A828B83E0C0E0124023D0E0F035
:103EA300E50A240D124049240D125A1D121F78EE03
:103EB300240F1260E9E50A24111240492411125A11
:103EC3001DE50A2413126134C0E0124751D0E0F01B
:103ED300D200EE2406124C6B1240361240595404A1
:103EE3006003023F74901585E0F50A750B007407B3
:103EF300780A120A708E828F83A3A3A3A3A3A312AB
:103F0300402DF08E828F83A3A3A3A3A3A3E0F50A7E
:103F1300A3E0F50B7407780A120B19E50A5407FCA2
:103F2300E509605C8E828F83A3A3A3A3A3A3A3A3AA
:103F3300A374021252AB124316600B901358124C27
:103F4300F1A3A3125A23EC7003023FE7EE240612F7
:103F5300670A124036F0EC24FFF50AE434FFF50B50
:103F63007407780A120A708A828B8312402DF080BC
:103F7300738E828F83A3A3A3A3A3A3E04480808231
:103F8300EC7005750800805C8E828F83A3A3A3A3C6
:103F9300A3A3E05420600C12115CEA547F7900243F
:103FA3005F80198E828F83A3A3A3A3A3A3E05410DE
:103FB300601A12115CEA540F7900240A5001098E29
:103FC300828F83A3A3A3A3F0A3E9800D8E828F83A3
:103FD300A3A3A3A37401F0A3E412406274041242E6
:103FE3009A1211A4A20050348E828F831231EAA355
:103FF300A3A3A3A3A3A3A3A3E0F9EEFAEFFB121ECB
:1040030088E96018125F3B6009124438125BE212C0
:1040130011F8EEFAEFFB1211F8750800A908804FAA
:10402300EE240CF582E43FF58322E0450AF0A3E099
:10403300450B22E0547FF0A3E054FC22A3E0F98572
:104043000A82850B8322F582E4350BF583125F59CF
:10405300EE22A3A3A3A312405D2212615BE022120E
:1040630040662212459EA3A3A32274031208A47FD1
:104073000602060974F41203F274F71209577E005C
:10408300121E9AEA4B70030241368A828B83A3A3E2
:10409300A3A3A3A3A3A3A3E0640660030241368AF8
:1040A300828B83A3A3A3A3A3A3A3E0FF8A828B830F
:1040B300126732E0C0E07408120B7FD0E012447C38
:1040C300125A0F125A23121EACEF5408606385185C
:1040D30082851983125AF37A007B00121E7C8B0BA4
:1040E300EA450B704C1267AD1219667C007D007AAD
:1040F300007B0080288E828F83124FA3F47003A36A
:10410300E0F4602D90136A1231EE125BE212196033
:10411300E9641A601C7C007D00EEFAEFFB121E7C42
:104123008A0A8B0BAE0AAF0BEE4F70C979001219D6
:104133006C7E01EEF90232F1C082C0838A828B83E6
:10414300E582458370099013CF80068A828B83A30F
:10415300A312434A60208A828B83A3A3A3A3A3A3AE
:10416300A3E0540860E5EC4D60101243507003A3C4
:10417300E06D70D780047A007B0002512474F21240
:1041830003F28A088B09890AECFEEDFF7A147B009F
:104193001211F2EA4B603B8A828B83A3A3A3A3A3EE
:1041A300A3A3A3A3E4124471A3E50A126116A3A374
:1041B300A3EEF0A3EF1241E71244831241EE8A8289
:1041C3008B83126787EA240F1241D81241E1A3F0CF
:1041D300A3F0024072F582E43BF583E4F022A312DC
:1041E300676AA322126126E4F0A322A3F0125FFD03
:1041F3001241DB2274F51203F2EAFEEBFF890A8C0B
:10420300088D09EE4F70030242957401650A70121E
:104213007901121E8EE9F8902A77E493C39850220D
:1042230080167404650A70147904121E8EE9F890DE
:104233002A76E493C398500A791180587402650A68
:1042430070508E828F83A3A3A3A3A3A3A3A3A3E5E9
:104253000A1252AB1267838E828F83A3A3E4F0A367
:10426300F09013CF125F4460188003125F55888269
:104273008983A3A312434A88828983A3A370EC8012
:10428300039013CFEEF0A3EF12429A1211A4790018
:10429300800279C10245ADF07A207B009013B7E02C
:1042A300F922C082C083E9F879009013CF801D8A78
:1042B300828B83A3A3A3A3A3A3A3A3A3E068600503
:1042C30074FF687001098A828B83A3A312434A7027
:1042D300DE02512474F71203F2EA4B70059013CFF8
:1042E30080068A828B83A3A312434A601F8A828B30
:1042F30083A3A3A3A3A3A3A3A3A3E06970E4EC6094
:104303000F8A828B8312431670D880047A007B0055
:10431300024459126756E0540422C082C0839013AA
:10432300CF80068A828B83A3A312434A60128A82B8
:104333008B83A3A3A3A3A3A3A3A3E06970E5800432
:104343007A007B00025124125BE6EA4B228A828BBD
:1043530083124FA76C2274F21203F28A0A8B0B8C1E
:104363000C8D0D750800750900EA450B602A901342
:10437300CF80068E828F83A3A31243A2601AAC0C54
:10438300AD0DEEFAEFFB850A82850B8312056AE910
:10439300640170DF8E088F09AA08AB09024072E03E
:1043A300FEA3E0FFEE4F2274F71203F29013CF1235
:1043B3005F557C007D00800DE8FCE9FD88828983E0
:1043C300A3A3125F55E8496030EA687002EB697095
:1043D300E79013CF125BE2E86A7002E96B88828987
:1043E30083A3A37008125F559013CF8009125F5502
:1043F3008C828D83A3A3125A23805B74F71203F27A
:10440300EAFEEBFFEE4F602B121EA6124446125B30
:10441300E21211F88E828F83125BE21211F8125F9F
:104423003B6009124438125BE21211F8EEFAEFFB1B
:104433001211F88021EE12443D22240FF582E43F4D
:10444300F583228E828F83E0F8A3E0C8125B1D38C8
:10445300F583221208A47F01020609125AF78A8201
:104463008B8322E0F98A828B83A3A3A3A322124422
:10447300752212612AA3A3A32212676A124FA722ED
:10448300124475A3A32274F61203F29013CF1260A1
:104493000780308E828F83A3A31261481244461291
:1044A3005BE21211F88E828F83125BE21211F81213
:1044B3004438125BE21211F8EEFAEFFB1211F8AE78
:1044C30008AF09EE4F70CC9013CFE4F0A3F0025481
:1044D300ABC082C083EAFCEBFDEC4D6017EC24FB20
:1044E300F582ED34FF125F42700712452EE0F4604F
:1044F30007121168790580309013B7E0C0E01245C8
:104503002ED0E0F0902A6EE493F97AD17B13121146
:104513009EE9640170107A007B209013B7E0F912D2
:1045230011A4790080027904025124EC24FFF5825E
:10453300ED34FFF5832274F41203F2A2AFE433F5F2
:1045430008C2AF9013D11243A2603AEE24FBF58266
:10455300EF34FF125F427A007B209013B76007E0CD
:10456300F91211A48005E0F91211AAE4F50AF50B7A
:10457300780A120891EEFCEFFD7AD17B13121198A1
:1045830074021208A4E508A2E092AFEEFAEFFB0270
:1045930032F612459AE02212459E22F08E828F83D4
:1045A300A3A3A3A3A3A3221208A47F03020609744F
:1045B300F21203F274FA120957EAFEEBFF7508FED2
:1045C3007509FF121E6AE96005791102473E124719
:1045D3005A603B90159FE0C43354E0F8E033335402
:1045E300FC48C0E0125DD3D0E0126161FAA3E0FBA6
:1045F30079FF121C248B0BEA450B60127508FFEE42
:10460300240F12475D4404F012475AD2E0F08E8221
:104613008F83125BE0121F72E96006EE24121261AF
:1046230078EE241312475D700D902A6CE493C0E07A
:10463300124751D0E0F08E828F83E0A2E7500454FA
:10464300038019EE241412475D7012901349E0C0E1
:10465300E0124743D0E0F0901349E004F0EE241158
:1046630012475D64017016901589E0600D90135434
:10467300E0700A8E828F83E070031261758E828FE1
:1046830083E064017013EE240B124F9D64027009E2
:10469300EE240F12475D4440F0AC18AD19EEFAEF6B
:1046A300FB121ED68A0A8B0B74FE6508700374FF17
:1046B300F470098E828F83A3A3126148EA450B60CD
:1046C300768E828F83E0C0E07401120B7FD0E0F01E
:1046D3007404120B7FEEF0A3EFF0EE241E125F4F73
:1046E3007402120B7F125A237401120927880C8952
:1046F3000D780C120891EE242012476512089512CA
:10470300443812071CEE240E1247651208959013C5
:104713005D12071C7408120B7FE0F9AC08AD091297
:104723001ED074081208A4E9FE74106E700BAA0A56
:10473300AB0B1211F880027E10EEF9740602406F83
:1047430012474722EE2414F582E43FF58322EE124A
:104753004756221256D522EE2415F582E43FF583FF
:10476300E022F582E43FF583E0F50C780C22C08269
:10477300C08374D7120957908116740312093774D2
:10478300261207ED8A828B83A3A3A3A3125F55741A
:104793000E120B7F126762A3A3125F55740C120BE8
:1047A3007F12487912486B1253CEC0E0741A120B71
:1047B3007FD0E0F0125E50125F537420120B7F1211
:1047C30048791256941253CEC0E07408120B7FD06E
:1047D300E0F0EA241CF582E43B125F537412120BDF
:1047E3007F1248792411F582E41253CEC0E0740994
:1047F300120B7FD0E0F01248641253CEC0E074076E
:10480300120B7FD0E0F0EA241EF582E43B125F53E3
:104813007424120B7F1248792420F582E41253CEBC
:10482300C0E07426120B7FD0E012487174FFF0745D
:1048330001120B7F74FFF07402120B7F74FFF09070
:10484300860E1207187404120937740712092F12FF
:104853001AAA74041208A4790074291208A4025134
:1048630024EA2412F582E422240DF582E422F08561
:10487300188285198322E8F0A3E9F0EA2274F4127E
:1048830003F274EC1209578A0A8B0B8C088D09E921
:10489300FF7E107A217B001211F28518828519831D
:1048A300EAF0A3EB125F4AE849700302498E7C21C8
:1048B3007D007900851882851983E0FA12114490EE
:1048C300136A125BE285188285198312672824090B
:1048D300F582E4381260ED7420120B7F125F557479
:1048E30011120B7F12501A125EFD38F583740212F7
:1048F300501E1267397402125007E508F0A3E50948
:1049030012501E126717EFF07422120B7F124FBB67
:10491300F9A3E0C912640139F583E8124CB9A3E0A5
:10492300C9125B1D391249957423120B7F125BE286
:104933007406120B7F1260EF7408120B7FE8F07499
:1049430026120B7F125F21C082C083740C120B7F6F
:10495300AC82AD83D083D08274051207ED74251227
:104963000B7FE0C0E07413120B7FD0E0F07900AA54
:1049730018AB19121E70E9640170047E00800C8567
:104983001882851983125BE21211F8EEF97414028E
:1049930032F3F583E50AF0A3E50BF02274F012037A
:1049A300F274FF120957EAFEEBFF8C088D098E8221
:1049B3008F83A37408F0EE241612475D60088E827D
:1049C3008F83A37410F0EE241712475D60098E8263
:1049D3008F83A3E02408F012475A60088E828F83E6
:1049E300A3E004F08E828F83A3A3A3A3A3A3E06019
:1049F300198E828F83A3A3A3A3A3A3A3E0C333240A
:104A030002F88E828F83A3E028F0EE2411124C74F7
:104A13006004740E8001E4F0901597E06401701651
:104A23008E828F83E06401600D9012D4E0600712E0
:104A33004C6174018004124C61E4124CB98E828F74
:104A430083A3E0124C8228298C828D83F0EE2411FB
:104A530012475D6013901355E0F9121DC8E9F885FC
:104A63000882850983E029F0850882850983E0C3EC
:104A730094754009750C00750D00024C58E0FA7BE3
:104A8300001211F28A0C8B0DEA450D7003024C588B
:104A93008E828F83E0FA90135A124CB27402780814
:104AA300120A70EA4508FAAB09EE2412124CAC74F0
:104AB300067808120A70A808EA48FCEBFD12475A68
:104AC3006004780180027800EE2416FAE43FFBE4E8
:104AD300C8F9ED49FDEE241112475DF50888097404
:104AE300097808120A70ED4509FD8A828B83124CFE
:104AF300B2740B7808120A70ED4509FDEE24171203
:104B03004CAC740C7808120A70ED4509FD8E828F47
:104B130083A3A3A3A3A3A3124CB2740A7808120A13
:104B230070ED4509FDEE2423124CAC740D78081288
:104B33000A70ECF8ED4509F9E8850C82850D83F0E0
:104B4300E9124CBE850C82850D83124CE1F0EE24F4
:104B530004124C6B124C96124CE1A3A31256CB12C7
:104B63004C96A3A3A3A312677D850C82850D83A313
:104B7300A3A3A3A3A3A3F0750B088A828B83E0608E
:104B830015EE2418125AEDE50C2408FAE4350DFB52
:104B93001212E2750B10EE241712475D6019EE2412
:104BA3001A125AEDA80BE50C28FAE4350DFB121284
:104BB300E27408250BF50B8E828F83A3A3A3A3A313
:104BC300A3E06055EE2407F50EE43FF50F850E8252
:104BD300F583E0C0E0124C89D0E0124CD1E0C0E094
:104BE30008124C8BD0E0124CD1A3125F2E12088D09
:104BF300850E82850F83E0124F6DA80BE50C28FA12
:104C0300E4350DFB12113874031208A4850E828556
:104C13000F83E0C333250BF50B12475A6008C0E03E
:104C2300124C89D0E0F01259FC125F2E12088D123B
:104C33004C83FC7D007403120B7F124CA4E0F8E557
:104C43000C28F8E4350DF9E82AFAE439FB12113897
:104C530074031208A4AA0CAB0D7401025F10EE24B6
:104C630023F582E43FF58322F8E43FF988828983C0
:104C730022F582E43FF583E085188285198322F8C3
:104C8300EE1265F1E022A80BE50C28F582E4350D60
:104C9300F58322124C9A22E0850C82850D83A3A30F
:104CA30022E0FA8E828F83A322F582E43FF583E02C
:104CB300F50875090022126770F922A3124CC888FF
:104CC300828983E022F0EE2402F8E43FF922F00522
:104CD3000B8E828F83A3A3A3A3A3A3A3A322A3A324
:104CE30012615BA3124C9AA32274030232F3125F84
:104CF300598E828F83A3A32274F01203F274FD12E0
:104D030009578518828519831260EF7402120B7F8D
:104D1300E9F08C0C8D0D750B017C267D007900AAC2
:104D23000CAB0D1211447402120B7FE0C3940850B4
:104D330003024EF7E0850C82850D83F0AC0CAD0DBC
:104D4300851882851983124FA3FA851882851983E2
:104D53001255F712529A121EE2E96003750B008591
:104D63001882851983125F21124FC5E0F9EA850C79
:104D730082850D83A3A3A3A3A3A3A3A3A3F0A3E962
:104D8300125007A3A3124FC5A3A3E0F9EAF8E50C59
:104D9300125EFD1267A812501A125ADFC0E0E50C2A
:104DA30024111267A5D0E012501E2407F582E438BF
:104DB300F583E0C0E01267A1D0E0124FF17408124E
:104DC3004FFEA3E06020851882851983E02408F84C
:104DD300A3E03400F9E50C24131267A5E8F0A3E976
:104DE300125EF82408F0850C82850D83A3A3A3A388
:104DF300A3A3A3A3E0602A850C82850D83A38582E8
:104E03000E85830F124FB2F8A3E03400F9E50C12BC
:104E13005694350D125A21850E82850F83E024089E
:104E2300F0124F74E4F0124F84E4F0A3124FF1A395
:104E3300A3A3A3E06011124FD6850C82850D83A333
:104E4300A3A3A3A312500FE50C124F95E070030226
:104E53004EE3124FD6FA124F74EA12500FF8851828
:104E630082851983E028FBA3E034008B82F583E07D
:104E7300F8E50C241A1267A5E812500FE8C39AE567
:104E83000C5058124F90F8902A6FE493C398500433
:104E93007E0C8006E50C124F90FE850C82850D83F7
:104EA300124FB1F508A3E03400F509750A0078083C
:104EB30012088DEE124F6D7A3E7B0812113874037F
:104EC3001208A4124F84743EF0A37408F0EEC333A7
:104ED300F8850E82850F83E0288004124F95E4F055
:104EE300850C82850D83A3E0F8850C82850D83E014
:104EF300C39850047900806F124FB1FAA3E03400D5
:104F0300FBE50C12616F350D1260ED850C82850D8A
:104F130083E0C398C0E0E50C24171267A5D0E01224
:104F23004FFEE06040E50C2417FEE4350DFF8E8252
:104F33008F83E024F2F0E50C241DF8E4350DF988A5
:104F4300828983E0240EFAA3E03400FB88828983FC
:104F53001260EF901355E0F9121DC8E9F88E828FA5
:104F630083E0C398F0A90B025F0E25E0FCE433FD58
:104F730022E50C124F7A222419F582E4350DF583CC
:104F830022E50C241BF582E4350DF58322124F7ABA
:104F9300E022125EF2350DF58322F582E43FF583BC
:104FA300124FA722E0F8A3E0F5838882E022A31240
:104FB3004FB622124FBB2822E0F885188285198349
:104FC300E022A3A3E0FA851882851983125F27A341
:104FD300A3A322850C82850D83A385820E85830F6F
:104FE300124FB6FAA3E034008A82F583E022124F0F
:104FF300F522F0850C82850D83A322124FF5A3A31E
:10500300A3A3A322125023F583888222F0850E8264
:10501300850F83E004F022E8F0A3E9125023C822AD
:10502300126774F8A3E02274F41203F28A088B095E
:10503300EA1250CFA3A3F0EA1313543F1250C7A3AD
:10504300A3F0EAC413131250CF1250D97409780A8B
:10505300120B191250BEA3A3A3A3A3A3F0EB1250E8
:10506300C01250D8740A780A120B19E50A5401C009
:10507300E0EC125EF23DF583D0E01250DD740B7864
:105083000A120B191250BE1250D6740C780A120B66
:10509300191250BEA31250D6740D780A120B19E5DB
:1050A3000A5401C0E0EC2424F582E43DF583D0E00A
:1050B300F0740E7808120B190232EDE50A54018CD4
:1050C300828D8322540F8C828D83A32254038C827E
:1050D3008D8322A3A3A3A3A3A3A3F08A0A8B0B22EA
:1050E300C082C08379008A828B83A3A3A3A3A3A3D3
:1050F300E0901354600EE070238A828B83A3A3E0B5
:10510300701A8016E060158A828B83125BD9901324
:105113005DE06A7003A3E06B600279018003125BB8
:10512300E2D083D08202087174F21203F28A0A8BEE
:105133000B890CECFEEDFF8A828B83125298121EB0
:10514300E2850A82850B83A3A312528CE0F9EA8ECF
:10515300828F83A3A3A3A3A3A3A3A3A31252B712D0
:10516300528CA3A3E0F9EAF81259FCE81252B7A350
:10517300A3E0C0E0EE2411F582E43FF583D0E01212
:1051830052BEA3A3A3E0C0E0EE1248653FF583D06F
:10519300E01252A674081252B1A3A3A3E06016E56D
:1051A3000A2408F8E4350BF9EE24131256AB125215
:1051B300A6E02408F08E828F83A3A3A3A3A3A3A3B3
:1051C300A3E060148E828F83A312527BEE24151208
:1051D30056AB1258DE2408F08E828F83A3A3A3A3B9
:1051E300A3E0601F8E828F83A3858208858309E0F5
:1051F300F8E50A28F582E4350B125270A3A312587E
:10520300DE04F0EEFAEFFB121EE8E9F50D70598E9D
:10521300828F83A3A3A31256A2A37014E0F8E50A16
:1052230028FAE4350BFBEE241D1260E9E50C802817
:1052330012527BE8240EF8500109EE241D125A1D68
:10524300901355E0F9121DC8E9F885088285098392
:10525300E0F9E50CC39924F2C398C0E0EE2417F5F6
:1052630082E43FF583D0E0F0A90D024072F583E0BC
:105273008E828F83A3A3A322858208858309E0F806
:10528300E50A28F8E4350BF922E0FA850A82850B52
:1052930083A3A3A322E0FAA3E0F8E4C8F9EA28E48D
:1052A30039FB221252ABA322F08E828F832212612A
:1052B30066A3A322F0A3E91252BE22F0850A8285D7
:1052C3000B83A3A3A3A322C082C0837ADD7B1379BC
:1052D300E21219367ADD7B13025124C082C0839017
:1052E300135D025121C082C083901360025121C01B
:1052F30082C083794A12193602512474F61203F2DA
:105303009013E5E0FE04F0EEF9121E9A8B09EA45CC
:105313000970EDEE60EAF90254AB74F21203F2EA9B
:10532300FEEBFF8C088D09890A121FDE740E120B27
:105333007FE0F9740F120B7FE0F8EA4B7012E8700C
:105343001BA90AAC08AD09EEFAEFFB121FFC807132
:10535300E86017E970068A828B83E4F07401687051
:1053630060E99013E87027E48021E97054EA24028D
:10537300F582E41253CEA80A28F8E4340013E813A4
:10538300F0703E8A828B83A3A37401F08033E00420
:10539300F0901586E0F89013E8E0C3984023E4F01A
:1053A300901360E06E7003A3E06F7015EEFAEFFBED
:1053B3007901121ACE7A017B009013B7E0F9121229
:1053C300B802407274CA2AF58274063BF583E02260
:1053D30074F41203F28A088B098C0A8D0B9085B63C
:1053E3007808120983700E7A017B009013B7E0F9F5
:1053F3001211A480319015737808120B0A123090A1
:10540300601878081208897A017B009013B7E0F9D5
:105413001212AC74041208A4800C7A017B0090135E
:10542300B7E0F91212B80232F6C082C08390157742
:10543300023DBFC082C083901579023DBF74F6124E
:1054430003F27E0075084975091378081208917CE8
:105453006E7D007A217B0012126A74021208A4E99D
:10546300640A70027E01121A1AE9640A7004EED209
:10547300E1FE900383125F44600F1255F812056A30
:10548300E9640A7004EED2E3FE121C48E9640A7070
:1054930004EED2E4FE1218B8E9640A7004EED2E511
:1054A300FEEEF980031208A47F0202060974F612C5
:1054B30003F21210FC750849750913780812089154
:1054C30075086E75090078081208917C007D007AD2
:1054D300217B0012127674041208A4121A2090037E
:1054E30085125F4460061255F812056A121C4E12AB
:1054F30018CA80B474F61203F274FF1209577E00BF
:1055030075084975091378081208917C6E7D007A35
:10551300217B0012126A74021208A4E96003025587
:10552300DC780812089175086E8E097808120891C4
:105533007C007D007A217B0012127C74041208A483
:10554300E960030255DC90135DE064FE7003A3E0A1
:10555300F470030255DC7E0190136CE0640860056F
:10556300E06404706F851882851983EE1256E8791A
:105573004212193C7A747B13794312193C7A717B7A
:1055830013794712193C7A627B13794A12193C7AD0
:10559300607B13794B12193C7A6A7B137950121989
:1055A3003C7A5D7B13795312193C7A727B137954DD
:1055B30012193C7A5F7B1379E112193C901357E07F
:1055C300A2E35004D2F08002C2F01256DE795212E6
:1055D300193C80051210FC7E00121A0E90038712EC
:1055E3005F4460061255F812056A121C5AEEF974EC
:1055F300010254A8A3125F282274F61203F2E9FEF3
:10560300A2E05026750849750913780812089175A8
:10561300086E75090078081208917C007D007A21D4
:105623007B0012127674041208A4EEA2E350031254
:105633001A14EEA2E2500E900389125F4460061220
:1056430055F812056A0254AB74F71203F274ED12A3
:105653000957E9FE9013B6F0AC18AD199015B5E0F3
:10566300F97ABA7B13121E527412120B7FEE125682
:1056730089AA18AB19121E4C7ABA7B1379451219F1
:105683003C7413024456F09015B5E0F97CBA7D13CF
:10569300222415F582E422125FFE3509F58322A345
:1056A300A3A3E08E828F8322F582E43FF583E8F0A3
:1056B300A3E922EE125FFE3FF5831256C122E0F802
:1056C300A3E0F988828983221256CF22F0EE125684
:1056D300D5222413F582E43FF58322A2F0E4338537
:1056E3001882851983F0AA18AB192274F41203F2F5
:1056F3008A088B097A007B049013B7E0F91212B879
:105703001257AA90136C7409F0121EF48A0A8B0BB9
:10571300AC0AAD0B12375B125BE21212DCE96401D7
:10572300706B7A0F7B001211628A0A8B0BAE0AAF81
:105733000BEE4F60588E828F837402F0E50812617E
:105743006F3509125793FC88828983A3A3E0FBEC8E
:105753008E828F83A3A31260F0888289831256A25C
:1057630012579BFAA3E0FB794A12193C85088285FC
:105773000983A3A3A3A3A3A3E070069011C1740597
:10578300F0EEFAEFFB9013B7E0F912116E0232F666
:10579300F5831256C1A3E022A3F0E5082415F58290
:1057A300E43509F583E0229012F1125F59901579DF
:1057B300E8F0A3E9F09012F3125F59901577E8F03F
:1057C300A3E9F02274F41203F274FD1209578A0854
:1057D3008B097401120B7F74021256E8121F668A3A
:1057E3000A8B0BAE0AAF0BEE4F70030258B612676B
:1057F30042E41258D2E06401700888828983A3745A
:1058030020F0850882850983A3A3A3A3A3E06401F1
:10581300700988828983A3E0D2E6F085088285092E
:1058230083A3A3A3A3A3A3E06401700A888289834B
:10583300A3E0D2E7800512475174011258CDE0640A
:1058430001701E850882850983A3A3125F44600348
:10585300126181850882850983A3A3125F55125AB9
:105863001A850882850983A3A3A3A3A3A3A3E06442
:10587300017009EE240F126184A3E4F08508828588
:105883000983125BE2121F72E96009EE240F1247CB
:105893005D4404F0EE2417126184121EF4125FCCEF
:1058A3001258DE1258BB1258C4FAEFFB121A38E929
:1058B300F980027910024CECF8A3E0F98E828F8311
:1058C30022A3A3E8F0A3E9F0EE221258D2A322F018
:1058D300850882850983A3A3A3A322F08508828573
:1058E3000983E02274F51203F274F3120957890A4B
:1058F300EAFEEBFF7508007509007C0D7D00790059
:10590300AA18AB19121144125EE8125AFD741F58FB
:10591300600C7AD37B001216EA79000259F7E8A2E9
:10592300E55008740C120B7F7401F0E8A2E75008ED
:10593300740B120B7F7401F0E8A2E6740A5008128C
:105943000B7F7401F08008120B7FE0640170138EEB
:10595300828F83A3A3A3A3A3A3A3E06030EE2413A6
:1059630080128E828F83A3A3A3A3A3A3A3A3E06028
:105973001CEE2415126142E50845096010AC08AD20
:10598300097402120B7FAA82AB831212E21259FC32
:10599300125A0A125A23740A120B7FE06401704BE5
:1059A3009015AAE0604C64017006901594E0604283
:1059B300EE240B125F4F901360E0687003A3E0695D
:1059C3007030125BD5121F72E97027E50845096034
:1059D3001A121EF48A088B09AC08AD097402120B63
:1059E3007FAA82AB831212DCE96007AA18AB1912F3
:1059F3001AC8A90A740D0245AA125A0022EE240BF2
:105A0300F582E43FF58322125A0E22E0F8A3E0F96F
:105A130085188285198322EE2418F582E43FF583E5
:105A2300E8F0A3E9F02274F71203F274CD120957D8
:105A3300126720125ADFA2E04003025ADA8E828FE5
:105A4300831256BDA3A3A3A3A3A3E054FE1264072A
:105A5300740D120937125B0A125BE2121EEEE97033
:105A630076742A120B7F125B04706C7C0D7D0079B7
:105A730000AA18AB191211447416120B7F125A0A9A
:105A8300125A23742A120B7F125AFDA2E55008748E
:105A93000B120B7F7401F0E8A2E75008740A120B93
:105AA3007F7401F0E8A2E65004742080027422128D
:105AB3000B7F125AF37402120B7FAA82AB8312126A
:105AC300E28E828F83A3A3E0C0E0740C120B7FD01D
:105AD300E01256E8121AC27433024456125AE322F1
:105AE3002406F582E438F583E022F582E43FF5836A
:105AF300125AF722E0FCA3E0FD22125F25A3E0F88F
:105B030022124FA7640422EA241EF582E43BF583A4
:105B1300E0F9EA125B1D3BF58322241FF582E422A0
:105B2300E9F87900740468600A740A68600574030C
:105B3300687002790102087174F61203F28A828B8B
:105B4300837424F0A3A37401F0121A3E8A088B090C
:105B5300AE08AF09EE4F600D8E828F83126018126C
:105B63001EF41260E6EEFAEFFB0254ABC082C08370
:105B73009013D37401F0E9A2E350037403F0E9A294
:105B8300E15004E0D2E2F002512474F61203F279F8
:105B9300007C008A088B09780812064FF8FF07C2B9
:105BA3005BC05BC05BC05BC05BB85BBC5BC25BB430
:105BB3005B7C01800A7C0480067C0280027C089066
:105BC30013D3E05C600479028005EC600279010282
:105BD30054AB8E828F83A3A3A3A3A3A3A3A3A312D4
:105BE3005BE622E0FAA3E0FB2274F61203F28A8258
:105BF3008B83E07014A3A3A3125F44600C8A828B8F
:105C030083125BDF121CA880047A007B000254AB72
:105C1300C082C0837800E875F003A4FCA9F0E9FD15
:105C2300125CA26A7003A3E06B7018902A66E49377
:105C3300C0E074D42CF582741339F583D0E0F07985
:105C4300C5805908E8C3940340CC7800E875F00395
:105C5300A4FCADF0125CA264FE7003A3E0F4601E2A
:105C630008E8C3940340E57800E875F003A4FCADAD
:105C7300F074D42CF58274133DF583E07015E812AB
:105C830061B81260EF902A66E49388828983F07981
:105C930000800908E8C3940340CF79C702512474F4
:105CA300D52CF58274133DF583E02274F41203F2CC
:105CB30074F3120957EAFEEBFF8C088D09750A127B
:105CC300EE4F70057900025D6890135DE06E70031E
:105CD300A3E06F701D121EF48A0A8B0BAC0AAD0B86
:105CE300AA08AB091212DCE97005750A0180037575
:105CF3000A00851882851983E4F004120B7FEEF005
:105D0300A3EF1256E81219F6E9602A7403120B7F07
:105D1300AA82AB831219D2E964017019750A01745E
:105D230003120B7FAC82AD83AA08AB091212DCE924
:105D33006003750A00AC08AD09EEFAEFFB121FE42D
:105D4300E9F8740A687005750A01801774A0687011
:105D530012AC08AD09EEFAEFFB121FF0EEFAEFFBFF
:105D6300122002A90A740D0232F374F71203F2EA45
:105D7300FEEBFF8E828F83A3A3A3A3A3A3A3A3E01E
:105D83006013125DD3123774121F84E96401700526
:105D93001259FC802C8E828F83A3A3A3A3A3A3A356
:105DA300E06028EE2413125AED125BD5121F84E92A
:105DB300640170178E828F83A3A3A3A3A3A3A3A3BA
:105DC300A3125BE2121F7E7901800279000244591B
:105DD300EE2415F582E43FF5832274F21203F27484
:105DE300FD1209578A088B09ECFEEDFF890A750B32
:105DF300017401120B7F74041256E8121F66EA4BFA
:105E030060467411120B7FE06015125FE9E41261C2
:105E13001D8A828B83E0D2E7F0EA24141241D81260
:105E23005E501256BB7403F0A3E50AF0EE88828934
:105E330083A3A3F0EF88828983A3A3A312676A12C3
:105E43006785121A38E9F50BA90B02406D125FFD45
:105E53003B2274F41203F2EAFEEBFF8908125EE8B8
:105E6300125F21A3E0FAEE241712475D6404600970
:105E73007AD37B001216EA8067EA1207A101000EAB
:105E83008B5E00885E750800125EE8A3E0F9EE24DD
:105E930009F50AE43FF50B88828983A3A3E0FC8814
:105EA300828983A3A3125F01F9850A82850B83127A
:105EB3005BE2121AE0850A82850B83125BE2121FF2
:105EC30072E9601CEE241112475DC3940240111263
:105ED30059FC1261027003A3E0696004A9088002FF
:105EE30079000232F6EE241DF582E43FF583222485
:105EF30018F582E422124FF5E022125FFE22A3E09E
:105F0300F8E4C8F9EC28E439FDEA2274031208A482
:105F13007F080206097402025F108E828F83125F6C
:105F23002522E0F8A3E0F583888222E0F508A3E0C8
:105F3300F509750A00780822EE240FF582E43FF58F
:105F430083125F59E84922125023F922F582E43F74
:105F5300F583125F5922E0F8A3E0F92274F01203EB
:105F6300F274FD1209578A088B098C0E8D0F890A6A
:105F7300750B017401120B7F74031256E8121F662E
:105F83008A0C8B0DAE0CAF0DEE4F60381256B67403
:105F93000BF0A3E50AF07413120B7F125FDAA3125E
:105FA300601A121EF4125FCC125FE1EE125EF23F32
:105FB300F583E50EF0A3E50F12678F12600D121A39
:105FC30038E9F50BA90B025F0EEE241AF582E43FC4
:105FD300F583EAF0A3EB22E088828983A322F0EE23
:105FE300241612602222EA2417F582E43BF5832269
:105FF300A3E0C8125FFE38F58322EA240BF582E49E
:10600300223BF583E0FEA3E0FF221256CF7401F09A
:10601300EEFAEFFB227401F0EE241712602222F550
:1060230082E43FF5837401F02274F61203F21261E5
:106033006E3B126074A3E0FA88828983E0702FEAD2
:10604300A2E0502A9012D4F07508D475091278088A
:1060530012089175080175090078081208917C00EF
:106063007D007A517B0012127674041208A4025444
:10607300ABF583E02401F8A3E03400F98882898337
:106083002274F71203F2E9FD7A007B007C00800B97
:106093001260D3E02AFAA3E03BFB0C1262B3502D4B
:1060A300EC75F017A4F8AEF0EEF91266777003A35F
:1060B300E0F460E674DF28F582740639125F42600B
:1060C300D9ED60CC1260D3E4F0A3F080CD02445943
:1060D300EC75F017A4F8EEF974DF28F5827406392D
:1060E300F58322EE241AF582E43FF583EAF0A3EB6D
:1060F300F0228E828F83A3A3A3A3A3A3A3A3A3129C
:106103005F5990135DE06822902A70E493F8E50AE2
:10611300C3982212676AA3A3A322126126EEF0A3F7
:10612300EFF02212612A22F08A828B83A3A3A3A316
:1061330022F582E4350BF583E022125F59C322F581
:1061430082E43FF583E0F508A3E0F50922126155E7
:10615300A32212615BA3A322F088828983221261A6
:1061630066E022F08E828F83A3A322EA241DF582A8
:10617300E422EE2411F582E43FF583E4F022EE24D9
:10618300161260222274F71203F27E008008EE12C8
:106193006379121FD20E12620A40F37E00EE12617F
:1061A300B874FEF0A30412615BE4F00EEEC3940333
:1061B30040EB02445975F003A4F8A9F074D428F80D
:1061C300741339F988828983A32274F71203F27E48
:1061D3000080010E12620A5027EE126533E06A70E6
:1061E30003A3E06B70ED1262146C7003A3E06D60A7
:1061F3000A74FF6C700374FF6D70D812638080049F
:106203007A007B00024459902A70E493F8EEC39815
:10621300221262182212621DE02274D428F58274BD
:106223000639F5832274F61203F27CFF7DFF7AFEB2
:106233007BFF121FB4EA4B7045750800803BE508ED
:1062430075F017A4F8A9F074D928F582740639F506
:1062530083E0600D74D828F582740639F583E07005
:106263001674CA28FE740639FF8E828F83125BE28E
:10627300121B70EEFAEFFB050812628440C0025451
:10628300AB902A70E493F8E508C39822C082C083D8
:106293007A007B007C00801012666F7003A3E0F429
:1062A30060050AEA70010B0C1262B340EB02512441
:1062B300902A70E493F8ECC3982274F41203F28AE0
:1062C300088B09ECFEEDFF800B121FD2EEFCEFFDF5
:1062D300AA08AB09121FB4EA4B70EE0232F674F748
:1062E3001203F27D007C0080020D0C1262B3501C7D
:1062F30012666F7003A3E0F460F0EDF8EA684B7088
:10630300E8EC75F017A4F812638080047A007B0030
:1063130002445974F71203F2EAFEEBFFEE4F6018E2
:106323007C177D0079001211448E828F8374FEF0F6
:10633300A30412633EF0A3F0024459124066A32261
:1063430074F71203F2EAFEEBFF750800801BE50801
:1063530075F017A4F8A9F01263747003A3E06F60DB
:1063630006126380121FD2050812628440E00244C1
:10637300591262186E2275F017A4F8A9F074CA288E
:10638300FA740639FB2274F61203F2121FB48A0858
:106393008B09A808A909E8496009E8240DFAE4393A
:1063A300FB80047A007B000254AB74F41203F2EA1C
:1063B300FEEBFF8C0A8D0B750800750900802CE538
:1063C3000912665F1219D2E9601FE509126653705C
:1063D30003A3E06F700375080AAC0AAD0B1266667F
:1063E3001212DCE960034308A00509902A70E493C4
:1063F300F8E509C3985004E50860C40232ED240CA3
:10640300F582E42212405DFAA3E0FB221252AB12A2
:106413005BE62274F01203F28A0E8B0F8C0A8D0B4B
:10642300750C00780079017EFE7FFF7410120B7FDC
:10643300126148801112115CE50CF5F0EA84E5F075
:10644300F8750C0079007C00800B74CA2AF58274FD
:10645300061260040C902A70E493FAECC39A506F0E
:10646300EC75F017A4FAADF0EDFB1253C764FE70A0
:1064730003A3E0F460DE1253C7650E7004A3E06566
:106483000F60D11253C7650A7004A3E0650B60C4A3
:106493001253C765087004A3E0650960B774D82A6E
:1064A300F58274061253CE60ABC3940850A6E06421
:1064B300076097E9050C709CE50CC3984096EDF9CD
:1064C30074CA2AF582740639F5831266968022E52A
:1064D3000C6011E8700E7401650C60030264387877
:1064E3000102644474FE6E700374FF6F6006EEFA7B
:1064F300EFFB80047AFE7BFF025F1374F51203F255
:10650300EAFEEBFF8C088D09750A008002050A126A
:10651300610B5019AC08AD09E50A12665F1212DC73
:10652300E960EAE50A126533EEF0A3EFF00245AD48
:1065330075F017A4F8A9F012653E2274CA28F582F3
:10654300740639F58322E9F87907C3940D40047979
:10655300018019E8C3940740047903800FE8C394CA
:1065630003400479058005E870027900020871741C
:10657300F01203F28A0E8B0F8C0A8D0B8908121FFF
:10658300BA8A0C8B0DAE0CAF0DEE4F604D7C177DB0
:106593000079001211448E828F83E50EF0A3E50F7C
:1065A30012633E124997E5086007124438E50880F4
:1065B300051244387401F09013B1E06401700612BF
:1065C30065E0E480051265E074071265FA5001097D
:1065D3007A027B001202A21265EA025F13EE240E16
:1065E300F582E43FF58322EE1265F1E8F022240DF3
:1065F300F582E43FF58322F01265FF22902A6DE4D1
:106603009379002401F82274F71203F2EAFEEBFFF8
:106613007508008033E5081266537003A3E06F60CA
:106623001474FF6E700374FF6F701B126677700330
:10663300A3E0F460111266661219D2E97008E50846
:10664300126379121FD2050812628440C8024459AA
:1066530075F017A4F8A9F012667D6E2275F017A4E1
:10666300F8A9F074CC28FA740639FB22EC75F017FC
:10667300A4F8A9F012667D64FE2212653EE022C0F2
:1066830082C0837AFF7BFF12200202512485188285
:10669300851983E0FAA3E022C082C08374F812094B
:1066A30057908579AC18AD1974081207EDAC18AD85
:1066B300191212DCE9640170047900800279017413
:1066C3000802485E74F61203F2EAFEEBFF740C1242
:1066D3000B7F125BE2743A6A7001EB6006743B6AEB
:1066E3004B701F740A120B7F12071C8C088D0978DC
:1066F30008120891EEFCEFFD12127C74041208A438
:106703008002790A0254ABF8E43FF9E8FAE9FB8A1C
:10671300828B8322241EF582E438F58322EAFEEB82
:10672300FF8E828F8312672C22E0F8A3E0C8221227
:10673300672C126739222408F582E438F583221284
:106743005A001256C17404F0A3221267567401F062
:10675300A3E42212672C240DF582E438F58322E8A2
:10676300F0A3E912676A22F08A828B83221267748C
:1067730022F0851882851983E022F0124747E02230
:10678300A3A3A3A3E508F0A3E509F022126166E53C
:1067930008F0A3E5092212405DF8A3E0F922E50C15
:1067A3002412F582E4350DF583221267B12290138A
:1067B3006A125AF7AA18AB192274F01203F274FE84
:1067C3001209578518828519831260EF8C0A8D0B85
:1067D300750800851882851983E0650A7004A3E0B3
:1067E300650B6017851882851983E0FA1212708A87
:1067F3000C8B0DAE0CAF0DEE4F70067508010268E1
:106803009CAA0AAB0B1212708A0C8B0DAC0CAD0D4B
:10681300EC4D6007AA0AAB0B121282E4F50CF50DDE
:10682300780C120891EEFCEFFDAA0AAB0B12126A68
:1068330074021208A4E96061EEFAEFFB1211F28A06
:106843000E8B0FEA450F604E780E1208918E0C8F57
:106853000D780C1208917C007D007404120B7F12DA
:106863005BE212127C74041208A4E9701D780E1204
:106873000891780C1208917C007D00AA0AAB0B12D8
:10688300127674041208A4E96003750801AA0EAB1A
:106893000F1211F88003750810A908025F1874F726
:1068A3001203F2E99011BEF090119D7402F0901161
:1068B3009574FEF0A304F0121EF412172C7A5F7B7A
:1068C300151224161216C6121606026D2E74F7122E
:1068D30003F274F01209578908121888E508603A20
:1068E300901386E07034901589E06401702C901247
:1068F300DEE06026AC18AD197A627B001218E879E5
:1069030000AA18AB19121D927900121D987C107DF4
:10691300007900AA18AB19121144127A2A60219047
:1069230011C4127A1CFEA3E0FF9011C412791A124B
:1069330011F8EFF99011C4EEF0A3EFF0EE4970DF18
:106943007410026D2B74F21203F2890AEAFEEBFF54
:106953005480702DEAA2E0504079011216D27C0FC8
:106963007B0F9011C2E0FA9011C7E05407F9121798
:1069730032EE6401026A001215FAAA08AB09121179
:10698300689011BEE0F912117A8A088B09EA4B70FC
:10699300E6EEFAEF6480026A2BEB54206034901128
:1069A300C1E0640C700D79021216D21216AE901566
:1069B30081800B790C1216D21216B490157D120732
:1069C300187A007B201274511208A4EEFAEF6420A7
:1069D3008056EA5410602A9011C1E0F912173E90D4
:1069E30012D0E0640170139085CA1207187A007BF5
:1069F300089013B71274541208A4EE6410FAEF80CF
:106A030027EA54086006EA6408FA8037EB54016009
:106A13001A90136CE0F874086860057404687003D6
:106A23001215EEEEFAEF6401FB8018EA5404600AD3
:106A33007A0279FF121924120B89EEFAEFFBA90AE5
:106A43001215D07F0602060974F71203F2EAFEEB71
:106A5300FFEA548060191216181215E87901122200
:106A6300D27A017903122338EE6480FAEF802BEB9C
:106A73005402600A12161EEEFAEF6402801CEB54F5
:106A830008600A1218FAEEFAEF6408800DEB54045A
:106A9300600B121900EEFAEF6404FB80047A007BAA
:106AA30000026D2E74F01203F274F71209578A0A6A
:106AB3008B0B89097508017E007F009011C1E08569
:106AC30018828519837008E4F0F912191880037489
:106AD30001F0AA18AB19795212193C1216D8901169
:106AE300C9E0901357F09011C6E06404707DE4F0A0
:106AF300121F2A121F3012190C7401650860030259
:106B03006BE51215E212115CEA547FF8E50A28F8E6
:106B1300E4350BF9E82464FEE439FF9012BC120B50
:106B2300509011B9120B447A0279FF121924901371
:106B33005D74FEF0A304F090136014F0A304F090CE
:106B4300136AF0A3F07C087D0079007A7E7B131230
:106B530011447900121F429015AAE06401705A741F
:106B6300016509703E7A007B00804B1215DCE9F564
:106B7300086003026AF31215F4E9F508750C018E37
:106B83000D8E0E8E0F90135FE0780C12084C90114F
:106B9300B9E50CF0A3E50DF0A3E50EF0A3E50FF0C6
:106BA300026AFC7C087D007900740112092F12111E
:106BB30044740112092F121906750C49750D1378C7
:106BC3000C120891750C6E750D00780C1208917CEF
:106BD300007D007A21126C201208A47A0279001237
:106BE3001924A9081215C474FF650A700474FF659B
:106BF3000B60109011C17401F0121642EEFAEFFB14
:106C030012169C9011C9E0F9121F6CA9087409129D
:106C130008A47F080206097C007D007A827B0012AB
:106C2300127674042274F71203F27E0012191EE91D
:106C3300F8A2E150077E0179001222D2EEF9026D2B
:106C43002EC082C0839015AAE0700E9011C2740208
:106C5300F09011C7E054F880369011C7E054F8F86B
:106C63009015AAE06401700474018007E064027067
:106C7300077402489011C7F07A007B1312200EE9C3
:106C83009011C27003E480077403F090155E04F062
:106C93000274D6C082C0839011C1E06405702612CD
:106CA300163C79061216D21216C012161E12704224
:106CB3005008901597E06401700E901566120B68EA
:106CC300121F1880031216C00274D6C082C08379C3
:106CD3000F121F3C7A0279001219240274D674F73A
:106CE3001203F2121F2AE9FE7033121F36E96024E1
:106CF300121EFA901195127DD7F9EA497007901187
:106D0300C7E054F8F09011C27403F090136CE412CE
:106D1300756A80027E09901343E4F0A3F0EE7004D9
:106D230079008002790180031208A47F0102060919
:106D330074F61203F28A828B83E014601B14605092
:106D430024E8600A2447600B24D6606D806812181B
:106D53003A806612160080619011C1E06402705996
:106D63009015AAE064016005E06402704C122332BE
:106D7300E9600B122326E9604012234A803B121E6E
:106D83003AEA4B60047901800279001223208029BA
:106D93009015AAE064016005E06402701C90030F83
:106DA300E064076005E0640870077A01E0F91223E4
:106DB30038121612800312160C027D9374F6120316
:106DC300F274EB120957127C29E0F508A3E0F509E8
:106DD30078081205BD020021002200156E00800113
:106DE30080EA6D0000276E1217A48A088B09AF0989
:106DF300EA4F60308A828B83E0700EEA2403FCE45E
:106E03003FFDA312791A121780AA08EFFB1211F89B
:106E13008012AC18AD1912179EAC18AD19EEFAEF2B
:106E2300FB12177A7415027D90C082C0837A011217
:106E33006E4B7A00126E4B7A217B00126E4D7A22D2
:106E43007B00126E4D0274D67B809011BEE0F91266
:106E5300182E22C082C0838A828B83E024FC6006C2
:106E630024FC601480229015AAE064016005E064AC
:106E730002701512189480109015AAE06401600541
:106E8300E06402700312189A0274D674F41203F2C7
:106E93009011C1E06403600FE0640A70539011C75E
:106EA300E05407640170609011BFE0703B127C6A8C
:106EB3007901121630E9700979051216D279018029
:106EC300299011C1E0640370171216BA90030FE002
:106ED3006402700C79011222D27A017902122338EA
:106EE30079061216D2027040790012230E02704006
:106EF300E064046012E0640E600DE0640F6008E07B
:106F0300640D60030270379011BFE06003026F9459
:106F13009011C3E4F07901121630E9700F7905126C
:106F230016D27A107B271216360270407906121693
:106F3300D27A007B2012704C9011C9E0A2E3501D5D
:106F4300901597E0701790860E120B68121F187A2F
:106F5300007B00121F1E7A007B00121F2412704256
:106F6300500B901597E0640160030270409011C2CA
:106F7300E06403701090157BE0F508A3E0AA08FB1A
:106F8300E4FCFD8006901566120B68121F18027050
:106F9300409011C2E0640170389011C3E004F0C363
:106FA3009404501F90136AE0F47003A3E0F4601B91
:106FB3009011C27403F090119E7401F090155E74E9
:106FC300048068901308E0640170619011C2E4804A
:106FD3005AE06403705690119E7401F090136CE4B0
:106FE300F090155EE064047007127055740D803BD9
:106FF300E0640D702C901386E4F0121624750801DA
:10700300750900750A00750B0090135FE07808128C
:10701300084C9011B97808120B0A90155E740E8013
:107023000AE0640E7006127055740FF0121FAE1250
:1070330075588009E060061216BA127C6A802B121A
:1070430016BA9011C9E0A2E3229011BEE0F9121220
:10705300B8229011B9E4F0A374F8F0A374FFF0A37D
:107063007407F090155E221208A47F0402060974C7
:10707300F11203F274F41209577E0075087E750944
:10708300138E0A80010E902A74E493F8EEC398409D
:1070930003027148A818A919880C890D780C1208E5
:1070A30091750C0C750D00780C1208917C007D0015
:1070B300EE2475FAE43400FB12728E1208A47404F1
:1070C300120B7FA982AA83890C8A0D750E00780C96
:1070D30012088D7C087D00A908AA09AB0A12727CEC
:1070E3001208A4E9705F7C0879007404120B7FAA6C
:1070F30082AB831211DAE9608CEEFF780812088DF7
:107103007C087D007407120B7FAA82AB83121138AF
:1071130074031208A4851882851983E4F0A3F0A3ED
:10712300F0A31275FA12089175080C750900780816
:107133001208917C007D00EF2475FAE43400FB1201
:107143006C221208A402728274F11203F274DF1229
:107153000957740C12092F121D8C740C12092788FD
:1071630008890978081208917508157509007808C7
:10717300120891126C1A1208A475080080020508FF
:10718300AE087F00902A74E493F8EEC398507DEE26
:107193002475FE50010FA818A919880A890B780ACB
:1071A300120891750A0C750B00780A1208917C007D
:1071B3007D00EEFAEFFB12728E1208A47404120B18
:1071C3007FA982AA83890C8A0D750E00780C120898
:1071D3008D1272721208A4E960A4741D120B7F123F
:1071E3000B50851882851983120B44A818A9198896
:1071F300088909780812089175080C750900780840
:107203001208917C007D00EEFAEF80457C087D003A
:1072130079FF7404120B7FAA82AB83121144741D8D
:10722300120B7F120B50851882851983120B44A809
:1072330018A91988088909780812089175080C8F0C
:107243000978081208917C007D00EE2474FAE43476
:1072530000FB126C221208A4901343E4F0A3F07C09
:1072630015FDF9740C12092F121144742180127C3C
:10727300087D00797E7A137B0012113E7403227419
:107283000C1208A47F070206097B0012127C740407
:107293002274F61203F274EB1209577C151272BAB8
:1072A3001208917508157509007808120891126C77
:1072B3001A1208A4026E2712740778082274F112B6
:1072C30003F274F41209577508008046A818A91927
:1072D300880A890B780A120891750A0C750B0078D5
:1072E3000A1208917C007D00EEFAEFFB12728E12F7
:1072F30008A47404120B7FA982AA83890C8A0D75D2
:107303000E00780C12088D1272721208A4E970250F
:107313000508E5082475FEE43400FF902A74E4931D
:10732300F8E5089840A6851882851983120B50E862
:10733300494A4B60589011BDE070527401F0908639
:10734300227808120B288518828519837808120A77
:1073530096851882851983120B5090133B120B44A8
:10736300A818A91988088909780812089175080CC2
:1073730075090078081208917C007D00EEFAEFFB96
:10738300126C221208A4901343E4F0A3F002728259
:1073930074F51203F274DB1209577E0012162A7475
:1073A30010120927880889097808120891750815A9
:1073B3008E0978081208917C007D007A8212728C03
:1073C3001208A4E970327C101274078E0A7808122E
:1073D300088D7C107D007414120B7FA982AA83127E
:1073E300727A1208A4E970107E017C157D00790081
:1073F300741012092F121144EEF974251208A47F98
:10740300030206097D007900AA18AB19121144A8DA
:1074130018A919880889092274F41203F212743A1C
:107423007012E4F50AF50B78081208897A041274CD
:107433004F1208A402706D8A088B097A047B0090AE
:1074430011BEE0F91212BEEA4B4C4D227B009011A3
:10745300BEE0F91212AC740422C082C0837A047BAA
:107463000012704C7A047B009011BEE0F91211AA4D
:107473000274D674F61203F29011C0E4F07508C0DA
:1074830075091178081208917C017D007A857B00CB
:1074930012126A74021208A4E9701C780812089187
:1074A30075080175090078081208917C007D007A3F
:1074B3008512728C1208A4027D9374F61203F2E90A
:1074C300FE9011C07401F06E70037403F0027D71BD
:1074D3001208A4D083D08202087174F61203F2E971
:1074E300FE1216487A887B13121BC474016E70282F
:1074F300901573120B50901566120B449015791268
:107503007C3B9012F1E8F0A3E9F0901577127C3BF5
:107513009012F3E8F0A3E9F090860E120B68121FA5
:10752300187A007B00127B5974016E701E9011C192
:107533007402F09011C204F090119E740112756AE6
:1075430090136C7402F012755880077A887B1312BB
:107553001636027D93121A5012115CEA547F24648A
:10756300FA7B0012169C22F07C7E7D137A9F7B119E
:107573001212E22274F11203F274F71209578A0805
:107583008B09ECFEEDFFECFAEDFB12187CEEFAEF43
:10759300FB12184C900381127A2D60327408120B7F
:1075A3007F7403F08E0C8F0D750E00780C12088D0E
:1075B3007C087D00740312092F121138740312081A
:1075C300A4AA18AB199003811275F112056A790008
:1075D300AA08AB09121B4090136AE0FCA3E0FDAAC2
:1075E30008AB09121FC61216907409027284E0F8E0
:1075F300A3E0F583888222F0A818A91988088909CD
:1076030078082274ED1203F2890C8A0E8B0D8C0A12
:107613008D0BAE0DEBFA7B001211628A088B09EA1F
:107623004B6035EE6020E50A450B601A850A10852C
:107633000B11751200781012088DEEFC7D001211EB
:107643003874031208A4850882850983E50EF0AA1D
:1076530008AB09A90C12116E7F0B020609C082C088
:107663008374FD120957E9851882851983F09011F7
:10767300AB127A356009AA18AB1912056A80127425
:1076830002120B7FE4F0041209377B027A011276AF
:107693009B790074030274D39011BEE0F912165A59
:1076A3002274EE1203F28A088B099011AD127A3517
:1076B300600612056A02790A9013B8127A169013BB
:1076C300B8E0F50AA3E0F50BEA2404F50EE4350966
:1076D300F50FEA2402F50CE43509F50D802B127C35
:1076E30037850C82850D83E0687003A3E06970120F
:1076F3008E828F83A3A3E0F8850E82850F83E068D3
:1077030060678E0A8F0B127A0DEE4F70D17A167B5B
:10771300001211F28A108B11AE10AF11EA4F7003F1
:1077230002790A7C167D0079001211448E828F83C0
:10773300A3A3A3A3A3A3A374FEF0A304F08E828F39
:1077430083A3A3A3A3A3A3A3A3A3A3F09013B812F8
:107753007A2D70059013B8800BE50A2414F582E4A2
:10776300350BF583EEF0A3EFF0850882850983A33B
:10777300A3A3A3A3A3A3A3A312790FA3F0E50824B0
:1077830008F8E43509F98882F58312790FF0850E3C
:1077930082850F83E08E828F83A3A3F0850C82857D
:1077A3000D8312791A8E828F83127DD7E508240CFC
:1077B300F582E43509F583E0C0E0EE2413F582E4B5
:1077C3003FF583D0E0F0EE240BFAE43FFB88828997
:1077D30083E06401600EE508240DFCE43509FD1225
:1077E30012E280097C087D0079FF121144E5082428
:1077F3000AF8E43509880AF50B8882F583E0F890E6
:1078030014F6E0C398400302790A85088285098348
:10781300A3A3A3A3A3E064016009122332E97003C5
:1078230002790AC2F0850A82850B83E0F50CEE2407
:1078330009F8E43FF98882F583E0F50DEE240AFAAE
:10784300E43FFBE508240BFCE43509FDE50DC39596
:107853000C500C8C828D83E0C3941440198019E57D
:107863000D650C70138A828B83E0F50C8C828D83FB
:10787300E0C3950C5002D2F0E5082407F50CE4357B
:1078830009F50D850C82F583E0701B850882850957
:1078930083E0F50EA3E0F50F901360E0650E70042E
:1078A300A3E0650F7048A2F05030850882850983F4
:1078B300E0F50EA3E0F50F8E828F83A3A3A3A3A30A
:1078C300A3A3E50EF0A3E50F127A2188828983F042
:1078D3008C828D83E08A828B83F0850C82850D8375
:1078E300E0600B8E828F83A3A3A3A37401F08508AA
:1078F30082850983A3A3A3A3A3A3E0600A8E828F37
:1079030083A3A3A37401F07F0A020609E08E828F8A
:1079130083A3A3A3A3A322E0FAA3E0FB2274F4129C
:1079230003F274FB1209578908E99011BFF07079CB
:10793300121FAE121FBA8A0A8B0BAE0AAF0BEA4FA5
:10794300605C7C177D007900121144901360127CF7
:107953003B8E828F83E8F0A3E9F07C627D1312797A
:10796300F41212E290136A1279FCA3A3A3E8F0A322
:10797300E9F0127C1174AAF0902A6DE49379002443
:1079830001F85001097A027B001202A2EE240DF5E0
:1079930082E43FF583E8F0EE127C087401F0901165
:1079A300C1E0700579031216D29011AF127A2D60DF
:1079B30030851882851983E508F090135D12791AD2
:1079C3007401120B7F127DD790136012791A74031E
:1079D300120B7F127DD7AA18AB19888289831205EF
:1079E3006A7C007D007B027A0212769B740502702A
:1079F3006AEE2402FAE43FFB22E0F8A3E0F98E8268
:107A03008F83A3A3A3A3A3A3A322EE2414F582E449
:107A13003FF583E0FEA3E0FF221275F1E022F0853B
:107A23000A82850B83E0229011C4E0F8A3E0F9E811
:107A33004922E0F8A3E08882F583E5824583227436
:107A4300F61203F2EAFEEBFF121EF48A088B09AC6E
:107A530008AD091279F41212DCE96401701A90116D
:107A6300B1127A35600BEEFAEFFB12056AEA4B703E
:107A730007EE127C20127B6A027D9374F41203F2E8
:107A830074FD120957EAFEEBFFEA240CF8E43F8881
:107A930008F5098A828B83A3A3A3A3A3A3A3A3A308
:107AA300A3E0640170457402120B7FE4F0888285C1
:107AB3000983E0701E7401120B7FE4F0FAFB127B62
:107AC30059851882851983E4F0122380AA18AB190B
:107AD300121A8C90860E120B68121F18127B647494
:107AE3000212092F795212193C8057121F008A0A79
:107AF3008B0BEE127C1BF98E828F8312791AE50AA7
:107B03006A7003E50B6B701D74016960139011C7F4
:107B1300E054076402700E8508828509837401F0BE
:107B2300127B64801D850882850983E0F508780847
:107B3300120895EE2402FCE43FFD12165474011260
:107B430008A49011B3127A356007EEFAEFFB120521
:107B53006A740302706A121F247A007B00121F1ECC
:107B630022850882850983E0F912164E2274F712E2
:107B730003F2E9FE74016E70199011C3E0701312E1
:107B83001FAE122332E97007790012230E8003120D
:107B9300234A026D2E020871C082C083121EFA02AC
:107BA30074D6C082C0837A007B01127442700312C0
:107BB30016C00274D674F61203F2127C29127C3BAF
:107BC3005480703EEA127C1B70387413687001E9AC
:107BD3006030E8F508E94480F5097808120891E473
:107BE300F508F5097808120891EA127C08E0FD7C93
:107BF30084EA1279F5127C11E0F912181074041258
:107C030008A4027D93240EF582E43FF58322EE243B
:107C13000FF582E43FF58322127C20E022240BF54A
:107C230082E43FF58322EAFEEBFFEA240CF582E4CB
:107C33003FF583228E828F83E0F8A3E0F92274F468
:107C43001203F2EA4B60188A088B09E4F50AF50B74
:107C530078081208897A0112744F1208A480057AF1
:107C630001127C6C02706D7A107B009011BEE0F9FA
:107C73001211A422C082C0837A007B011274427065
:107C8300031216C00274D674F71203F2E9FE9011C0
:107C9300C9E0A2E1501A901587E06E60139011C7F6
:107CA300E054F84402F09011C9740CF0F9121F6CFF
:107CB300026D2EC082C0839011C1E064016005E0B3
:107CC3006402701190155D7401F07A007B00121646
:107CD3009C7901800279000274D6C082C08390111E
:107CE300C1E06401600AE064026005E0640C7009AD
:107CF30090155DE4F07901800279000274D674F680
:107D03001203F274F81209577A007B00121BC41293
:107D13001EF48A088B09AE08121EFA75080078084B
:107D23001208959011C9E0F9EEFCAD091217EC7435
:107D3300011208A47A007B00121BC4901597E0641B
:107D4300017027AA18AB19121F06121F009012D533
:107D5300E0F5087808120895901596E0F974011279
:107D63000937121F9C74011208A47408801F750838
:107D7300C075091178081208917508017509007812
:107D8300081208917C007D007A85126C201208A4E9
:107D93007F02020609C082C0837A007B01127C6ED7
:107DA3000274D6C082C0837A00EA25E0127DDD0A20
:107DB300EAC3940940F30274D6C082C083E9C39432
:107DC30009500CE929127DE5127DD77900800279EB
:107DD300020274D6EAF0A3EBF022127DE5E4F0A3ED
:107DE300F022F8E433F974A728F582741139F58386
:107DF3002274F71203F2E9FE9011C1E06E6005E907
:107E0300F0127C6A026D2EC082C0837A1A7B001244
:107E130019C0D083D08202087174F61203F21211D2
:107E23005CEA901349F090135A7402F090134D7466
:107E330014F0901371740FF0A3F0901590E0901369
:107E430050F090158FE090134AF090158EE0901348
:107E53004BF0901351E4F0A3F090135404F09013FB
:107E6300B1F09013557405F0A37401F09011C9E0BB
:107E7300901357F0901588E0901358F0A3E4F09016
:107E8300158CE090135BF090158DE090135C127FDE
:107E930027A3E4127F277C087D0079007A627B1395
:107EA30012114490136A74FEF0A304F07CC87D128F
:107EB3007A7E7B131212E2901386E4F09013AB7474
:107EC3000FF0A37403F09012D1E09013AFF090126F
:107ED300D0E09013AEF0901592E09013B0F09013B1
:107EE300ADE4F07508B275091378081208917508A6
:107EF3000275090078081208917C007D007A897B5D
:107F03000012127C74041208A4E960079013B2E40F
:107F1300F0A3F07900121F429013B4E4F0A3F07FB2
:107F230002020609F0A374FEF0A304F02274F41213
:107F330003F28C0A8D0B8A088B0978081205BD00A1
:107F430000050002007F7F03005C7F04006C7F0359
:107F530010897F0410AD7FB87F7508FF7808120879
:107F63009579107AC87B84800E7508FF780812080B
:107F73009579107A517B85120DC080277C617D85B0
:107F83007ADD7B84802C79FF7A577B84120DAE7562
:107F930008FF78081208957910AA0AAB0BE4FCFDD8
:107FA300120DB474011208A4800B7C997D847A6647
:107FB3007B84120DBA7F0402060974F61203F2E9F8
:107FC300FEEAF8EBF9EE241F600424F07013EC547E
:107FD30030600E12115CEA540779002402F8500154
:107FE30009E8FAE9FB027F227403F5D5748CF5D412
:0B7FF3007403F5D37494F5D2020871FA
:10800000FE050400EC14FEFE0400EC14FEFE040069
:10801000F214FEFE0400FE14FEFE0000000000FE4E
:1080200004002215FFFF0004EC14FE0E0400EC1403
:10803000FEFE04001C15FEFE04001C15FEFE0400DE
:108040001C15FEFE0400EC14FEFE0400EC14FEFE03
:108050000400EC1407FE0400EC14FFFF1F040A15D3
:10806000FFFF1F040A15FFFF1F041015FE14040074
:10807000EC14FEFE0400F81412FE0400EC14FFFFE2
:108080001F04161507000A000C000D000E000F005B
:108090001000110012001300140019001B00000151
:1080A00001010002010202040004010403040404AB
:1080B0000504060400050206030604060506060676
:1080C0000706080609060A060B060C060D060E062C
:1080D0000F06100611061206130604070009000B0E
:1080E000010B020B030B0500060008000900160037
:1080F000020102020302000301030105020500065A
:108100000106040B140615061706000701070207EF
:10811000030700090509000000000000000000003E
:10812000000000000000000000000000000000004F
:10813000000000000000000000000000B821E61D63
:108140006C0D881B181CCA15F616EE12DE225E1581
:108150003C20544F47474C45204C49474854203E0B
:10816000002020204C49474854204F4646202020DC
:1081700020002020204C49474854204F4E202020EA
:108180002020001054493030303120202020202081
:10819000202020201032303036303833312020205B
:1081A0002020202020202020202020202020203CB3
:1081B000494E464F3E006E78787878206378782074
:1081C00061787878782000202020202050414E20AF
:1081D00049442020202020003C2020202050414ED7
:1081E000204944202020203E0020202020307820DC
:1081F0002020202020202020200020202020307837
:10820000464646462028616E792900205345432082
:108210004348414E4C204D41534B20002050524981
:10822000204348414E4C204D41534B20005465782B
:108230006173496E737472756D656E7473003C532F
:108240004543204348414E4C204D41534B3E003C5A
:10825000505249204348414E4C204D41534B3E0023
:1082600031323334353637383930313233343536CC
:10827000004E4D2D656E65726779206E6F742075A6
:10828000700020202020202020494E535420434FAE
:108290004445003C41504C5920494E535420434FD3
:1082A00044453E004552524F522028307820202924
:1082B00020202020003C53455420494E53544C204C
:1082C000434F44453E003C41444420494E53544CA6
:1082D00020434F44453E003C2020434F4D4D4953E1
:1082E00053494F4E20203E004964303030205372B5
:1082F00063683030302F303000506C65617365201A
:10830000776169742E2E2E2020004F4B20746F2031
:108310006578656375746520202000182019206336
:1083200068616E67652076616C7565001B201A2098
:10833000746F206D6F76652020202020003C202067
:1083400020202048454C5020202020203E00686FEF
:108350006C64204F4B20666F722068656C70003C27
:1083600020524553455420544F20464E20203E0075
:108370003C2020434F4E4649475552452020203E41
:10838000003C204E574B205354454552494E472000
:108390003E003C4E574B20464F524D4154494F4EA4
:1083A000203E003C46494E444E472B42494E444EE7
:1083B00047203E003C20202020204241434B2020EB
:1083C0002020203E00105465786173496E737472EA
:1083D000756D656E74735465786173496E737472EC
:1083E000756D656E7473003C202020415050204D07
:1083F000454E552020203E00787820202020202047
:1084000020202020202020200053746172744465B5
:10841000766963652045525200527370204E6F6E2C
:10842000204D6174636865640054492053616D7028
:108430006C65204C6967687400506C6561736520D9
:10844000776169742E2E2E004D6174636820446537
:10845000736320526571004173736F6320436E66CE
:10846000206661696C00456E65726779204C65769F
:10847000656C004D4F444520756E6B6E6F776E00D6
:108480004C617374207374617475733A0000000357
:108490000004000500060008005363616E20466179
:1084A000696C6564004E6F6E204D6174636865642D
:1084B00000FE010400041500FE0400A015526573BF
:1084C000657474696E672C00456E644465766963F3
:1084D000653A0000000000000000000000417373D6
:1084E0006F6320436E660000000000000000000083
:1084F000005A4544202820202029000000000000C8
:10850000000000000044495341424C4544004E6F76
:10851000744F6E4E776B005273702053656E74000B
:10852000000000000000000000FFFFFFFFFFFFFF52
:10853000FF454E41424C4544005A52204449535451
:10854000005A522043454E5400FFFFFFFFFFFFFF3C
:10855000FF506172656E743A00FFFFFFFFFFFFFF7F
:10856000FF5375636365737300535543434553531A
:108570000047726F7570203100000000000000009D
:1085800000434C4F53454400494545453A200003BC
:1085900006030008007482003A003B005A4544205C
:1085A000700045585354004F70656E004A4F494E55
:1085B00000464F524D000100000000000000030083
:1085C000000010270000E7030000640000000B001B
:1085D000000019000000975118000000FF00FFFF85
:1085E000FFFFFA000000F4010000000000FF10008F
:1085F0000000B80B00002D2D2D00E8030000983A74
:108600000000E903000000E1F5050A000000000099
:108610000000C8000000881300000400000019E0FA
:10862000FCFFE204000032000000F8FF000000F848
:10863000FF0760EA0000E71F030000480000010098
:108640000080FEFFFFFF300000002D2D004E460091
:108650004E53004642005A4300504C00494E003AE7
:108660002000300001000A010101C082C083120C09
:10867000AC90130B7494F0A3741BF090130D749AC8
:10868000F0A3741BF090130F74A0F0A3741BF09070
:10869000131174A6F0A3741BF002C15674F71203F1
:1086A000F2E9FE9012FFE4F0EE9012FEF07CD67D2F
:1086B000127A007B131212E290159EE0901308F0DC
:1086C00090130974C0F0A374120296D574F01203CB
:1086D000F2EAFEEBFF5480700302883E9012FEE047
:1086E000F912117A8A088B09EA4509700302883762
:1086F000EA241B12D2DB707CEA241F12D2DB641343
:108700007002A3E0706E8A828B8312889690131990
:1087100012C3B8750A00750B00800D12954F12C96F
:10872000C31211F8AA0EAB0FEA4B60488A828B8302
:10873000E0650C7004A3E0650D702C8A828B83A326
:10874000A3A3A3E0F50EA3E0F50FE50A450B8A828B
:108750008B83A3A3A3A360C31299E3850A82850B2D
:1087600083A3A3A3A380B78A0A8B0B8A828B83126D
:10877000C3B480B4E508242A12D2DBFCE508240245
:10878000F8E43509F9E8FAE9FB901319E012B407A7
:10879000E0640270358A828B8312C3B880078882B6
:1087A00089831299DFE849601C88828983E06A70B6
:1087B00003A3E06B70E888828983A3A3E06C70DE7A
:1087C00012888B806BECF9121BD085088285098397
:1087D000E06401704FE508241812887E1208951293
:1087E000CAE3120718E508241212887E120895E5DC
:1087F0000812A34B120891E508240B12CAE71207CE
:108800001CE5082417129D8FE5082402FCE43509B5
:10881000FDE5082419FAE43509FB122404740A1250
:1088200008A4800CE064027007AA08AB09121D08B6
:10883000AA08AB09121168EEFAEF64808036EE5494
:1088400002600C9015B37401F0EE6402FA802CEE15
:1088500054086023121BCA8B09EA45097011901352
:108860001B12C99B7A08FB9012FEE0F91212B8EEB7
:108870006408FAEFFB80047A007B0002D142F582A3
:10888000E43509F583E0F50A780A229015A412C0B0
:1088900017A3A3A3F022A3A3E0F50CA3E0F50D22F8
:1088A00074F41203F28A088B098A828B83A3A3A330
:1088B00012B07B129FB338F583E02409FA7B0012D3
:1088C00011628A0A8B0BAE0AAF0BEE4F700302895E
:1088D0006A8E828F83740212B0DD850882850983D7
:1088E0001297B7E8F0A3E912CD94A3A3A3A3A3A37F
:1088F000A3F0E5082403F8E4350912896C129FB34C
:108900003AF5831299F1F0EE2409FAE43FFB8E82E6
:108910008F83A3A312C2C5F5838882E0A2E58E826D
:108920008F83A3A3A3A3A3500474018001E4F0E503
:10893000082403F88882898312C3B8EA12B8233B5B
:10894000F58312E32012088D129FB23B12C3C98E29
:10895000828F8312C3B612113874031208A4EEFA80
:10896000EFFB9012FEE0F912116E8010F9888289F7
:1089700083E0FAA3E0CA2274021208A47F0402066C
:108980000974F21203F28A088B09ECFAEDFB740EFB
:10899000120B7FE0FC120CDC8A0C8B0DAE0CAF0DC1
:1089A000EE4F6030AC08AD09120CCAE96026AC0885
:1089B000AD09EEFAEFFB120CD0E970148E828F83B2
:1089C00012A4CDFAEFFB120CC4AA08AB09120CF4E6
:1089D0007900800279B402B35674F01203F274F68F
:1089E000120957EAFEEBFF8C088D09750FB3851845
:1089F00082851983E4F0750E008002050E902A79B5
:108A0000E493F8E50EC3984003028B08AA0E7B009E
:108A1000120D188A0A8B0BEA450B60DF8A828B8362
:108A2000A3A3128B0F28F0F8C3EE98EF940050CB5D
:108A30007C157D007900AA08AB09121144850A82D1
:108A4000850B83A3A3A3A312C19AE0F8EEC39829D0
:108A500025E0F8E433F9E50A28F582E50B39F583DA
:108A6000A3A3A3A3A3A3129FC9A3A3A3A3A312C9B0
:108A7000C3121EF48A0C8B0DAC0CAD0DAA08AB0909
:108A80001212E2850A82850B83A3E06401700A1248
:108A9000CAE37401129FDD80447401120937850A0C
:108AA00082850B8312C3B6120D00E9603D74091272
:108AB0000B7FE0C0E012CAE3D0E0F07409120B7F34
:108AC000E0640370137401120937E508240BFAE41B
:108AD0003509FB1212E280127401120B7F1299E326
:108AE000E50812BE10350912C9C1850A82850B83BB
:108AF00012CAEF129FDDA3A3E0C0E0E50824141220
:108B0000CAE7D0E0F0750F00A90F740A02D13FA3A5
:108B1000A3A3E0F8851882851983E02274F7120375
:108B2000F2E9FE8A828B83A3A3A3A3A3A3E0540844
:108B300060338A828B83A3A3A3A3A3A3E054026020
:108B4000218A828B83A3A3A3A3A3A3A3A3A3E064EB
:108B500006600F74E96E600A74CD6E600574F06E85
:108B60007003121BB202AC6774F01203F274EF12BE
:108B70000957740F120B7F12B2507408120B7FE961
:108B8000F0ECFEEDFF7405120B7FE41291A9128E3A
:108B900086120CE87406120B7F12B2507406120B88
:108BA0007F12B8917003028E3312A26AE0FA740643
:108BB000120B7FE0F9121AF285188285198312D5FB
:108BC000A6F8A3E0F9E8497003028E33EE2403F51A
:108BD0000AE43FF50BEE2406F508E43FF5097C00B6
:108BE000850882F58312C3B8850A82850B83E0F974
:108BF000120CEE7403120B7F12B250850A82850BA1
:108C000083E0C0E0851882851983128E94D0E0122B
:108C1000B995F985188285198312956212B4E41208
:108C20008B12FAA3E0CA2407F582E43AF583E8F050
:108C3000A3E412C6C52406F582E438F583E412D510
:108C40003412B06C12088DEE129FB33F12C3C97478
:108C500003120B7F12B07B1297AE12C3B8121138F9
:108C600074031208A47429120B7F12C19412897123
:108C700012B9A83A12C9C1742B120B7FE0C0E0856B
:108C8000188285198312B85AD0E0F07402120B7F53
:108C9000E4F07425120B7F7808120B28028D817482
:108CA00003120B7F12C37B88828983128E7BA3A35E
:108CB000A312BE4CFB120D06850E82850F83A3EA1C
:108CC000F0A3EBF07403120B7F128E94A3128E7B31
:108CD00012C054A2E6500F850E82850F83A3A3A372
:108CE000A3A3E0D2E1F07405120B7FE0706A850E59
:108CF00082850F831299E290135DE0687003A3E010
:108D0000697055850E82850F83A3A3A3129B957569
:108D10000C00780C12089578081208897429120B37
:108D20007FE0F50C780C1208957427120B7F120760
:108D30001C90136A12071C79007419120B7F12B26F
:108D400042121D5C740A1208A4850E82850F83A34B
:108D5000A3A3A3A3E04405F07402120B7FE004FC7C
:108D60008E828F83A3A3A3A3A3A3E0128E86120CEB
:108D7000EE7403120B7F12B2507402120B7FE004E8
:108D8000F07403120B7F12B89160707402120B7FA3
:108D9000E0FA7406120B7F1299E3C3EA98E4995043
:108DA0005A7402120B7F12915F851882851983E035
:108DB00028F8A3E039F9E8240FF50EE439F50F851A
:108DC0000E82F583E4F07403120B7F12D58FE064FA
:108DD000016003028C9F7405120B7F740112D12D68
:108DE000F07403120B7F12C146F8A3E0F9850E82DE
:108DF000850F83A3E8F0A3E9028CC3851882851947
:108E00008312C3B8121AF885188285198312071CB9
:108E10007426120B7FE0FD7425120B7FE0FC740AB0
:108E2000120B7FE0F9EEFAEFFB121BAC7402120892
:108E3000A480438E828F83A3A3A3E0C0E0740C12AE
:108E40000B7FD0E0F012CFD9E0C0E0740D120B7FA1
:108E5000D0E0F07406120B7F12B8917009740E12F4
:108E60000B7F74B98007740E120B7F7410F07409B5
:108E700012092F121D56741102D13FE0850E828512
:108E80000F83A3A3A322FAA3E0FB8E828F83A3A365
:108E9000A3E0F922E012C6A9A3A3A32274F012034F
:108EA000F274E11209577404120B7FE9F074031293
:108EB0000B7FECF07402120B7FEDF08A0E8B0F74B7
:108EC0002F120B7F128898AA0CFB121AE67401125B
:108ED0000B7FE9F0AA0CAB0D121AEC7401120B7F98
:108EE000E0700302915A851882851983E480158EFB
:108EF000828F83A3A3A3A3A3E0D2E3F08518828586
:108F00001983E00412D0AAF8851882851983E0C37A
:108F10009840030291517401120B7FE0700302919B
:108F20005185188285198312915FE50C28F8E50DAB
:108F300039F9E8240FFEE439FF8E828F83A3A3A3BF
:108F4000A3A3E0A2E040B5750800750A08750B0000
:108F50007402120B7FE060037508207C087D0079A5
:108F600000740512092F1211448E828F83E0604530
:108F70009013ADE06401701DE508D2E3F508750BB0
:108F800010129185120B7F12C9C38E828F83A3A307
:108F9000A374FF807A43080C750A0C8E828F83A31A
:108FA00012917BA3A3A3A312C9C37405120B7F74F0
:108FB000FFF0A3805A7404120B7FE06009E508D229
:108FC000E6F508750A0A8E828F83A3E064FE7003BB
:108FD000A3E0F470307412120B7F74041291A9F89C
:108FE000741D120B7FE812B0DD741212092F121AD1
:108FF000027D007C0079007415120B7FAA82AB837E
:109000001217DA800B129185120B7FE8F0A3E9F0BA
:109010007407120B7FE508F012A261C0E074091218
:109020000B7FD0E0F0740A120B7F7401F07405120C
:10903000092F121D0E7411120B7FE0600302912F95
:10904000740D120B7F12B9908E828F83A3A3A3A3FA
:10905000F0740D120B7F12B0A3E50AF0A3E50BF03C
:109060007403120B7FE0C0E012B04ED0E012C05487
:1090700060119013ADE0C0E0740D120B7F12B09937
:10908000D0E0F0740D120B7F1299E3850C82850DF0
:1090900083A3A3129171241C12B24A12D5441291D7
:1090A0007612C00A3912CFE6C0E012B035D0E01215
:1090B000D09FC0E0740D120B7F12AB6DD0E012CDCB
:1090C000BCC0E0740D120B7F12AB63D0E0F0740DE6
:1090D000120B7F12917B12919012D1221291712466
:1090E0002C12B24A12A250C0E012AB47D0E0F0748A
:1090F0000D120B7F12C3B8850E82850F8312916803
:109100002428F582E43B12C9C112A25912E32012AD
:10911000088D12C3C2EA12C65A3BF58312C3B812B5
:10912000113874031208A4740512092F121D148E2D
:10913000828F83A3A3A3A3A3E0D2E0F07411120B48
:109140007FE06003028EEF7401120B7FE014028E49
:10915000FB7900AA0CAB0D121BB8741F02D13FE0C3
:1091600075F007A4F8A9F022A3A3A3A31299E7EA34
:1091700022A3A3A3A3A312C3BCE8221299E7850EDE
:1091800082850F83228E828F83A31299E774052232
:10919000A3A3A3A3A3A3E0FAA3E0FBE8242AF582F8
:1091A000E439F583EAF0A3EB221291AD221296E1A5
:1091B000E02274F01203F274E8120957E98518826C
:1091C000851983F08A0E8B0F8A828B83A3A3A3A3B6
:1091D000A3A3A3A3E0F9121B108A088B09EA45098F
:1091E0007003029288E50E12AC4512A285129C69AA
:1091F000851882851983E0600302928B7C04850EBA
:1092000082850F83A3A3A3A3A3A3A3A3E0F9121BA7
:1092100016EE4F60738E828F831299DF7407120BE4
:109220007F12C9CD1299E37409120B7F12B105C0E8
:10923000E07411120B7FD0E012CDA2A3A3A3129968
:10924000DF740F120B7F12C9C37412120B7FE4126A
:10925000D135C8241FF582E438F58312C377C413CF
:10926000135403FC70027C048E828F83E0F978082B
:10927000120891742059FD744059F9740312092F92
:10928000121BAC74021208A402D13D7C08850E8228
:10929000850F83A3A3A3A3A3A3A3A3E0F9121B1683
:1092A0008B0BEA450B7003029211EE4F60DA8518C2
:1092B00082851983E0F50C780C1208958508828563
:1092C0000983A3A3A3A3A3A3A3E0F50C780C12081E
:1092D000958A828B83A3A3A3E0FB8A82850B8312EA
:1092E000D5768A82850B83E0FA8E828F83A3A3E0F2
:1092F000F912240A74021208A402921574F71203D8
:10930000F274FA120957E9FE780179017F008003AF
:1093100079000F12B3DDE0FCEFC39C5026EF75F02F
:1093200007A4FC85F008AD08EA2CFCEB3DFD12A972
:10933000C5E0A2E050DA540C60D6E0A2E250D37847
:109340000080CF8A828B83A3A3A3A3A3A3E0703D55
:10935000E9A2E0400574016E70338A828B83A3A377
:10936000A3A3A3A3740112AA2FE0C0E07403120BFD
:109370007FD0E012AA27E0C0E07404120B7FD0E097
:10938000F07405120B7FE812C3D2121D5674060248
:10939000AC64C082C0837901121BB802C15674F458
:1093A0001203F2EA4B9015B36022E4F08A088B09AD
:1093B000F50AF50B78081208897A027B009012FEF4
:1093C000E0F91212AC74041208A4800F7401F07A50
:1093D000027B009012FEE0F91212B802897C74F050
:1093E0001203F274F31209577403120B7FE4F0A313
:1093F000F0901319129C697401120B7FE4F0A31210
:10940000B0D504F0901357E0A2E350030294D912B0
:1094100012CAEAF8EBF9ECFAEDFB7409120B7F12B1
:109420000B447409120B7F7808120B2890131B78D9
:109430000812093F7405120B7F7808120B0A129567
:10944000567405120B7F7808120AEA50077A017BDE
:109450000002954A7405120B7F780C120B289015A8
:10946000A3E0F509780C7908120383A80CA90D90E4
:1094700015A4E0C398E4995003E08001E8851882C0
:10948000851983F07409120B7F7808120B28C00825
:10949000C009C00AC00B7405120B7F780C120B2890
:1094A000129556780C7908120383E4F50AF50BD06F
:1094B0000FD00ED00DD00C780C79081209C2901381
:1094C0001B780C120B0A801112954F12C9C3EEFAC9
:1094D000EFFB1211F8AE08AF09EE4F60658E828F78
:1094E00083128B0FC398502DEE2403F8E43FF9E06C
:1094F000FA88828983E0C39AF060237403120B7F99
:1095000012A70E7401120B7FEEF0A3EF12C9E8FE52
:10951000A3E0FF80C48E828F83A3A3A3E4F08E8296
:109520008F8312E2E97401120B7F12B8918E828F41
:1095300083A3A3A3A3609112C9AC120B7F129562FF
:1095400080897403120B7F12C3B8740D02D13F12CD
:1095500099E7901319229015A212E2F1E4F50AF5A9
:109560000B2212BE24A3A32274F01203F28A088BEA
:1095700009890A78007900901319129C6912B2398E
:10958000601E088E828F83A3A3A3A312B23C601037
:1095900008E87001098E828F83129C65EE4F70E39C
:1095A0009015A512C3B8C3E89AE99B4003029659E7
:1095B0007A067B001211F28A0C8B0DA80CA90DE81B
:1095C00049700302965988828983E508F0A3E5096A
:1095D00012AA3EA3E50AF012888B88828983A3A38E
:1095E000A3A3E4F0A3F012B239600D8E828F83A39F
:1095F000A3A3A312C9C3801F90131912C9C3901348
:1096000057E0A2E340111212CAEAF8EBF9ECFAEDC6
:10961000FB90131B120B44901357E0A2E3503A7ACD
:10962000087B009012FEE0F91212BEEA4B4C4D701E
:10963000289015A2E0F508A3E085080CF50DE4F5E7
:109640000EF50F780C1208897A087B009012FEE064
:10965000F91212B274041208A402D142C082C0836B
:10966000E99015B4F090131374EEF0A3741BF0900E
:1096700013157400F0A3741CF09013177412F0A368
:10968000741CF002C15674F71203F2EAFEEBFF8974
:1096900008EE4F7003120D5490131F12B89170080A
:1096A00090131F801E1299E388828983A3A3A3A32A
:1096B000A3A3A3A3A312A3EEA3A3A3A3A3A3A3A3C0
:1096C000A370E2EEF0A3EF1296D9A3A3A3E4F0A354
:1096D0001296D9E508F002AC671296DD221296E1E7
:1096E00022F08E828F83A3A3A3A3A3A32274F712D5
:1096F00003F2E9FD90131F800D88828983A3A3A341
:10970000A3A3A3A3A3A312B891603488828983A3DF
:10971000A3A3A3A3A3A3E06D70DF88828983A3A37F
:10972000A3A3E06A7003A3E06B70CE88828983A351
:10973000A3A3A3A3A3E06C70C0E8FAE9FB80047ABA
:10974000007B0002AC6774F71203F290131F129CA7
:109750006990131F12916C687002EB697019E0C870
:109760001297AE1299E390131F12C9C390131F12E0
:109770009C698030129C5CEE4F60298E828F83A39F
:10978000A3A3A3A3129168687002EB6970E68A82B2
:109790008B83A3A3A3A3A3A3A3A3A31297B7A3A35A
:1097A000A312C9C31211F8EEFAEFFB02AC67240949
:1097B000F582E438F58322129FC1A3A32274F0122C
:1097C00003F274F91209578A0C8B0D8A828B83A3DA
:1097D000A3A3A3A3A3A3A3E060336401602F8A82A1
:1097E0008B8312C3B8121F72E97022850C82850D1B
:1097F00083A3A3A3A3A3A3A3A3E06403701474028D
:10980000120937AA0CAB0D121CA2E97016790202DC
:1098100099D2850C82850D831299E37402120B7F15
:1098200012C9C3E50C241112D53C243412C2CF1244
:1098300011F28A088B09AE08AF09EE4F7003029946
:10984000D07C347D007900121144AA18AB19850C24
:1098500082850D83A3A3A3A3A3A3A3A3A3E0F912CB
:1098600023C8851882851983E0C0E01299D7D0E01B
:10987000F0EE242EF50EE43FF50F7401120B7FE09D
:10988000850E82850F83F07901EEFAEFFB121BDC67
:10989000850C08850D09750A00780812088D7C1E54
:1098A0007D00EE240BFAE43FFB121138740312081A
:1098B000A4EE2432FAE43FFBEE2434F8E43FF98AC4
:1098C000828B8312C9C3E50C2411FCE4350DFD8C99
:1098D000828D8312B4DF243012C9BDE50C12A9D7E2
:1098E00012D55912E31212088D8C828D8312D5770E
:1098F0008A828B8312C3B812113874031208A474BD
:1099000002120B7F129FBD12C9C39012FF1299F170
:10991000A3A3A3F09012FFE004F01212CA8E828F6C
:109920008312AB86242CF8E43FF9E8FAE9FB7508CA
:10993000FF750900850E82850F83E07808120A7092
:109940008A828B83E508F0EE242B129D7C7404122E
:109950000B7FE4F0E50C241512D53CA2E074055011
:1099600007120B7F74018004120B7FE4F0EE2429B0
:10997000F508E43FF509740412092F1223E0E924E5
:10998000FE850882850983F0EE2430129D861299A7
:10999000F81202AAE88E828F83A3A3A3A3A3A3A392
:1099A000A3F01299F81202AA8B09EA4509600F8EFA
:1099B000828F83A3A3A3A3A3A3A3A3E004F0EE2415
:1099C0002012BCE3440812A2B91211A4790080024B
:1099D0007910740702D13FEE12C65A3FF58322A3D5
:1099E000A3A3A31299E7221299EB22E0F8A3E0F9CE
:1099F0002212CD9BA3A3A3228C828D8312BE2EE0C4
:109A0000FA7B002274F41203F2EAFEEBFF1212CA90
:109A10008E828F8312B250901598E0F8EE242D12AA
:109A2000BCE3C3984003029B72129B847012EE2425
:109A30002D12BCE30412B426C0E0129D72D0E0F0F7
:109A400012B3E5FA7900800109EE242E12BCE3F886
:109A5000E9C3985026750801750900E97808120ACB
:109A600070129B84550860E0E92AFA7508017509AF
:109A700000E97808120A70E04508F0EE242912BCCB
:109A8000E3FBEE2430F582E43FF583EA8BF0A4F8A3
:109A9000ACF0E42CF9E098F8A3E099F9EBFCC3E80A
:109AA0009CE99400EE4031242912BCE3F8129B8417
:109AB000602C1299D7129B95A3E4F0EA7047EE242C
:109AC0002012BCE3442012B109C0E012B414D0E06B
:109AD00012B41EFCA3E08055129D7374FFF0901326
:109AE0004DE0FC90159B129B8CADF075F064A4FCCE
:109AF000ABF075F064EDA42BFD8E828F83A3A3ECF5
:109B0000F0A3ED80B5EE242012BCE354DF12B40FB5
:109B1000EAF0FCEE2429F582E43FF583129B8CFCED
:109B2000ADF0EE243212BCE32CFCA3E03DFD12D0DC
:109B300080ECF0A3ED12CB17C0E0EE2425F582E413
:109B40003FF583D0E0F0EE241CF582E43FF583E896
:109B500012B0DD90132112B891600BEAF912DE23E6
:109B600012056AE9701BEE240BFAE43FFB121C7825
:109B7000800F7BE9129D9F122410EEFAEFFB121B5F
:109B8000E802897CEE242B12BD3EF422E0F508ECBD
:109B90008508F0A42212CD9BA3F02274F41203F2E4
:109BA00090131F129C691212CA8A0A8B0B78FF79D4
:109BB000FF8020E0C39AFCA3E09BFDC3EC98ED99E5
:109BC000500E8E828F83A3A3E0C39AF8A3E09BF983
:109BD000129C5CEE4F60598E828F8312C3B8E50AE7
:109BE000C39AFAE50B9BFB8E828F8312D575C3EA6D
:109BF0009CEB9D8E828F83A3A340B8A3A3A3A3E075
:109C00006402701712A276600912A26A12C3B81217
:109C10001168EEFAEFFB121BE88007EEFAEFFB1279
:109C20001BF47A017B009015B4E0F91211A480298D
:109C300074FF68700374FF69601F88088909E4F580
:109C40000AF50B78081208897A017B009015B4E0B8
:109C5000F91212AC74041208A402897C8E828F83DC
:109C6000A3A3A3A3A3A3A3A3A3E0FEA3E0FF227443
:109C7000F31203F28A088B09ECFAEDFB890C7C01E4
:109C8000E5082411129D8F121BE28A0A8B0BAE0A83
:109C9000AF0BEE4F7003029D6DE50C6003029D6DEE
:109CA00012CAE3129D99686003029D6D12B3D3122C
:109CB000BCF98E828F83A3A3A3A3A3A3A3A3E0FADB
:109CC000E89AE99400C365D033401812D2D7F470F3
:109CD000127B00129D9F122410EEFAEFFB121BE87C
:109CE000029D6D12D2D7F47043EE242BF8E43FF9B5
:109CF000E8FAE9FBEE242E129D867508FF7509002F
:109D00008C828D83E07808120A708A828B83E50842
:109D1000F0EE242C129D7C8C828D83129D9928F06C
:109D2000EE242DF582E43FF583E48021E508241438
:109D3000F8E43509F9E0C0E0EE242CF582E43FF5C3
:109D400083D0E012C2A9C0E0129D72D0E0F01212DE
:109D5000CA8E828F8312AB861299D812BCEFA312DF
:109D6000B0DD7A01FB9015B4E0F91211A47F050271
:109D70000609EE242BF582E43FF58322F582E43FC9
:109D8000F583E508F022F8E43FF9E8FCE9FD22F567
:109D900082E43509F583E0F922E0F812B3E922EE16
:109DA000242212BD3EFAEE241412BD3EF92274F0B4
:109DB0001203F274FB1209577403120B7F12B0BF27
:109DC000E9851882851983F08A0A8B0B8A828B8336
:109DD000A3A3E0F91223EC8A0E8B0FEA450F70075C
:109DE0007A007B00029FAD7A127B001211F28A0882
:109DF0008B09EA45097003029FA97C127D00790056
:109E0000121144740112092F850A82850B83A3A3C2
:109E1000E0F91223C8E508240FFEE43509FF7402B7
:109E2000120B7FE08E828F83F07902AA08AB0912B1
:109E30001BDC7403120B7F12C6A4129FC9129FD79A
:109E400012D38EA3A3A3A3A3A3A3F0750CFF750D38
:109E5000008E828F83E0780C120A70E508240C12C1
:109E6000CAE7E50C12D11D12DE21E0C0E0E50824AE
:109E70000B12CAE7D0E0F0E50A129FB312D388FABA
:109E8000E508240D12CAE7EAF0E50A12A9D712D3B1
:109E9000888AF0A4A9F02427FAE439FB1211628A17
:109EA0000C8B0DAE0CAF0DE508241012CAE712AAF8
:109EB0000CEE4F7003029F9C8E828F83741A12B037
:109EC000DD8E828F83A3A3F0A3129FEB129FBD129E
:109ED000C9C7120B7F12D57712D0881223CE850AFC
:109EE00082850B83A3A3A3E0C0E012BCE7D0E0F01F
:109EF00090136A12B4DF2410129FD112A9A3350B5C
:109F0000F58312B4DF12C3A3E8F0A3E9129FEB12AA
:109F1000B4DB12CFDAE8F0A3E9129FDDE0C0E0EE97
:109F20002414F582E43FF583D0E0F0E50A240C1216
:109F3000D385C0E0EE12A9A33FF583D0E0F07415FD
:109F4000120B7F12C01DE0C0E012D2C7D0E012CBCE
:109F500012C0E012CFCDD0E012AA38C0E012B05645
:109F6000D0E012B896C0E012B03FD0E0F074171203
:109F70000B7F120B50EE241AF582E43FF583120B8F
:109F800044EE2427F8E43FF9EE2422129FD112D3A5
:109F9000A6E0C0E012D090D0E0F0800DAA08AB0996
:109FA000121BE8750800750900AA08AB09740502C0
:109FB000D13FEA129FB7222410F582E422129FC1FA
:109FC0002212AB59A3A3A3A32212BE2EA3A3A3A321
:109FD00022F582E43FF58312B0FFE50A22129FE1E9
:109FE00022F0850A82850B83A3A322129FE1A3A3FB
:109FF000A3A32274F01203F274FE1209578518828B
:10A0000085198312B0BF8A0E8B0F890DC200EA1228
:10A01000A27CE0F50C90132112B891600EA90C12ED
:10A02000DE2312056AE9600302A24B7C0212A298A9
:10A0300012A250F9121BE28A088B09AE08AF09EE92
:10A040004F7058850E82850F83A3E0A2E040030283
:10A05000A24B7414120B7F1207187416120B7F1286
:10A06000071CA90D7406120B7F12D577AA0EAB0F31
:10A07000121C0674061208A48A088B09AE08AF09E0
:10A08000EE4F700302A24B8E828F83A3A3A3A3A3E0
:10A09000A3A3A3E50C12A2B91211A4AA0C8E828F5D
:10A0A00083A3A3A3A3A3A3A3A3E024FFF8E434FF03
:10A0B000F9E86A497002D20012A276700302A20780
:10A0C000850E82850F83A3E0A2E05003750C001279
:10A0D000A2A6E50C98E499C365D033401CE0F8EEE5
:10A0E000240E12BCE32CF07508FF750900E878080F
:10A0F000120A70EE240C129D7C12A25912E3201257
:10A10000088D12C3C2EE240D12BCE3F508E50C85E0
:10A1100008F0A4FAABF012B0782422F582E438F506
:10A1200083E02AFAA3E03BFB12113874031208A45F
:10A1300075080112A28A7808120A7012BCE045085C
:10A14000F0A200506DEE240CFAE43FFB7508FF12FC
:10A15000A28A047808120A708A828B83E04508126A
:10A16000B0CDF8E50CF508E88508F0A4F8A9F012E0
:10A17000A261FCE82CFCE439FD12B0782420F582C1
:10A18000E438F583ECF0A3ED12C14CF47024EE2416
:10A190000BF508E43FF50912A26A12C3B8850882DC
:10A1A000850983E0F912116E85088285098374FFA1
:10A1B00080541212CA8E828F8312B25090134DE0D7
:10A1C000FA90159BE0F508EA8508F0A4FAABF0F8E0
:10A1D000EBF9901598E0F508E88508F0A4F8ACF0E4
:10A1E0008508F0E9A42CF9EA28F8EB39F9E875F0CC
:10A1F00064A4F8AAF075F064E9A42AF98E828F832A
:10A20000A3A3E8F0A3E9F0AA0C12A2A612D212E8C6
:10A210006A7001E9600CEE240C129B876004A200B6
:10A220005029EE240E12BCE3C0E0E50E12A27CD051
:10A23000E0F012BCE0C0E0E50E241412A282D0E0EF
:10A24000F0AC0EAD0F12A298121C66740202D13F40
:10A25000E50E241112A282E022E50E240E12A28243
:10A2600022E50E241012A282E02212A26E22EE1229
:10A270009FB73FF5832212C9A4E0F422241312A24F
:10A280008222F582E4350FF5832275090012BD3B69
:10A29000F5F0E50C84E5F02285188285198312C457
:10A2A00007FAA3E0FB22EE240E12BD3EF812BD3BDE
:10A2B000FCE82CF8E43400F922F07A017B009015D8
:10A2C000B4E0F922C082C0839015B4E0F912116E97
:10A2D00002C15674F41203F2EAFEEBFF5480704B95
:10A2E000EEA2E0505F121BFAEE6401FAEF80528A90
:10A2F000828B83E06401702CEA12CAE5120718EA27
:10A3000012A34B120891EA2412129D8FEA2402FC38
:10A31000E43509FDEA2419FAE43509FB121C0C7432
:10A32000061208A4AA08AB091211689015B4E0F946
:10A3300012117A8A088B09EA450970B3EEFAEF64C4
:10A3400080FB80047A007B0002897C240FF50AE4FC
:10A350003509F50B780A2274F21203F2890B8A0888
:10A360008B098A828B8312C3B8121C248B0DEA4599
:10A370000D600479B88074121C42E9F8902A6BE4ED
:10A3800093F9E8C399400479B280607A157B001292
:10A3900011F28A0C8B0DAE0CAF0DEE4F70047910DC
:10A3A00080498E828F83E4F012A3F8A3E50BF07549
:10A3B0000A00780812088D7C127D00EE2403FAE46E
:10A3C0003FFB12113874031208A490132312B891A2
:10A3D0007008901323800C1299E38882898312A35A
:10A3E000EE70F412AA0C121C54790002B35612C378
:10A3F000BCEA4B8882898322A312CDD0A322C082DB
:10A40000C08390132380048C828D8312D577EC4D0A
:10A4100060288C828D83A3A3E069600574FF697056
:10A42000E68C828D83A3A3A3E06A7003A3E06B7024
:10A43000D6EC2403FAE43DFB80047A007B0002C1E1
:10A440005674F71203F2E9FD74FE6D70047C01800E
:10A45000027C0090132380096D70027C0188828940
:10A460008312B891601F88828983A3A3A3E06A70D6
:10A4700003A3E06B70E7ECA2E088828983A3A3E0EA
:10A4800050D6F9800279FE02AC6774F61203F2E945
:10A49000FF7E00901323802C88828983A3A3E06F22
:10A4A000701E88828983A312A4CD25E0FCE433FDCD
:10A4B000EA2CF582EB3DF583E508F0A3E509F00E03
:10A4C0008882898312B89170CFEEF9800CA3A31211
:10A4D000E2F1EE2274021208A47F0202060974F768
:10A4E0001203F2E9FE9013231299E37C007D0080B1
:10A4F0000BE8FCE9FD888289831299E3E849603E14
:10A5000088828983A3A3E06E70E788828983A3A3EE
:10A51000A3E06A7003A3E06B70D7EC4D8882898357
:10A52000700812C3B8901323800312AC5312B250B8
:10A53000E8FAE9FB1211F8121C5479018002790043
:10A5400002AC6774F51203F2890A90132312C3B8A0
:10A550007E007F00801712AB51E8F0A3E912C14CD6
:10A56000F508A3E0F5091211F8AA08AB09EA4B6057
:10A57000288A828B83A3A3E0650A7010EE4F8A823B
:10A580008B8370D21299E390132380CDEAFEEBFF08
:10A590008A828B8312C3B880D4121C5480031208A1
:10A5A000A47F03020609C082C08379009013238030
:10A5B000010912C3B88A828B83E582458370F20257
:10A5C000C15674F61203F2E4F508F509780812088A
:10A5D00091902A6BE49375F013A4A9F012A70312CB
:10A5E000126A74021208A4E9FE74096E7003121C48
:10A5F0004E02A4C974F61203F274FE1209578518AC
:10A6000082851983E4F0A3F0A818A919880889099C
:10A6100078081208917508027509007808120891E7
:10A620007C007D007A427B0012127674041208A42A
:10A6300002A4D474F51203F274EB12095785188240
:10A64000851983E4F0A3F0901323807C8E828F839E
:10A65000A3A3E0C0E07402120B7FD0E012C6B1A940
:10A6600082AA8389088A09750A00780812088D7CF5
:10A67000127D007406120B7FAA82AB83121138740C
:10A68000031208A47402120927880889097808129D
:10A69000089175081375090078081208917404125E
:10A6A0000B7F12B84375F013A4F8AAF075F013E904
:10A6B00012A6FF12127674041208A4851882851956
:10A6C0008312A70E8E828F83129C69EE4F60030265
:10A6D000A64CA818A9198808890978081208917544
:10A6E000080275090078081208917C007D007A4202
:10A6F0007B0012127674041208A4741502A59EA49D
:10A700002AF9E82402FCE439FD7A427B0022E024A5
:10A7100001F0A3E03400F02274F41203F274EB129F
:10A7200009577E007F00A818A919880889097808A8
:10A730001208917508028E0978081208917C007D34
:10A74000007A427B0012127C74041208A4E9706E35
:10A750008E0880587402120927880A890B780A1219
:10A760000891750A13750B00780A120891E50875AF
:10A77000F013A4F8AAF075F013E50912A6FF12125F
:10A780007C74041208A4E9701B7403120B7FAA8264
:10A79000AB837402120B7FE0F9121C1EE970050EE8
:10A7A000EE70010F0508E50870020509851882851D
:10A7B00019831299E3C3E50898E509994096EEFAE2
:10A7C000EFFB741502897974F61203F28C828D8383
:10A7D000A3A312A9FEF0EA12C6603BF583E0C0E035
:10A7E00012A9CFD0E0F012A9A91299E312A9B312CD
:10A7F000A9FEA3F0A3F0EA241FF582E43BF583123F
:10A800009C69EC12A9A33DF58312AA0C12DC1D3B36
:10A81000F58312A9DDA3A3A3A3A3A312AA08888288
:10A820008983E0FE8C828D8312AA1F74035EFEC3AF
:10A830009403400302A996EE600874026E6003025E
:10A84000A8C28C828D83E0540CFE740C6E700302DF
:10A85000A8FFE0A2E4400D88828983E08C828D838A
:10A86000A312AA4374086E600302A8FF12A9BD7464
:10A8700001F08A828B83A3A3A3A3A312BCF370125B
:10A880008C828D83E0440C12AA27A3A312A9DD12A7
:10A89000AA088C828D83E0A2E4402712A9E712AABD
:10A8A0001250010912A9E7A3A3A3A3A3A3F0A3EF46
:10A8B00012AA388C828D83A3A3A3F0E82403F85056
:10A8C000010988828983E0C0E0EC12CFC73DF5839F
:10A8D000D0E012AA1F8C828D83E0A2E75076888296
:10A8E0008983E0FE8C828D8312AA4374FC5E700C17
:10A8F0008C828D83A3E054036403701F02A9961217
:10A90000A9BDE4F0740C6E600302A87212A9ED12E6
:10A91000AA12400302A8920902A8928C828D83A3F6
:10A92000E05403603288828983E0C0E0EC12A9D74A
:10A930003DF583D0E012AA448C828D83E0540364F9
:10A9400002701488828983E0C0E012A9C5D0E012A9
:10A95000AA448003A3E4F0EC12B8233D12C9C1EC71
:10A960002410FEE43DFF12A9A9E0F5088E828F8332
:10A97000E0C3982508F508F0EA2417F8E43BF988C5
:10A98000828983E0C39508C0E012A9B3D0E012C267
:10A99000A9C39508500A12A9B3E4F012A9CFE4F0B4
:10A9A00002A4D92415F582E422EA241DF582E43BB1
:10A9B000F58322EC240DF582E43DF58322EC12B9F7
:10A9C000A83DF58322EC2414F582E43DF58322ECC6
:10A9D000129FB73DF583222413F582E422E0FEA303
:10A9E000E0FF8C828D832212A9EDA3A322888289A5
:10A9F00083E0F508A3E0FFE5088C828D8322E4F074
:10AA00008C828D83A3A3A322A3A3A3A3EEF0A3EF21
:10AA1000F022A3A3A3A3F0A3EFF0E82402F82212EC
:10AA2000AA3EA882A9832212AA2FA3A3A3A322F03D
:10AA30008A828B83A3A3A32212AA3EA3E02212C27E
:10AA4000B2A322A312AA3E08A9832274F41203F22D
:10AA500074F31209578A0A8B0BECFEEDFF8E828F7E
:10AA600083E0540CF508E0A2E75006E508D2E7F5CC
:10AA700008E508D2E1F50812BCF37006E508D2E457
:10AA8000F508E0A2E55006E508D2E5F5087C087D6A
:10AA9000007900AA18AB191211447402120B7FE559
:10AAA0000812D52EC0E07403120B7FD0E012B0D58F
:10AAB000E50AF0A3E50BF07405120B7F12C3D01268
:10AAC0001D0E740C120B7FE070787408120B7F124D
:10AAD000B07B12C29F3812CDC1C0E07408120B7F48
:10AAE00012AB6DD0E012CDBCC0E07408120B7F1227
:10AAF000AB63D0E0F07408120B7F12AB511291904F
:10AB000012B10912AB79241112BCE3C0E012AB47B9
:10AB1000D0E0F0EE241412BCE3C0E07408120B7F06
:10AB200012B07B2435F582E438F583D0E012B0C54D
:10AB3000C0E07408120B7F12B07FD0E012C3D212B3
:10AB40001D14740D028979E82432F582E439F58305
:10AB50002212AB552212AB5922E0F8A3E0F98E8203
:10AB60008F832212B08F12CFB938F5832212B08FA3
:10AB70002426F582E438F58322FAA3E0FBE8242CAE
:10AB8000F582E439F583EAF0A3EBF0EE2274F712D4
:10AB900003F27E008A828B83A3A3A3A3A3A3A3A310
:10ABA000A3E06404600302AC4012B9A0E0600302B9
:10ABB000AC4012AC443B12B88F700302AC408882A8
:10ABC0008983E054037079E812B9A839F583E0FA73
:10ABD0008C828D83A3A3E0FBA3E0CB12CFC73BF510
:10ABE00083E06A705B88828983A3A3A3A3A312ACCA
:10ABF0004FE06A7003A3E06B70468882898312ACD1
:10AC00004FA3A3E0FFA3E0CF240612BCE36A7003C6
:10AC1000A3E06B702B88828983A3A3E0F88C828DDC
:10AC200083A3A3E0F9A3E0F5838982A3A3E068608E
:10AC30000D8C828D8312C375540C640470027E01E6
:10AC4000EEF98023EA12AC4922240FF582E422A314
:10AC5000A3A3A312C3BC8C828D8322740C120B7F1E
:10AC6000E0F9740D1208A47F0102060974F61203BC
:10AC7000F274FC120957EAFEEBFFECFAEDFB8A8254
:10AC80008B83A3E05403601690131512B89160579C
:10AC90007900EEFCEFFD12DE2312056A804985186B
:10ACA0008285198312AA0C7402120B7F12B250AC67
:10ACB00018AD197A6C7B1C121EA08A088B09A80893
:10ACC000A909E849602188828983A3A3A3A3A3A338
:10ACD000A3A3A37406F07A008882898312B07B1242
:10ACE000C675E0F9121DFE740402A4D674F21203B4
:10ACF000F274F3120957EAFEEBFF8E828F83A3A34F
:10AD0000A3A3A3A3A3A3A3A3E0F50A9015B3E070A4
:10AD10000579BA02B032750801750900750C007525
:10AD20000D007C087D007900AA18AB19121144743B
:10AD300005120B7F740112B0E25404601274021207
:10AD40000B7FE0D2E612B0E254087003750803E00E
:10AD50005410600674404508F508E05408602274F9
:10AD600002120B7FE044C012B0E25420600A740368
:10AD7000120B7FE0D2E080087403120B7FE0D2E177
:10AD8000F0EE241512BCE312B06070037401697018
:10AD90000674084508F5088E828F83A3A3A3A3A396
:10ADA000A3A3A3E07016121EFA85188285198312D8
:10ADB000B2507402120B7FE0D2E28030640F701048
:10ADC0007402120B7F12B0EA74044508F508807F04
:10ADD0008E828F83A3A3A3A3A3A3A3A3E064028E65
:10ADE000828F83700A12C194E8F0A3E9F08060A317
:10ADF000A3A3A3A3A3A3A3E06403700DAC18AD1990
:10AE0000EEFAEFFB121CA280468E828F83A3A3A3CF
:10AE1000A3A3A3A3A3E0640170359013ADE0601079
:10AE20007402120B7F12B0EA750910750AFF8018C0
:10AE30007402120B7FE0440C12B0D574FDF0A374C1
:10AE4000FFF074044508F5088E828F83128898EE0F
:10AE5000241512BCE3A2E0503F7402120B7FE054B1
:10AE60000C701B8E828F8312C3B81218ACE9700568
:10AE700079BB02B0327402120B7FE0D2E5F0EE240F
:10AE80001512BCE3A2E050107402120B7FE0540CC8
:10AE900064047004E0D2E5F0EE241112BCE3C0E0DB
:10AEA0007404120B7FD0E012C3D2121D0E740C1268
:10AEB0000B7FE0600302B02B7408120B7F12B0A36B
:10AEC000E508F0A3E509F012B056E0C0E012B04E7C
:10AED000D0E0F012B03FE0C0E07408120B7F12B077
:10AEE0007B12A9D738F583D0E012B1096401701143
:10AEF0009013ADE0C0E07408120B7F12B099D0E05F
:10AF0000F07408120B7F12B4DF12B049FAE8241C67
:10AF1000F582E439F583EA12B0DDEE2415FAE43F58
:10AF2000FB8A828B8312D577E812C00A39F5831227
:10AF3000B0BFEE241C12BCE3C0E012B035D0E0126A
:10AF4000C14C12B060700374016970137408120B65
:10AF50007F12B990FAEE241D12BCE3F9121B1C8E6D
:10AF6000828F83A3A3A3A3A3A3A3A3A3E0C0E0749E
:10AF700008120B7F12AB6DD0E0F07408120B7F1239
:10AF8000AB63E50AF07408120B7F12B8432428F56E
:10AF900082E439F583E50CF0A3E50D12B0CD1291F2
:10AFA0009712BD3612AB7912B049C0E0E82433F5F0
:10AFB00082E439F583D0E0F0EE241B12BCE3C0E05C
:10AFC0007408120B7F12B07FD0E0F0EE241A12BC8E
:10AFD000E3C0E07408120B7F12B07B2432F582E4E8
:10AFE00038F583D0E012B0C512B06C12088D12CFC4
:10AFF000BF12D577740B120B7F12CAFFFAA3E0FBC6
:10B0000012113874031208A4EE241512BCE3544044
:10B01000601290133912B891600AAA18AB1912DEA7
:10B020002312056AAA18AB19121D14740C120B7F97
:10B03000E0F902B351E82420F582E439F58322EEE9
:10B040002419F582E43FF5832212CFD2E022E812E0
:10B05000C2A339F58322EE2418F582E43FF583225A
:10B060005480F8A3E05401F974806822F508A3E045
:10B07000F509750A0078082212A26E12B08F22120A
:10B08000B08F2434F582E438F58322A3A3A3A3125E
:10B09000B09322E0F8A3E0C82212B08F12A9A3381F
:10B0A000F5832212B84712AC4939F58322E0FC8AB5
:10B0B000828B83E02CFCA3E03400FD8A828B83EC3E
:10B0C000F0A3EDF022F0EE241312BD3E22F0EE24A8
:10B0D0000D12BD3E22F085188285198322F0A3E46B
:10B0E000F022F0EE241512BD3E22E0D2E3F012B0C1
:10B0F000F2228E828F831299EB851882851983E85C
:10B10000F0A3E9F022E8F0A3E912C9E2E02274F723
:10B110001203F28A828B83A3E0640170047E638051
:10B12000027E648A828B83E0600D7905121DC8E976
:10B13000F8EEC39824F3FE901355E0600CF9121D4D
:10B14000C8E9F8EEC39824F2FE02AC4074F612038C
:10B15000F274FE12095785188285198312B250E9DC
:10B16000FEECFAEDFB90037D12B8916035A818A9AA
:10B17000198808890978081208917D01740E120B4C
:10B180007FE0FCEEF990037D12C6A412056A7402FA
:10B190001208A48B09EA450960047900800679B297
:10B1A000800279B602A4D474F71203F2E9FE901378
:10B1B0000B12B891601F7409120B7FE0F508780834
:10B1C000120895EEF990130B12C6A412056A7401C9
:10B1D0001208A4800279B602AC6774F71203F289F0
:10B1E00008ECFEEDFF79B5E508245E6023146006E7
:10B1F00024F86037804090037F12B23C603890039F
:10B200007F12C6A412056A8E828F8312B2508024E8
:10B2100090130D12D577EC4D601CEEFCEFFD9013F2
:10B220000D12C6A412056AE9F9800B90130912B237
:10B23000421212E2790002AC6790131912C3BCEA01
:10B240004B2212D57BEEFAEFFB22F582E439F5832F
:10B25000EAF0A3EBF02274F71203F2E9FE79B57479
:10B26000AB6E700B90130912C3B81212E279000290
:10B27000AC6774F11203F2EAFEEBFF8C0A8D0B75DA
:10B28000080190135DE06E7003A3E06F7014121E4E
:10B29000F48A0C8B0DAC0CAD0DAA0AAB0B1212E2AA
:10B2A0008066121F008A0C8B0DEE650C7003EF6533
:10B2B0000D7009AA0AAB0B121F06804CAC0AAD0B2D
:10B2C000EEFAEFFB1219DEE9F5089015AAE07038E6
:10B2D00012232CE97032E508702E90132DE06E7069
:10B2E00003A3E06F7022EE4F601E750C25750D13E1
:10B2F000750E00780C12088D7C087D00AA0AAB0B35
:10B3000012113874031208A4A90802DF0574F2129E
:10B3100003F2EAFEEBFF8C088D09750A01121EF498
:10B320008A0C8B0DAC0CAD0DEEFAEFFB1212DCE9C2
:10B330006401700B90135D12BE2A12C9C3800EAC5B
:10B3400008AD09EEFAEFFB1219E4E9F50AA90A8043
:10B3500005740D1208A47F0602060974F61203F2A2
:10B36000EAFEEBFF7A0D7B001211F2EA4B6061EE10
:10B37000242412D21BF0EE242512D21BA312B40FE8
:10B3800012D221A3A312CFDE12B3F4F012B3E5124E
:10B39000B3FDE8F0A3E912B42612B3FDA3A312C9CA
:10B3A000C312B3D312B3F4A3A3A3A3A3F0EE243325
:10B3B00012BCE3C0E012B3DDD0E012CDC512B40779
:10B3C000A3E8F0A3E912B41EC0E012B9A0D0E0F0E7
:10B3D00002A4D9EE242EF582E43FF58322EA12BEC0
:10B3E000143BF5832212B3E922EE242AF582E43FCE
:10B3F000F583E022E08A828B83A3A3A32212B40107
:10B400002212D112A3A32212B401A3A3A3A322F058
:10B4100012B41422EE2426F582E43FF58322F0EEE6
:10B42000243212BD3E22F0EE242C12BD3E2274F4D2
:10B430001203F274FE120957ECFEEDFFEE24161211
:10B44000BCE364057010EE2406FCE43FFD121C9C76
:10B45000E9700302B4D6AC18AD1912D0881218B234
:10B4600085188285198312B89160678E828F83E078
:10B4700064017057E875F009A4F8AAF075F009E9BD
:10B48000A42AF9748128F8740039F9E8FAE9FB8AEA
:10B49000828B837808120B2812B58B120AEA402798
:10B4A00085188285198312B4DF12BCE812B4E478DF
:10B4B00008120B289085B67808120A118A828B83AD
:10B4C0007808120B0A800779A2800D12C9BA790098
:10B4D000800679A1800279C8028977A3A3A3A31269
:10B4E00099E7EE2212B0FF12B4EB22EE12C2A33F94
:10B4F000F5832274F21203F28A0C8B0DECFEEDFF41
:10B5000012BCE7E4F0A3F09085DE7808120B281255
:10B51000B58B120983606312B582703378B39013D0
:10B5200054E07027901386E06401701FEE2411121E
:10B53000BCE3F9121DB08A088B09A808A90912C931
:10B54000BAE84960047800800278A18808802EE07B
:10B5500060046402700A121CAEE9F5087007801DD1
:10B56000E064037010EEFCEFFDAA0CAB0D1218D6D0
:10B57000E9F50880087508A180037508A3A90802E9
:10B58000B356EE240E12BD3E64012212B4EB7808CD
:10B590002274F01203F274F5120957EAFEEBFFEE83
:10B5A000240AFCE43FFD8C828D8312E2ED12B82D5B
:10B5B00074031209378E828F8312C3B8121C9CE960
:10B5C000700302B6837401120937740312092F1233
:10B5D00018B27401120B7F12B891700302B683E89F
:10B5E00075F009A4F8AAF075F009E9A42AF9747DA8
:10B5F00028FC740039FDE508240E12CAE7E4F004C3
:10B60000120B7F1299E3E50812AC45350912C9C146
:10B610008C828D83120B50E508241212CAE7120B9C
:10B62000449085B67808120B288C828D8378081296
:10B630000A968C828D83780C120B289085FA7808F4
:10B64000120B28780C7908120383E5084509450A8E
:10B65000450B702F7401120B7F12B84375F009A4CB
:10B66000F8AAF075F009E9A42AF9748528F582741E
:10B670000039F5837401F07A007B089011BEE0F97F
:10B680001211A48E828F83A3A3A3A3A3A3A3A3A316
:10B69000A3E02406FCA3E03400FD8E828F8312C356
:10B6A000B8121C9C121D4AE96042EE240A129D86C3
:10B6B0008C828D8312B0A3746812B0DDE812B823B7
:10B6C00039F5837402F090133F120B508C828D83F6
:10B6D00012C69712C29F3CF583120B449085B67830
:10B6E00008120B2890133F7808120A9612B87C7043
:10B6F0006690130912B83BA3A3A3A3A3A3A3A3A378
:10B70000A312C2CC1212DCE9701D121EF48A088B3F
:10B7100009AC08AD0990130912C3B81212DCE97024
:10B7200006121D4AE960308E828F83A3A3A3A3A3D0
:10B73000A3A3A3A3A312B83B12C3B81218DCE960F9
:10B74000118E828F83A3A3A3A3A3A312B868E4F0EE
:10B75000A3F012B84CE4F012B87C600302B81E8E5D
:10B76000828F83A3A3A3A3A3A312E2E9901354E0BF
:10B77000600302B813901386E06401600302B813FB
:10B78000750A3A750B00780A12089174021209279B
:10B79000880A890B780A1208917C017D007A007B67
:10B7A0000012201474041208A4E97064E508240E41
:10B7B00012CAE7740112B896C0E0E508241112CA53
:10B7C000E7D0E0F0E508240F12CAE7743A12B0DDC2
:10B7D00090133B120B50E508241212CAE7120B44D7
:10B7E0009085B67808120B2890133B7808120A96B9
:10B7F0009085B67808120B2890133B7808120983BD
:10B8000070117A007B029011BEE0F91211A480033E
:10B8100012B82D12B87C700612C18274A1F0740B9C
:10B8200002D13F12B82722240EF582E422E5081245
:10B83000AC493509F583E4F0A3F02212D57B8E8262
:10B840008F832212B847221299EBE8228E828F83CF
:10B85000A3A3A3A3A3A3A3A3A3A312B85E2212B07E
:10B860009312B82738F58322A3A3A3A312B870229A
:10B8700012B093240FF582E438F583228E828F83F1
:10B88000A3A3A3A3A3A312B08B240FF582E438F5DE
:10B890008312B847492212D5AE2274F61203F2EA97
:10B8A000FEEBFF7A237B001211F2EE240AF508E486
:10B8B0003FF50985088212B24E7C237D0079001283
:10B8C000114485088285098312B891700302B96713
:10B8D000EEFAEFFB121CBA12B87C607412B98264E3
:10B8E000018E828F83A3A3A3A3A3A3700712B978A9
:10B8F000740E802212B8917011121D4AE9700B8EDD
:10B90000828F83A3A3E0A2E0500712B96E740D806A
:10B910000512B96E740512CDC55403640170071287
:10B92000D5817405800B901355E0C0E012D581D00D
:10B93000E012B995F5838882A3E0F9121DC8850845
:10B940008285098312B07B12C66038F583E9801ABC
:10B9500085088285098312C3B81211F8850882858B
:10B960000983E4F0A3800312C67CF002A4D98E827E
:10B970008F83A3A3A3A3A3A312B08B12C66638F52B
:10B9800083228E828F83A3A3A3A3A3A3A3A3A3A392
:10B9900012B85EE02212B9992212D2E8F8A3E0228E
:10B9A000EA12B9A83BF58322240CF582E42274F153
:10B9B0001203F274E41209578A0C8B0D8C088D095E
:10B9C0007A237B001211F28A0A8B0BAE0AAF0BEEC0
:10B9D0004F700302BCD6121EFA8A0A8B0BA80AA962
:10B9E0000BE508241512D2DB687003A3E0698E8290
:10B9F0008F837004740280027401F0E508240DF84E
:10BA0000E43509F988828983E0FAC3E49AFA95E07B
:10BA1000FBE508240E12D2DB2AFAA3E03BFB8E8260
:10BA20008F83A3A3A3A312C2B88E828F83A3A3F094
:10BA3000EE2420F582E43FF583E4F0EE2421F58244
:10BA4000E43FF583E4F0EEFAEFFB121D7A850882FD
:10BA500085098312BCF370098E828F83A3740580DD
:10BA60000690135512BCEFF0EE2417F50AE43FF5EB
:10BA70000B8E828F83A3E0F9121DC8E9850A8285A7
:10BA80000B83F0EE2416F8E43FF9E508240EFAE4FF
:10BA90003509FB8882898312B0ADE5082410FAE4E9
:10BAA0003509FB850A82850B83E0FC88828983E067
:10BAB000F88A828B83E0C398C39CF812D5A1EEFC70
:10BAC000EFFDAA0CAB0D121CB4E9F50B8E828F832F
:10BAD000E064027011121EF48A088B09AC08AD09EB
:10BAE00012D0881212E2E50B600302BCCD750C0087
:10BAF000750D009015AAE064016005E064027049CC
:10BB0000EE242012B5856008EE242112B585703927
:10BB10008E828F83A3A3A312C68712BCF9EE2416CC
:10BB200012BCE312BD20FAE439FB1211F28A0C8B2D
:10BB30000DEA450D601312E31812088D12BD07AA15
:10BB40000C12113874031208A4EEFAEFFB121D86D2
:10BB5000E9F50B9015AAE064016008E06402600357
:10BB600002BCC0E9700302BCC0E50C450D700302C5
:10BB7000BCCD8003850E0BEE242012B585600BEE44
:10BB8000242112B585600302BCC6850B0E850C0806
:10BB9000850D09750A00780812088D12BD078E827E
:10BBA0008F8312C3B412113874031208A4EE242038
:10BBB00012BCE3600D12BCE7746812B0DDEE242005
:10BBC0008015EE242112BCE3601512BCE77403F06B
:10BBD000A37401F0EE2421F582E43FF583E4F0EE56
:10BBE000FAEFFB121D86E9F50B708C7C137D007952
:10BBF00000740912092F121144741A120B7F740178
:10BC000012BD3664687002A3E0704F8E828F83127B
:10BC1000B868E06405600302BB747C0879FF8E821B
:10BC20008F83A3A3A3A3E0242A12C2CF1211DAE9BF
:10BC3000700302BB747C087D0079FF740112092F28
:10BC400012114474011209377A007B0079AB121C7F
:10BC5000967419120B7F74FC801512BCE7E0640324
:10BC60007004A3E0640170087419120B7F74FFF074
:10BC7000E4F508F50978081208917402120937747E
:10BC800013120B7FAA82AB83121D3274021208A416
:10BC9000851882851983E0602D74091209278808A8
:10BCA0008909780812089175081375090078081237
:10BCB00008917C007D0012127674041208A480069C
:10BCC000E50C450D6007AA0CAB0D1211F8EEFAEF6A
:10BCD000FB1211F88003750B10A90B741C02DF0214
:10BCE000EE240C12BD3E22EE12AC493FF583221227
:10BCF000CD9B22E0540364012212BCFD22E0FAE84D
:10BD00002AF8E43400F9228E828F83A312BD2B120D
:10BD1000BCFDEE241612BD3E12BD20FCE439FD220E
:10BD2000FAE82AF8E439F9E8240422A3A3E0F88E1B
:10BD3000828F83A3A322F012BD3B22EE240FF58253
:10BD4000E43FF583E022790102087174F41203F2F2
:10BD5000EAFEEBFF8E828F83A3A3A3A3A3A3A3A3D7
:10BD600012B07B2424F582E438F58312BCF3702AE8
:10BD700012B982702512BE38E06405701D12BE38FB
:10BD8000A3E0F87401686005740668700712B84C87
:10BD90007402800512B84C7403F0EE240A12C72C0A
:10BDA00012C6A4E4F0EE2408F8E43F12896C2431B2
:10BDB000F582E43AF583E0C0E012BE1AD0E012BE8C
:10BDC0004CCA242EF582E43AF583E0C0E012BE1A94
:10BDD000A3D0E012C367C812BE1038F58312BE2A82
:10BDE00012956212C9C3121EF48A0A8B0BAC0AADFB
:10BDF0000B85088285098312C2CC1212E285088263
:10BE000085098312C3B8121D8612C727F002897CE8
:10BE100012BE1422240BF582E42285088285098350
:10BE200012BE242212D566A3A32212BE2E2212997C
:10BE3000EB850882850983228E828F83A3A3A3A327
:10BE4000A3A3A3A312CDB5F58388822212C2ADFAB3
:10BE5000A3E02202BD46C082C08390132F74C0F0BD
:10BE6000A3741CF090133174CCF0A3741CF09013E5
:10BE70003374D2F0A3741CF090133574C6F0A3741D
:10BE80001CF002C15674F41203F2EA2408FEE43BEB
:10BE9000FF8E828F8312B84312C66CE0F5087403DC
:10BEA0005508F50912CE2C12C01DE508F0A3A88292
:10BEB000A983E509600974026509600302BF6E7415
:10BEC0000C5508FC600A74086C600574046C7026DC
:10BED000740265097006E508A2E4401A8A828B8321
:10BEE000A3A3A3A3A3A3A3A312C07112CFB93D120E
:10BEF000C010A308A983740C6C701C12C06D242898
:10BF000012C0592428F582E43DF583A312CBDFF05B
:10BF1000E82402F8500109740265097006E508A2D8
:10BF2000E4404B12C06D242A12C059242AF582E441
:10BF30003DF583A312C01712C07712CBDF12C07772
:10BF4000A312888EE82404F8500109EC600F7408ED
:10BF50006C600A740C6C600574046C701112C68BF2
:10BF60002426F582E43C12C010A3A882A9838A8209
:10BF70008B83A3A3A3A3A3A3A3A312C041540370C1
:10BF800014E508A2E1400E12C68B12C00A3CF583EC
:10BF9000E05480600812C02712C012801A9012FF6D
:10BFA000E0C0E012C027D0E0F09012FF12C0129063
:10BFB00012FFE00412C2B2A3A882A983E508A2E797
:10BFC00050458E828F8312C0418882898312C0546B
:10BFD00012C0465403603012C68B2434F582E43C10
:10BFE00012CBDDF0E508A2E1501D8A828B83A3A36A
:10BFF000A3A3A3A3A3A31289712435F582E43A1263
:10C00000CBDDA3F0E8240302897C241EF582E42220
:10C01000F58312C017F022E08882898322E0F8A31A
:10C02000E0F988828983228A828B83A3A3A3A3A3B6
:10C03000A3A3A3E0FCA3E0CC2432F582E43CF58387
:10C0400022E012C04622FCA3E0CC2425F582E43C89
:10C05000F583E02212CDD0E022F582E43DF5831293
:10C06000C01712C0662212CDD412C071228E828FE8
:10C0700083E0FDA3E0CD22A312C066242CF582E468
:10C080003DF58322C082C0838A828B8312C146FC25
:10C0900074035CF98A828B83A3A37401F0E96005C1
:10C0A0007402697061740C5CF8600A740868600559
:10C0B00074046870137402697005ECA2E440098A84
:10C0C000828B83A3A37402F0740C68700A8A828B3B
:10C0D00083A3A3E02402F07402697005ECA2E4409B
:10C0E000258A828B83A3A3E02404F0E8600F740800
:10C0F00068600A740C68600574046870098A828B31
:10C1000083A3A3E004F0ECA2E7502A8A828B83A3E6
:10C11000A3E00412C14C128E95E0540360178A828A
:10C120008B83A3A3E004F0ECA2E150098A828B8305
:10C13000A3A3E004F08A828B83A3A3E004F080161B
:10C1400085188285198312D593A3E022F08A828B09
:10C1500083E0221208A4D083D082020871C082C07A
:10C16000838A828B83A3A3A3A3A3A3A3A3A3A312C2
:10C17000B891600C8A828B83A3A312C3B01211F80A
:10C1800080D412C18622EE240CF582E43FF583228E
:10C19000A3A3A3A312C19822E0F8A3E0F985188213
:10C1A0008519832274F61203F274F412095712C22D
:10C1B000D6FCA3E0F5838C82A3E0C0E07402120BEE
:10C1C0007FD0E012C38512C36E7404120B7F12C9B4
:10C1D000C37402120B7FE06404701412C2EC2412C8
:10C1E00012C2CF7406120B7F12C2B8241A8035E037
:10C1F00064016005E064067039EA2402F8E43B1249
:10C20000896C12C29F3AF583E0C0E07403120B7F81
:10C21000D0E012C2A9241312C2CF7406120B7F12EF
:10C22000C2B8241B12C36E7408120B7FE8F0A3E996
:10C23000802B7406120B7FE4F0A312C2E7241212C3
:10C24000C2CF7408120B7F12C2C5C8241AF582E44B
:10C2500038F583E0C0E0740A120B7FD0E0F074067A
:10C26000120B7F12B891602B7406120B7F12C3B8A9
:10C270001219D2E96401701B121EF48A088B09ACF2
:10C2800008AD097406120B7F12C3B81212DCE96400
:10C29000017007AA18AB19121D62740C02A4D61201
:10C2A000C2A3222412F582E42212C2AD2212C2B22B
:10C2B000E022F0888289832212C2BC22EAF0A3EB3A
:10C2C00012C2B2E02212C2BCF8A3E022E02406FAB5
:10C2D000A3E03400FB228A828B83A3A3A3A3A3A39E
:10C2E00012C198E8F0A3E9F012C2EC2212C397E061
:10C2F00022C082C08374FD12095712C31612DE21B8
:10C30000A3E0C0E07402120B7FD0E012C3D2121D72
:10C3100068740302C1538A828B83A3A3A3A3A3A33C
:10C3200012B0F68A828B83A3A3E022C082C08374FA
:10C33000FA1209578A828B83A3A312C19012C38B6E
:10C34000C0E07402120B7FD0E012C367F5838882CD
:10C35000A3A3E0C0E07405120B7FD0E012C3D21299
:10C360001D6E740602C15312C2ADF8A3E022F8A3F9
:10C37000E03400F922A3A312C40722E02402F8A3A8
:10C38000E03400F92212C2AD24022212B0FF12C31F
:10C390009712D562A3E022EA2402F8E43BF98882EE
:10C3A0008983222424F582E43FF583228E828F83C1
:10C3B000A3A3A3A3A3A3A3A312C3BC22E0FAA3E055
:10C3C000FB22E50E129FB7350FF583E0FC7D0022BE
:10C3D0007401F0AA18AB1922C082C08312C3FB609B
:10C3E0000A24FC600B24F9600C800D121CF08008FC
:10C3F000121CF68003121CFC02C1568A828B831227
:10C40000C40524FB22A3A312D598E02274F61203DC
:10C41000F274E4120957EAFEEBFF74011209378E39
:10C42000828F8312C3B2121C9C74091209278808D8
:10C4300089097808120891740212093774031209E5
:10C440002F121D3274021208A4851882851983E008
:10C4500060317419120B7FE070299012E0E07023B4
:10C460008E828F83A3A3A3A3A3E070178E828F83F2
:10C4700012C4B8603E8E828F83A3A312DE22E064D2
:10C480000760308E828F83A3A3A3A3A3A3A3A3E0FB
:10C4900070148E828F8312C375640560097A347BB1
:10C4A000011216EA800DEEFAEFFB90133712C6A4C4
:10C4B00012056A741C02A4D612C40564062274F420
:10C4C0001203F274FA120957EAFEEBFF851882850F
:10C4D0001983EEF0A3EF12C6C5240812C6BC240AC5
:10C4E00012C6BC12C675E412C3D2121CE412C140BB
:10C4F000F508121EFA8A0A8B0BA80AA90B85188266
:10C5000085198312D55EE0687003A3E069602EE5AB
:10C5100008A2E55028851882851983A3E0FB9013B3
:10C520002F12C6A412056A85188285198312B07B62
:10C53000240A12B88B700612C140C2E5F012BCE0AA
:10C54000600302C6557403120B7F7436F074021236
:10C550000B7F12C687A3A3E028C0E07404120B7FF0
:10C56000D0E012C6B1A3A3E0C0E07405120B7FD0E7
:10C57000E012C9DBF8A3E0F9E849601BE812C660E5
:10C5800039F583E0FAE812C66639F583E02AF874D3
:10C5900004120B7FE028F0740312092F121A3E8A4E
:10C5A000088B09A808A909E849700302C64A8E82C7
:10C5B0008F8312C3B888828983A3A312B250E81272
:10C5C000C29F3912CDC1C0E0E812C66CD0E012CDD6
:10C5D000BCC0E0E82425F582E439F583D0E012C937
:10C5E000E8C0E0E8242EF582E439F583D0E0F07469
:10C5F00002120B7FE0FA12C6822AFCA3E03400FD8F
:10C60000E812C65A39F58312B0BFE82431F582E446
:10C6100039F583EA12C9DBFAA3E0FBEA4B6019E8BB
:10C62000242FFAE439FB8E828F83A3A312C68F12C4
:10C63000C6663CF58312B0AD8E828F83A3A3A3A3FD
:10C64000A3A3A3A3E8F0A3E9800AEEFAEFFB121C70
:10C65000EA12C67CF07406028979242FF582E4225E
:10C660002417F582E4222416F582E4222424F5829C
:10C67000E439F5832212B9A838F5832212C18674F1
:10C68000102212CE30E02212BD2D228A828B83A38B
:10C69000A3A3A3A3A3A3A3E0FCA3E0CC22EEFAEF01
:10C6A000FB901331E012C6A922F8A3E0F58388823B
:10C6B0002212C6B52212CDD4A3A3A322F582E43858
:10C6C000F583E4F0A312D5AEF8A3E0C82274F61205
:10C6D00003F2EAFEEBFF12BCE07042121CDE8E8217
:10C6E0008F83A3A3A3A3A3A3A3A3A3A312B891601F
:10C6F0000612C69D12056A12BCE0700B12C3AC1282
:10C700001A3812C7278015EE240812C72C12C3B896
:10C710001211F8850882850983E4F0A3F0EEFAEFA0
:10C72000FB121CEA02A4D912C186E922F508E43FF3
:10C73000F509850882F5832274F41203F28A088BC6
:10C7400009ECFEEDFF121EFA8A0A8B0BA80AA90B50
:10C75000EE241512BCE3687003A3E069600EAA081A
:10C76000AB091218ACE9700479018011EEFCEFFD01
:10C77000AA08AB0990133512C6A412056A02897C77
:10C7800074F71203F2EA4B701F7E007F0012C98219
:10C7900050247C107D00EE2404FAEF3401FB1212C9
:10C7A000820EEE70E80F80E57C107D008A828B831C
:10C7B00012C99212128202AC6774F61203F274E488
:10C7C00012095785188285198312C9B212092F12CE
:10C7D00011447409120927880889097808120891F8
:10C7E0007402120937740312092F121D32740212D7
:10C7F00008A48A088B09AE08AF09851882851983B9
:10C80000E07004790180417C137D00790074091285
:10C81000092F1211447419120B7F74FFF07409125E
:10C82000092788088909780812089175081375097D
:10C830000078081208917C007D00EEFAEFFB1212DE
:10C840007674041208A4790002C4B374F01203F2DF
:10C8500074EC1209578A0A8B0B8C088D0985188293
:10C86000851983E4F09015AAE0700A90158BE070AA
:10C870000479018077EA450B6005EC45097004797D
:10C880000280697401120927880C890D780C12083E
:10C89000917402120937AA08AB09121D32740212F0
:10C8A00008A48A0C8B0D74FF650C700474FF650D71
:10C8B000700302C97D851882851983E06033741185
:10C8C000120B7FE0702B780A120891750810750919
:10C8D0000078081208917C007D007417120B7F12FB
:10C8E000C99212127674041208A47900741402D149
:10C8F0003F7E007F0080050EEE70010F12C982504E
:10C900007C780A1208917C107D00EE2404FAEF3442
:10C9100001FB12126A74021208A4E9640970D87546
:10C920000A00780812088D7C087D00740C120B7FB9
:10C93000AA82AB8312113874031208A47405120B77
:10C940007F12C99B04120B7F12C99B7411120B7FBB
:10C95000E4F07413120B7FEEF074011209278808BB
:10C96000890978081208917508137509007808126A
:10C9700008917C007D00AA0CAB0D02C8E279B202DE
:10C98000C8EC902A5DE493F8740193F9C3EE98EF34
:10C990009922E02404FAE43401FB22E4F0A3F0A39A
:10C9A000F0A3F022EE12BE143FF583221299E77431
:10C9B0000122E4F07C08FDF90422EE240FF582E464
:10C9C0003FF58312B0FF2212B0FF74032212B0FFB2
:10C9D0008E828F83A3A3A3A3A3A32212C9E2A3A33E
:10C9E000E0221296E1A3A32212C6B5A3E02274F0BE
:10C9F0001203F274ED1209578A0E8B0F8C0A8D0BFD
:10CA00007EFF7FFF8C828D83E4F0EC450B6005EAAE
:10CA1000450F70077AFF7BFF02CAD37508007509BE
:10CA200000802474FF6E700374FF6F70127408121C
:10CA30000B7FAA82AB8312200EE9700312CAD805BD
:10CA400008E50870020509902A5FE493F8740193E1
:10CA5000F9C3E50898E509995075A818A919880C33
:10CA6000890D780C120891750C13750D00780C1255
:10CA700008917C007D00E5082411FAE5093401FBEA
:10CA800012127C74041208A4AC0EAD0F7408120BC1
:10CA90007FAA82AB831212DCE964017086850A8268
:10CAA000850B837401F07423120B7F12B23C601C5F
:10CAB000A818A919880C890D750E00780C12088D1C
:10CAC0007C137D0012113874031208A412CAD8EE28
:10CAD000FAEFFB741302D13FE5082411FEE5093497
:10CAE00001FF22E5082413F582E43509F58322E0ED
:10CAF000850882850983A3A3A3A3A3A3A3A32212CA
:10CB0000CB032212CB072212B09312C65A38F583F8
:10CB1000E02212AA3EE0221296DDA3E02274F71270
:10CB200003F274F3120957EAFEEBFF740C120B7F49
:10CB3000E4F07C08FDF9AA18AB191211448E828F1B
:10CB400083A3E06401600A8E828F83A3E064047093
:10CB50006F7404120B7F7402F0740C120B7FE07080
:10CB60005C8E828F83E085188285198312B0DD7414
:10CB700002120B7F7421F07405120B7F12C3D012C6
:10CB80001D0E740C120B7FE070337408120B7F12B1
:10CB9000CDAC740812A3F9AA82AB8312CBDF12C109
:10CBA0004C640270118E828F8312D575E82402FACC
:10CBB000E439FB1212E2AA18AB19121D1402AC5B85
:10CBC0008E828F83A3E0640270097404120B7F7459
:10CBD0000A8085740C120B7F74B3F080E0F5831229
:10CBE000C017A32274F41203F274B61209578A080C
:10CBF0008B098A828B83A3A3E06404600302CD8D3A
:10CC00009015AAE0700302CD8D121D4AE96003025F
:10CC1000CD8D740F1209377A007B0079AB121C900E
:10CC200085088285098312D577740F12092F12198E
:10CC3000D8E9700302CD8D7437120927880A890B51
:10CC4000780A1208917402120937850882850983CF
:10CC500012C3B8121D3274021208A48518828519F5
:10CC600083E0700302CD8D7447120B7FE064016096
:10CC70000302CD8D7427120927880A890B780A12BE
:10CC80000891750A10750B00780A1208917C007DD6
:10CC9000007A027B0112127C74041208A47401123F
:10CCA0000B7F7403F07417120927880A890B780A1E
:10CCB0001208917429120927880A890B780A120828
:10CCC000917C087D00740512092F121DCE74041288
:10CCD00008A4740E120B7FE4F07C08FDF9740212B4
:10CCE000092F1211447402120B7FE4F0A3F07404B4
:10CCF000120B7F7401F07407120B7F7401F074063D
:10CD0000120B7F741AF0740212092F121D0E740E8A
:10CD1000120B7FE07077740A120B7F12CAFFFEA31A
:10CD2000E0FF8E828F83740F12CD94F0121EF48A6E
:10CD3000088B09750A00780812088D7C087D00743C
:10CD40001212092F12113874031208A4740F120959
:10CD500037EE2402FAE43FFB1212E274171209279D
:10CD600088088909780812088D7C107D00EE240A55
:10CD7000FAE43FFB12113874031208A4740212097A
:10CD80002F121D14740E120B7FE0F9800279C27409
:10CD90004A02897912CDA212CD9B22E08E828F8326
:10CDA000A322F0850882850983A3A32212CDB5F9B9
:10CDB000888289832212CB07F8A3E02212C6B5E04D
:10CDC00022F583740112CDC92212CDD4A3A3E0228F
:10CDD00012CDD422F08E828F8322C082C083121C97
:10CDE000D89013377402F0A3741DF002C156C082AC
:10CDF000C0837C0879FF90130912C3B81211DA02BC
:10CE0000C15674F71203F2E9FE12AC443B12B88F1C
:10CE1000601788828983A3E05403700DEEFB12CE65
:10CE20002C12CE5FE0F912241002AC6712CE302231
:10CE3000E812BE1439F58322C082C083EAF8EBF908
:10CE400088828983A3A3A3A3A3E0FB88828983A309
:10CE5000A3A3A312CE5FA3E0F912241002C156E0EF
:10CE6000FA88828983A3A32274F01203F28A0C8BBE
:10CE70000D8C0E8D0F890B129FB212D53F2430FA04
:10CE80007B001211628A088B09AE08AF09EE4F7061
:10CE90000302CFB58E828F837401F0850C08850D57
:10CEA00009750A00780812088D7C177D00EE241998
:10CEB000FAE43FFB12113874031208A4850E0885AA
:10CEC0000F09780812088D7C097D00EE2402FAE42F
:10CED0003FFB12113874031208A47410120B7F1256
:10CEE000B4DF240B12C9BD7412120B7F12C01DE0F7
:10CEF000C0E012BCE7D0E012AA38C0E012CFBFD029
:10CF0000E012CB12C0E012A26AD0E0F07414120B4F
:10CF10007FE0C0E012CFD9D0E012CFDEE4F0A3F082
:10CF20007415120B7F120B50EE12A9D73FF5831226
:10CF30000B4412CFCDE50B12D09AA3A312B4DB247D
:10CF40000D12C9BD7419120B7FE0C0E012B056D0AB
:10CF5000E012D54DE0602BEE2430FAE43FFB12CF17
:10CF6000B83F12CFE6F508A3E0F509780812088D5E
:10CF7000E50C129FB3350D12C3C912113874031298
:10CF800008A4EE241A12BCE35403601D9013171278
:10CF9000B891600CEEFAEFFB12DE2312056A8015E1
:10CFA000EEFAEFFB121168800CEEFAEFFB9012FE26
:10CFB000E0F912116E02D142EE2427F582E422EE4E
:10CFC00012CFC73FF583222411F582E422EE12CF5F
:10CFD000D22212C6603FF58322EE12B4EC22F01288
:10CFE000CFB83FF58322F583EAF0A3EBF0E50C24FC
:10CFF0000E12D556E02274F21203F28A0C8B0D7ACF
:10D00000207B001211628A088B09AE08AF09EE4F2F
:10D01000606B8E828F83740412D0BF1299F112D08C
:10D020009F8E828F83A3A3A3A3A312D09A12E3207F
:10D0300012088D7C107D0012D088121138740312F2
:10D0400008A4850C82850D8312D56FEE2416FAE4B0
:10D050003FFB1219CC850C82850D83A3A3A3A3A348
:10D06000A3A3A3A3A3E0C0E012D080D0E012D0AA73
:10D07000C0E012D090D0E012D0B412116E02B356BC
:10D08000EE12C00A3FF58322EE2406FAE43FFB22AB
:10D09000EE241FF582E43FF5832212D0A4A32212CE
:10D0A000D0A4E02212E2D8A3A322F0E50C240B12B4
:10D0B000D556E022F0EEFAEFFB9011BEE0F922F037
:10D0C000850C82850D8312AB55A3A312B0FF850C8E
:10D0D00082850D83A3A32274F61203F2EAFEEBFF0E
:10D0E0007A057B00121162EA4B60248A828B83747A
:10D0F0000812C05412D112E8F0A3E912CDC58A82F9
:10D100008B83A3A3A3A3F09011BEE0F912116E02CA
:10D11000A4D9F8A3E0F98A828B83A3A32212D12792
:10D12000E02212D127A32212D12DA3A322F0850E33
:10D1300082850F832212D12DE0F8A3E02274181209
:10D1400008A47F0802060974F61203F274EC1209AF
:10D1500057EAFEEBFF8E828F8312C3B8121F72E96B
:10D160007006121D4AE96002807C8E828F83A3A321
:10D17000E0706C8E828F83A3A3A3A3A3E0640470EA
:10D180005E740112092788088909780812089174C9
:10D190000212093790130912C3B8121D3274021219
:10D1A00008A4851882851983E060347411120B7FFE
:10D1B000E06401702A12D1EB12089175080175091B
:10D1C0000078081208917C107D007A117B01121200
:10D1D0007674041208A479001223867A0180027AF8
:10D1E000007901122338741402A4D67402F08582E7
:10D1F00008858309780822C082C08390134574B6DD
:10D20000F0A3741DF090134774AAF0A3741DF002EC
:10D21000C156E824FF18E934FFF922F582E43FF50E
:10D2200083E08A828B832274F51203F212D5128571
:10D230000882F583E054078E828F83A312D2E41311
:10D240001313541F5403C0E012D2CFD0E012D2E423
:10D25000C4135407F50A7904A3AA82AB83121150B0
:10D26000EAF8EBF9ECFAEDFB12CFD9120B4412D22B
:10D27000C77405F0E50AA2E0501AE5082405FCE4AD
:10D280003509FD12D0881212E2EE241612BCE324F6
:10D2900008F0800C7C087D00790012D088121144BF
:10D2A00012B582701FEE2416F8E43FF98882898354
:10D2B000E0FAE5082A12D2DBC0E012CFBFD0E012BC
:10D2C000C2A904F002A5A1EE12C6663FF58322EEC4
:10D2D00012B8273FF58322E5082414F582E43509C6
:10D2E000F583E02212D2E822F0850882850983E0E6
:10D2F0002274F21203F28A0A8B0BEA241612D385E7
:10D30000640D70047E0180027E008A828B83A3A359
:10D31000E0F88A828B83A3A312D521EEC43354E0B4
:10D32000F9EA12D39D33333354F8F88A828B83A3FE
:10D33000E04849850882850983F0A38582088583B2
:10D3400009EA12D3A6120718AA08AB091211CE7463
:10D35000041208A48A088B09EEA2E05016E50A24FC
:10D3600006FCE4350BFD1212E2E5082408F508502E
:10D37000020509E50A12D39D64017006E50A12D37D
:10D380008EF002B356F582E4350BF583E02212CF1E
:10D39000C7350BF583E08508828509832212B827FB
:10D3A000350BF583E02212C2A3350BF5832274F40A
:10D3B0001203F274C712095712D5128E828F83E0BE
:10D3C0007005121D80800CA3E0F885088285098312
:10D3D000E048F012CFD912071874301209378508C7
:10D3E00082850983E0F912D088121DA47404120802
:10D3F000A48E828F83A3A3E0C0E07401120B7FD0C0
:10D40000E0F0EE241612BCE3C0E07402120B7FD0F1
:10D41000E012CDBCC0E07403120B7FD0E012D52E19
:10D42000C0E07404120B7FD0E012BD3664017004BA
:10D43000A3E064017018740C120937EE242212BCA8
:10D44000E3F9EE2418FAE43FFB1218A0800E740CE6
:10D4500012093712BCE712C3B81218E8740C12098B
:10D4600027740A120B7FE8F0A3E912B0D574FF12FB
:10D47000D53464027009851882851983E4800DE033
:10D48000640370438518828519837402F0741C123A
:10D490000927880A890B780A120891740E12092745
:10D4A000880A890B780A1208917C087D007404129E
:10D4B000092F121DCE74041208A4741C12092774BB
:10D4C0000A120B7F12C9C38E828F83A3A3A3A31258
:10D4D000071C742E120937740312092F8E828F8352
:10D4E000E0F9121DBC74021208A4E9FE85088285C9
:10D4F000098312DC2D741C12092F1211447C107D3B
:10D50000007900740C12092F121144EEF9743902DB
:10D510008979EAFEEBFF8E828F8312BD2B12D52113
:10D5200022A3A3E028F508A3E03400F5092212CDD8
:10D53000D0A3E022F0EE240E12BD3E22F582E412CA
:10D54000D559E022E50C12B9A812D55922F0E50C04
:10D55000241012D55622F582E4350DF5832212D51A
:10D56000622212D56622E0FAA3E0F5838A8222A322
:10D57000A3A3A3A3A3A3A312D57B22E0FCA3E0FD56
:10D58000228E828F83A3A3A3A3A3A3A3A3A3A312E7
:10D59000D5932212D598A322E0F8A3E0F5838882E0
:10D5A0002212C6B5F022EAF0A3EB12D5AE22F08526
:10D5B0001882851983E02274F41203F28A088B0919
:10D5C0007808120891750A11750B00780A120891F3
:10D5D0007C007D007A3A7B0012127C74041208A44D
:10D5E000E9701090133B120B50E508241112CAE7A2
:10D5F000120B4402897C74F51203F274EF1209577E
:10D60000E9851882851983F08A088B09750A0078E4
:10D610000812088D7C107D007404120B7FAA82AB67
:10D620008312113874031208A4A818A9198808894C
:10D630000978081208917508117509007808120810
:10D64000917C007D007A3B7B0012127674041208F4
:10D65000A47C117D007900AA18AB19121144741131
:10D6600002A59E74F01203F274EB120957E9FE7AD8
:10D67000117B001211F28A088B09EA450970030236
:10D68000D7A37808120891750A11750B00780A1251
:10D6900008917C007D007A3B7B0012127C7404129E
:10D6A00008A4E9600302D78F850882850983E06EAC
:10D6B000600302D78F7A117B001211F28A0A8B0B5A
:10D6C000EA450B700302D78F780A120891750C1186
:10D6D000750D00780C1208917C007D007A3A7B0071
:10D6E00012127C74041208A4E9600302D77B780844
:10D6F000120891780C1208917C007D007A3A7B0028
:10D7000012127674041208A49013867401F09086A5
:10D710003E780C120B2890133B780C120AEA400654
:10D7200090133B12C99B85080C85090D750E007876
:10D730000C12088D7C117D00740312092F12113810
:10D7400074031208A490133B120B507411120B7F38
:10D75000120B44A818A919880C890D780C1208918D
:10D76000750C15750D00780C1208917C007D007AFF
:10D77000827B0012127674041208A47C117D007959
:10D7800000AA0AAB0B121144AA0AAB0B1211F87CC7
:10D79000117D007900AA08AB09121144AA08AB094F
:10D7A0001211F8741502D13F74F31203F274FF12D0
:10D7B0000957890C8A098B08ECFEEDFFEBC4335442
:10D7C000E0F8EA33333354F8450C488E828F83F007
:10D7D000A3AE82AF83740E120B7F120718EEFAEF1E
:10D7E000FB1211CE74041208A48A0A8B0BAE0AAF86
:10D7F0000BE5086019121EF48A0A8B0BAC0AAD0BFC
:10D80000EEFAEFFB1212E2EE2408FE50010F740153
:10D810006509703F750A3A750B00780A1208917411
:10D8200002120927880A890B780A1208917C017D67
:10D83000007A007B0012201474041208A4E9700D11
:10D84000851882851983E08E828F8380058E828F72
:10D8500083E4F074011208A4029D6D74F71203F2C0
:10D860008908ECFEEDFFEAFCEBFDEEFAEFFB12128D
:10D87000E27409120B7F120718EE2408FAE43FFB4A
:10D880001211CE74041208A48A828B830296D3E903
:10D89000F874020458F97402B900028004C333D941
:10D8A000FC541CF902087174F41203F274FE12099C
:10D8B000578908750A3A750B00780A1208917403A3
:10D8C000120927880A890B780A1208917C017D00C9
:10D8D0007A007B0012201474041208A4E9706074AA
:10D8E00001120B7FE06508604E750A3B750B0078EE
:10D8F0000A1208917402120927880A890B780A1201
:10D9000008917C017D007A007B00122014740412BF
:10D9100008A4E9702E851882851983E06508701FB8
:10D92000E0F87401120B7FE0C398500F85188285D0
:10D930001983E0F9121D987E3A80067E3B80027EB4
:10D94000007F00EEFAEFFB02897774F01203F274A5
:10D95000D21209577403120B7FE9F07401120B7F86
:10D9600012B250EC851882851983F07404120B7F73
:10D97000EDF07406120B7F740E12B896C0E07405B9
:10D98000120B7FD0E0F07404120B7FE0C0E074074C
:10D99000120B7FD0E0F0901355E0C0E07408120B3A
:10D9A0007FD0E0F07409120B7F7401F07403120B46
:10D9B0007FE0600302DAA075083A75090078081262
:10D9C00008917412120927880889097808120891A9
:10D9D0007C117D007A007B0012201474041208A4CC
:10D9E000E9600302DA947411120B7FA882A9837490
:10D9F0000E120B7F12C9C390133B7808120B2885B7
:10DA0000080C85090D850A0E850B0F9085B6780CDC
:10DA1000120A1190133B780C120B0A78081208892D
:10DA20007404120B7FE0F87405120B7FE028FCA34E
:10DA3000E03400FD7B017A01740C120B7FE0F912D7
:10DA40001D9E74041208A4121EF48A088B09AC08E7
:10DA5000AD09742112092F1212E290134312A70E7E
:10DA6000901343129559902A5978081209D64015F7
:10DA70009085B67808120B2890133B78081209831A
:10DA8000600302DB2F7A007B029011BEE0F91211D5
:10DA9000A402DB2F740E120B7FE4F0A3F002DB2F45
:10DAA000851882851983E0F87401120B7FE0281233
:10DAB000C36EE812DC1E39F583E0F9121DB08A0846
:10DAC0008B09A808A909743A6849600302DB8775C5
:10DAD000083A75090078081208917412120927880B
:10DAE00008890978081208917C117D007A007B0072
:10DAF00012201474041208A4E9700302DBBF740E30
:10DB0000120B7FE4F0A312B896F87401120B7F1287
:10DB1000DC247408120B7FE0F88E828F83E048F0DB
:10DB2000EE2405FCE43FFD742112092F1212E28558
:10DB30001882851983E0F87401120B7F12DC248EA1
:10DB4000828F83A3A982AA8389088A09750A00782B
:10DB50000812088D7C047D00742C120B7FAA82AB06
:10DB60008312113874031208A48E828F83E0C0E000
:10DB7000742D120B7FD0E0F0740E120B7F12B8914F
:10DB8000705279A102DC18743B6849600302DAFE26
:10DB900075083B750900780812089174121209275C
:10DBA0008808890978081208917C117D007A007B29
:10DBB0000012201474041208A4E9600302DAFE744F
:10DBC00011120B7FA882A983740E120B7FE8F0A3B9
:10DBD000E902DB067401120B7F12071C7423120981
:10DBE00037740712092F7405120B7FE0F9121DBC60
:10DBF00074021208A4E9FE851882851983E0F8747E
:10DC000001120B7F12E30012DC2D7411120B7FAA9C
:10DC100082AB83121144EEF9742E02D13FEA240D37
:10DC2000F582E422E028FEA3E03400FF22E054F86D
:10DC3000F07C107D0079002274F01203F274E81277
:10DC400009577403120B7FE9F07404120B7F12B0B2
:10DC5000BFEAFEEBFF7508007509008E828F83A373
:10DC6000A3A3A3A3A3A3A3A312C9AC120B7F12C99E
:10DC7000C37401120B7F12C3B812203E9013E974D3
:10DC800044F0A3742012D52EF88E828F83E028F5FD
:10DC90000BA3A3A3E0C394048E828F83A3A3E050BD
:10DCA00009250BF50B750A008002F50A8E828F8319
:10DCB000A3A3A3E0F9121DC8E9851882851983F092
:10DCC0007428120B7FE0F50EA3E0F50FAA0AA80B4B
:10DCD000E50E28F8E4350FF9E82AF8E439F9740676
:10DCE000120B7F12C9C7120B7F12BCEFA3A36003F4
:10DCF00002DD88E0C3940440037509017408120929
:10DD000027880C890D780C1208917403120B7F126E
:10DD1000071CE50BF50C750D00780C120891780EB8
:10DD2000120891EAF50C780C12089112DDF4120831
:10DD3000917B027410120B7F12D577740C120B7F3B
:10DD4000E0FAA909122062740C1208A4E9F9600330
:10DD500002DDF17800851882851983E0FAE8C39A1C
:10DD6000400302DDF1E8FA7408120B7F12DF0AE0CB
:10DD7000C0E07406120B7FE02AFCA3E034008C8222
:10DD8000F583D0E0F00880CDE0C39404400375082B
:10DD9000017408120927880C890D780C12089174F7
:10DDA00003120B7F12071CE50BF50C750D00780CA8
:10DDB000120891780E1208917408120B7FE0FAE5B0
:10DDC0000A2AF50CE43400F50D780C12089112DDE6
:10DDD000F41208917B027410120B7F12D577740C29
:10DDE000120B7FE0FAA908122068740C1208A4E94B
:10DDF000F902D13DA80BE50E28F50AE4350FF50B25
:10DE0000780A2274F71203F2E9FE90134512B891D2
:10DE1000600AEEF912DE2312056A8002790102AC73
:10DE200067F8A312C6AB2274F71203F2E9FE90134F
:10DE30004712B891600AEEF912DE2312056A8002D9
:10DE4000790002AC6774F11203F274E0120957789A
:10DE500000742F120B7F129C69EE2812BCE364360B
:10DE6000C0E0851882851983E58228F582E4358330
:10DE7000F583D0E012E32C40E07431120B7F12E303
:10DE8000121208918C0A8D0B780A120891EAFCEBA9
:10DE9000FD7901740412092F121DD474041208A410
:10DEA00085080C85090D750E00780C12088D7C1004
:10DEB0007D00741312092F12113874031208A4780C
:10DEC00000E8FAEE2A12BCE3645CC0E085188285A3
:10DED000198312DF0AD0E012E32C40E5780812081B
:10DEE0009175088075090078081208917414120958
:10DEF000377901740412092F121DD474041208A476
:10DF000074201208A47F0702060912DF0E22E582A0
:10DF10002AF582E43583F5832274F01203F274DF6C
:10DF2000120957E9851882851983F08A0C8B0D8CAC
:10DF30000E8D0F7431120B7F12E2ED74037808120C
:10DF40000B19AA0874047808120B19AE08AF09EA75
:10DF5000540FF50B7C107D0079007433120B7F1287
:10DF6000C3B8121144851882851983E0606974333F
:10DF7000120B7F12E32012088D7C107D00740412B6
:10DF8000092F12113874031208A4850C08850D0995
:10DF9000780812088D7C107D007436120B7F12C336
:10DFA000B812113874031208A47433120B7F12E3F1
:10DFB0000C12092F121DDA7800E8FAE50C2A12D5A6
:10DFC0003CFC7433120B7F12E32940ED7431120BC9
:10DFD0007FE0248012A711850E0C850F0DEEF8EF5F
:10DFE000F9E824FF1EE934FFFFE849606F7433123B
:10DFF0000B7F12E32012088D7C107D00740412093F
:10E000002F12113874031208A4850C08850D0978A5
:10E010000812088D7C107D007436120B7F12C3B875
:10E0200012113874031208A47433120B7F12E30C1C
:10E0300012092F121DDA7800850C82850D83E0FC11
:10E04000E8FA7433120B7F12E33312E2D885820CA4
:10E0500085830D08E8C39410508380DCE50B6003D2
:10E0600002E0FF7433120B7F12E32012088D7C1044
:10E070007D00740412092F12113874031208A47C55
:10E080000E7D0079007433120B7F12C3B812114455
:10E090007433120B7F12C6A47480F07431120B7F9C
:10E0A000A3E0C0E07433120B7F12B85AD0E0F074D2
:10E0B00031120B7FE0C0E07433120B7F12B86CD0CA
:10E0C000E0F0780812088D7C107D00741412092F7E
:10E0D00012113874031208A47433120B7F12E30C6C
:10E0E00012092F121DDA7800E8FA7411120B7F1250
:10E0F000E2E1120B7F12E329400302E2D380E9C37D
:10E10000940E7433500302E223120B7F12E32012A9
:10E11000088D7C107D00740412092F1211387403CD
:10E120001208A47C107D0079007433120B7F12C397
:10E13000B8121144750E00780C12088DAC0B7D00DE
:10E140007436120B7F12C3B812113874031208A46C
:10E15000A80B7433120B7F12E2F9780812088D7C39
:10E16000107D00741412092F12113874031208A4C0
:10E170007433120B7F12E30C12092F121DDA780090
:10E18000E8FA7411120B7F12E2E1120B7F12E329FD
:10E1900040EE7433120B7F12E31212088D7C107D57
:10E1A00000740412092F12113874031208A47C0E93
:10E1B0007D0079007433120B7F12C3B812114474BE
:10E1C00031120B7FA3E0C0E07433120B7F12B85AF8
:10E1D000D0E0F07431120B7FE0C0E07433120B7F9B
:10E1E00012B86CD0E0F0780812088D7C107D0074B5
:10E1F0001412092F12113874031208A47433120B6D
:10E200007F12E30C12092F121DDA7800E8FA74115C
:10E21000120B7F12E2E1120B7F12E329400302E2AC
:10E22000D380E9120B7F12E32012088D7C107D0051
:10E23000740412092F12113874031208A47C0E7D85
:10E240000079007433120B7F12C3B8121144750E9B
:10E2500000780C12088DAC0B7D007436120B7F1207
:10E26000C3B812113874031208A4A80B7433120B2C
:10E270007F12E2F97431120B7FA3E0C0E074331215
:10E280000B7F12B85AD0E0F07431120B7FE0C0E07F
:10E290007433120B7F12B86CD0E0F0780812088D3E
:10E2A0007C107D00741412092F12113874031208A7
:10E2B000A47433120B7F12E30C12092F121DDA78AB
:10E2C00000E8FA7411120B7F12E2E1120B7F12E3E5
:10E2D0002940EE742102D13FF0850C82850D83A385
:10E2E0002212DF0EE0FC743322A3A3A3A312E2F1F7
:10E2F00022E0F508A3E0F5092212E3007480F02281
:10E30000E028FAA3E034008A82F5832212D57B74D8
:10E31000012212E2F17808228E828F83A3A3A3A3A5
:10E3200012E2F1750A0078082212E333F008E8C31C
:10E33000941022E02AF9A3E034008982F583E06C8E
:10E340002274F61203F2EAFEEBFF8C088D0912200C
:10E350003EAC08AD09EEFAEFFB12204402A4D974DA
:10E36000F71203F274F31209578518828519837422
:10E3700002F014120B7F12E81B120B7FAA82AB83F0
:10E380001219CC7416120B7F12E3AD700A740B12C3
:10E390000B7F12E3A28008740B120B7F12E3BE0204
:10E3A000EB4112E3C9E8F0A3E9F079002212E7D2C9
:10E3B000FEE9FFAA18AB19121A08E964012212E358
:10E3C000C9E8F0A3E9F079C822E0F8A3E0F98E8269
:10E3D0008F832274F71203F274F3120957ECFEEDE7
:10E3E000FF8518828519837402F0EAFCEBFD740343
:10E3F000120B7FAA82AB831219CCAA18AB1912197F
:10E40000FCE96401700A740B120B7F12E3A280080E
:10E41000740B120B7F12E3BE02EB4174F71203F28E
:10E4200074F1120957AC18AD19121846E9FE7022A2
:10E430007402120B7F7402F012EB26740D120B7F24
:10E4400012E87C740212092F1219EAE964016002D1
:10E450007E01EEF9740F02EB4374F71203F2E9FE4A
:10E4600090128412EB3C70317A0F7B001211F29003
:10E47000128412F227F9EA4960257800790012E542
:10E480007C74FEF0A30412E830A3A3E4F0A3F00828
:10E49000E870010912E4E540E5EE70031218C402C9
:10E4A000EB4674F71203F28C828D8312E7C660305C
:10E4B0007800790012E5E1FEA3E03FFF8E82F5834C
:10E4C000E06A7003A3E06B700D8C828D83EEF0A385
:10E4D000EFF07900800C08E870010912E4E540D4FF
:10E4E00079C802EB46C39403E994002274F712033F
:10E4F000F274FE120957ECFEEDFF8C82F583E4F016
:10E50000A3F07508C8AC18AD19121846E97010EEE2
:10E51000FCEFFD85188285198312EB1FE9F508A928
:10E520000802E80C74F71203F274FE120957ECFEAD
:10E53000EDFFAC18AD19121846E9703B9012841229
:10E54000EB3C60337800790012E57C12E7D985183E
:10E5500082851983E06C7003A3E06D701012F223C2
:10E56000740B120B7F12ED5412E3A5800C08E870B7
:10E57000010912E4E540D179C802E80C12E5848A69
:10E5800082F58322E8FAE9FBEA75F005A4FAACF01B
:10E5900075F005EBA42CFB901284E02AFAA3E03B73
:10E5A000FB2274F71203F290128412EB3C602D7878
:10E5B00000790012E5E1F508A3E03F850882F583C4
:10E5C000E06A7003A3E06B70098C828D8312E3A56F
:10E5D000800C08E870010912E4E540D779C802EB25
:10E5E00046E8FEE9FFEE75F005A4FE85F00875F03B
:10E5F00005EFA42508FF901284E02E2274F0120388
:10E60000F274FC120957EAFEEBFF74021209378A12
:10E61000828B8312E81712186AE9F50A7A187B00D0
:10E620001211F28A0C8B0DEA4B603B7C187D00794D
:10E6300000121144EE12E7DF780C120891750E18E3
:10E64000750F00780E1208917C007D0012E81112FF
:10E65000F3A01208A4850882850983E4F0A3F0AA38
:10E660000CAB0D1211F88E828F8374FEF0A304F0B0
:10E670008E828F83A3A3A3A3E4F0E50A600302E7DD
:10E680004E7402120B7F12E817EA75F005A4FEA87B
:10E69000F075F005EBA428FF90128412EB3C603B70
:10E6A000901284E02EF508A3E03FF50978081208DF
:10E6B000917508057509007808120891EA75F0054A
:10E6C000A4A8F075F005EBA428FBEE2402FCE43BC3
:10E6D000FD7A4C7B0012F3A01208A4A818A919888F
:10E6E00008890978081208917508027509007808E8
:10E6F00012089112FBC91208A4E9705212F11EE02F
:10E7000064FE7003A3E0F4851882851983701512E6
:10E71000EB3C6014851882851983E024FFF0A3E0A8
:10E7200034FF800312EF65F0A818A9198808890939
:10E730007808120891750802750900780812089186
:10E740007C007D007A4C7B0012F3A01208A47404B4
:10E750001208A47F0802060974F71203F28A828B5A
:10E760008312E7C6605B7C007D00ECF8EDF9E8758C
:10E77000F005A4F8AEF075F005E9A42EF990128426
:10E78000E028FEA3E039FF8E82F583E064FE70038B
:10E79000A3E0F4701F8A828B83EEF0A3EFF0901257
:10E7A00084E028FAA3E0398A82F583A3A3A3A3E433
:10E7B000F0F9800F0CEC70010DC39403ED94004050
:10E7C000A979C802EB46E4F0A3F090128412E7D2D4
:10E7D0004922E0F8A3E0F9E822E0FCA3E0FD2224CE
:10E7E00002F8E43F8808F5092274F71203F274FE78
:10E7F000120957AC18AD1912185EE9FE700C851895
:10E800008285198312E817121870EEF9740202EB70
:10E810004385088285098312EE2222EAF0A3EBF0F9
:10E8200074032212E82722E0F8A3E0F5838882220D
:10E83000F08A828B8322AA0AAB0B121D3274022249
:10E84000D083D082020871C082C0839011C1E0647D
:10E8500005700C7A807B009011BEE0F91211A48043
:10E86000DF74F71203F2121852121D74121D4402C3
:10E87000EB46F088828983E02212ED58E8F0A3E9A4
:10E88000F02274F61203F274F1120957EAFEEBFF5C
:10E890007402120B7FE4F0EAFCEBFD7405120B7FAF
:10E8A000AA82AB831212E2121D4AE9702874021286
:10E8B000092F1219FCE96401601BA818A91988081E
:10E8C00089097808120891EEFCEFFD7A007B0012AE
:10E8D000EB081208A4740F02EB6274F21203F274D4
:10E8E000D8120957EAFEEBFFEA2416F50AE43FF5D1
:10E8F0000BAA0AFB1219069015AAE064016005E054
:10E900006402701E780A120891750808750900786B
:10E91000081208917C087D007A117B0112F3A01285
:10E9200008A4AA0AAB0B12188E8E828F83A3A3A30E
:10E93000A3E0F8EE2406F508E43FF50974016860E9
:10E940000574066870727800E8FAEE2AF582E43FF2
:10E95000F583A3A3A3A3A3A3E0700708E8C39410BF
:10E9600040E67410687031901386E0704574181298
:10E9700009377A627B001218E87900741812092F9F
:10E98000121D927900121D987C107D007900741878
:10E9900012092F121144801A12EB0EF9AA08AB09C2
:10E9A000121D92901386E070098E828F83E0F91217
:10E9B0001D9812188202EAFE740468600302EA815C
:10E9C0007405120927880C890D780C1208917402BD
:10E9D00012093712E8361208A48A0A8B0BAE0AAF66
:10E9E0000B851882851983E0700302EAFE74151204
:10E9F0000B7FE0700C7417120B7FAA82AB83121D81
:10EA0000207415120B7F7401F07416120B7FE4F062
:10EA10007409120B7F12F7F0120B7F12F3AD74170B
:10EA2000120B7FE4F07405120927880A890B780A13
:10EA3000120891750A13750B00780A12089112F3E7
:10EA4000981208A478081208917C107D007A027B45
:10EA50000112F3921208A4E9701E78081208917549
:10EA6000081075090078081208917C007D007A0270
:10EA70007B0112F3A01208A47A0379011222F0801C
:10EA80007D74036870787403120937AA0AAB0B12FD
:10EA90001846E960297403120927880C890D780C3F
:10EAA000120891AC0AAD0B7AFE7BFF12EB0812083C
:10EAB000A47D007C007900AA0AAB0B1217DA74015E
:10EAC0001209377403120B7F12EB1F7401120B7FB4
:10EAD00012EB3C701B740112092F121876E97010AA
:10EAE0007403120B7F12EB2C7401120B7F12E87966
:10EAF000AC08AD09AA0AAB0B1218A61218BE7428EE
:10EB00001208A47F06020609121840740222EE249D
:10EB100005F8E43FF9E8FEE9FF8882F583E0221278
:10EB2000EE221218582285188285198312EB3022A2
:10EB3000E0F8A3E0F92285188285198312E7D2490B
:10EB400022740D1208A47F01020609C082C0838AC4
:10EB5000828B83A3A3A3A3E0F9121D981216C0020F
:10EB6000E8401208A47F0202060974EE1203F27450
:10EB7000F01209578A108B11890AECFEEDFFEC4F59
:10EB8000700302EC44EA4B700302EC44A818A91984
:10EB900088088909780812089175081075090078A5
:10EBA000081208917C007D007A017B0112FBD112D2
:10EBB00008A4E50AF508851882851983E5822508E9
:10EBC000F50CE43583F50D750E00780C12088D7484
:10EBD00010C39508FC95E0FDEEFAEF12FA631208F7
:10EBE000A4A818A919880C890D780C12088DAC0AF4
:10EBF0007D00C3E49508F895E0F9EE28F8EF39F9BF
:10EC0000E82410FAE43912FA631208A47C00ECFA42
:10EC1000E5102AF8E43511F9EE2AFAE43FFB888280
:10EC20008983E0FD8A828B83E06D12E872F88A8224
:10EC30008B83A3A3A3A3A3A3A3A3E068F00CECC3BB
:10EC4000940840CA741002F7B874F11203F274FC0D
:10EC5000120957ECFEEDFF74021209278808890992
:10EC6000780812089174021209371218647402129B
:10EC700008A4E9F508600302ED487402120B7FE076
:10EC80002401F8A3E03402F985188285198312ED76
:10EC900054A3A312E87C12EE3D700302ED48780AFB
:10ECA000120891750C18750D00780C1208917C00F3
:10ECB0007D007404120B7F12EE1512FBD11208A412
:10ECC0008E0C8F0D750E00780C12088D7C107D0057
:10ECD000AA0AAB0B12FA641208A4E50A241412F370
:10ECE000A6E50A241012F3A6780A120891750C18EA
:10ECF000750D00780C1208917C007D007404120BD5
:10ED00007F12EE1512F3A01208A412EE28851882C5
:10ED100085198312E823A3A312EB2CE875F009A44C
:10ED2000F8AAF075F009E9A42AF9748628F8741293
:10ED300039F9E824F7F582E934ED12F3ABE824FB66
:10ED4000F582E934ED12F3ABA90874041208A47F2C
:10ED50000702060912ED5822E0FAA3E0F5838A8241
:10ED60002274F61203F274F4120957EAFEEBFF74F0
:10ED7000041209377A007B0079AB121C90121EF442
:10ED80008A088B09AC08AD09740412092F1212DC31
:10ED9000E9603B7404120937EEFAEFFB1219DEE961
:10EDA0006015AC18AD19740412092F12185EE970C1
:10EDB0000D12EDD2E070177900740C02EB62740250
:10EDC000120937740412092F121846E970E9790103
:10EDD00080E785188285198312EE1CA3A32274F79D
:10EDE0001203F274FE120957ECFEEDFFAC18AD19D8
:10EDF00012185EE9F9701385188285198312EE15D1
:10EE00008E828F83EAF0A3EB80078E828F83E4F0FB
:10EE1000A3F002E80C12EE1C12EE222212E827A345
:10EE2000A322E0FAA3E0FB227C187D007900AA0A65
:10EE3000AB0B121144AA0AAB0B1211F8227A187B01
:10EE4000001211F28A0A8B0BEA4B2274F61203F2BB
:10EE500074FE120957E4F508F50978081208917C48
:10EE6000117D007A4C7B0012F3921208A4E9FE7423
:10EE7000096E701F12F20E120891750802750900D2
:10EE800078081208917C007D007A4C7B0012F3A078
:10EE90001208A47508C075091278081208917C0838
:10EEA0007D007A717B0012F3921208A4E94EF97486
:10EEB0000202EB6274F41203F274FE120957851811
:10EEC0008285198312E7C6606C7E007F008E088FF2
:10EED00009E50875F005A4F508A8F075F005E50941
:10EEE000A428F509901284E02508F50AA3E0350965
:10EEF000F50B780A120891750A05750B00780A124D
:10EF0000089112F1EA1208A4901284E02508F8A3EF
:10EF1000E035098882F583E064FE7003A3E0F460C5
:10EF20000A85188285198312EF65F00EEE70010FC5
:10EF300012F1E34098A818A91988088909780812DD
:10EF4000089175080275090078081208917C007D07
:10EF5000007A4C7B0012F3A01208A474021208A4D9
:10EF60007F04020609E02401F0A3E034002274EEDD
:10EF70001203F274FE120957A818A9198808890902
:10EF8000780812089175080275090078081208912E
:10EF900012FBC91208A4E9600302F0EE12EB36700E
:10EFA0000302F0EE851882851983C3E09404A3E080
:10EFB0009400400302F0EE7A187B001211F28A10DE
:10EFC0008B11750800EA2410F50AE43511F50BE5FC
:10EFD0000875F005A4FEAFF0901284E02EF50CA3A6
:10EFE000E03FF50D780C120891750C05750D007851
:10EFF0000C120891EFF9EE2402FCE439FD12FBCD6E
:10F000001208A4E9600302F0D5901284E02EF8A360
:10F01000E03FF9E8FAE98882F583E064FE7003A333
:10F02000E0F4700302F0D5E5104511700302F0D54D
:10F030007810120891750C18780C1208917C007DDC
:10F04000008A828983A3A312F1151208A490860274
:10F05000780C120B28850A82850B83780C120A968D
:10F0600012F11EA3A3E0FEA3E0FFEE75F009A4F8E1
:10F07000AAF075F009EFA42AF9748628FC741239F5
:10F08000FD850A82850B83120B50EC24F7F582ED87
:10F0900034EDF583120B44E5102414F582E43511A8
:10F0A000F583120B50EC24FBF582ED34EDF5831261
:10F0B0000B447810120891750C18750D00780C121D
:10F0C000089112F3981208A47C187D007900AA1008
:10F0D000AB111211440508E508C39403500302EF75
:10F0E000CFE51045116007AA10AB111211F8750891
:10F0F000C07509127808120891750808750900781A
:10F10000081208917C007D007A7112FBCF1208A4CE
:10F11000740202F7B812EE2212127C7404229012CA
:10F1200084E02EF8A3E03F8882F5832274F4120372
:10F13000F274F912095712F20E120891750802754D
:10F14000090078081208917C007D007A4C7B00123F
:10F15000F3A01208A47C057D007900740212092F27
:10F160001211447E007F0074021209278808890961
:10F170007808120891750805750900780812089139
:10F1800012F1EA1208A40EEE70010F12F1E340D75B
:10F190007A187B001211F28A088B09EA4B603F7CD7
:10F1A000187D0079001211447E007F007808120853
:10F1B00091750A18750B00780A1208917C007D0081
:10F1C000EE2401FAEF340212F39F1208A40EEE703F
:10F1D000010F12F1E340D5AA08AB091211F8740728
:10F1E00002EF5DC39403EF940022EEF8EFF9E875A7
:10F1F000F005A4F8AAF075F005E9A42AF9E82402BC
:10F20000FCE439FD7A4C7B001212767404228518D6
:10F2100082851983E4F0A3F0A818A9198808890940
:10F220007808228E828F83EAF0A3EBF02274EC122E
:10F2300003F274ED12095789107C137D007900AA3E
:10F2400018AB191211447410120B7F74FFF07E007A
:10F250007F00EE2411F508EF3401F509A818A9196B
:10F26000880A890B780A1208917C137D00AA08ABE2
:10F270000912F3921208A4E9600302F368EEF8EFB2
:10F28000F9E875F009A4F8AAF075F009E912FCB3E1
:10F290002404F512E4350BF513E510A818A9198814
:10F2A0000C890D780C6034120891750C13750D00E3
:10F2B000780C1208917C007D00AA08AB0912F3A01B
:10F2C0001208A4850A82850B8312F3AD851282850C
:10F2D0001383F0A3F0A3F0A302F367120891750C57
:10F2E00013750D00780C1208917C007D00AA08AB04
:10F2F0000912FBD11208A49085CE780C120B288538
:10F300001882851983780C120A96A818A919880CF6
:10F31000890D780C120891750C13750D00780C127C
:10F3200008917C007D00AA08AB0912F3A01208A482
:10F33000851882851983120B50850A82850B8312EA
:10F340000B447404120B7F120B50851282851383B9
:10F35000120B447C137D007900AA18AB19121144DA
:10F360007410120B7F74FFF00EEE70010F12F1E3B8
:10F37000500302F252E51060077A007B00121D2054
:10F3800074131208A47F0C0206097C0C7D00EEFAAF
:10F39000EFFB12126A7402227C007D00EEFAEFFB92
:10F3A000121276740422F582E4350BF583E412F729
:10F3B000E82274EE1203F274E41209578A0C8B0DE2
:10F3C000ECFEEDFF7508A1851882851983E4F0EC49
:10F3D0002406F50AE43FF50BAA0AFB1219D2E970DC
:10F3E0000BAC0AAD0BAA0CAB0D121C9C74091209D4
:10F3F00027880C890D780C120891740212093712B3
:10F40000E8361208A48A0A8B0BA80AA90B9015AA41
:10F41000E064016005E06402703D8518828519830F
:10F42000E070347C087D007900740112092F1211FC
:10F43000447409120927880A890B780A1208917402
:10F4400002120937740312092F12E83A1208A48A2B
:10F450000A8B0BA80AA90BEE240FF50AE43FF50B63
:10F46000851882851983E0700302F570750800EE37
:10F470002420FAE43FFB7419120B7FE0604714600C
:10F480000E1460642405606024FE601602F58C9002
:10F4900015AAE06401700302F540E06402700B02FB
:10F4A000F5409015AAE064016005E0640270078AE7
:10F4B000828B837401F0850A82850B837403F0A329
:10F4C000740102F54B741B120B7F12F7D9850A8267
:10F4D000850B8312E87C8A828B83E4F0EE2421F58D
:10F4E00082E43FF583E48063E875F009A4F8AAF0AC
:10F4F00075F009E9A42AF9740C28F510740939F596
:10F500001112F7C0780C120B2885108285118378B0
:10F510000C12082D50559085B6780C120A118510E2
:10F5200082851183E50CF0A3E50DF0A3E50EF0A3B1
:10F53000E50FF09015AAE064016005E06402700E2A
:10F54000850A82850B837402F0A314F0803E741147
:10F55000120B7FA982AA83890C8A0D750E00780C84
:10F5600012088D12FA591208A480217508A2801C75
:10F570009015AAE0701612232CE97010850A828576
:10F580000B837403F0A37401F0750800A908741CC0
:10F5900002F7B874EE1203F274DF120957ECFEEDB5
:10F5A000FF7508A17414120B7FE4F07415120B7F21
:10F5B00012F227EC2406F50CE43FF50DAA0CFB1221
:10F5C00019D2E9700302F79F74011209278808898C
:10F5D0000978081208917402120937AA0CAB0D12AF
:10F5E000E83A1208A48A0A8B0BEE240FF508E43FD0
:10F5F000F50974FF6A700374FF6B700302F78D12D4
:10F60000F7CAAAF075F009E9A42AF974A128F5103F
:10F61000741239F511851882851983E060777411A9
:10F62000120B7FE0602114600E146030240560141A
:10F6300024FE601002F71D9015AAE06401602AE024
:10F640006402602502F7107413120B7F12F7D9853C
:10F650000882850983E8F0A3E902F71C9015AAE067
:10F6600064016005E06402700E8508828509837478
:10F6700002F0A31402F71C7409120B7FA982AA835B
:10F6800089088A09750A00780812088D12FA591239
:10F6900008A402F71D750E00780C12088D7C087DF9
:10F6A00000740C120B7FAA82AB8312FA641208A4B6
:10F6B0007411120B7F74FFF07412120B7F7401F03F
:10F6C00012115CEA540FC0E07413120B7FD0E0F00B
:10F6D0007401120B7F12F7F0120B7F12F7E212097E
:10F6E00027880C890D780C120891750C13750D0084
:10F6F000780C1208917C007D00AA0AAB0B12F3A0D3
:10F700001208A47C097D007900AA10AB11121144E3
:10F710008508828509837403F0A37401F0EE240E3A
:10F72000F582E43FF583E4F0851082851183120BA6
:10F730005012F7C0120B449085B67808120B28853A
:10F7400010828511837808120A96851082851183AC
:10F750007808120B2890860A780C120B2878087902
:10F760000C120383E50C450D450E450F702C8510DA
:10F7700082851183A3A3A3A3A3A3A3A37401F07AF7
:10F78000007B049011BEE0F91211A4800D8508825F
:10F790008509837403F0A37401F075080080157463
:10F7A0001412092F1219F6E9640170087414120971
:10F7B0002F1219EAA90874211208A47F0A02060967
:10F7C000EE2412F582E43FF58322EA24EFF8EB34CD
:10F7D000FEF9E875F009A4F822E02404F8E4340105
:10F7E000F92212F7E70422E4F0A3F0A3F0A3F02239
:10F7F00012F7E774052274F41203F274CE1209575B
:10F800008908C2007C0C7D007900AA18AB1912117E
:10F810004412191EE9F8A2E75002D20075090080CF
:10F8200039EE2475FE50010FA818A919880A890B12
:10F83000780A12089112F38A1208A4E9701AA20039
:10F840005016780A120891750A0C750B00780A1286
:10F85000089112F3981208A40509AE097F00902AB6
:10F8600074E493F8EEC39840B87C087D0079FF7487
:10F8700004120B7FAA82AB83121144EE2474FE5053
:10F88000010FA818A919880A890B780A1208911281
:10F89000F38A1208A4E9701AA2005016780A120816
:10F8A00091750A0C750B00780A12089112F39812E0
:10F8B00008A47C157D007900741D12092F121144D3
:10F8C000741D120927880A890B780A1208917C1581
:10F8D0007D007A827B0012F3921208A4E9702474EE
:10F8E000016508701E780A120891750A15750B00DB
:10F8F000780A1208917C007D007A827B0012F3A0C6
:10F900001208A47C117D007900740C12092F1211C9
:10F9100044740C120927880A890B780A1208917C12
:10F92000117D007A3A7B0012F3921208A4E9702448
:10F9300074016508701E780A120891750A11750B1A
:10F9400000780A1208917C007D007A3A7B0012F35D
:10F95000A01208A4740C120927880A890B780A12CD
:10F9600008917C117D007A3B7B0012F3921208A46F
:10F97000E9702474016508701E780A120891750AEE
:10F9800011750B00780A1208917C007D007A3B7B90
:10F990000012F3A01208A4743202EF5D74F1120396
:10F9A000F28C088D09743A6A7001EB6006743B6A48
:10F9B0004B701578081208917508107509007808C1
:10F9C0001208917C0102FA4A74036A700374016B95
:10F9D0007008750CDA750D29801974686A4B702DE2
:10F9E0009015AAE064016005E064027067750CEA96
:10F9F000750D29750E80780C12088D7C107D00AA7B
:10FA000008AB0912FA641208A47900804974026AEA
:10FA1000700374016B602174626A4B601BEA24FC02
:10FA2000F8EB34FEF9E849600FEA24FFF8EB34FD07
:10FA3000F9C3E812E4E6501C780812089175081022
:10FA400075090078081208917C007D0012FBD11224
:10FA500008A48002790A02ED4F7C087D00EE24188C
:10FA6000FAE43FFB12113874032274F41203F274A7
:10FA7000E812095789097C187D007900AA18AB198A
:10FA8000121144750800E5082401FEE43402FFA8C1
:10FA900018A919880A890B780A1208917C1812F3A0
:10FAA0008C1208A4E9701C740165097016780A129A
:10FAB0000891750A18750B00780A12089112F398CC
:10FAC0001208A40508EEC3940340BB741802EF5D4E
:10FAD00074F71203F2E9FE1218E2EEF91218EEEED4
:10FAE000F91218D002EB4674EE1203F27A1812FCE7
:10FAF000A7700302FBC6750800750900E50875F0DC
:10FB000009A4F8AAF075F009E509A42AF974862871
:10FB1000F50A741239F50BE50A12FC95707BE508BD
:10FB20002401FEE5093402FF780E120891751018C1
:10FB300075110078101208917C007D00EEFAEFFB41
:10FB400012FBD11208A4E97050850A82850B83123A
:10FB50000B50E50E2410F582E4350FF583120B44AB
:10FB6000850A82850B83A3A3A3A3120B50E50E2461
:10FB700014F582E4350FF583120B44780E120891C8
:10FB8000750A18750B00780A12089112F39812087A
:10FB9000A4850C82850D83E4F00508E50870020554
:10FBA00009C39403E5099400A2D265D0335003023F
:10FBB000FAFC7C187D007900AA0EAB0F121144AA42
:10FBC0000EAB0F1211F802F7BB7C007D007A4C7B64
:10FBD0000012127C74042274EE1203F27A1312FCE7
:10FBE000A7700302FC92750800750900E50875F01E
:10FBF00009A4F8AAF075F009E50912FCB312FC9506
:10FC00007075E5082411FEE5093401FF780E12082D
:10FC10009175101375110078101208917C007D0009
:10FC2000EEFAEFFB12FBD11208A4E9704A850A82B2
:10FC3000850B83120B50850E82850F83120B448532
:10FC40000A82850B83A3A3A3A3120B50850E828582
:10FC50000F83A3A3A3A3120B44780E120891750A75
:10FC600013750B00780A12089112F3981208A485F4
:10FC70000C82850D83E4F00508E50870020509C3D0
:10FC80009403E5099400500302FBECAA0EAB0F129B
:10FC900011F802F7BB2408F50CE4350BF50D850CC3
:10FCA00082F583E06401227B001211F28A0E8B0F31
:10FCB000EA4B22A42AF974A128F50A741239F50B2B
:10FCC000E50A2274F61203F274F812095790852996
:10FCD000AC18AD1974081207EDEA4B6006EAFEEBAA
:10FCE000FF800CA818A91988088909AE08AF09EE89
:10FCF000FCEFFD7A007B0079AB121C96EEFCEFFD69
:10FD00007AC07B121212E27508C0750912780812C7
:10FD1000089175080875090078081208917C007D23
:10FD2000007A717B0012F3A01208A4740802EB623F
:10FD300074F61203F274DA1209577C157D0079000B
:10FD4000741112092F12114474111209278808899D
:10FD500009780812089175081575090078081208C5
:10FD6000917C007D007A827B0012F3A01208A47CB3
:10FD7000117D007900AA18AB19121144A818A9190D
:10FD800088088909780812089175081175090078A2
:10FD9000081208917C007D007A3A7B0012F3A012D1
:10FDA00008A4A818A9198808890978081208917563
:10FDB000081175090078081208917C007D007A3BD3
:10FDC0007B0012F3A01208A4742602EB62C082C06A
:10FDD000839003B5E4F053F3FD53F5FE53FFFE901B
:10FDE00003B6F0A3F09003B8F002FF2F74F71203EC
:10FDF000F2E99003B9F09003B6EAF0A3EBF09003B8
:10FE0000B9E06033538CFE438C0143AB02D2BD7525
:10FE100089FD53ACF743AC0843AC01439A02758BA0
:10FE2000FE9003B8E06401701F7A107B009003B469
:10FE3000E0F91212B8801153ABFDC2BD7A107B00FD
:10FE40009003B4E0F91211A49003B87401F0FF021A
:10FE50000609EEF97F01020609C082C0837900A27B
:10FE6000A05005120D9CE9F99003B9E070099003C8
:10FE7000B5E0696026E9F0A2815004E9D2E5F99085
:10FE800003B6E0FAA3E0FBEA4B60107A009003B6F9
:10FE9000E0F8A3E0F583888212056A02FF2F74F769
:10FEA0001203F27E00EEFF7A017906120D48EAF89D
:10FEB00074FE2AC394255005EED2E0803274B62A2F
:10FEC000C3940F5005EED2E1802574C42AC3940E6A
:10FED0005005EED2E3801874D92AC394155005EE6C
:10FEE000D2E4800B74A72AC3940C5004EED2E2FE35
:10FEF000EF6E70B102FE52C082C0837800E589A225
:10FF0000E150057589FD7801E58BA2E05005758B00
:10FF1000FE8005E8A2E050179085D21207187A10EB
:10FF20007B009003B4E0F91212AC74041208A4D060
:10FF300083D082020871C082C08390038B7480F0EA
:10FF4000D083D08202087174F61203F2E9FCEAFD54
:10FF50007901ECC39408500E78008005E9C333F9A9
:10FF600008E8C39C40F6E942F2EA1460081460090C
:10FF700014600A800C7800800A781080067820804F
:10FF800002783090038BE0FAEC484AF5B6E5B4A26B
:10FF9000E750FA74FF6952F2E5BAFAA9BBE9FBC36C
:10FFA0009400A2D265D03350047A007B00ED146037
:10FFB0000814600D14601280188A088B0974088078
:10FFC000168A088B097406800E8A088B09740480CF
:10FFD000068A088B0974027808120ABAAA08AB09C3
:10FFE0007F0202060975B60FE5B4A2E750FAE9C32D
:10FFF00095BB5004790180027900020871020871F2
:020000040001F9
:10000000C082C083E9901124F002838374F4120348
:10001000F28A088B09EB5480604D800EEEFAEFFBFC
:10002000121366EEFAEFFB121168901124E0F91238
:10003000117A8A0A8B0BAE0AAF0BEE4F60208E82CC
:100040008F83E0641A60D5EEFAEFFB121300E9F932
:1000500074FF6960CEEEFAEFFB12116E80CCAA0835
:10006000E5096480FB80047A007B0002832F74F72B
:100070001203F27AFF02975174F61203F2E9FEEAD4
:10008000FF7A047B0012A94E6035EF8A828B83A32E
:10009000A3A3F0EE8A828B83A3A31280FCF09011BD
:1000A000331298E07009901133EAF0A3EB8047E037
:1000B000F988828983A3A3A3E06F70071211F879EE
:1000C000008036E8FCE9FD888289831298E070E1BF
:1000D00074FF6F700D8C828D83EAF0A3EB1280FCAD
:1000E000801490113312AB3990113312B2E98A8225
:1000F0008B83E8F0A3E9F07901029900F08A828B02
:1001000083E4F0A322C082C083EA12B2093BF583E4
:10011000E0FA9011338004888289831298E0601C91
:1001200088828983A3A3A3E0FBEA6B600574FF6B5D
:1001300070E588828983A3A3E0F9800279FF0283B6
:100140008374F41203F2EAFEEBFF8A82F58312A0B5
:1001500074121300E9F50874FF6970030282077ACC
:10016000197B00121162EA4B70030282078A828BAC
:100170008374341296B6A3EA2402FCE43BFD7406B1
:100180001207ED8E828F83128EDD12AECB8A828BA8
:1001900083A3A3A3A3A3A3A3A3ECF0A3ED128DA415
:1001A000A3A3A3A3A3EA240AFCE43BFD740C120757
:1001B000ED8E828F8312ADA4C0E0EA2416F582E4AE
:1001C0003BF583D0E0F0EE240CF8E43FF98882F5AB
:1001D0008312AECFEA2417F582E43BF583ECF0A35B
:1001E000ED128326E0FC74066C7005120C1080176B
:1001F00074086C7005120C16800D88828983E4F0F7
:10020000A3F0A90812116E790102832F74F412036E
:10021000F28A088B09ECFEEDFF7A081282A77004BF
:1002200079108043128313A3E50912876EA3A3A359
:10023000EEF0A3EFF0740C120B7F12A07488828989
:1002400083A3A3A3A312B2E7901129128768901188
:100250002960111283668003EAFCEB12876370F851
:100260008C828D8312830B02832F74F41203F2129B
:10027000829D70047910802212836B90112B12875B
:100280006890112B60111283668003EAFCEB1287E1
:100290006370F88C828D8312830B02832F89088A06
:1002A00009ECFEEDFF7A067B001211F28A0A8B0B35
:1002B000A80AA90BEA492274F41203F289088A09F0
:1002C000ECFEEDFF7A0A1282A770047910803A12D0
:1002D00083138A828B83A3A3A3E4F0A3128326E56E
:1002E00009128326A3EEF0A3EFF090112D12876878
:1002F00090112D60111283668003EAFCEB12876374
:1003000070F88C828D8312830B8024E8F0A3E9F0CF
:10031000790022128317228A828B83E4F0A312874A
:1003200076A3E508F022129749A3A3221208A47F1E
:100330000402060974F41203F212829D700479100B
:10034000802212836B90112F12876890112F6011F9
:100350001283668003EAFCEB12876370F88C828D4F
:100360008312830B80C9E0FCA3E0221283178A82E8
:100370008B83A3A3A3E509128772A3A3A3EEF0A323
:10038000EFF022D083D08202087174F41203F27469
:10039000F7120957E9FE8518828519837401F0EC7C
:1003A0007006EDC39406404D74036A4B60477401B8
:1003B000120927880A890B780A1208917C127D009D
:1003C0007A007B00EE1284001208A4E9601CE4F5B8
:1003D0000AF50B780A120891740312093774021295
:1003E000092F1213CC74021208A485188285198370
:1003F000E064017004790180027900740902832CA1
:10040000F912138474022274E81203F274FA1209C6
:100410005789128A168B178C088D091223EC8A14BF
:100420008B15EA4B70057902028597AA08AB09A9DA
:100430001212139CE9F50FA2E6401C90113112989C
:10044000E06014E82419F582E439F583E064017072
:1004500006E50FD2E6F50F7C067D007900AA18AB01
:1004600019121144741F120B7F12859C6009E0540D
:10047000FCF0E044018003E054FC129137A3129891
:10048000DE602B741E120B7FE0FE88828983A3122C
:10049000071CEEFD7402120B7FE05403FCAA08ABAC
:1004A00009A91212132474021208A4E97005790133
:1004B0000285977422120B7F1298E06012851882D1
:1004C000851983E04404F07402120B7F129B2C7494
:1004D00020120B7F12859C6005E044088003E054E5
:1004E000F7F07421120B7F12859C6005E0441080A8
:1004F00003E054EFF07424120B7FE0C0E0740412A8
:100500000B7FD0E0F07405120B7FEEF078038518B6
:1005100082851983E05404600278057425120B7FEC
:1005200012ADB9E82510FEE43511FF128B88606327
:10053000AC0AAD0BAA18AB191213727427120B7FF9
:10054000129FFA12088DAC10AD1112A3B11208A4BB
:10055000750C1E780C120895750C27750D11780C0A
:10056000120891780A1208918E0C8F0D780C1208DF
:10057000917808120891A90FAC14AD15AA16AB1703
:100580001223F874091208A4E9FEAA0AAB0B12118F
:10059000F880027E10EEF9740602B1EE1285A022F8
:1005A000E085188285198322EEF902AED874EA122A
:1005B00003F274FE120957890B8A148B158C0E8D69
:1005C0000F7E007F00750A007418120B7F12ADB900
:1005D000801112874F1213D88B09EE2AFEEF3509CE
:1005E000FF050A12AB42502EE50A75F006128B7415
:1005F0002403FEE43FFFA3A3E070E60EEE70010FBC
:1006000088828983A3A3A3A31287688882898360D1
:10061000C112875A80C2EEFAEFFB1211F28A088BE0
:10062000098A0C8B0DEA4B7003028737750A00802C
:1006300030A818A91988128913781212089178081D
:100640001208918A828B8312874F1213DE74041270
:1006500008A412AB33E50828F508E50939F50905C2
:100660000A12AB42506DE50A75F006128B7C12AB94
:100670001F12874712876E12873EF012972B128740
:100680003EA3F0E5082403F5085002050988828995
:1006900083E070CBEA24030812972F128747F0A358
:1006A0008582088583098A828B83A3A3A3A31283EF
:1006B000668C82F583E58245837003028631AC083F
:1006C000AD09AA82AB8388828983128B6E8A088BDC
:1006D00009808C780C1208918E088F09780812080E
:1006E000917420120B7F128D93120895E4F508F592
:1006F0000978081208917422120B7F128D93120848
:10070000957422120B7F128D93120895750800784C
:10071000081208957508017808120895AC0EAD0FFF
:10072000AA14AB15A90B128FCC1208A4E9FEAA0CCF
:10073000AB0D1211F880027E10EEF9028D0A1287BD
:100740004222128747A322E085088285098322126C
:10075000B2D6AA0EAB0FA90B22A3A3A3A3E0F91252
:1007600013C622FD8C828D8312B840EA4B22128779
:10077000722212877622F08A828B83A322EEF902FC
:100780008D0F74EC1203F2890A8A108B11ECFEEDC6
:10079000FF7414120B7F12885C75F003A4F50EE54C
:1007A000F012B4947003028857A808A9097C00804D
:1007B00034EC75F003A4FAABF0E50C2AFAE50D3B36
:1007C000FB8A82F583A3128BAAEA2402FA50010B5A
:1007D000F5828B83128FD2A3128861A3F0E82403E1
:1007E000F85001090C850C82850D83E0FAECC39A60
:1007F00040BF74016A700AA3E07006750E01750FA0
:10080000007808120891780E120891741C120B7F60
:1008100012895B120895E4F50CF50D780C1208911D
:10082000741E120B7F12895B120895741E120B7FC7
:1008300012895B120895750B00780B120895750BE1
:1008400004780B120895128FC21208A4E9FEAA08B8
:10085000AB091211F880027E100285A8129104E003
:100860002212877212886822128FD6A32274EC1289
:1008700003F2890A8A108B11ECFEEDFF7414120B3F
:100880007F12885CF50875090074027808120A70F6
:1008900085080E85090FAA0EAB0F12B499700302DA
:1008A00089567900803EE9F51275130074027812BA
:1008B000120A70E50C2512FCE50D3513FD8C82F54E
:1008C00083A31290E8129127A31290E8A3F0EC24DE
:1008D00003FC50010DF5828D83E01291211290EC02
:1008E00050010B09850C82850D83E0F8E9C398401F
:1008F000B5740168700AA3E07006750E01750F00EB
:100900007808120891780E120891741C120B7F124D
:10091000895B120895E4F50CF50D780C12089174BA
:100920001E120B7F12895B120895741E120B7F1228
:10093000895B120895750B00780B120895750B07EB
:10094000780B120895128FC21208A4E9FEAA08AB10
:10095000091211F880027E100285A8E0F50B780BD1
:100960002274E81203F274FE120957851882851961
:100970008312B2E989098C148D157E007F007508F9
:1009800000741A120B7F12ADB98009EE2402FEE446
:100990003FFF050812B8465041E50875F00D128B6F
:1009A000742404FEE43FFFE070E8A3E070DDEE2471
:1009B00005FEE43FFFE82404F50AE439F50B850A57
:1009C00082F583E0F91213BAE960C7850A82850BC4
:1009D00083E0F91213C0EE2980B4128B88700302F1
:1009E0008B558A0E8B0F750800801AE50C2409FAC6
:1009F000E4350DFB8A82128B5E12876E128BAA8CF5
:100A00000E8D0F050812B8464003028AEDE5087501
:100A1000F00D128B7C12A3CC85820C85830D128B7A
:100A2000A3850C82850D83A3AA82AB83128B96F0DB
:100A3000E50C2402F8E4350DF98882128B5E128BE6
:100A4000AFF0E50E2404F50E5002050F850C8285EB
:100A50000D83E070AEE50E2402FCE4350FFD850E3B
:100A600082850F83A3A882A9838A828B83E0600397
:100A70000289EBE50C2404F512E4350DF51385121B
:100A800082F583128BA3E50C2405F516E4350DF5EC
:100A900017851682128BA8851682851783129CA251
:100AA000F0E50C2407F8E4350DF98882F583128B04
:100AB00096128BAFA3F0E50E2405F50E5002050F3C
:100AC000851282851383E0F91213BAE97003028A52
:100AD00003AC0EAD0FE50C240BF582E4350DF58368
:100AE00012A074128B688A0E8B0F028A03780A1286
:100AF00008918E0C8F0D780C1208917422120B7FC6
:100B0000128D93120895E4F50CF50D780C120891EE
:100B10007424120B7F128D931208957424120B7F8C
:100B2000128D9312089575080078081208957508BB
:100B3000097808120895AC14AD15740B120B7F12CE
:100B4000A074A909128FCC1208A4E9FEAA0AAB0B63
:100B50001211F880027E10EEF9740202B1EEF583F4
:100B6000E0850E82850F8322851282851383E0F94A
:100B70001213B422128B7C128CA6EE22A4F8A9F0D8
:100B8000E51028F582E51122EEFAEFFB1211F28A48
:100B90000A8B0BEA4B22128B9A22E0850E82850F7C
:100BA00083A322128B60F022F583128FD6F022A34A
:100BB000A3128DA4128B9AA3A32274EA1203F289C2
:100BC0000B8A108B118C0E8D0F7E007F00750A0032
:100BD0007416120B7F12957D8003128C73850C8224
:100BE000850D8312AB4840F2EEFAEF12B498607EA6
:100BF000A808A909750A008003128CAE850C8285AD
:100C00000D83E0FAE50AC39A40EF78081208918E46
:100C10000C8F0D780C120891741E120B7F12911B11
:100C2000120895E4F50CF50D780C12089174201259
:100C30000B7F12911B1208957420120B7F12911BCF
:100C4000120895750A00780A120895750A0A780A3A
:100C5000120895AC0EAD0FAA10AB11A90B128FCCD8
:100C60001208A4E9FEAA08AB091211F880027E104E
:100C700002877DE50A75F005A4F8A9F0E50C28F5D2
:100C800082E50D128CA6A3A3A312B2EFA3A3E0F9F1
:100C90001213C68B09EA2403F8E43509F9EE28FE9D
:100CA000EF39FF050A2212A3CCA882A98322E50A04
:100CB00075F005A4FAABF0128CFE858214858315BD
:100CC000128FD612913288828983A3F0E51412A97B
:100CD0004535158A12F5138A82F583128868A3F0C8
:100CE000E82403FCE439FD85148285158312B83DA0
:100CF000128B688A128B13A812A913050A22E50C1D
:100D00002AF582E50D3BF583A32274021208A47F25
:100D10000E02060974F61203F274FE120957E9FE78
:100D2000740C120B7F128D99C0E07401120B7FD0EE
:100D3000E0F0A818A919880889097808120891759F
:100D4000080275090078081208917416120B7F12B8
:100D50008D931208957415120B7F12071C741612CE
:100D60000B7F128D931208957416120B7F128D93C0
:100D7000120895750800780812089575080B780810
:100D8000120895EEF9128FCC1208A474021208A46E
:100D9000029900E0F508780822128EE11285A0126F
:100DA0008DA4E022F088828983A32274EA1203F2E0
:100DB00089138A108B11ECFEEDFF7416120B7F1253
:100DC000B5F0E50A2402F50CE4350BF50D850C822F
:100DD000F583E004751200F50E750F00FAAB0F12E3
:100DE000B4997003028ED5850A82850B83128FDC3D
:100DF000801DEAFC850A82850B83A3A3A3E02CFB5C
:100E0000A3E034008B82128BA8A3A882A9830A8551
:100E10000C82850D83E0FBEAC39B40D6850A828560
:100E20000B83A3E0F87418120B7FE0F97419120B0E
:100E30007FE0FA741A120B7FE0FB74116870397846
:100E400008120891780E120891EBF50A780A120838
:100E500095E4F50AF50B780A120891EAF50A780A82
:100E6000120895E9F50A780A120895750A00780AB9
:100E7000120895750A12803C741368704F78081236
:100E80000891780E120891EBF50A780A120895E499
:100E9000F50AF50B780A120891EAF50A780A1208A1
:100EA00095E9F50A780A120895750A00780A120879
:100EB00095750A14780A120895EEFCEFFDAA10AB9E
:100EC00011A913128FCC1208A4E9F512AA08AB09D4
:100ED0001211F88003751210A912028D0F128EE103
:100EE0002212A10EF98882F5832274E81203F28996
:100EF000108A128B13ECFEEDFF7418120B7F129008
:100F0000F875F003A4A9F02401F50EE43912B494A5
:100F10007003028FBB850C82850D83128FDC802EBF
:100F2000EA75F003A4FCADF0E50C2CFCE50D3D12D8
:100F300090D4128FD212912E888289831291408888
:100F4000828983A3A3F0E82403F85001090A850AE3
:100F500082850B83E0FBEAC39B40C57808120891A9
:100F6000780E1208917420120B7F12911B120895B3
:100F7000E4F50AF50B780A1208917422120B7F121D
:100F8000911B1208957422120B7F12911B12089567
:100F9000750A00780A120895750A0D780A120895E4
:100FA000EEFCEFFDAA12AB13A910128FCC1208A40D
:100FB000E9FEAA08AB091211F880027E10EEF902D0
:100FC000B1F1EEFCEFFDAA10AB11A90A12132A74BD
:100FD0000B22128FD622E08882898322129CB2F0E3
:100FE000A3A882A9837A002274E81203F289128AE4
:100FF000108B11ECFEEDFF7418120B7F1290F8F5B8
:101000000875090074027808120A70E5082401F5D1
:101010000EE4350912B49470030290CF850C8285DA
:101020000D83129CA9A3AA82AB8379008034E9F5D1
:101030001475150074027814120A70E50C2514FC5E
:10104000E50D35151290D41290E812912E8A828BFC
:1010500083129140129121A3A3A3A31290EC5001FB
:101060000B09850A82850B83E0F8E9C39840BF78B5
:1010700008120891780E1208917420120B7F1291B9
:101080001B120895E4F50AF50B780A1208917422F0
:10109000120B7F12911B1208957422120B7F129172
:1010A0001B120895750A00780A120895750A1678B9
:1010B0000A120895EEFCEFFDAA10AB11A912128FCF
:1010C000CC1208A4E9FEAA08AB091211F880027E2E
:1010D00010028FBDFDEC2402F514E43DF5158514D6
:1010E00082F583228E828F83129CB222129CB2A33D
:1010F000A3A3F0EA2404FA22129104A385820A85AC
:10110000830BE022E0F50CA3E0F50D850C82F5835E
:10111000228E828F83A3A3A3A3A3A3E0F50A780A58
:10112000228A828B83A3A3F08C828D83A3221291C7
:101130003222129137E022F0851482851583A32292
:10114000A3F08C828D83A3A3A3A3E02274F11203E6
:10115000F274EB120957EAFEEBFFC200EA2420F812
:10116000E43F8808F5098882F583C3E09403A3E08F
:1011700094005005790102956D90113112B2E97415
:1011800002120B7F12B2E9740E120B7FE4F0A3F08F
:10119000740A120B7FE4F0A3F0740C120B7FE4F0DE
:1011A000A3F0EA2422F8E43F880AF50B8882F5834D
:1011B00012AECF7404120B7FAA82AB8312136C8A17
:1011C0000C8B0DA80CA90D740A120B7FEAF0A3EB8F
:1011D00012B2F912A074EAC398F8EB99F9850A8261
:1011E000850B83129575740C120B7F129B2C74085F
:1011F000120B7FE0901128F0EE2414F508E43FF57F
:1012000009850882F583E0F91223EC8A828B83E555
:10121000824583700C901131E4F0A3F079020295BD
:101220006D1295BC602BEE2404F50AE43FF50BA388
:1012300012071C740B120B7FE0FD7406120B7FE08B
:101240005403FC1295CC12132474021208A4E97002
:101250000C901131E4F0A3F0790302956D1295CC56
:1012600012139CE9F50E850A82850B8312A074EA9D
:10127000FCEBFD9011298004888289831298E0702C
:101280000302936988828983A3A312957DC3EA959B
:101290000CEB950D40E288828983A3A3A3A3C3E04E
:1012A0009CA3E09D40D2E8FCE9FD7404120B7FE0B2
:1012B0005407700D7409120B7FE0640B70030293E6
:1012C0006DE50EA2E6400302936DEE2419F582E46B
:1012D0003FF583E0600302936D7402120B7F129559
:1012E0009B707A7402120B7F1298DB70707C008501
:1012F0000882850983E0F91213A27401120B7F742E
:1013000001F07409120B7F129589120B7FE0F50C26
:10131000780C1208957407120B7F12071C750C01CC
:10132000780C1208957408120B7F12B4A912089554
:101330007405120927880C890D780C12089174091C
:10134000120B7F1295B3120B7F12958F120B7F1227
:1013500095A91208A47C011295CC1213A290113108
:10136000E4F0A3F0790502956D7C007D0074041211
:101370000B7FE0F854036003029493E85404600583
:101380007E840294D17409120B7FE0F8C394174055
:101390000302948FE8F50A750B007402780A120AAA
:1013A0007074E5250AF5827428350BF583E493F80B
:1013B000740193F9E849700302948F8508828509C6
:1013C00083E0C0E07410120B7FD0E0F0740C120BBD
:1013D0007F12A0747411120B7F12B2E9740A120BFF
:1013E0007F12A0747413120B7F12B2E974101209E9
:1013F0002F8882898312056A8B09A909740E120B42
:101400007F12B2E9EA4960487409120B7FE0F508DF
:1014100075090074027808120A7074E72508F582CD
:1014200074283509F583E493F87401938882F58371
:10143000E58245836012740212092F12056A740E48
:10144000120B7F1298E06008740E120B7F12B835F1
:101450007409120B7FE0F8605874026860537403DB
:1014600068604E7405686049740668604474086872
:10147000603F740C68603A7411686035741368607A
:1014800030741568602B740B6860267E0080427E85
:1014900082803EEC4D602A8C828D83A3A31295BC82
:1014A000601F740212092F12056AE9FE74FF6E7044
:1014B0000B901131E4F0A3F0F902956D74016E7098
:1014C000107404120B7FE0540460047E8380027E5B
:1014D000817402120B7F12959B706B7402120B7F4A
:1014E0001298DB70617404120B7FE0FA541070568E
:1014F0007401120B7FEEF07409120B7F12958912A2
:101500000B7F128D931208957407120B7F12071C24
:101510007508017808120895EA12AD7812089574DA
:101520000512092788088909780812089174091298
:101530000B7F1295B3120B7F12958F120B7F1295B2
:10154000A91208A4D200901131E4F0A3F0EE7004C7
:101550007900801974846EA200700A5004790780A3
:101560000C790680085004790980027908741512F4
:1015700008A4029E27E028F8A3E039F922129581F9
:1015800022E0F50CA3E0F50D2212B830740822E039
:101590002406FAA3E03400FB74092212A10EC82429
:1015A00015F582E438F583E02212ADAAF912134E44
:1015B00074072212B1F612B2D2740922A3A3A3A314
:1015C00012A10E8882F583E582458322850A8285F1
:1015D0000B8312B840850882850983E0F92274F4F0
:1015E0001203F28A088B09ECFEEDFF7C067D007980
:1015F00000121144850882850983E054FCF8A3E0B9
:10160000F98E828F83E05403FAE84A8508828509BF
:1016100083F0A3E912B893A2E25004D2F08002C290
:10162000F0850882850983E054FBF0A2F0E433F5ED
:101630000A750B007402780A120A70E0450A12B8A3
:1016400093A2E3850882850983E050044408800260
:1016500054F712B893A2E45004D2F08002C2F0858D
:101660000882850983E054EFF0A2F0E433F50A74B0
:1016700004780A120A70E0450A12A25D8508828584
:101680000983E0540460108E828F83E0FAA312A6CF
:10169000F61296BB50010F8E828F831296AF129670
:1016A000B61296AFA3F0EE12A9453FFB02832F12AC
:1016B0008742A3A3A32212A848A322A3A3F0A3E9CD
:1016C000F0EE2402FE2274F71203F28A828B83E08A
:1016D00054038C828D8312973E540412973754081A
:1016E0001297375410F88C828D83E048F0A3AC82B7
:1016F000AD838A828B83E05404601612972B129C70
:10170000A3128D9F8C828D83A3F0EC2402FC5001E8
:101710000D8A828B83A3A3A3129CA2129745129CCD
:10172000A3A3F0EC12A9453DFB8029EA2402F8E4CA
:101730003BF98882F58322F88C828D83E048F08A19
:10174000828B83E02212974922128776A3A3A3A358
:10175000221212FA7F01020609C082C08390112B67
:1017600080048A828B83128768600C8A828B83A3B1
:10177000A3E06970ED80047A007B00028383C0825D
:10178000C08390112D80048A828B83128768600C3D
:101790008A828B83A3A3E06970ED80047A007B00CA
:1017A00002838374F01203F28A088B09ECFEEDFFCA
:1017B00012137E8A0C8B0DEA4B60647C0080010C56
:1017C000850C82850D83A3A3A3A3A3A3A3E0F8ECB8
:1017D000C398504BECF50E750F007403780E120A87
:1017E00070850C82850D83A3A3A3A3129A208882FF
:1017F000F583E493FA740193FBE5086A7003E50945
:101800006B70BCA3A31298237002EF6B70B17410BD
:10181000120B7F12982D74081207CB790180027980
:10182000008015E493FA740193FBEE6A2212B2D69B
:1018300089838882221208A47F0802060974F6129E
:1018400003F2129869600512A07180047A007B008F
:1018500002990074F61203F2129869600512A06FE3
:1018600080047A007B0002990012137E8A828B83A7
:10187000E58245832274F71203F2E9FFEAFCEBFDEF
:1018800090112F8004888289831298E060468882B4
:101890008983A3A3E06F70ED7E0080010E888289AA
:1018A00083A3A3A3E0FAEEC39A50DAEE75F003A483
:1018B000FA85F008AB0888828983A3A3A3A3E02A52
:1018C000FAA3E03BFB8A82F583E06C7003A3E06D32
:1018D00070CA80047A007B0002975412B1F6A3A369
:1018E00012AB3DE8492274F61203F21213968A8273
:1018F0008B83E58245836006A3A3E0F9800279002B
:101900007F0202060974F61203F2ECFF1213968BA3
:1019100009A909EA496015EA2402F582E439F58348
:10192000EF6005E0D2E68003E0C2E6F080D274F01A
:101930001203F2EAFEEBFF8C098D0A1213788A0C6F
:101940008B0DEA4B7003029A1B750B007410120B7F
:101950007F12AB39E8FAE9FB80128C828D83A3A356
:10196000A3E493A2E35003029A01050B850C828540
:101970000D83A3A3A3E0F8E50BC3984003029A1BD1
:10198000E50BF50E750F007402780E120A70850CC7
:1019900082850D83129A20129AEE7002EF6970CA46
:1019A0008A828B83E0F88C828D83A3A3E493C3980F
:1019B00040B87411650970197401650A609CE50AE4
:1019C00070A88C828D83A3A3A3E493A2E24032800B
:1019D00099741365097044E50A700D8C828D83A398
:1019E000A3A3E493A2E080E57401650A6003029971
:1019F0006A8C828D83A3A3A3E493A2E1400302999E
:101A00006A7412120B7F129B0E74041207CB888229
:101A10008983A3A3129CA9790180027900029838D6
:101A2000A3A3A3A3E0250EF8A3E0350FF92274F0D9
:101A30001203F2EAFEEBFF8C0912137E8A0E8B0F63
:101A4000EA4B7003029AE97A007B007410120B7F54
:101A500012A10E880AF50B80050AEA70010B850EAB
:101A600082850F83A3A3A3A3A3A3A3E0F8C3EA984B
:101A7000EB940050748A0C8B0D7403780C120A706E
:101A8000850E82850F83A3A3A3A3129B00129AEE57
:101A90007002EF6970C3A3A3E493F50C740193F58E
:101AA0000D850A82850B8312AB39C3E50C98E50DD1
:101AB0009940A6EC2405F582E43DF583E493A2E782
:101AC000E43365096006E493A2E6508D7412120BAC
:101AD0007F129B0E74081207CB88828983A3A312FE
:101AE000A467129B2C790180027900029838E8FCE7
:101AF000E9FD8882F583E493F8740193F9EE682296
:101B0000A3A3A3A3E0250CF8A3E0350DF92212ABA3
:101B10003D8C828D83E8FCE9FD22750A00850C82EC
:101B2000850D8312AB3D851882851983E8F0A3E902
:101B3000F02274F11203F2EAFEEBFFECFAEDFBEE99
:101B40004F7003029C9FEC2402F50CE43BF50D8CD6
:101B5000828D83A3AC82AD838E088F09750A00E95C
:101B60001207A10441426C9C43447E9CE0E2379CF6
:101B7000E8E9E89B2108DA9B09E89B0AF99B0B3707
:101B80009C10DA9B18DA9B19E89B1AF99B1B379C6F
:101B900020DA9B21E89B22F99B23379C24489C2533
:101BA000519C265A9C27639C28DA9B29E89B2AF99A
:101BB0009B2B379C2C489C2D519C2E5A9C2F639C10
:101BC00030DA9B31E89B38E89B39379C3A639CEAD2
:101BD000379CF0639CF1909C9F9C8E828F83129C1B
:101BE000A9ECFAEDFB029C9F1290E41296B6129CAF
:101BF000A3F00A0AAB0D029C9F8E828F8378081295
:101C00000B288A828B83E50812A8487808120B28D3
:101C1000E5098C828D8312A8487808120B2874106D
:101C2000780812090E850C82850D83E508F0EA24F8
:101C300003FA506B0B80688E828F83120718121183
:101C4000CE74041208A48057780812088D7C058091
:101C500046780812088D7C06803D780812088D7C35
